{
  "contractName": "ActivityLog",
  "abi": [
    {
      "anonymous": false,
      "inputs": [
        {
          "indexed": true,
          "internalType": "uint256",
          "name": "logId",
          "type": "uint256"
        },
        {
          "indexed": false,
          "internalType": "string[]",
          "name": "imageUrls",
          "type": "string[]"
        }
      ],
      "name": "ActivityImagesStored",
      "type": "event"
    },
    {
      "anonymous": false,
      "inputs": [
        {
          "indexed": true,
          "internalType": "uint256",
          "name": "batchId",
          "type": "uint256"
        },
        {
          "indexed": true,
          "internalType": "uint256",
          "name": "participantId",
          "type": "uint256"
        },
        {
          "indexed": false,
          "internalType": "uint256",
          "name": "logId",
          "type": "uint256"
        },
        {
          "indexed": false,
          "internalType": "enum ActivityLog.ActivityCategory",
          "name": "category",
          "type": "uint8"
        },
        {
          "indexed": false,
          "internalType": "uint256",
          "name": "timestamp",
          "type": "uint256"
        },
        {
          "indexed": false,
          "internalType": "bool",
          "name": "isSystemGenerated",
          "type": "bool"
        }
      ],
      "name": "ActivityLogAdded",
      "type": "event"
    },
    {
      "anonymous": false,
      "inputs": [
        {
          "indexed": true,
          "internalType": "uint256",
          "name": "logId",
          "type": "uint256"
        },
        {
          "indexed": false,
          "internalType": "string",
          "name": "activityName",
          "type": "string"
        },
        {
          "indexed": false,
          "internalType": "string",
          "name": "description",
          "type": "string"
        }
      ],
      "name": "ActivityLogDetailsStored",
      "type": "event"
    },
    {
      "anonymous": false,
      "inputs": [
        {
          "indexed": true,
          "internalType": "uint256",
          "name": "logId",
          "type": "uint256"
        },
        {
          "indexed": false,
          "internalType": "string",
          "name": "fertilizer",
          "type": "string"
        },
        {
          "indexed": false,
          "internalType": "string",
          "name": "pesticide",
          "type": "string"
        },
        {
          "indexed": false,
          "internalType": "uint256",
          "name": "quantity",
          "type": "uint256"
        },
        {
          "indexed": false,
          "internalType": "string",
          "name": "unit",
          "type": "string"
        },
        {
          "indexed": false,
          "internalType": "int8",
          "name": "temperature",
          "type": "int8"
        },
        {
          "indexed": false,
          "internalType": "uint8",
          "name": "humidity",
          "type": "uint8"
        },
        {
          "indexed": false,
          "internalType": "string",
          "name": "weather",
          "type": "string"
        },
        {
          "indexed": false,
          "internalType": "string",
          "name": "healthStatus",
          "type": "string"
        },
        {
          "indexed": false,
          "internalType": "string",
          "name": "notes",
          "type": "string"
        }
      ],
      "name": "ActivityMetadataStored",
      "type": "event"
    },
    {
      "anonymous": false,
      "inputs": [
        {
          "indexed": true,
          "internalType": "uint256",
          "name": "logId",
          "type": "uint256"
        },
        {
          "indexed": false,
          "internalType": "uint256[]",
          "name": "productIds",
          "type": "uint256[]"
        }
      ],
      "name": "ActivityProductsLinked",
      "type": "event"
    },
    {
      "anonymous": false,
      "inputs": [
        {
          "indexed": true,
          "internalType": "uint256",
          "name": "logId",
          "type": "uint256"
        },
        {
          "indexed": false,
          "internalType": "string",
          "name": "activityName",
          "type": "string"
        },
        {
          "indexed": false,
          "internalType": "string",
          "name": "description",
          "type": "string"
        }
      ],
      "name": "TreeActivityDetailsStored",
      "type": "event"
    },
    {
      "anonymous": false,
      "inputs": [
        {
          "indexed": true,
          "internalType": "uint256",
          "name": "treeId",
          "type": "uint256"
        },
        {
          "indexed": false,
          "internalType": "uint256",
          "name": "logId",
          "type": "uint256"
        },
        {
          "indexed": false,
          "internalType": "enum ActivityLog.ActivityCategory",
          "name": "category",
          "type": "uint8"
        },
        {
          "indexed": false,
          "internalType": "uint256",
          "name": "timestamp",
          "type": "uint256"
        }
      ],
      "name": "TreeActivityRecorded",
      "type": "event"
    },
    {
      "anonymous": false,
      "inputs": [
        {
          "indexed": true,
          "internalType": "uint256",
          "name": "treeId",
          "type": "uint256"
        },
        {
          "indexed": false,
          "internalType": "uint256",
          "name": "farmerId",
          "type": "uint256"
        },
        {
          "indexed": false,
          "internalType": "string",
          "name": "reason",
          "type": "string"
        }
      ],
      "name": "TreeDeactivated",
      "type": "event"
    },
    {
      "anonymous": false,
      "inputs": [
        {
          "indexed": true,
          "internalType": "uint256",
          "name": "treeId",
          "type": "uint256"
        },
        {
          "indexed": false,
          "internalType": "string",
          "name": "variety",
          "type": "string"
        },
        {
          "indexed": false,
          "internalType": "string",
          "name": "coordinates",
          "type": "string"
        }
      ],
      "name": "TreeDetailsStored",
      "type": "event"
    },
    {
      "anonymous": false,
      "inputs": [
        {
          "indexed": true,
          "internalType": "uint256",
          "name": "treeId",
          "type": "uint256"
        },
        {
          "indexed": true,
          "internalType": "uint256",
          "name": "batchId",
          "type": "uint256"
        },
        {
          "indexed": false,
          "internalType": "uint256",
          "name": "harvestDate",
          "type": "uint256"
        },
        {
          "indexed": false,
          "internalType": "string",
          "name": "notes",
          "type": "string"
        }
      ],
      "name": "TreeLinkedToBatch",
      "type": "event"
    },
    {
      "anonymous": false,
      "inputs": [
        {
          "indexed": true,
          "internalType": "uint256",
          "name": "treeId",
          "type": "uint256"
        },
        {
          "indexed": false,
          "internalType": "string",
          "name": "treeQRCode",
          "type": "string"
        },
        {
          "indexed": true,
          "internalType": "uint256",
          "name": "farmerId",
          "type": "uint256"
        },
        {
          "indexed": true,
          "internalType": "uint256",
          "name": "regionId",
          "type": "uint256"
        },
        {
          "indexed": false,
          "internalType": "string",
          "name": "treeType",
          "type": "string"
        },
        {
          "indexed": false,
          "internalType": "uint256",
          "name": "plantedDate",
          "type": "uint256"
        }
      ],
      "name": "TreeRegistered",
      "type": "event"
    },
    {
      "inputs": [
        {
          "internalType": "string",
          "name": "_treeQRCode",
          "type": "string"
        },
        {
          "internalType": "uint256",
          "name": "_farmerId",
          "type": "uint256"
        },
        {
          "internalType": "uint256",
          "name": "_regionId",
          "type": "uint256"
        },
        {
          "internalType": "string",
          "name": "_treeType",
          "type": "string"
        },
        {
          "internalType": "string",
          "name": "_variety",
          "type": "string"
        },
        {
          "internalType": "string",
          "name": "_coordinates",
          "type": "string"
        }
      ],
      "name": "registerTree",
      "outputs": [
        {
          "internalType": "uint256",
          "name": "",
          "type": "uint256"
        }
      ],
      "stateMutability": "nonpayable",
      "type": "function"
    },
    {
      "inputs": [
        {
          "internalType": "uint256",
          "name": "_treeId",
          "type": "uint256"
        },
        {
          "internalType": "uint256",
          "name": "_farmerId",
          "type": "uint256"
        },
        {
          "internalType": "enum ActivityLog.ActivityCategory",
          "name": "_category",
          "type": "uint8"
        },
        {
          "internalType": "string",
          "name": "_activityName",
          "type": "string"
        },
        {
          "internalType": "string",
          "name": "_description",
          "type": "string"
        }
      ],
      "name": "addTreeCareActivity",
      "outputs": [
        {
          "internalType": "uint256",
          "name": "",
          "type": "uint256"
        }
      ],
      "stateMutability": "nonpayable",
      "type": "function"
    },
    {
      "inputs": [
        {
          "internalType": "uint256",
          "name": "_logId",
          "type": "uint256"
        },
        {
          "internalType": "string[]",
          "name": "_imageUrls",
          "type": "string[]"
        },
        {
          "internalType": "string",
          "name": "_fertilizer",
          "type": "string"
        },
        {
          "internalType": "string",
          "name": "_pesticide",
          "type": "string"
        },
        {
          "internalType": "uint256",
          "name": "_quantity",
          "type": "uint256"
        },
        {
          "internalType": "string",
          "name": "_unit",
          "type": "string"
        },
        {
          "internalType": "int8",
          "name": "_temperature",
          "type": "int8"
        },
        {
          "internalType": "uint8",
          "name": "_humidity",
          "type": "uint8"
        },
        {
          "internalType": "string",
          "name": "_weather",
          "type": "string"
        },
        {
          "internalType": "string",
          "name": "_healthStatus",
          "type": "string"
        },
        {
          "internalType": "string",
          "name": "_notes",
          "type": "string"
        }
      ],
      "name": "addTreeActivityMetadata",
      "outputs": [],
      "stateMutability": "nonpayable",
      "type": "function"
    },
    {
      "inputs": [
        {
          "internalType": "uint256",
          "name": "_treeId",
          "type": "uint256"
        },
        {
          "internalType": "uint256",
          "name": "_batchId",
          "type": "uint256"
        },
        {
          "internalType": "uint256",
          "name": "_farmerId",
          "type": "uint256"
        },
        {
          "internalType": "string",
          "name": "_harvestNotes",
          "type": "string"
        }
      ],
      "name": "linkTreeToBatch",
      "outputs": [],
      "stateMutability": "nonpayable",
      "type": "function"
    },
    {
      "inputs": [
        {
          "internalType": "uint256",
          "name": "_treeId",
          "type": "uint256"
        },
        {
          "internalType": "uint256",
          "name": "_farmerId",
          "type": "uint256"
        },
        {
          "internalType": "string",
          "name": "_reason",
          "type": "string"
        }
      ],
      "name": "deactivateTree",
      "outputs": [],
      "stateMutability": "nonpayable",
      "type": "function"
    },
    {
      "inputs": [
        {
          "internalType": "uint256",
          "name": "_batchId",
          "type": "uint256"
        },
        {
          "internalType": "uint256",
          "name": "_participantId",
          "type": "uint256"
        },
        {
          "internalType": "string",
          "name": "_activityName",
          "type": "string"
        },
        {
          "internalType": "string",
          "name": "_description",
          "type": "string"
        },
        {
          "internalType": "bool",
          "name": "_isSystemActivity",
          "type": "bool"
        }
      ],
      "name": "addActivityLog",
      "outputs": [
        {
          "internalType": "uint256",
          "name": "",
          "type": "uint256"
        }
      ],
      "stateMutability": "nonpayable",
      "type": "function"
    },
    {
      "inputs": [
        {
          "internalType": "uint256",
          "name": "_batchId",
          "type": "uint256"
        },
        {
          "internalType": "uint256",
          "name": "_participantId",
          "type": "uint256"
        },
        {
          "internalType": "enum ActivityLog.ActivityCategory",
          "name": "_category",
          "type": "uint8"
        },
        {
          "internalType": "string",
          "name": "_activityName",
          "type": "string"
        },
        {
          "internalType": "string",
          "name": "_description",
          "type": "string"
        },
        {
          "internalType": "bool",
          "name": "_isSystemActivity",
          "type": "bool"
        }
      ],
      "name": "addDetailedActivityLog",
      "outputs": [
        {
          "internalType": "uint256",
          "name": "",
          "type": "uint256"
        }
      ],
      "stateMutability": "nonpayable",
      "type": "function"
    },
    {
      "inputs": [
        {
          "internalType": "uint256",
          "name": "_logId",
          "type": "uint256"
        },
        {
          "internalType": "string[]",
          "name": "_imageUrls",
          "type": "string[]"
        },
        {
          "internalType": "uint256[]",
          "name": "_relatedProductIds",
          "type": "uint256[]"
        },
        {
          "internalType": "string",
          "name": "_fertilizer",
          "type": "string"
        },
        {
          "internalType": "string",
          "name": "_pesticide",
          "type": "string"
        },
        {
          "internalType": "uint256",
          "name": "_quantity",
          "type": "uint256"
        },
        {
          "internalType": "string",
          "name": "_unit",
          "type": "string"
        },
        {
          "internalType": "int8",
          "name": "_temperature",
          "type": "int8"
        },
        {
          "internalType": "uint8",
          "name": "_humidity",
          "type": "uint8"
        },
        {
          "internalType": "string",
          "name": "_weather",
          "type": "string"
        },
        {
          "internalType": "string",
          "name": "_healthStatus",
          "type": "string"
        },
        {
          "internalType": "string",
          "name": "_notes",
          "type": "string"
        }
      ],
      "name": "addActivityLogMetadata",
      "outputs": [],
      "stateMutability": "nonpayable",
      "type": "function"
    },
    {
      "inputs": [
        {
          "internalType": "string",
          "name": "_qrCode",
          "type": "string"
        }
      ],
      "name": "getTreeByQRCode",
      "outputs": [
        {
          "components": [
            {
              "internalType": "uint256",
              "name": "treeId",
              "type": "uint256"
            },
            {
              "internalType": "string",
              "name": "treeQRCode",
              "type": "string"
            },
            {
              "internalType": "uint256",
              "name": "farmerId",
              "type": "uint256"
            },
            {
              "internalType": "uint256",
              "name": "regionId",
              "type": "uint256"
            },
            {
              "internalType": "string",
              "name": "treeType",
              "type": "string"
            },
            {
              "internalType": "uint256",
              "name": "plantedDate",
              "type": "uint256"
            },
            {
              "internalType": "bool",
              "name": "isActive",
              "type": "bool"
            }
          ],
          "internalType": "struct ActivityLog.Tree",
          "name": "",
          "type": "tuple"
        }
      ],
      "stateMutability": "view",
      "type": "function",
      "constant": true
    },
    {
      "inputs": [
        {
          "internalType": "uint256",
          "name": "_treeId",
          "type": "uint256"
        }
      ],
      "name": "getTreeDetails",
      "outputs": [
        {
          "components": [
            {
              "internalType": "uint256",
              "name": "treeId",
              "type": "uint256"
            },
            {
              "internalType": "string",
              "name": "treeQRCode",
              "type": "string"
            },
            {
              "internalType": "uint256",
              "name": "farmerId",
              "type": "uint256"
            },
            {
              "internalType": "uint256",
              "name": "regionId",
              "type": "uint256"
            },
            {
              "internalType": "string",
              "name": "treeType",
              "type": "string"
            },
            {
              "internalType": "uint256",
              "name": "plantedDate",
              "type": "uint256"
            },
            {
              "internalType": "bool",
              "name": "isActive",
              "type": "bool"
            }
          ],
          "internalType": "struct ActivityLog.Tree",
          "name": "",
          "type": "tuple"
        }
      ],
      "stateMutability": "view",
      "type": "function",
      "constant": true
    },
    {
      "inputs": [
        {
          "internalType": "uint256",
          "name": "_farmerId",
          "type": "uint256"
        }
      ],
      "name": "getFarmerTrees",
      "outputs": [
        {
          "internalType": "uint256[]",
          "name": "",
          "type": "uint256[]"
        }
      ],
      "stateMutability": "view",
      "type": "function",
      "constant": true
    },
    {
      "inputs": [
        {
          "internalType": "uint256",
          "name": "_regionId",
          "type": "uint256"
        }
      ],
      "name": "getRegionTrees",
      "outputs": [
        {
          "internalType": "uint256[]",
          "name": "",
          "type": "uint256[]"
        }
      ],
      "stateMutability": "view",
      "type": "function",
      "constant": true
    },
    {
      "inputs": [
        {
          "internalType": "uint256",
          "name": "_treeId",
          "type": "uint256"
        }
      ],
      "name": "getTreeActivityLogs",
      "outputs": [
        {
          "components": [
            {
              "internalType": "uint256",
              "name": "logId",
              "type": "uint256"
            },
            {
              "internalType": "uint256",
              "name": "batchId",
              "type": "uint256"
            },
            {
              "internalType": "uint256",
              "name": "treeId",
              "type": "uint256"
            },
            {
              "internalType": "uint256",
              "name": "participantId",
              "type": "uint256"
            },
            {
              "internalType": "uint256",
              "name": "timestamp",
              "type": "uint256"
            },
            {
              "internalType": "enum ActivityLog.ActivityCategory",
              "name": "category",
              "type": "uint8"
            },
            {
              "internalType": "bool",
              "name": "isSystemActivity",
              "type": "bool"
            },
            {
              "internalType": "bytes32",
              "name": "dataHash",
              "type": "bytes32"
            }
          ],
          "internalType": "struct ActivityLog.ActivityLogEntry[]",
          "name": "",
          "type": "tuple[]"
        }
      ],
      "stateMutability": "view",
      "type": "function",
      "constant": true
    },
    {
      "inputs": [],
      "name": "getTotalTrees",
      "outputs": [
        {
          "internalType": "uint256",
          "name": "",
          "type": "uint256"
        }
      ],
      "stateMutability": "view",
      "type": "function",
      "constant": true
    },
    {
      "inputs": [
        {
          "internalType": "uint256",
          "name": "_farmerId",
          "type": "uint256"
        }
      ],
      "name": "getActiveTrees",
      "outputs": [
        {
          "internalType": "uint256",
          "name": "",
          "type": "uint256"
        }
      ],
      "stateMutability": "view",
      "type": "function",
      "constant": true
    },
    {
      "inputs": [
        {
          "internalType": "uint256",
          "name": "_batchId",
          "type": "uint256"
        }
      ],
      "name": "getActivityLogs",
      "outputs": [
        {
          "components": [
            {
              "internalType": "uint256",
              "name": "logId",
              "type": "uint256"
            },
            {
              "internalType": "uint256",
              "name": "batchId",
              "type": "uint256"
            },
            {
              "internalType": "uint256",
              "name": "treeId",
              "type": "uint256"
            },
            {
              "internalType": "uint256",
              "name": "participantId",
              "type": "uint256"
            },
            {
              "internalType": "uint256",
              "name": "timestamp",
              "type": "uint256"
            },
            {
              "internalType": "enum ActivityLog.ActivityCategory",
              "name": "category",
              "type": "uint8"
            },
            {
              "internalType": "bool",
              "name": "isSystemActivity",
              "type": "bool"
            },
            {
              "internalType": "bytes32",
              "name": "dataHash",
              "type": "bytes32"
            }
          ],
          "internalType": "struct ActivityLog.ActivityLogEntry[]",
          "name": "",
          "type": "tuple[]"
        }
      ],
      "stateMutability": "view",
      "type": "function",
      "constant": true
    },
    {
      "inputs": [
        {
          "internalType": "uint256",
          "name": "_batchId",
          "type": "uint256"
        }
      ],
      "name": "getSystemActivityLogs",
      "outputs": [
        {
          "components": [
            {
              "internalType": "uint256",
              "name": "logId",
              "type": "uint256"
            },
            {
              "internalType": "uint256",
              "name": "batchId",
              "type": "uint256"
            },
            {
              "internalType": "uint256",
              "name": "treeId",
              "type": "uint256"
            },
            {
              "internalType": "uint256",
              "name": "participantId",
              "type": "uint256"
            },
            {
              "internalType": "uint256",
              "name": "timestamp",
              "type": "uint256"
            },
            {
              "internalType": "enum ActivityLog.ActivityCategory",
              "name": "category",
              "type": "uint8"
            },
            {
              "internalType": "bool",
              "name": "isSystemActivity",
              "type": "bool"
            },
            {
              "internalType": "bytes32",
              "name": "dataHash",
              "type": "bytes32"
            }
          ],
          "internalType": "struct ActivityLog.ActivityLogEntry[]",
          "name": "",
          "type": "tuple[]"
        }
      ],
      "stateMutability": "view",
      "type": "function",
      "constant": true
    },
    {
      "inputs": [],
      "name": "getTotalActivityLogs",
      "outputs": [
        {
          "internalType": "uint256",
          "name": "",
          "type": "uint256"
        }
      ],
      "stateMutability": "view",
      "type": "function",
      "constant": true
    },
    {
      "inputs": [
        {
          "internalType": "uint256",
          "name": "_logId",
          "type": "uint256"
        },
        {
          "internalType": "uint256",
          "name": "_batchId",
          "type": "uint256"
        },
        {
          "internalType": "string",
          "name": "_activityName",
          "type": "string"
        },
        {
          "internalType": "string",
          "name": "_description",
          "type": "string"
        }
      ],
      "name": "verifyActivityDataHash",
      "outputs": [
        {
          "internalType": "bool",
          "name": "",
          "type": "bool"
        }
      ],
      "stateMutability": "view",
      "type": "function",
      "constant": true
    }
  ],
  "bytecode": "0x608060405234801561000f575f80fd5b50612b788061001d5f395ff3fe608060405234801561000f575f80fd5b506004361061011c575f3560e01c806363794895116100a9578063a92ac8121161006e578063a92ac8121461024b578063b45f1fd61461025e578063bbcbee1f14610271578063c591ea3714610284578063ed18d4ea14610297575f80fd5b806363794895146101ec57806369cc2a14146101ff5780636be61924146102125780637836178a146102255780639757079914610238575f80fd5b80633e69b27b116100ef5780633e69b27b1461017c57806341599d7a14610191578063438040ed14610199578063521e6fa9146101b95780635bf32ec9146101cc575f80fd5b80630a997b4f146101205780630e6e369c14610136578063374a8bf4146101565780633abb5afb14610169575b5f80fd5b5f545b6040519081526020015b60405180910390f35b610149610144366004611c37565b6102ba565b60405161012d9190611c82565b610123610164366004611dc9565b6103b6565b610149610177366004611c37565b6106df565b61018f61018a366004611e7f565b610905565b005b600154610123565b6101ac6101a7366004611c37565b6109ee565b60405161012d9190611ed4565b6101236101c7366004611f2b565b610a4d565b6101df6101da366004611fac565b610c17565b60405161012d919061202a565b61018f6101fa366004612171565b610e30565b6101df61020d366004611c37565b610ec5565b6101236102203660046122ce565b6110a7565b610149610233366004611c37565b611270565b61012361024636600461235e565b611385565b61018f6102593660046123df565b61144d565b61018f61026c366004612482565b61158e565b6101ac61027f366004611c37565b611664565b610123610292366004611c37565b6116c1565b6102aa6102a5366004612624565b611786565b604051901515815260200161012d565b606060065f8381526020019081526020015f20805480602002602001604051908101604052809291908181526020015f905b828210156103ab578382905f5260205f209060070201604051806101000160405290815f820154815260200160018201548152602001600282015481526020016003820154815260200160048201548152602001600582015f9054906101000a900460ff16600981111561036257610362611c4e565b600981111561037357610373611c4e565b81526020016005820160019054906101000a900460ff16151515158152602001600682015481525050815260200190600101906102ec565b505050509050919050565b5f808751116103ff5760405162461bcd60e51b815260206004820152601060248201526f14548818dbd919481c995c5d5a5c995960821b60448201526064015b60405180910390fd5b60038760405161040f9190612689565b9081526020016040518091039020545f1461045d5760405162461bcd60e51b815260206004820152600e60248201526d515220636f64652065786973747360901b60448201526064016103f6565b5f861161049d5760405162461bcd60e51b815260206004820152600e60248201526d24b73b30b634b2103330b936b2b960911b60448201526064016103f6565b5f85116104dd5760405162461bcd60e51b815260206004820152600e60248201526d24b73b30b634b2103932b3b4b7b760911b60448201526064016103f6565b5f805490806104eb836126b8565b90915550505f80546040805160e08101825282815260208082018c81528284018c9052606083018b9052608083018a90524260a08401819052600160c08501819052868852600290935293909520825181559451939492939192839290918201906105569082612756565b5060408201516002820155606082015160038201556080820151600482019061057f9082612756565b5060a0820151600582015560c0909101516006909101805460ff191691151591909117905560405183906003906105b7908d90612689565b9081526040805160209281900383018120939093555f8c815260048352818120805460018082018355918352848320018890558c825260058452918120805492830181558152919091200184905588908a9085907fb2c06837e88783b4c4efadd4746390d854cd3a168cb0be8fe64d061dae69d8939061063c908f908d908990612811565b60405180910390a4827fc2187321b4b91ad216d468e6272a74ca5ac50445d9bba9ca932d99b82f2ae9cc8787604051610676929190612846565b60405180910390a26106d0838a5f6040518060400160405280600c81526020016b151c995948141b185b9d195960a21b8152508b6040516020016106ba9190612873565b6040516020818303038152906040526001611917565b50919998505050505050505050565b5f818152600660209081526040808320805482518185028101850190935280835260609493849084015b828210156107c8578382905f5260205f209060070201604051806101000160405290815f820154815260200160018201548152602001600282015481526020016003820154815260200160048201548152602001600582015f9054906101000a900460ff16600981111561077f5761077f611c4e565b600981111561079057610790611c4e565b81526020016005820160019054906101000a900460ff1615151515815260200160068201548152505081526020019060010190610709565b5050505090505f805b825181101561081d578281815181106107ec576107ec6128a8565b602002602001015160c001511561080b5781610807816126b8565b9250505b80610815816126b8565b9150506107d1565b505f816001600160401b0381111561083757610837611d1a565b60405190808252806020026020018201604052801561087057816020015b61085d611be8565b8152602001906001900390816108555790505b5090505f805b84518110156108fa57848181518110610891576108916128a8565b602002602001015160c00151156108e8578481815181106108b4576108b46128a8565b60200260200101518383815181106108ce576108ce6128a8565b602002602001018190525081806108e4906126b8565b9250505b806108f2816126b8565b915050610876565b509095945050505050565b5f8481526002602052604081205490036109315760405162461bcd60e51b81526004016103f6906128bc565b5f848152600260208190526040909120015482146109615760405162461bcd60e51b81526004016103f6906128e5565b6109ac8483600260405180604001604052806012815260200171090c2e4eccae6e8cac840e8de4084c2e8c6d60731b81525061099c88611ac8565b6040516020016106ba919061290d565b5082847f51da26d467087aae05a7c4ef11344d6f4d6b06ad614f836e013bba27daef8b5442846040516109e0929190612948565b60405180910390a350505050565b5f81815260046020908152604091829020805483518184028101840190945280845260609392830182828015610a4157602002820191905f5260205f20905b815481526020019060010190808311610a2d575b50505050509050919050565b600180545f9182610a5d836126b8565b909155505060015460405142905f90610a7c9088908890602001612960565b6040516020818303038152906040528051906020012090505f6040518061010001604052808581526020018b81526020015f81526020018a815260200184815260200160016009811115610ad257610ad2611c4e565b815287151560208083019190915260409182018590525f8d8152600682528281208054600181810183559183529183902085516007909302019182559184015181830155918301516002830155606083015160038301556080830151600483015560a083015160058301805494955085949192909160ff191690836009811115610b5e57610b5e611c4e565b021790555060c08201518160050160016101000a81548160ff02191690831515021790555060e082015181600601555050888a7fd35df7104306862a1551bd6c87eb886369c0a1bab3b4fabe98031e9aa654db46866001878b604051610bc7949392919061298e565b60405180910390a3837f57d2fc7dc77de2bad5d183c62aadd9477a4ee039a4af22db56c43a69ff7f91738989604051610c01929190612846565b60405180910390a2509198975050505050505050565b610c546040518060e001604052805f8152602001606081526020015f81526020015f8152602001606081526020015f81526020015f151581525090565b5f600383604051610c659190612689565b9081526020016040518091039020549050805f03610cb65760405162461bcd60e51b815260206004820152600e60248201526d151c9959481b9bdd08199bdd5b9960921b60448201526064016103f6565b60025f8281526020019081526020015f206040518060e00160405290815f8201548152602001600182018054610ceb906126d0565b80601f0160208091040260200160405190810160405280929190818152602001828054610d17906126d0565b8015610d625780601f10610d3957610100808354040283529160200191610d62565b820191905f5260205f20905b815481529060010190602001808311610d4557829003601f168201915b505050505081526020016002820154815260200160038201548152602001600482018054610d8f906126d0565b80601f0160208091040260200160405190810160405280929190818152602001828054610dbb906126d0565b8015610e065780601f10610ddd57610100808354040283529160200191610e06565b820191905f5260205f20905b815481529060010190602001808311610de957829003601f168201915b50505091835250506005820154602082015260069091015460ff1615156040909101529392505050565b895115610e70578a7f7a1105376d5a0044ab812b943408ed5f779778310b65a618521293a675f2dec08b604051610e6791906129b9565b60405180910390a25b8a7f7f3fb3d605ba053211e048a151f2ca2215a1cd72108f460e878188398c0930db8a8a8a8a8a8a8a8a8a604051610eb099989796959493929190612a19565b60405180910390a25050505050505050505050565b610f026040518060e001604052805f8152602001606081526020015f81526020015f8152602001606081526020015f81526020015f151581525090565b5f828152600260205260408120549003610f2e5760405162461bcd60e51b81526004016103f6906128bc565b60025f8381526020019081526020015f206040518060e00160405290815f8201548152602001600182018054610f63906126d0565b80601f0160208091040260200160405190810160405280929190818152602001828054610f8f906126d0565b8015610fda5780601f10610fb157610100808354040283529160200191610fda565b820191905f5260205f20905b815481529060010190602001808311610fbd57829003601f168201915b505050505081526020016002820154815260200160038201548152602001600482018054611007906126d0565b80601f0160208091040260200160405190810160405280929190818152602001828054611033906126d0565b801561107e5780601f106110555761010080835404028352916020019161107e565b820191905f5260205f20905b81548152906001019060200180831161106157829003601f168201915b50505091835250506005820154602082015260069091015460ff16151560409091015292915050565b600180545f91826110b7836126b8565b909155505060015460405142905f906110d69088908890602001612960565b6040516020818303038152906040528051906020012090505f6040518061010001604052808581526020018c81526020015f81526020018b81526020018481526020018a600981111561112b5761112b611c4e565b815287151560208083019190915260409182018590525f8e8152600682528281208054600181810183559183529183902085516007909302019182559184015181830155918301516002830155606083015160038301556080830151600483015560a083015160058301805494955085949192909160ff1916908360098111156111b7576111b7611c4e565b021790555060c08201518160050160016101000a81548160ff02191690831515021790555060e082015181600601555050898b7fd35df7104306862a1551bd6c87eb886369c0a1bab3b4fabe98031e9aa654db46868c878b60405161121f949392919061298e565b60405180910390a3837f57d2fc7dc77de2bad5d183c62aadd9477a4ee039a4af22db56c43a69ff7f91738989604051611259929190612846565b60405180910390a250919998505050505050505050565b5f818152600260205260408120546060910361129e5760405162461bcd60e51b81526004016103f6906128bc565b5f82815260076020908152604080832080548251818502810185019093528083529193909284015b828210156103ab578382905f5260205f209060070201604051806101000160405290815f820154815260200160018201548152602001600282015481526020016003820154815260200160048201548152602001600582015f9054906101000a900460ff16600981111561133c5761133c611c4e565b600981111561134d5761134d611c4e565b81526020016005820160019054906101000a900460ff16151515158152602001600682015481525050815260200190600101906112c6565b5f8581526002602052604081205481036113b15760405162461bcd60e51b81526004016103f6906128bc565b5f8681526002602052604090206006015460ff166114035760405162461bcd60e51b815260206004820152600f60248201526e54726565206e6f742061637469766560881b60448201526064016103f6565b5f868152600260208190526040909120015485146114335760405162461bcd60e51b81526004016103f6906128e5565b5f61144287878787875f611917565b979650505050505050565b5f8381526002602052604081205490036114795760405162461bcd60e51b81526004016103f6906128bc565b5f838152600260208190526040909120015482146114a95760405162461bcd60e51b81526004016103f6906128e5565b5f8381526002602052604090206006015460ff166114fc5760405162461bcd60e51b815260206004820152601060248201526f416c726561647920696e61637469766560801b60448201526064016103f6565b5f838152600260209081526040808320600601805460ff191690558051808201909152601081526f151c99594811195858dd1a5d985d195960821b9181019190915261154e9185918591908582611917565b50827f5ff0745a587e8512811a0a31728c8b802a60cb145a8cbedbdb76b6bb239d14c88383604051611581929190612948565b60405180910390a2505050565b8a51156115ce578b7f7a1105376d5a0044ab812b943408ed5f779778310b65a618521293a675f2dec08c6040516115c591906129b9565b60405180910390a25b89511561160e578b7fd8fc280cebd958295c04bcc58f45e3d66cbac07aab5db7b5bd15a37de99726b98b6040516116059190611ed4565b60405180910390a25b8b7f7f3fb3d605ba053211e048a151f2ca2215a1cd72108f460e878188398c0930db8a8a8a8a8a8a8a8a8a60405161164e99989796959493929190612a19565b60405180910390a2505050505050505050505050565b5f81815260056020908152604091829020805483518184028101840190945280845260609392830182828015610a4157602002820191905f5260205f2090815481526020019060010190808311610a2d5750505050509050919050565b5f8181526004602090815260408083208054825181850281018501909352808352849383018282801561171157602002820191905f5260205f20905b8154815260200190600101908083116116fd575b505050505090505f805b825181101561177e5760025f848381518110611739576117396128a8565b60209081029190910181015182528101919091526040015f206006015460ff161561176c5781611768816126b8565b9250505b80611776816126b8565b91505061171b565b509392505050565b5f83815260066020908152604080832080548251818502810185019093528083528493849084015b8282101561186d578382905f5260205f209060070201604051806101000160405290815f820154815260200160018201548152602001600282015481526020016003820154815260200160048201548152602001600582015f9054906101000a900460ff16600981111561182457611824611c4e565b600981111561183557611835611c4e565b81526020016005820160019054906101000a900460ff16151515158152602001600682015481525050815260200190600101906117ae565b5050505090505f5b81518110156119095786828281518110611891576118916128a8565b60200260200101515f0151036118f7575f85856040516020016118b5929190612960565b604051602081830303815290604052805190602001209050808383815181106118e0576118e06128a8565b602002602001015160e0015114935050505061190f565b80611901816126b8565b915050611875565b505f9150505b949350505050565b600180545f9182611927836126b8565b909155505060015460405142905f906119469088908890602001612960565b6040516020818303038152906040528051906020012090505f6040518061010001604052808581526020015f81526020018c81526020018b81526020018481526020018a600981111561199b5761199b611c4e565b815287151560208083019190915260409182018590525f8e81526007808352838220805460018181018355918452928490208651939092029091019182559184015181830155918301516002830155606083015160038301556080830151600483015560a083015160058301805494955085949192909160ff191690836009811115611a2957611a29611c4e565b021790555060c08201518160050160016101000a81548160ff02191690831515021790555060e0820151816006015550508a7f316d4a9d91369b6bc642d18247c3642b27603be2a886b1cdae995cba3bcfbf64858b86604051611a8e93929190612ab8565b60405180910390a2837f31a0af62870f997c8e64776545c124a224683d91cf02db94821b661486740b598989604051611259929190612846565b6060815f03611aee5750506040805180820190915260018152600360fc1b602082015290565b815f5b8115611b175780611b01816126b8565b9150611b109050600a83612ada565b9150611af1565b5f816001600160401b03811115611b3057611b30611d1a565b6040519080825280601f01601f191660200182016040528015611b5a576020820181803683370190505b509050815b8515611bdf57611b70600182612af9565b90505f611b7e600a88612ada565b611b8990600a612b12565b611b939088612af9565b611b9e906030612b29565b90508060f81b838381518110611bb657611bb66128a8565b60200101906001600160f81b03191690815f1a905350611bd7600a88612ada565b965050611b5f565b50949350505050565b6040518061010001604052805f81526020015f81526020015f81526020015f81526020015f81526020015f6009811115611c2457611c24611c4e565b81525f6020820181905260409091015290565b5f60208284031215611c47575f80fd5b5035919050565b634e487b7160e01b5f52602160045260245ffd5b600a8110611c7e57634e487b7160e01b5f52602160045260245ffd5b9052565b602080825282518282018190525f919060409081850190868401855b82811015611d0d5781518051855286810151878601528581015186860152606080820151908601526080808201519086015260a080820151611ce282880182611c62565b505060c08181015115159086015260e090810151908501526101009093019290850190600101611c9e565b5091979650505050505050565b634e487b7160e01b5f52604160045260245ffd5b604051601f8201601f191681016001600160401b0381118282101715611d5657611d56611d1a565b604052919050565b5f82601f830112611d6d575f80fd5b81356001600160401b03811115611d8657611d86611d1a565b611d99601f8201601f1916602001611d2e565b818152846020838601011115611dad575f80fd5b816020850160208301375f918101602001919091529392505050565b5f805f805f8060c08789031215611dde575f80fd5b86356001600160401b0380821115611df4575f80fd5b611e008a838b01611d5e565b975060208901359650604089013595506060890135915080821115611e23575f80fd5b611e2f8a838b01611d5e565b94506080890135915080821115611e44575f80fd5b611e508a838b01611d5e565b935060a0890135915080821115611e65575f80fd5b50611e7289828a01611d5e565b9150509295509295509295565b5f805f8060808587031215611e92575f80fd5b84359350602085013592506040850135915060608501356001600160401b03811115611ebc575f80fd5b611ec887828801611d5e565b91505092959194509250565b602080825282518282018190525f9190848201906040850190845b81811015611f0b57835183529284019291840191600101611eef565b50909695505050505050565b80358015158114611f26575f80fd5b919050565b5f805f805f60a08688031215611f3f575f80fd5b853594506020860135935060408601356001600160401b0380821115611f63575f80fd5b611f6f89838a01611d5e565b94506060880135915080821115611f84575f80fd5b50611f9188828901611d5e565b925050611fa060808701611f17565b90509295509295909350565b5f60208284031215611fbc575f80fd5b81356001600160401b03811115611fd1575f80fd5b61190f84828501611d5e565b5f5b83811015611ff7578181015183820152602001611fdf565b50505f910152565b5f8151808452612016816020860160208601611fdd565b601f01601f19169290920160200192915050565b60208152815160208201525f602083015160e06040840152612050610100840182611fff565b905060408401516060840152606084015160808401526080840151601f198483030160a08501526120818282611fff565b91505060a084015160c084015260c0840151151560e08401528091505092915050565b5f6001600160401b038211156120bc576120bc611d1a565b5060051b60200190565b5f82601f8301126120d5575f80fd5b813560206120ea6120e5836120a4565b611d2e565b82815260059290921b84018101918181019086841115612108575f80fd5b8286015b848110156121465780356001600160401b0381111561212a575f8081fd5b6121388986838b0101611d5e565b84525091830191830161210c565b509695505050505050565b80355f81900b8114611f26575f80fd5b803560ff81168114611f26575f80fd5b5f805f805f805f805f805f6101608c8e03121561218c575f80fd5b8b359a506001600160401b038060208e013511156121a8575f80fd5b6121b88e60208f01358f016120c6565b9a508060408e013511156121ca575f80fd5b6121da8e60408f01358f01611d5e565b99508060608e013511156121ec575f80fd5b6121fc8e60608f01358f01611d5e565b985060808d013597508060a08e01351115612215575f80fd5b6122258e60a08f01358f01611d5e565b965061223360c08e01612151565b955061224160e08e01612161565b9450806101008e01351115612254575f80fd5b6122658e6101008f01358f01611d5e565b9350806101208e01351115612278575f80fd5b6122898e6101208f01358f01611d5e565b9250806101408e0135111561229c575f80fd5b506122ae8d6101408e01358e01611d5e565b90509295989b509295989b9093969950565b8035600a8110611f26575f80fd5b5f805f805f8060c087890312156122e3575f80fd5b86359550602087013594506122fa604088016122c0565b935060608701356001600160401b0380821115612315575f80fd5b6123218a838b01611d5e565b94506080890135915080821115612336575f80fd5b5061234389828a01611d5e565b92505061235260a08801611f17565b90509295509295509295565b5f805f805f60a08688031215612372575f80fd5b8535945060208601359350612389604087016122c0565b925060608601356001600160401b03808211156123a4575f80fd5b6123b089838a01611d5e565b935060808801359150808211156123c5575f80fd5b506123d288828901611d5e565b9150509295509295909350565b5f805f606084860312156123f1575f80fd5b833592506020840135915060408401356001600160401b03811115612414575f80fd5b61242086828701611d5e565b9150509250925092565b5f82601f830112612439575f80fd5b813560206124496120e5836120a4565b82815260059290921b84018101918181019086841115612467575f80fd5b8286015b84811015612146578035835291830191830161246b565b5f805f805f805f805f805f806101808d8f03121561249e575f80fd5b8c359b506001600160401b0360208e013511156124b9575f80fd5b6124c98e60208f01358f016120c6565b9a506001600160401b0360408e013511156124e2575f80fd5b6124f28e60408f01358f0161242a565b99506001600160401b0360608e0135111561250b575f80fd5b61251b8e60608f01358f01611d5e565b98506001600160401b0360808e01351115612534575f80fd5b6125448e60808f01358f01611d5e565b975060a08d013596506001600160401b0360c08e01351115612564575f80fd5b6125748e60c08f01358f01611d5e565b955061258260e08e01612151565b94506125916101008e01612161565b93506001600160401b036101208e013511156125ab575f80fd5b6125bc8e6101208f01358f01611d5e565b92506001600160401b036101408e013511156125d6575f80fd5b6125e78e6101408f01358f01611d5e565b91506001600160401b036101608e01351115612601575f80fd5b6126128e6101608f01358f01611d5e565b90509295989b509295989b509295989b565b5f805f8060808587031215612637575f80fd5b843593506020850135925060408501356001600160401b038082111561265b575f80fd5b61266788838901611d5e565b9350606087013591508082111561267c575f80fd5b50611ec887828801611d5e565b5f825161269a818460208701611fdd565b9190910192915050565b634e487b7160e01b5f52601160045260245ffd5b5f600182016126c9576126c96126a4565b5060010190565b600181811c908216806126e457607f821691505b60208210810361270257634e487b7160e01b5f52602260045260245ffd5b50919050565b601f821115612751575f81815260208120601f850160051c8101602086101561272e5750805b601f850160051c820191505b8181101561274d5782815560010161273a565b5050505b505050565b81516001600160401b0381111561276f5761276f611d1a565b6127838161277d84546126d0565b84612708565b602080601f8311600181146127b6575f841561279f5750858301515b5f19600386901b1c1916600185901b17855561274d565b5f85815260208120601f198616915b828110156127e4578886015182559484019460019091019084016127c5565b508582101561280157878501515f19600388901b60f8161c191681555b5050505050600190811b01905550565b606081525f6128236060830186611fff565b82810360208401526128358186611fff565b915050826040830152949350505050565b604081525f6128586040830185611fff565b828103602084015261286a8185611fff565b95945050505050565b6d02a3932b290383630b73a32b21d160951b81525f825161289b81600e850160208701611fdd565b91909101600e0192915050565b634e487b7160e01b5f52603260045260245ffd5b6020808252600f908201526e54726565206e6f742065786973747360881b604082015260600190565b6020808252600e908201526d2737ba103a3932b29037bbb732b960911b604082015260600190565b7348617276657374656420746f206261746368202360601b81525f825161293b816014850160208701611fdd565b9190910160140192915050565b828152604060208201525f61190f6040830184611fff565b5f8351612971818460208801611fdd565b835190830190612985818360208801611fdd565b01949350505050565b848152608081016129a26020830186611c62565b836040830152821515606083015295945050505050565b5f602080830181845280855180835260408601915060408160051b87010192508387015f5b82811015612a0c57603f198886030184526129fa858351611fff565b945092850192908501906001016129de565b5092979650505050505050565b5f610120808352612a2c8184018d611fff565b90508281036020840152612a40818c611fff565b90508960408401528281036060840152612a5a818a611fff565b9050875f0b608084015260ff871660a084015282810360c0840152612a7f8187611fff565b905082810360e0840152612a938186611fff565b9050828103610100840152612aa88185611fff565b9c9b505050505050505050505050565b83815260608101612acc6020830185611c62565b826040830152949350505050565b5f82612af457634e487b7160e01b5f52601260045260245ffd5b500490565b81810381811115612b0c57612b0c6126a4565b92915050565b8082028115828204841417612b0c57612b0c6126a4565b60ff8181168382160190811115612b0c57612b0c6126a456fea2646970667358221220198d72ee448916a0059d47bfdf4dbbd1fefd592b308994fc3e459bd0b6d7e61164736f6c63430008140033",
  "immutableReferences": {},
  "source": "// SPDX-License-Identifier: MIT\r\npragma solidity ^0.8.0;\r\n\r\n/**\r\n * @title ActivityLog - OPTIMIZED VERSION\r\n * @dev Contract tối ưu: Chỉ lưu dữ liệu cốt lõi\r\n * Chi tiết mở rộng được emit qua events để backend sync vào MySQL\r\n * Gas cost giảm 70-80%\r\n */\r\ncontract ActivityLog {\r\n    \r\n    // ===================================\r\n    // ENUMS\r\n    // ===================================\r\n    enum ActivityCategory {\r\n        TreeManagement,\r\n        Farming,\r\n        Harvesting,\r\n        Purchase,\r\n        Transport,\r\n        Processing,\r\n        Packaging,\r\n        QualityControl,\r\n        Warehouse,\r\n        Distribution\r\n    }\r\n\r\n    // ===================================\r\n    // OPTIMIZED STRUCTS\r\n    // ===================================\r\n    \r\n    /**\r\n     * @dev Tree - Chỉ thông tin cốt lõi\r\n     * Loại bỏ: coordinates, variety, harvestBatchIds[]\r\n     * -> Lưu off-chain hoặc tính từ events\r\n     */\r\n    struct Tree {\r\n        uint256 treeId;\r\n        string treeQRCode;           // ~20 chars\r\n        uint256 farmerId;\r\n        uint256 regionId;\r\n        string treeType;             // ~50 chars\r\n        uint256 plantedDate;\r\n        bool isActive;\r\n    }\r\n\r\n    /**\r\n     * @dev ActivityLogEntry - Tối thiểu hóa\r\n     * Loại bỏ: imageUrls[], relatedProductIds[], metadata\r\n     * -> Emit qua events để backend lưu MySQL\r\n     */\r\n    struct ActivityLogEntry {\r\n        uint256 logId;\r\n        uint256 batchId;\r\n        uint256 treeId;\r\n        uint256 participantId;\r\n        uint256 timestamp;\r\n        ActivityCategory category;\r\n        bool isSystemActivity;\r\n        bytes32 dataHash;            // Hash của description + images\r\n    }\r\n\r\n    // ===================================\r\n    // STATE VARIABLES\r\n    // ===================================\r\n    uint256 private _treeIdCounter;\r\n    uint256 private _logIdCounter;\r\n\r\n    mapping(uint256 => Tree) private _trees;\r\n    mapping(string => uint256) private _treeQRCodeToId;\r\n    mapping(uint256 => uint256[]) private _farmerTrees;\r\n    mapping(uint256 => uint256[]) private _regionTrees;\r\n    \r\n    mapping(uint256 => ActivityLogEntry[]) private _batchActivityLogs;\r\n    mapping(uint256 => ActivityLogEntry[]) private _treeActivityLogs;\r\n\r\n    // ===================================\r\n    // EVENTS - Backend sync to MySQL\r\n    // ===================================\r\n    \r\n    event TreeRegistered(\r\n        uint256 indexed treeId,\r\n        string treeQRCode,\r\n        uint256 indexed farmerId,\r\n        uint256 indexed regionId,\r\n        string treeType,\r\n        uint256 plantedDate\r\n    );\r\n\r\n    event TreeDetailsStored(\r\n        uint256 indexed treeId,\r\n        string variety,\r\n        string coordinates\r\n    );\r\n\r\n    event TreeActivityRecorded(\r\n        uint256 indexed treeId,\r\n        uint256 logId,\r\n        ActivityCategory category,\r\n        uint256 timestamp\r\n    );\r\n\r\n    event TreeActivityDetailsStored(\r\n        uint256 indexed logId,\r\n        string activityName,\r\n        string description\r\n    );\r\n\r\n    event ActivityLogAdded(\r\n        uint256 indexed batchId,\r\n        uint256 indexed participantId,\r\n        uint256 logId,\r\n        ActivityCategory category,\r\n        uint256 timestamp,\r\n        bool isSystemGenerated\r\n    );\r\n\r\n    event ActivityLogDetailsStored(\r\n        uint256 indexed logId,\r\n        string activityName,\r\n        string description\r\n    );\r\n\r\n    event TreeLinkedToBatch(\r\n        uint256 indexed treeId,\r\n        uint256 indexed batchId,\r\n        uint256 harvestDate,\r\n        string notes\r\n    );\r\n\r\n    event TreeDeactivated(\r\n        uint256 indexed treeId,\r\n        uint256 farmerId,\r\n        string reason\r\n    );\r\n\r\n    // Metadata events (optional, lưu riêng)\r\n    event ActivityMetadataStored(\r\n        uint256 indexed logId,\r\n        string fertilizer,\r\n        string pesticide,\r\n        uint256 quantity,\r\n        string unit,\r\n        int8 temperature,\r\n        uint8 humidity,\r\n        string weather,\r\n        string healthStatus,\r\n        string notes\r\n    );\r\n\r\n    event ActivityImagesStored(\r\n        uint256 indexed logId,\r\n        string[] imageUrls\r\n    );\r\n\r\n    event ActivityProductsLinked(\r\n        uint256 indexed logId,\r\n        uint256[] productIds\r\n    );\r\n\r\n    // ===================================\r\n    // TREE MANAGEMENT - OPTIMIZED\r\n    // ===================================\r\n\r\n    /**\r\n     * @dev Đăng ký cây mới\r\n     * Emit 2 events: TreeRegistered (on-chain) + TreeDetailsStored (off-chain)\r\n     */\r\n    function registerTree(\r\n        string memory _treeQRCode,\r\n        uint256 _farmerId,\r\n        uint256 _regionId,\r\n        string memory _treeType,\r\n        string memory _variety,\r\n        string memory _coordinates\r\n    ) public returns (uint256) {\r\n        require(bytes(_treeQRCode).length > 0, \"QR code required\");\r\n        require(_treeQRCodeToId[_treeQRCode] == 0, \"QR code exists\");\r\n        require(_farmerId > 0, \"Invalid farmer\");\r\n        require(_regionId > 0, \"Invalid region\");\r\n\r\n        _treeIdCounter++;\r\n        uint256 newTreeId = _treeIdCounter;\r\n        uint256 plantedDate = block.timestamp;\r\n\r\n        // Lưu on-chain (minimal)\r\n        Tree memory newTree = Tree({\r\n            treeId: newTreeId,\r\n            treeQRCode: _treeQRCode,\r\n            farmerId: _farmerId,\r\n            regionId: _regionId,\r\n            treeType: _treeType,\r\n            plantedDate: plantedDate,\r\n            isActive: true\r\n        });\r\n\r\n        _trees[newTreeId] = newTree;\r\n        _treeQRCodeToId[_treeQRCode] = newTreeId;\r\n        _farmerTrees[_farmerId].push(newTreeId);\r\n        _regionTrees[_regionId].push(newTreeId);\r\n\r\n        // Emit events\r\n        emit TreeRegistered(newTreeId, _treeQRCode, _farmerId, _regionId, _treeType, plantedDate);\r\n        emit TreeDetailsStored(newTreeId, _variety, _coordinates);\r\n\r\n        // Tạo activity log tự động\r\n        _addTreeActivity(\r\n            newTreeId,\r\n            _farmerId,\r\n            ActivityCategory.TreeManagement,\r\n            \"Tree Planted\",\r\n            string(abi.encodePacked(\"Tree planted: \", _treeType)),\r\n            true\r\n        );\r\n\r\n        return newTreeId;\r\n    }\r\n\r\n    /**\r\n     * @dev Thêm hoạt động chăm sóc cây - Tách thành 2 functions\r\n     */\r\n    function addTreeCareActivity(\r\n        uint256 _treeId,\r\n        uint256 _farmerId,\r\n        ActivityCategory _category,\r\n        string memory _activityName,\r\n        string memory _description\r\n    ) public returns (uint256) {\r\n        require(_trees[_treeId].treeId != 0, \"Tree not exists\");\r\n        require(_trees[_treeId].isActive, \"Tree not active\");\r\n        require(_trees[_treeId].farmerId == _farmerId, \"Not tree owner\");\r\n\r\n        uint256 logId = _addTreeActivity(\r\n            _treeId,\r\n            _farmerId,\r\n            _category,\r\n            _activityName,\r\n            _description,\r\n            false\r\n        );\r\n\r\n        return logId;\r\n    }\r\n\r\n    /**\r\n     * @dev Thêm metadata cho tree activity\r\n     */\r\n    function addTreeActivityMetadata(\r\n        uint256 _logId,\r\n        string[] memory _imageUrls,\r\n        string memory _fertilizer,\r\n        string memory _pesticide,\r\n        uint256 _quantity,\r\n        string memory _unit,\r\n        int8 _temperature,\r\n        uint8 _humidity,\r\n        string memory _weather,\r\n        string memory _healthStatus,\r\n        string memory _notes\r\n    ) public {\r\n        // Emit metadata events\r\n        if (_imageUrls.length > 0) {\r\n            emit ActivityImagesStored(_logId, _imageUrls);\r\n        }\r\n\r\n        emit ActivityMetadataStored(\r\n            _logId,\r\n            _fertilizer,\r\n            _pesticide,\r\n            _quantity,\r\n            _unit,\r\n            _temperature,\r\n            _humidity,\r\n            _weather,\r\n            _healthStatus,\r\n            _notes\r\n        );\r\n    }\r\n\r\n    /**\r\n     * @dev Internal: Thêm tree activity\r\n     */\r\n    function _addTreeActivity(\r\n        uint256 _treeId,\r\n        uint256 _participantId,\r\n        ActivityCategory _category,\r\n        string memory _activityName,\r\n        string memory _description,\r\n        bool _isSystemActivity\r\n    ) internal returns (uint256) {\r\n        _logIdCounter++;\r\n        uint256 newLogId = _logIdCounter;\r\n        uint256 timestamp = block.timestamp;\r\n\r\n        // Hash description\r\n        bytes32 dataHash = keccak256(abi.encodePacked(_activityName, _description));\r\n\r\n        // Lưu on-chain (minimal)\r\n        ActivityLogEntry memory newLog = ActivityLogEntry({\r\n            logId: newLogId,\r\n            batchId: 0,\r\n            treeId: _treeId,\r\n            participantId: _participantId,\r\n            timestamp: timestamp,\r\n            category: _category,\r\n            isSystemActivity: _isSystemActivity,\r\n            dataHash: dataHash\r\n        });\r\n\r\n        _treeActivityLogs[_treeId].push(newLog);\r\n\r\n        // Emit events\r\n        emit TreeActivityRecorded(_treeId, newLogId, _category, timestamp);\r\n        emit TreeActivityDetailsStored(newLogId, _activityName, _description);\r\n\r\n        return newLogId;\r\n    }\r\n\r\n    /**\r\n     * @dev Link cây với lô hàng khi thu hoạch\r\n     */\r\n    function linkTreeToBatch(\r\n        uint256 _treeId,\r\n        uint256 _batchId,\r\n        uint256 _farmerId,\r\n        string memory _harvestNotes\r\n    ) public {\r\n        require(_trees[_treeId].treeId != 0, \"Tree not exists\");\r\n        require(_trees[_treeId].farmerId == _farmerId, \"Not tree owner\");\r\n\r\n        // Tạo activity log\r\n        _addTreeActivity(\r\n            _treeId,\r\n            _farmerId,\r\n            ActivityCategory.Harvesting,\r\n            \"Harvested to Batch\",\r\n            string(abi.encodePacked(\"Harvested to batch #\", uint2str(_batchId))),\r\n            true\r\n        );\r\n\r\n        emit TreeLinkedToBatch(_treeId, _batchId, block.timestamp, _harvestNotes);\r\n    }\r\n\r\n    /**\r\n     * @dev Vô hiệu hóa cây\r\n     */\r\n    function deactivateTree(\r\n        uint256 _treeId,\r\n        uint256 _farmerId,\r\n        string memory _reason\r\n    ) public {\r\n        require(_trees[_treeId].treeId != 0, \"Tree not exists\");\r\n        require(_trees[_treeId].farmerId == _farmerId, \"Not tree owner\");\r\n        require(_trees[_treeId].isActive, \"Already inactive\");\r\n\r\n        _trees[_treeId].isActive = false;\r\n\r\n        _addTreeActivity(\r\n            _treeId,\r\n            _farmerId,\r\n            ActivityCategory.TreeManagement,\r\n            \"Tree Deactivated\",\r\n            _reason,\r\n            false\r\n        );\r\n\r\n        emit TreeDeactivated(_treeId, _farmerId, _reason);\r\n    }\r\n\r\n    // ===================================\r\n    // BATCH ACTIVITY LOG - OPTIMIZED\r\n    // ===================================\r\n\r\n    /**\r\n     * @dev Thêm activity log đơn giản\r\n     */\r\n    function addActivityLog(\r\n        uint256 _batchId,\r\n        uint256 _participantId,\r\n        string memory _activityName,\r\n        string memory _description,\r\n        bool _isSystemActivity\r\n    ) public returns (uint256) {\r\n        _logIdCounter++;\r\n        uint256 newLogId = _logIdCounter;\r\n        uint256 timestamp = block.timestamp;\r\n\r\n        // Hash description\r\n        bytes32 dataHash = keccak256(abi.encodePacked(_activityName, _description));\r\n\r\n        // Lưu on-chain (minimal)\r\n        ActivityLogEntry memory newLog = ActivityLogEntry({\r\n            logId: newLogId,\r\n            batchId: _batchId,\r\n            treeId: 0,\r\n            participantId: _participantId,\r\n            timestamp: timestamp,\r\n            category: ActivityCategory.Farming,\r\n            isSystemActivity: _isSystemActivity,\r\n            dataHash: dataHash\r\n        });\r\n\r\n        _batchActivityLogs[_batchId].push(newLog);\r\n\r\n        // Emit events\r\n        emit ActivityLogAdded(_batchId, _participantId, newLogId, ActivityCategory.Farming, timestamp, _isSystemActivity);\r\n        emit ActivityLogDetailsStored(newLogId, _activityName, _description);\r\n\r\n        return newLogId;\r\n    }\r\n\r\n    /**\r\n     * @dev Thêm activity log với metadata đầy đủ - Tách thành 2 functions\r\n     */\r\n    function addDetailedActivityLog(\r\n        uint256 _batchId,\r\n        uint256 _participantId,\r\n        ActivityCategory _category,\r\n        string memory _activityName,\r\n        string memory _description,\r\n        bool _isSystemActivity\r\n    ) public returns (uint256) {\r\n        _logIdCounter++;\r\n        uint256 newLogId = _logIdCounter;\r\n        uint256 timestamp = block.timestamp;\r\n\r\n        bytes32 dataHash = keccak256(abi.encodePacked(_activityName, _description));\r\n\r\n        ActivityLogEntry memory newLog = ActivityLogEntry({\r\n            logId: newLogId,\r\n            batchId: _batchId,\r\n            treeId: 0,\r\n            participantId: _participantId,\r\n            timestamp: timestamp,\r\n            category: _category,\r\n            isSystemActivity: _isSystemActivity,\r\n            dataHash: dataHash\r\n        });\r\n\r\n        _batchActivityLogs[_batchId].push(newLog);\r\n\r\n        emit ActivityLogAdded(_batchId, _participantId, newLogId, _category, timestamp, _isSystemActivity);\r\n        emit ActivityLogDetailsStored(newLogId, _activityName, _description);\r\n\r\n        return newLogId;\r\n    }\r\n\r\n    /**\r\n     * @dev Thêm metadata cho activity log\r\n     */\r\n    function addActivityLogMetadata(\r\n        uint256 _logId,\r\n        string[] memory _imageUrls,\r\n        uint256[] memory _relatedProductIds,\r\n        string memory _fertilizer,\r\n        string memory _pesticide,\r\n        uint256 _quantity,\r\n        string memory _unit,\r\n        int8 _temperature,\r\n        uint8 _humidity,\r\n        string memory _weather,\r\n        string memory _healthStatus,\r\n        string memory _notes\r\n    ) public {\r\n        if (_imageUrls.length > 0) {\r\n            emit ActivityImagesStored(_logId, _imageUrls);\r\n        }\r\n\r\n        if (_relatedProductIds.length > 0) {\r\n            emit ActivityProductsLinked(_logId, _relatedProductIds);\r\n        }\r\n\r\n        emit ActivityMetadataStored(\r\n            _logId,\r\n            _fertilizer,\r\n            _pesticide,\r\n            _quantity,\r\n            _unit,\r\n            _temperature,\r\n            _humidity,\r\n            _weather,\r\n            _healthStatus,\r\n            _notes\r\n        );\r\n    }\r\n\r\n    // ===================================\r\n    // GETTERS - TREE\r\n    // ===================================\r\n\r\n    function getTreeByQRCode(string memory _qrCode) public view returns (Tree memory) {\r\n        uint256 treeId = _treeQRCodeToId[_qrCode];\r\n        require(treeId != 0, \"Tree not found\");\r\n        return _trees[treeId];\r\n    }\r\n\r\n    function getTreeDetails(uint256 _treeId) public view returns (Tree memory) {\r\n        require(_trees[_treeId].treeId != 0, \"Tree not exists\");\r\n        return _trees[_treeId];\r\n    }\r\n\r\n    function getFarmerTrees(uint256 _farmerId) public view returns (uint256[] memory) {\r\n        return _farmerTrees[_farmerId];\r\n    }\r\n\r\n    function getRegionTrees(uint256 _regionId) public view returns (uint256[] memory) {\r\n        return _regionTrees[_regionId];\r\n    }\r\n\r\n    function getTreeActivityLogs(uint256 _treeId) public view returns (ActivityLogEntry[] memory) {\r\n        require(_trees[_treeId].treeId != 0, \"Tree not exists\");\r\n        return _treeActivityLogs[_treeId];\r\n    }\r\n\r\n    function getTotalTrees() public view returns (uint256) {\r\n        return _treeIdCounter;\r\n    }\r\n\r\n    function getActiveTrees(uint256 _farmerId) public view returns (uint256) {\r\n        uint256[] memory treeIds = _farmerTrees[_farmerId];\r\n        uint256 count = 0;\r\n        \r\n        for (uint256 i = 0; i < treeIds.length; i++) {\r\n            if (_trees[treeIds[i]].isActive) {\r\n                count++;\r\n            }\r\n        }\r\n        \r\n        return count;\r\n    }\r\n\r\n    // ===================================\r\n    // GETTERS - BATCH ACTIVITY\r\n    // ===================================\r\n\r\n    function getActivityLogs(uint256 _batchId) public view returns (ActivityLogEntry[] memory) {\r\n        return _batchActivityLogs[_batchId];\r\n    }\r\n\r\n    function getSystemActivityLogs(uint256 _batchId) public view returns (ActivityLogEntry[] memory) {\r\n        ActivityLogEntry[] memory allLogs = _batchActivityLogs[_batchId];\r\n        uint256 count = 0;\r\n        \r\n        for (uint256 i = 0; i < allLogs.length; i++) {\r\n            if (allLogs[i].isSystemActivity) {\r\n                count++;\r\n            }\r\n        }\r\n\r\n        ActivityLogEntry[] memory systemLogs = new ActivityLogEntry[](count);\r\n        uint256 index = 0;\r\n        for (uint256 i = 0; i < allLogs.length; i++) {\r\n            if (allLogs[i].isSystemActivity) {\r\n                systemLogs[index] = allLogs[i];\r\n                index++;\r\n            }\r\n        }\r\n\r\n        return systemLogs;\r\n    }\r\n\r\n    function getTotalActivityLogs() public view returns (uint256) {\r\n        return _logIdCounter;\r\n    }\r\n\r\n    // ===================================\r\n    // VERIFICATION\r\n    // ===================================\r\n\r\n    /**\r\n     * @dev Verify activity log data hash\r\n     */\r\n    function verifyActivityDataHash(\r\n        uint256 _logId,\r\n        uint256 _batchId,\r\n        string memory _activityName,\r\n        string memory _description\r\n    ) public view returns (bool) {\r\n        ActivityLogEntry[] memory logs = _batchActivityLogs[_batchId];\r\n        \r\n        for (uint256 i = 0; i < logs.length; i++) {\r\n            if (logs[i].logId == _logId) {\r\n                bytes32 calculatedHash = keccak256(abi.encodePacked(_activityName, _description));\r\n                return logs[i].dataHash == calculatedHash;\r\n            }\r\n        }\r\n        \r\n        return false;\r\n    }\r\n\r\n    // ===================================\r\n    // UTILITY FUNCTIONS\r\n    // ===================================\r\n\r\n    function uint2str(uint256 _i) internal pure returns (string memory) {\r\n        if (_i == 0) return \"0\";\r\n        uint256 j = _i;\r\n        uint256 length;\r\n        while (j != 0) {\r\n            length++;\r\n            j /= 10;\r\n        }\r\n        bytes memory bstr = new bytes(length);\r\n        uint256 k = length;\r\n        while (_i != 0) {\r\n            k = k - 1;\r\n            uint8 temp = 48 + uint8(_i - (_i / 10) * 10);\r\n            bstr[k] = bytes1(temp);\r\n            _i /= 10;\r\n        }\r\n        return string(bstr);\r\n    }\r\n}",
  "sourcePath": "D:\\LVTN\\nckh-be\\blockchain\\contracts\\ActivityLog.sol",
  "compiler": {
    "name": "solc",
    "version": "0.8.20+commit.a1b79de6.Emscripten.clang"
  },
  "schemaVersion": "3.4.16",
  "updatedAt": "2026-01-19T08:59:39.433Z",
  "networkType": "ethereum",
  "devdoc": {
    "details": "Contract tối ưu: Chỉ lưu dữ liệu cốt lõi Chi tiết mở rộng được emit qua events để backend sync vào MySQL Gas cost giảm 70-80%",
    "kind": "dev",
    "methods": {
      "addActivityLog(uint256,uint256,string,string,bool)": {
        "details": "Thêm activity log đơn giản"
      },
      "addActivityLogMetadata(uint256,string[],uint256[],string,string,uint256,string,int8,uint8,string,string,string)": {
        "details": "Thêm metadata cho activity log"
      },
      "addDetailedActivityLog(uint256,uint256,uint8,string,string,bool)": {
        "details": "Thêm activity log với metadata đầy đủ - Tách thành 2 functions"
      },
      "addTreeActivityMetadata(uint256,string[],string,string,uint256,string,int8,uint8,string,string,string)": {
        "details": "Thêm metadata cho tree activity"
      },
      "addTreeCareActivity(uint256,uint256,uint8,string,string)": {
        "details": "Thêm hoạt động chăm sóc cây - Tách thành 2 functions"
      },
      "deactivateTree(uint256,uint256,string)": {
        "details": "Vô hiệu hóa cây"
      },
      "linkTreeToBatch(uint256,uint256,uint256,string)": {
        "details": "Link cây với lô hàng khi thu hoạch"
      },
      "registerTree(string,uint256,uint256,string,string,string)": {
        "details": "Đăng ký cây mới Emit 2 events: TreeRegistered (on-chain) + TreeDetailsStored (off-chain)"
      },
      "verifyActivityDataHash(uint256,uint256,string,string)": {
        "details": "Verify activity log data hash"
      }
    },
    "title": "ActivityLog - OPTIMIZED VERSION",
    "version": 1
  },
  "userdoc": {
    "kind": "user",
    "methods": {},
    "version": 1
  }
}