{
  "contractName": "ActivityLog",
  "abi": [
    {
      "inputs": [],
      "stateMutability": "nonpayable",
      "type": "constructor"
    },
    {
      "anonymous": false,
      "inputs": [
        {
          "indexed": true,
          "internalType": "uint256",
          "name": "logId",
          "type": "uint256"
        },
        {
          "indexed": false,
          "internalType": "string[]",
          "name": "imageUrls",
          "type": "string[]"
        }
      ],
      "name": "ActivityImagesStored",
      "type": "event"
    },
    {
      "anonymous": false,
      "inputs": [
        {
          "indexed": true,
          "internalType": "uint256",
          "name": "batchId",
          "type": "uint256"
        },
        {
          "indexed": true,
          "internalType": "uint256",
          "name": "participantId",
          "type": "uint256"
        },
        {
          "indexed": false,
          "internalType": "uint256",
          "name": "logId",
          "type": "uint256"
        },
        {
          "indexed": false,
          "internalType": "enum ActivityLog.ActivityCategory",
          "name": "category",
          "type": "uint8"
        },
        {
          "indexed": false,
          "internalType": "uint256",
          "name": "timestamp",
          "type": "uint256"
        },
        {
          "indexed": false,
          "internalType": "bool",
          "name": "isSystemGenerated",
          "type": "bool"
        }
      ],
      "name": "ActivityLogAdded",
      "type": "event"
    },
    {
      "anonymous": false,
      "inputs": [
        {
          "indexed": true,
          "internalType": "uint256",
          "name": "logId",
          "type": "uint256"
        },
        {
          "indexed": false,
          "internalType": "string",
          "name": "activityName",
          "type": "string"
        },
        {
          "indexed": false,
          "internalType": "string",
          "name": "description",
          "type": "string"
        }
      ],
      "name": "ActivityLogDetailsStored",
      "type": "event"
    },
    {
      "anonymous": false,
      "inputs": [
        {
          "indexed": true,
          "internalType": "uint256",
          "name": "logId",
          "type": "uint256"
        },
        {
          "indexed": false,
          "internalType": "string",
          "name": "fertilizer",
          "type": "string"
        },
        {
          "indexed": false,
          "internalType": "string",
          "name": "pesticide",
          "type": "string"
        },
        {
          "indexed": false,
          "internalType": "uint256",
          "name": "quantity",
          "type": "uint256"
        },
        {
          "indexed": false,
          "internalType": "string",
          "name": "unit",
          "type": "string"
        },
        {
          "indexed": false,
          "internalType": "int8",
          "name": "temperature",
          "type": "int8"
        },
        {
          "indexed": false,
          "internalType": "uint8",
          "name": "humidity",
          "type": "uint8"
        },
        {
          "indexed": false,
          "internalType": "string",
          "name": "weather",
          "type": "string"
        },
        {
          "indexed": false,
          "internalType": "string",
          "name": "healthStatus",
          "type": "string"
        },
        {
          "indexed": false,
          "internalType": "string",
          "name": "notes",
          "type": "string"
        }
      ],
      "name": "ActivityMetadataStored",
      "type": "event"
    },
    {
      "anonymous": false,
      "inputs": [
        {
          "indexed": true,
          "internalType": "uint256",
          "name": "logId",
          "type": "uint256"
        },
        {
          "indexed": false,
          "internalType": "uint256[]",
          "name": "productIds",
          "type": "uint256[]"
        }
      ],
      "name": "ActivityProductsLinked",
      "type": "event"
    },
    {
      "anonymous": false,
      "inputs": [
        {
          "indexed": true,
          "internalType": "address",
          "name": "caller",
          "type": "address"
        }
      ],
      "name": "AuthorizedCallerAdded",
      "type": "event"
    },
    {
      "anonymous": false,
      "inputs": [
        {
          "indexed": true,
          "internalType": "address",
          "name": "caller",
          "type": "address"
        }
      ],
      "name": "AuthorizedCallerRemoved",
      "type": "event"
    },
    {
      "anonymous": false,
      "inputs": [
        {
          "indexed": true,
          "internalType": "uint256",
          "name": "logId",
          "type": "uint256"
        },
        {
          "indexed": false,
          "internalType": "string",
          "name": "activityName",
          "type": "string"
        },
        {
          "indexed": false,
          "internalType": "string",
          "name": "description",
          "type": "string"
        }
      ],
      "name": "TreeActivityDetailsStored",
      "type": "event"
    },
    {
      "anonymous": false,
      "inputs": [
        {
          "indexed": true,
          "internalType": "uint256",
          "name": "treeId",
          "type": "uint256"
        },
        {
          "indexed": false,
          "internalType": "uint256",
          "name": "logId",
          "type": "uint256"
        },
        {
          "indexed": false,
          "internalType": "enum ActivityLog.ActivityCategory",
          "name": "category",
          "type": "uint8"
        },
        {
          "indexed": false,
          "internalType": "uint256",
          "name": "timestamp",
          "type": "uint256"
        }
      ],
      "name": "TreeActivityRecorded",
      "type": "event"
    },
    {
      "anonymous": false,
      "inputs": [
        {
          "indexed": true,
          "internalType": "uint256",
          "name": "treeId",
          "type": "uint256"
        },
        {
          "indexed": false,
          "internalType": "uint256",
          "name": "farmerId",
          "type": "uint256"
        },
        {
          "indexed": false,
          "internalType": "string",
          "name": "reason",
          "type": "string"
        }
      ],
      "name": "TreeDeactivated",
      "type": "event"
    },
    {
      "anonymous": false,
      "inputs": [
        {
          "indexed": true,
          "internalType": "uint256",
          "name": "treeId",
          "type": "uint256"
        },
        {
          "indexed": false,
          "internalType": "string",
          "name": "variety",
          "type": "string"
        },
        {
          "indexed": false,
          "internalType": "string",
          "name": "coordinates",
          "type": "string"
        }
      ],
      "name": "TreeDetailsStored",
      "type": "event"
    },
    {
      "anonymous": false,
      "inputs": [
        {
          "indexed": true,
          "internalType": "uint256",
          "name": "treeId",
          "type": "uint256"
        },
        {
          "indexed": true,
          "internalType": "uint256",
          "name": "batchId",
          "type": "uint256"
        },
        {
          "indexed": false,
          "internalType": "uint256",
          "name": "harvestDate",
          "type": "uint256"
        },
        {
          "indexed": false,
          "internalType": "string",
          "name": "notes",
          "type": "string"
        }
      ],
      "name": "TreeLinkedToBatch",
      "type": "event"
    },
    {
      "anonymous": false,
      "inputs": [
        {
          "indexed": true,
          "internalType": "uint256",
          "name": "treeId",
          "type": "uint256"
        },
        {
          "indexed": false,
          "internalType": "string",
          "name": "treeQRCode",
          "type": "string"
        },
        {
          "indexed": true,
          "internalType": "uint256",
          "name": "farmerId",
          "type": "uint256"
        },
        {
          "indexed": true,
          "internalType": "uint256",
          "name": "regionId",
          "type": "uint256"
        },
        {
          "indexed": false,
          "internalType": "string",
          "name": "treeType",
          "type": "string"
        },
        {
          "indexed": false,
          "internalType": "uint256",
          "name": "plantedDate",
          "type": "uint256"
        }
      ],
      "name": "TreeRegistered",
      "type": "event"
    },
    {
      "inputs": [],
      "name": "owner",
      "outputs": [
        {
          "internalType": "address",
          "name": "",
          "type": "address"
        }
      ],
      "stateMutability": "view",
      "type": "function",
      "constant": true
    },
    {
      "inputs": [
        {
          "internalType": "address",
          "name": "_caller",
          "type": "address"
        }
      ],
      "name": "addAuthorizedCaller",
      "outputs": [],
      "stateMutability": "nonpayable",
      "type": "function"
    },
    {
      "inputs": [
        {
          "internalType": "address",
          "name": "_caller",
          "type": "address"
        }
      ],
      "name": "removeAuthorizedCaller",
      "outputs": [],
      "stateMutability": "nonpayable",
      "type": "function"
    },
    {
      "inputs": [
        {
          "internalType": "address",
          "name": "_caller",
          "type": "address"
        }
      ],
      "name": "isAuthorizedCaller",
      "outputs": [
        {
          "internalType": "bool",
          "name": "",
          "type": "bool"
        }
      ],
      "stateMutability": "view",
      "type": "function",
      "constant": true
    },
    {
      "inputs": [
        {
          "internalType": "string",
          "name": "_treeQRCode",
          "type": "string"
        },
        {
          "internalType": "uint256",
          "name": "_farmerId",
          "type": "uint256"
        },
        {
          "internalType": "uint256",
          "name": "_regionId",
          "type": "uint256"
        },
        {
          "internalType": "string",
          "name": "_treeType",
          "type": "string"
        },
        {
          "internalType": "string",
          "name": "_variety",
          "type": "string"
        },
        {
          "internalType": "string",
          "name": "_coordinates",
          "type": "string"
        }
      ],
      "name": "registerTree",
      "outputs": [
        {
          "internalType": "uint256",
          "name": "",
          "type": "uint256"
        }
      ],
      "stateMutability": "nonpayable",
      "type": "function"
    },
    {
      "inputs": [
        {
          "internalType": "uint256",
          "name": "_treeId",
          "type": "uint256"
        },
        {
          "internalType": "uint256",
          "name": "_farmerId",
          "type": "uint256"
        },
        {
          "internalType": "enum ActivityLog.ActivityCategory",
          "name": "_category",
          "type": "uint8"
        },
        {
          "internalType": "string",
          "name": "_activityName",
          "type": "string"
        },
        {
          "internalType": "string",
          "name": "_description",
          "type": "string"
        }
      ],
      "name": "addTreeCareActivity",
      "outputs": [
        {
          "internalType": "uint256",
          "name": "",
          "type": "uint256"
        }
      ],
      "stateMutability": "nonpayable",
      "type": "function"
    },
    {
      "inputs": [
        {
          "internalType": "uint256",
          "name": "_logId",
          "type": "uint256"
        },
        {
          "internalType": "string[]",
          "name": "_imageUrls",
          "type": "string[]"
        },
        {
          "internalType": "string",
          "name": "_fertilizer",
          "type": "string"
        },
        {
          "internalType": "string",
          "name": "_pesticide",
          "type": "string"
        },
        {
          "internalType": "uint256",
          "name": "_quantity",
          "type": "uint256"
        },
        {
          "internalType": "string",
          "name": "_unit",
          "type": "string"
        },
        {
          "internalType": "int8",
          "name": "_temperature",
          "type": "int8"
        },
        {
          "internalType": "uint8",
          "name": "_humidity",
          "type": "uint8"
        },
        {
          "internalType": "string",
          "name": "_weather",
          "type": "string"
        },
        {
          "internalType": "string",
          "name": "_healthStatus",
          "type": "string"
        },
        {
          "internalType": "string",
          "name": "_notes",
          "type": "string"
        }
      ],
      "name": "addTreeActivityMetadata",
      "outputs": [],
      "stateMutability": "nonpayable",
      "type": "function"
    },
    {
      "inputs": [
        {
          "internalType": "uint256",
          "name": "_treeId",
          "type": "uint256"
        },
        {
          "internalType": "uint256",
          "name": "_batchId",
          "type": "uint256"
        },
        {
          "internalType": "uint256",
          "name": "_farmerId",
          "type": "uint256"
        },
        {
          "internalType": "string",
          "name": "_harvestNotes",
          "type": "string"
        }
      ],
      "name": "linkTreeToBatch",
      "outputs": [],
      "stateMutability": "nonpayable",
      "type": "function"
    },
    {
      "inputs": [
        {
          "internalType": "uint256",
          "name": "_treeId",
          "type": "uint256"
        },
        {
          "internalType": "uint256",
          "name": "_farmerId",
          "type": "uint256"
        },
        {
          "internalType": "string",
          "name": "_reason",
          "type": "string"
        }
      ],
      "name": "deactivateTree",
      "outputs": [],
      "stateMutability": "nonpayable",
      "type": "function"
    },
    {
      "inputs": [
        {
          "internalType": "uint256",
          "name": "_batchId",
          "type": "uint256"
        },
        {
          "internalType": "uint256",
          "name": "_participantId",
          "type": "uint256"
        },
        {
          "internalType": "string",
          "name": "_activityName",
          "type": "string"
        },
        {
          "internalType": "string",
          "name": "_description",
          "type": "string"
        },
        {
          "internalType": "bool",
          "name": "_isSystemActivity",
          "type": "bool"
        }
      ],
      "name": "addActivityLog",
      "outputs": [
        {
          "internalType": "uint256",
          "name": "",
          "type": "uint256"
        }
      ],
      "stateMutability": "nonpayable",
      "type": "function"
    },
    {
      "inputs": [
        {
          "internalType": "uint256",
          "name": "_batchId",
          "type": "uint256"
        },
        {
          "internalType": "uint256",
          "name": "_participantId",
          "type": "uint256"
        },
        {
          "internalType": "enum ActivityLog.ActivityCategory",
          "name": "_category",
          "type": "uint8"
        },
        {
          "internalType": "string",
          "name": "_activityName",
          "type": "string"
        },
        {
          "internalType": "string",
          "name": "_description",
          "type": "string"
        },
        {
          "internalType": "bool",
          "name": "_isSystemActivity",
          "type": "bool"
        }
      ],
      "name": "addDetailedActivityLog",
      "outputs": [
        {
          "internalType": "uint256",
          "name": "",
          "type": "uint256"
        }
      ],
      "stateMutability": "nonpayable",
      "type": "function"
    },
    {
      "inputs": [
        {
          "internalType": "uint256",
          "name": "_logId",
          "type": "uint256"
        },
        {
          "internalType": "string[]",
          "name": "_imageUrls",
          "type": "string[]"
        },
        {
          "internalType": "uint256[]",
          "name": "_relatedProductIds",
          "type": "uint256[]"
        },
        {
          "internalType": "string",
          "name": "_fertilizer",
          "type": "string"
        },
        {
          "internalType": "string",
          "name": "_pesticide",
          "type": "string"
        },
        {
          "internalType": "uint256",
          "name": "_quantity",
          "type": "uint256"
        },
        {
          "internalType": "string",
          "name": "_unit",
          "type": "string"
        },
        {
          "internalType": "int8",
          "name": "_temperature",
          "type": "int8"
        },
        {
          "internalType": "uint8",
          "name": "_humidity",
          "type": "uint8"
        },
        {
          "internalType": "string",
          "name": "_weather",
          "type": "string"
        },
        {
          "internalType": "string",
          "name": "_healthStatus",
          "type": "string"
        },
        {
          "internalType": "string",
          "name": "_notes",
          "type": "string"
        }
      ],
      "name": "addActivityLogMetadata",
      "outputs": [],
      "stateMutability": "nonpayable",
      "type": "function"
    },
    {
      "inputs": [
        {
          "internalType": "string",
          "name": "_qrCode",
          "type": "string"
        }
      ],
      "name": "getTreeByQRCode",
      "outputs": [
        {
          "components": [
            {
              "internalType": "uint256",
              "name": "treeId",
              "type": "uint256"
            },
            {
              "internalType": "string",
              "name": "treeQRCode",
              "type": "string"
            },
            {
              "internalType": "uint256",
              "name": "farmerId",
              "type": "uint256"
            },
            {
              "internalType": "uint256",
              "name": "regionId",
              "type": "uint256"
            },
            {
              "internalType": "string",
              "name": "treeType",
              "type": "string"
            },
            {
              "internalType": "uint256",
              "name": "plantedDate",
              "type": "uint256"
            },
            {
              "internalType": "bool",
              "name": "isActive",
              "type": "bool"
            }
          ],
          "internalType": "struct ActivityLog.Tree",
          "name": "",
          "type": "tuple"
        }
      ],
      "stateMutability": "view",
      "type": "function",
      "constant": true
    },
    {
      "inputs": [
        {
          "internalType": "uint256",
          "name": "_treeId",
          "type": "uint256"
        }
      ],
      "name": "getTreeDetails",
      "outputs": [
        {
          "components": [
            {
              "internalType": "uint256",
              "name": "treeId",
              "type": "uint256"
            },
            {
              "internalType": "string",
              "name": "treeQRCode",
              "type": "string"
            },
            {
              "internalType": "uint256",
              "name": "farmerId",
              "type": "uint256"
            },
            {
              "internalType": "uint256",
              "name": "regionId",
              "type": "uint256"
            },
            {
              "internalType": "string",
              "name": "treeType",
              "type": "string"
            },
            {
              "internalType": "uint256",
              "name": "plantedDate",
              "type": "uint256"
            },
            {
              "internalType": "bool",
              "name": "isActive",
              "type": "bool"
            }
          ],
          "internalType": "struct ActivityLog.Tree",
          "name": "",
          "type": "tuple"
        }
      ],
      "stateMutability": "view",
      "type": "function",
      "constant": true
    },
    {
      "inputs": [
        {
          "internalType": "uint256",
          "name": "_farmerId",
          "type": "uint256"
        }
      ],
      "name": "getFarmerTrees",
      "outputs": [
        {
          "internalType": "uint256[]",
          "name": "",
          "type": "uint256[]"
        }
      ],
      "stateMutability": "view",
      "type": "function",
      "constant": true
    },
    {
      "inputs": [
        {
          "internalType": "uint256",
          "name": "_regionId",
          "type": "uint256"
        }
      ],
      "name": "getRegionTrees",
      "outputs": [
        {
          "internalType": "uint256[]",
          "name": "",
          "type": "uint256[]"
        }
      ],
      "stateMutability": "view",
      "type": "function",
      "constant": true
    },
    {
      "inputs": [
        {
          "internalType": "uint256",
          "name": "_treeId",
          "type": "uint256"
        }
      ],
      "name": "getTreeActivityLogs",
      "outputs": [
        {
          "components": [
            {
              "internalType": "uint256",
              "name": "logId",
              "type": "uint256"
            },
            {
              "internalType": "uint256",
              "name": "batchId",
              "type": "uint256"
            },
            {
              "internalType": "uint256",
              "name": "treeId",
              "type": "uint256"
            },
            {
              "internalType": "uint256",
              "name": "participantId",
              "type": "uint256"
            },
            {
              "internalType": "uint256",
              "name": "timestamp",
              "type": "uint256"
            },
            {
              "internalType": "enum ActivityLog.ActivityCategory",
              "name": "category",
              "type": "uint8"
            },
            {
              "internalType": "bool",
              "name": "isSystemActivity",
              "type": "bool"
            },
            {
              "internalType": "bytes32",
              "name": "dataHash",
              "type": "bytes32"
            }
          ],
          "internalType": "struct ActivityLog.ActivityLogEntry[]",
          "name": "",
          "type": "tuple[]"
        }
      ],
      "stateMutability": "view",
      "type": "function",
      "constant": true
    },
    {
      "inputs": [],
      "name": "getTotalTrees",
      "outputs": [
        {
          "internalType": "uint256",
          "name": "",
          "type": "uint256"
        }
      ],
      "stateMutability": "view",
      "type": "function",
      "constant": true
    },
    {
      "inputs": [
        {
          "internalType": "uint256",
          "name": "_farmerId",
          "type": "uint256"
        }
      ],
      "name": "getActiveTrees",
      "outputs": [
        {
          "internalType": "uint256",
          "name": "",
          "type": "uint256"
        }
      ],
      "stateMutability": "view",
      "type": "function",
      "constant": true
    },
    {
      "inputs": [
        {
          "internalType": "uint256",
          "name": "_batchId",
          "type": "uint256"
        }
      ],
      "name": "getActivityLogs",
      "outputs": [
        {
          "components": [
            {
              "internalType": "uint256",
              "name": "logId",
              "type": "uint256"
            },
            {
              "internalType": "uint256",
              "name": "batchId",
              "type": "uint256"
            },
            {
              "internalType": "uint256",
              "name": "treeId",
              "type": "uint256"
            },
            {
              "internalType": "uint256",
              "name": "participantId",
              "type": "uint256"
            },
            {
              "internalType": "uint256",
              "name": "timestamp",
              "type": "uint256"
            },
            {
              "internalType": "enum ActivityLog.ActivityCategory",
              "name": "category",
              "type": "uint8"
            },
            {
              "internalType": "bool",
              "name": "isSystemActivity",
              "type": "bool"
            },
            {
              "internalType": "bytes32",
              "name": "dataHash",
              "type": "bytes32"
            }
          ],
          "internalType": "struct ActivityLog.ActivityLogEntry[]",
          "name": "",
          "type": "tuple[]"
        }
      ],
      "stateMutability": "view",
      "type": "function",
      "constant": true
    },
    {
      "inputs": [
        {
          "internalType": "uint256",
          "name": "_batchId",
          "type": "uint256"
        }
      ],
      "name": "getSystemActivityLogs",
      "outputs": [
        {
          "components": [
            {
              "internalType": "uint256",
              "name": "logId",
              "type": "uint256"
            },
            {
              "internalType": "uint256",
              "name": "batchId",
              "type": "uint256"
            },
            {
              "internalType": "uint256",
              "name": "treeId",
              "type": "uint256"
            },
            {
              "internalType": "uint256",
              "name": "participantId",
              "type": "uint256"
            },
            {
              "internalType": "uint256",
              "name": "timestamp",
              "type": "uint256"
            },
            {
              "internalType": "enum ActivityLog.ActivityCategory",
              "name": "category",
              "type": "uint8"
            },
            {
              "internalType": "bool",
              "name": "isSystemActivity",
              "type": "bool"
            },
            {
              "internalType": "bytes32",
              "name": "dataHash",
              "type": "bytes32"
            }
          ],
          "internalType": "struct ActivityLog.ActivityLogEntry[]",
          "name": "",
          "type": "tuple[]"
        }
      ],
      "stateMutability": "view",
      "type": "function",
      "constant": true
    },
    {
      "inputs": [],
      "name": "getTotalActivityLogs",
      "outputs": [
        {
          "internalType": "uint256",
          "name": "",
          "type": "uint256"
        }
      ],
      "stateMutability": "view",
      "type": "function",
      "constant": true
    },
    {
      "inputs": [
        {
          "internalType": "uint256",
          "name": "_logId",
          "type": "uint256"
        },
        {
          "internalType": "uint256",
          "name": "_batchId",
          "type": "uint256"
        },
        {
          "internalType": "string",
          "name": "_activityName",
          "type": "string"
        },
        {
          "internalType": "string",
          "name": "_description",
          "type": "string"
        }
      ],
      "name": "verifyActivityDataHash",
      "outputs": [
        {
          "internalType": "bool",
          "name": "",
          "type": "bool"
        }
      ],
      "stateMutability": "view",
      "type": "function",
      "constant": true
    }
  ],
  "bytecode": "0x608060405234801561000f575f80fd5b50600280546001600160a01b031916339081179091555f908152600360205260409020805460ff19166001179055612e558061004a5f395ff3fe608060405234801561000f575f80fd5b5060043610610148575f3560e01c806363794895116100bf578063a92ac81211610079578063a92ac812146102f0578063b45f1fd614610303578063b7aa023114610316578063bbcbee1f14610329578063c591ea371461033c578063ed18d4ea1461034f575f80fd5b8063637948951461026657806369cc2a14146102795780636be619241461028c5780637836178a1461029f5780638da5cb5b146102b257806397570799146102dd575f80fd5b80633e69b27b116101105780633e69b27b146101bd57806341599d7a146101d0578063438040ed146101d8578063521e6fa9146101f857806359d14b411461020b5780635bf32ec914610246575f80fd5b80630a997b4f1461014c5780630e6e369c1461016257806313a155ea14610182578063374a8bf4146101975780633abb5afb146101aa575b5f80fd5b5f545b6040519081526020015b60405180910390f35b610175610170366004611ee7565b610362565b6040516101599190611f32565b610195610190366004611fca565b61045e565b005b61014f6101a53660046120a6565b61053d565b6101756101b8366004611ee7565b610867565b6101956101cb36600461215c565b610a8d565b60015461014f565b6101eb6101e6366004611ee7565b610b75565b60405161015991906121b1565b61014f610206366004612208565b610bd4565b610236610219366004611fca565b6001600160a01b03165f9081526003602052604090205460ff1690565b6040519015158152602001610159565b610259610254366004612289565b610dec565b6040516101599190612307565b61019561027436600461244e565b611005565b610259610287366004611ee7565b61109a565b61014f61029a3660046125ab565b61127c565b6101756102ad366004611ee7565b611493565b6002546102c5906001600160a01b031681565b6040516001600160a01b039091168152602001610159565b61014f6102eb36600461263b565b6115a8565b6101956102fe3660046126bc565b61166f565b61019561031136600461275f565b6117af565b610195610324366004611fca565b611885565b6101eb610337366004611ee7565b611914565b61014f61034a366004611ee7565b611971565b61023661035d366004612901565b611a36565b606060085f8381526020019081526020015f20805480602002602001604051908101604052809291908181526020015f905b82821015610453578382905f5260205f209060070201604051806101000160405290815f820154815260200160018201548152602001600282015481526020016003820154815260200160048201548152602001600582015f9054906101000a900460ff16600981111561040a5761040a611efe565b600981111561041b5761041b611efe565b81526020016005820160019054906101000a900460ff1615151515815260200160068201548152505081526020019060010190610394565b505050509050919050565b6002546001600160a01b031633146104aa5760405162461bcd60e51b815260206004820152600a60248201526927b7363c9037bbb732b960b11b60448201526064015b60405180910390fd5b6001600160a01b0381166104f25760405162461bcd60e51b815260206004820152600f60248201526e496e76616c6964206164647265737360881b60448201526064016104a1565b6001600160a01b0381165f81815260036020526040808220805460ff19166001179055517feb1b9b92e50b7f88f9ff25d56765095ac6e91540eee214906f4036a908ffbdef9190a250565b5f808751116105815760405162461bcd60e51b815260206004820152601060248201526f14548818dbd919481c995c5d5a5c995960821b60448201526064016104a1565b6005876040516105919190612966565b9081526020016040518091039020545f146105df5760405162461bcd60e51b815260206004820152600e60248201526d515220636f64652065786973747360901b60448201526064016104a1565b5f861161061f5760405162461bcd60e51b815260206004820152600e60248201526d24b73b30b634b2103330b936b2b960911b60448201526064016104a1565b5f851161065f5760405162461bcd60e51b815260206004820152600e60248201526d24b73b30b634b2103932b3b4b7b760911b60448201526064016104a1565b5f8054908061066d83612995565b90915550505f80546040805160e08101825282815260208082018c81528284018c9052606083018b9052608083018a90524260a08401819052600160c08501819052868852600490935293909520825181559451939492939192839290918201906106d89082612a33565b506040820151600282015560608201516003820155608082015160048201906107019082612a33565b5060a0820151816005015560c0820151816006015f6101000a81548160ff0219169083151502179055509050508260058b60405161073f9190612966565b9081526040805160209281900383018120939093555f8c815260068352818120805460018082018355918352848320018890558c825260078452918120805492830181558152919091200184905588908a9085907fb2c06837e88783b4c4efadd4746390d854cd3a168cb0be8fe64d061dae69d893906107c4908f908d908990612aee565b60405180910390a4827fc2187321b4b91ad216d468e6272a74ca5ac50445d9bba9ca932d99b82f2ae9cc87876040516107fe929190612b23565b60405180910390a2610858838a5f6040518060400160405280600c81526020016b151c995948141b185b9d195960a21b8152508b6040516020016108429190612b50565b6040516020818303038152906040526001611bc7565b50919998505050505050505050565b5f818152600860209081526040808320805482518185028101850190935280835260609493849084015b82821015610950578382905f5260205f209060070201604051806101000160405290815f820154815260200160018201548152602001600282015481526020016003820154815260200160048201548152602001600582015f9054906101000a900460ff16600981111561090757610907611efe565b600981111561091857610918611efe565b81526020016005820160019054906101000a900460ff1615151515815260200160068201548152505081526020019060010190610891565b5050505090505f805b82518110156109a55782818151811061097457610974612b85565b602002602001015160c0015115610993578161098f81612995565b9250505b8061099d81612995565b915050610959565b505f816001600160401b038111156109bf576109bf611ff7565b6040519080825280602002602001820160405280156109f857816020015b6109e5611e98565b8152602001906001900390816109dd5790505b5090505f805b8451811015610a8257848181518110610a1957610a19612b85565b602002602001015160c0015115610a7057848181518110610a3c57610a3c612b85565b6020026020010151838381518110610a5657610a56612b85565b60200260200101819052508180610a6c90612995565b9250505b80610a7a81612995565b9150506109fe565b509095945050505050565b5f848152600460205260408120549003610ab95760405162461bcd60e51b81526004016104a190612b99565b5f848152600460205260409020600201548214610ae85760405162461bcd60e51b81526004016104a190612bc2565b610b338483600260405180604001604052806012815260200171090c2e4eccae6e8cac840e8de4084c2e8c6d60731b815250610b2388611d78565b6040516020016108429190612bea565b5082847f51da26d467087aae05a7c4ef11344d6f4d6b06ad614f836e013bba27daef8b544284604051610b67929190612c25565b60405180910390a350505050565b5f81815260066020908152604091829020805483518184028101840190945280845260609392830182828015610bc857602002820191905f5260205f20905b815481526020019060010190808311610bb4575b50505050509050919050565b335f9081526003602052604081205460ff16610c235760405162461bcd60e51b815260206004820152600e60248201526d139bdd08185d5d1a1bdc9a5e995960921b60448201526064016104a1565b60018054905f610c3283612995565b909155505060015460405142905f90610c519088908890602001612c3d565b6040516020818303038152906040528051906020012090505f6040518061010001604052808581526020018b81526020015f81526020018a815260200184815260200160016009811115610ca757610ca7611efe565b815287151560208083019190915260409182018590525f8d8152600882528281208054600181810183559183529183902085516007909302019182559184015181830155918301516002830155606083015160038301556080830151600483015560a083015160058301805494955085949192909160ff191690836009811115610d3357610d33611efe565b021790555060c08201518160050160016101000a81548160ff02191690831515021790555060e082015181600601555050888a7fd35df7104306862a1551bd6c87eb886369c0a1bab3b4fabe98031e9aa654db46866001878b604051610d9c9493929190612c6b565b60405180910390a3837f57d2fc7dc77de2bad5d183c62aadd9477a4ee039a4af22db56c43a69ff7f91738989604051610dd6929190612b23565b60405180910390a2509198975050505050505050565b610e296040518060e001604052805f8152602001606081526020015f81526020015f8152602001606081526020015f81526020015f151581525090565b5f600583604051610e3a9190612966565b9081526020016040518091039020549050805f03610e8b5760405162461bcd60e51b815260206004820152600e60248201526d151c9959481b9bdd08199bdd5b9960921b60448201526064016104a1565b60045f8281526020019081526020015f206040518060e00160405290815f8201548152602001600182018054610ec0906129ad565b80601f0160208091040260200160405190810160405280929190818152602001828054610eec906129ad565b8015610f375780601f10610f0e57610100808354040283529160200191610f37565b820191905f5260205f20905b815481529060010190602001808311610f1a57829003601f168201915b505050505081526020016002820154815260200160038201548152602001600482018054610f64906129ad565b80601f0160208091040260200160405190810160405280929190818152602001828054610f90906129ad565b8015610fdb5780601f10610fb257610100808354040283529160200191610fdb565b820191905f5260205f20905b815481529060010190602001808311610fbe57829003601f168201915b50505091835250506005820154602082015260069091015460ff1615156040909101529392505050565b895115611045578a7f7a1105376d5a0044ab812b943408ed5f779778310b65a618521293a675f2dec08b60405161103c9190612c96565b60405180910390a25b8a7f7f3fb3d605ba053211e048a151f2ca2215a1cd72108f460e878188398c0930db8a8a8a8a8a8a8a8a8a60405161108599989796959493929190612cf6565b60405180910390a25050505050505050505050565b6110d76040518060e001604052805f8152602001606081526020015f81526020015f8152602001606081526020015f81526020015f151581525090565b5f8281526004602052604081205490036111035760405162461bcd60e51b81526004016104a190612b99565b60045f8381526020019081526020015f206040518060e00160405290815f8201548152602001600182018054611138906129ad565b80601f0160208091040260200160405190810160405280929190818152602001828054611164906129ad565b80156111af5780601f10611186576101008083540402835291602001916111af565b820191905f5260205f20905b81548152906001019060200180831161119257829003601f168201915b5050505050815260200160028201548152602001600382015481526020016004820180546111dc906129ad565b80601f0160208091040260200160405190810160405280929190818152602001828054611208906129ad565b80156112535780601f1061122a57610100808354040283529160200191611253565b820191905f5260205f20905b81548152906001019060200180831161123657829003601f168201915b50505091835250506005820154602082015260069091015460ff16151560409091015292915050565b335f9081526003602052604081205460ff166112cb5760405162461bcd60e51b815260206004820152600e60248201526d139bdd08185d5d1a1bdc9a5e995960921b60448201526064016104a1565b60018054905f6112da83612995565b909155505060015460405142905f906112f99088908890602001612c3d565b6040516020818303038152906040528051906020012090505f6040518061010001604052808581526020018c81526020015f81526020018b81526020018481526020018a600981111561134e5761134e611efe565b815287151560208083019190915260409182018590525f8e8152600882528281208054600181810183559183529183902085516007909302019182559184015181830155918301516002830155606083015160038301556080830151600483015560a083015160058301805494955085949192909160ff1916908360098111156113da576113da611efe565b021790555060c08201518160050160016101000a81548160ff02191690831515021790555060e082015181600601555050898b7fd35df7104306862a1551bd6c87eb886369c0a1bab3b4fabe98031e9aa654db46868c878b6040516114429493929190612c6b565b60405180910390a3837f57d2fc7dc77de2bad5d183c62aadd9477a4ee039a4af22db56c43a69ff7f9173898960405161147c929190612b23565b60405180910390a250919998505050505050505050565b5f81815260046020526040812054606091036114c15760405162461bcd60e51b81526004016104a190612b99565b5f82815260096020908152604080832080548251818502810185019093528083529193909284015b82821015610453578382905f5260205f209060070201604051806101000160405290815f820154815260200160018201548152602001600282015481526020016003820154815260200160048201548152602001600582015f9054906101000a900460ff16600981111561155f5761155f611efe565b600981111561157057611570611efe565b81526020016005820160019054906101000a900460ff16151515158152602001600682015481525050815260200190600101906114e9565b5f8581526004602052604081205481036115d45760405162461bcd60e51b81526004016104a190612b99565b5f8681526004602052604090206006015460ff166116265760405162461bcd60e51b815260206004820152600f60248201526e54726565206e6f742061637469766560881b60448201526064016104a1565b5f8681526004602052604090206002015485146116555760405162461bcd60e51b81526004016104a190612bc2565b5f61166487878787875f611bc7565b979650505050505050565b5f83815260046020526040812054900361169b5760405162461bcd60e51b81526004016104a190612b99565b5f8381526004602052604090206002015482146116ca5760405162461bcd60e51b81526004016104a190612bc2565b5f8381526004602052604090206006015460ff1661171d5760405162461bcd60e51b815260206004820152601060248201526f416c726561647920696e61637469766560801b60448201526064016104a1565b5f838152600460209081526040808320600601805460ff191690558051808201909152601081526f151c99594811195858dd1a5d985d195960821b9181019190915261176f9185918591908582611bc7565b50827f5ff0745a587e8512811a0a31728c8b802a60cb145a8cbedbdb76b6bb239d14c883836040516117a2929190612c25565b60405180910390a2505050565b8a51156117ef578b7f7a1105376d5a0044ab812b943408ed5f779778310b65a618521293a675f2dec08c6040516117e69190612c96565b60405180910390a25b89511561182f578b7fd8fc280cebd958295c04bcc58f45e3d66cbac07aab5db7b5bd15a37de99726b98b60405161182691906121b1565b60405180910390a25b8b7f7f3fb3d605ba053211e048a151f2ca2215a1cd72108f460e878188398c0930db8a8a8a8a8a8a8a8a8a60405161186f99989796959493929190612cf6565b60405180910390a2505050505050505050505050565b6002546001600160a01b031633146118cc5760405162461bcd60e51b815260206004820152600a60248201526927b7363c9037bbb732b960b11b60448201526064016104a1565b6001600160a01b0381165f81815260036020526040808220805460ff19169055517fc3803387881faad271c47728894e3e36fac830ffc8602ca6fc07733cbda775809190a250565b5f81815260076020908152604091829020805483518184028101840190945280845260609392830182828015610bc857602002820191905f5260205f2090815481526020019060010190808311610bb45750505050509050919050565b5f818152600660209081526040808320805482518185028101850190935280835284938301828280156119c157602002820191905f5260205f20905b8154815260200190600101908083116119ad575b505050505090505f805b8251811015611a2e5760045f8483815181106119e9576119e9612b85565b60209081029190910181015182528101919091526040015f206006015460ff1615611a1c5781611a1881612995565b9250505b80611a2681612995565b9150506119cb565b509392505050565b5f83815260086020908152604080832080548251818502810185019093528083528493849084015b82821015611b1d578382905f5260205f209060070201604051806101000160405290815f820154815260200160018201548152602001600282015481526020016003820154815260200160048201548152602001600582015f9054906101000a900460ff166009811115611ad457611ad4611efe565b6009811115611ae557611ae5611efe565b81526020016005820160019054906101000a900460ff1615151515815260200160068201548152505081526020019060010190611a5e565b5050505090505f5b8151811015611bb95786828281518110611b4157611b41612b85565b60200260200101515f015103611ba7575f8585604051602001611b65929190612c3d565b60405160208183030381529060405280519060200120905080838381518110611b9057611b90612b85565b602002602001015160e00151149350505050611bbf565b80611bb181612995565b915050611b25565b505f9150505b949350505050565b600180545f9182611bd783612995565b909155505060015460405142905f90611bf69088908890602001612c3d565b6040516020818303038152906040528051906020012090505f6040518061010001604052808581526020015f81526020018c81526020018b81526020018481526020018a6009811115611c4b57611c4b611efe565b815287151560208083019190915260409182018590525f8e815260098083528382208054600181810183559184529284902086516007909402019283559285015182840155928401516002820155606084015160038201556080840151600482015560a0840151600582018054959650869592949193909260ff1916918490811115611cd957611cd9611efe565b021790555060c08201518160050160016101000a81548160ff02191690831515021790555060e0820151816006015550508a7f316d4a9d91369b6bc642d18247c3642b27603be2a886b1cdae995cba3bcfbf64858b86604051611d3e93929190612d95565b60405180910390a2837f31a0af62870f997c8e64776545c124a224683d91cf02db94821b661486740b59898960405161147c929190612b23565b6060815f03611d9e5750506040805180820190915260018152600360fc1b602082015290565b815f5b8115611dc75780611db181612995565b9150611dc09050600a83612db7565b9150611da1565b5f816001600160401b03811115611de057611de0611ff7565b6040519080825280601f01601f191660200182016040528015611e0a576020820181803683370190505b509050815b8515611e8f57611e20600182612dd6565b90505f611e2e600a88612db7565b611e3990600a612def565b611e439088612dd6565b611e4e906030612e06565b90508060f81b838381518110611e6657611e66612b85565b60200101906001600160f81b03191690815f1a905350611e87600a88612db7565b965050611e0f565b50949350505050565b6040518061010001604052805f81526020015f81526020015f81526020015f81526020015f81526020015f6009811115611ed457611ed4611efe565b81525f6020820181905260409091015290565b5f60208284031215611ef7575f80fd5b5035919050565b634e487b7160e01b5f52602160045260245ffd5b600a8110611f2e57634e487b7160e01b5f52602160045260245ffd5b9052565b602080825282518282018190525f919060409081850190868401855b82811015611fbd5781518051855286810151878601528581015186860152606080820151908601526080808201519086015260a080820151611f9282880182611f12565b505060c08181015115159086015260e090810151908501526101009093019290850190600101611f4e565b5091979650505050505050565b5f60208284031215611fda575f80fd5b81356001600160a01b0381168114611ff0575f80fd5b9392505050565b634e487b7160e01b5f52604160045260245ffd5b604051601f8201601f191681016001600160401b038111828210171561203357612033611ff7565b604052919050565b5f82601f83011261204a575f80fd5b81356001600160401b0381111561206357612063611ff7565b612076601f8201601f191660200161200b565b81815284602083860101111561208a575f80fd5b816020850160208301375f918101602001919091529392505050565b5f805f805f8060c087890312156120bb575f80fd5b86356001600160401b03808211156120d1575f80fd5b6120dd8a838b0161203b565b975060208901359650604089013595506060890135915080821115612100575f80fd5b61210c8a838b0161203b565b94506080890135915080821115612121575f80fd5b61212d8a838b0161203b565b935060a0890135915080821115612142575f80fd5b5061214f89828a0161203b565b9150509295509295509295565b5f805f806080858703121561216f575f80fd5b84359350602085013592506040850135915060608501356001600160401b03811115612199575f80fd5b6121a58782880161203b565b91505092959194509250565b602080825282518282018190525f9190848201906040850190845b818110156121e8578351835292840192918401916001016121cc565b50909695505050505050565b80358015158114612203575f80fd5b919050565b5f805f805f60a0868803121561221c575f80fd5b853594506020860135935060408601356001600160401b0380821115612240575f80fd5b61224c89838a0161203b565b94506060880135915080821115612261575f80fd5b5061226e8882890161203b565b92505061227d608087016121f4565b90509295509295909350565b5f60208284031215612299575f80fd5b81356001600160401b038111156122ae575f80fd5b611bbf8482850161203b565b5f5b838110156122d45781810151838201526020016122bc565b50505f910152565b5f81518084526122f38160208601602086016122ba565b601f01601f19169290920160200192915050565b60208152815160208201525f602083015160e0604084015261232d6101008401826122dc565b905060408401516060840152606084015160808401526080840151601f198483030160a085015261235e82826122dc565b91505060a084015160c084015260c0840151151560e08401528091505092915050565b5f6001600160401b0382111561239957612399611ff7565b5060051b60200190565b5f82601f8301126123b2575f80fd5b813560206123c76123c283612381565b61200b565b82815260059290921b840181019181810190868411156123e5575f80fd5b8286015b848110156124235780356001600160401b03811115612407575f8081fd5b6124158986838b010161203b565b8452509183019183016123e9565b509695505050505050565b80355f81900b8114612203575f80fd5b803560ff81168114612203575f80fd5b5f805f805f805f805f805f6101608c8e031215612469575f80fd5b8b359a506001600160401b038060208e01351115612485575f80fd5b6124958e60208f01358f016123a3565b9a508060408e013511156124a7575f80fd5b6124b78e60408f01358f0161203b565b99508060608e013511156124c9575f80fd5b6124d98e60608f01358f0161203b565b985060808d013597508060a08e013511156124f2575f80fd5b6125028e60a08f01358f0161203b565b965061251060c08e0161242e565b955061251e60e08e0161243e565b9450806101008e01351115612531575f80fd5b6125428e6101008f01358f0161203b565b9350806101208e01351115612555575f80fd5b6125668e6101208f01358f0161203b565b9250806101408e01351115612579575f80fd5b5061258b8d6101408e01358e0161203b565b90509295989b509295989b9093969950565b8035600a8110612203575f80fd5b5f805f805f8060c087890312156125c0575f80fd5b86359550602087013594506125d76040880161259d565b935060608701356001600160401b03808211156125f2575f80fd5b6125fe8a838b0161203b565b94506080890135915080821115612613575f80fd5b5061262089828a0161203b565b92505061262f60a088016121f4565b90509295509295509295565b5f805f805f60a0868803121561264f575f80fd5b85359450602086013593506126666040870161259d565b925060608601356001600160401b0380821115612681575f80fd5b61268d89838a0161203b565b935060808801359150808211156126a2575f80fd5b506126af8882890161203b565b9150509295509295909350565b5f805f606084860312156126ce575f80fd5b833592506020840135915060408401356001600160401b038111156126f1575f80fd5b6126fd8682870161203b565b9150509250925092565b5f82601f830112612716575f80fd5b813560206127266123c283612381565b82815260059290921b84018101918181019086841115612744575f80fd5b8286015b848110156124235780358352918301918301612748565b5f805f805f805f805f805f806101808d8f03121561277b575f80fd5b8c359b506001600160401b0360208e01351115612796575f80fd5b6127a68e60208f01358f016123a3565b9a506001600160401b0360408e013511156127bf575f80fd5b6127cf8e60408f01358f01612707565b99506001600160401b0360608e013511156127e8575f80fd5b6127f88e60608f01358f0161203b565b98506001600160401b0360808e01351115612811575f80fd5b6128218e60808f01358f0161203b565b975060a08d013596506001600160401b0360c08e01351115612841575f80fd5b6128518e60c08f01358f0161203b565b955061285f60e08e0161242e565b945061286e6101008e0161243e565b93506001600160401b036101208e01351115612888575f80fd5b6128998e6101208f01358f0161203b565b92506001600160401b036101408e013511156128b3575f80fd5b6128c48e6101408f01358f0161203b565b91506001600160401b036101608e013511156128de575f80fd5b6128ef8e6101608f01358f0161203b565b90509295989b509295989b509295989b565b5f805f8060808587031215612914575f80fd5b843593506020850135925060408501356001600160401b0380821115612938575f80fd5b6129448883890161203b565b93506060870135915080821115612959575f80fd5b506121a58782880161203b565b5f82516129778184602087016122ba565b9190910192915050565b634e487b7160e01b5f52601160045260245ffd5b5f600182016129a6576129a6612981565b5060010190565b600181811c908216806129c157607f821691505b6020821081036129df57634e487b7160e01b5f52602260045260245ffd5b50919050565b601f821115612a2e575f81815260208120601f850160051c81016020861015612a0b5750805b601f850160051c820191505b81811015612a2a57828155600101612a17565b5050505b505050565b81516001600160401b03811115612a4c57612a4c611ff7565b612a6081612a5a84546129ad565b846129e5565b602080601f831160018114612a93575f8415612a7c5750858301515b5f19600386901b1c1916600185901b178555612a2a565b5f85815260208120601f198616915b82811015612ac157888601518255948401946001909101908401612aa2565b5085821015612ade57878501515f19600388901b60f8161c191681555b5050505050600190811b01905550565b606081525f612b0060608301866122dc565b8281036020840152612b1281866122dc565b915050826040830152949350505050565b604081525f612b3560408301856122dc565b8281036020840152612b4781856122dc565b95945050505050565b6d02a3932b290383630b73a32b21d160951b81525f8251612b7881600e8501602087016122ba565b91909101600e0192915050565b634e487b7160e01b5f52603260045260245ffd5b6020808252600f908201526e54726565206e6f742065786973747360881b604082015260600190565b6020808252600e908201526d2737ba103a3932b29037bbb732b960911b604082015260600190565b7348617276657374656420746f206261746368202360601b81525f8251612c188160148501602087016122ba565b9190910160140192915050565b828152604060208201525f611bbf60408301846122dc565b5f8351612c4e8184602088016122ba565b835190830190612c628183602088016122ba565b01949350505050565b84815260808101612c7f6020830186611f12565b836040830152821515606083015295945050505050565b5f602080830181845280855180835260408601915060408160051b87010192508387015f5b82811015612ce957603f19888603018452612cd78583516122dc565b94509285019290850190600101612cbb565b5092979650505050505050565b5f610120808352612d098184018d6122dc565b90508281036020840152612d1d818c6122dc565b90508960408401528281036060840152612d37818a6122dc565b9050875f0b608084015260ff871660a084015282810360c0840152612d5c81876122dc565b905082810360e0840152612d7081866122dc565b9050828103610100840152612d8581856122dc565b9c9b505050505050505050505050565b83815260608101612da96020830185611f12565b826040830152949350505050565b5f82612dd157634e487b7160e01b5f52601260045260245ffd5b500490565b81810381811115612de957612de9612981565b92915050565b8082028115828204841417612de957612de9612981565b60ff8181168382160190811115612de957612de961298156fea26469706673582212200a6e602468ca91f5bedfee2a9d532d95331e63e5b61d376d6b6bdf15d94c877764736f6c63430008140033",
  "immutableReferences": {},
  "source": "// SPDX-License-Identifier: MIT\r\npragma solidity ^0.8.0;\r\n\r\n/**\r\n * @title ActivityLog - OPTIMIZED VERSION\r\n * @dev Contract tối ưu: Chỉ lưu dữ liệu cốt lõi\r\n * Chi tiết mở rộng được emit qua events để backend sync vào MySQL\r\n * Gas cost giảm 70-80%\r\n */\r\ncontract ActivityLog {\r\n    \r\n    // ===================================\r\n    // ENUMS\r\n    // ===================================\r\n    enum ActivityCategory {\r\n        TreeManagement,\r\n        Farming,\r\n        Harvesting,\r\n        Purchase,\r\n        Transport,\r\n        Processing,\r\n        Packaging,\r\n        QualityControl,\r\n        Warehouse,\r\n        Distribution\r\n    }\r\n\r\n    // ===================================\r\n    // OPTIMIZED STRUCTS\r\n    // ===================================\r\n    \r\n    /**\r\n     * @dev Tree - Chỉ thông tin cốt lõi\r\n     * Loại bỏ: coordinates, variety, harvestBatchIds[]\r\n     * -> Lưu off-chain hoặc tính từ events\r\n     */\r\n    struct Tree {\r\n        uint256 treeId;\r\n        string treeQRCode;           // ~20 chars\r\n        uint256 farmerId;\r\n        uint256 regionId;\r\n        string treeType;             // ~50 chars\r\n        uint256 plantedDate;\r\n        bool isActive;\r\n    }\r\n\r\n    /**\r\n     * @dev ActivityLogEntry - Tối thiểu hóa\r\n     * Loại bỏ: imageUrls[], relatedProductIds[], metadata\r\n     * -> Emit qua events để backend lưu MySQL\r\n     */\r\n    struct ActivityLogEntry {\r\n        uint256 logId;\r\n        uint256 batchId;\r\n        uint256 treeId;\r\n        uint256 participantId;\r\n        uint256 timestamp;\r\n        ActivityCategory category;\r\n        bool isSystemActivity;\r\n        bytes32 dataHash;            // Hash của description + images\r\n    }\r\n\r\n    // ===================================\r\n    // STATE VARIABLES\r\n    // ===================================\r\n    uint256 private _treeIdCounter;\r\n    uint256 private _logIdCounter;\r\n\r\n    address public owner;\r\n    mapping(address => bool) private _authorizedCallers;\r\n\r\n    mapping(uint256 => Tree) private _trees;\r\n    mapping(string => uint256) private _treeQRCodeToId;\r\n    mapping(uint256 => uint256[]) private _farmerTrees;\r\n    mapping(uint256 => uint256[]) private _regionTrees;\r\n    \r\n    mapping(uint256 => ActivityLogEntry[]) private _batchActivityLogs;\r\n    mapping(uint256 => ActivityLogEntry[]) private _treeActivityLogs;\r\n\r\n    // ===================================\r\n    // EVENTS - Backend sync to MySQL\r\n    // ===================================\r\n\r\n    event AuthorizedCallerAdded(address indexed caller);\r\n    event AuthorizedCallerRemoved(address indexed caller);\r\n    \r\n    event TreeRegistered(\r\n        uint256 indexed treeId,\r\n        string treeQRCode,\r\n        uint256 indexed farmerId,\r\n        uint256 indexed regionId,\r\n        string treeType,\r\n        uint256 plantedDate\r\n    );\r\n\r\n    event TreeDetailsStored(\r\n        uint256 indexed treeId,\r\n        string variety,\r\n        string coordinates\r\n    );\r\n\r\n    event TreeActivityRecorded(\r\n        uint256 indexed treeId,\r\n        uint256 logId,\r\n        ActivityCategory category,\r\n        uint256 timestamp\r\n    );\r\n\r\n    event TreeActivityDetailsStored(\r\n        uint256 indexed logId,\r\n        string activityName,\r\n        string description\r\n    );\r\n\r\n    event ActivityLogAdded(\r\n        uint256 indexed batchId,\r\n        uint256 indexed participantId,\r\n        uint256 logId,\r\n        ActivityCategory category,\r\n        uint256 timestamp,\r\n        bool isSystemGenerated\r\n    );\r\n\r\n    event ActivityLogDetailsStored(\r\n        uint256 indexed logId,\r\n        string activityName,\r\n        string description\r\n    );\r\n\r\n    event TreeLinkedToBatch(\r\n        uint256 indexed treeId,\r\n        uint256 indexed batchId,\r\n        uint256 harvestDate,\r\n        string notes\r\n    );\r\n\r\n    event TreeDeactivated(\r\n        uint256 indexed treeId,\r\n        uint256 farmerId,\r\n        string reason\r\n    );\r\n\r\n    // Metadata events (optional, lưu riêng)\r\n    event ActivityMetadataStored(\r\n        uint256 indexed logId,\r\n        string fertilizer,\r\n        string pesticide,\r\n        uint256 quantity,\r\n        string unit,\r\n        int8 temperature,\r\n        uint8 humidity,\r\n        string weather,\r\n        string healthStatus,\r\n        string notes\r\n    );\r\n\r\n    event ActivityImagesStored(\r\n        uint256 indexed logId,\r\n        string[] imageUrls\r\n    );\r\n\r\n    event ActivityProductsLinked(\r\n        uint256 indexed logId,\r\n        uint256[] productIds\r\n    );\r\n\r\n    // ===================================\r\n    // CONSTRUCTOR & ACCESS CONTROL\r\n    // ===================================\r\n\r\n    constructor() {\r\n        owner = msg.sender;\r\n        _authorizedCallers[msg.sender] = true;\r\n    }\r\n\r\n    /**\r\n     * @dev Cho phép TraceabilityContract (hoặc backend trusted) ghi log\r\n     */\r\n    function addAuthorizedCaller(address _caller) public {\r\n        require(msg.sender == owner, \"Only owner\");\r\n        require(_caller != address(0), \"Invalid address\");\r\n        _authorizedCallers[_caller] = true;\r\n        emit AuthorizedCallerAdded(_caller);\r\n    }\r\n\r\n    function removeAuthorizedCaller(address _caller) public {\r\n        require(msg.sender == owner, \"Only owner\");\r\n        _authorizedCallers[_caller] = false;\r\n        emit AuthorizedCallerRemoved(_caller);\r\n    }\r\n\r\n    function isAuthorizedCaller(address _caller) public view returns (bool) {\r\n        return _authorizedCallers[_caller];\r\n    }\r\n\r\n    modifier onlyAuthorized() {\r\n        require(_authorizedCallers[msg.sender], \"Not authorized\");\r\n        _;\r\n    }\r\n\r\n    // ===================================\r\n    // TREE MANAGEMENT - OPTIMIZED\r\n    // ===================================\r\n\r\n    /**\r\n     * @dev Đăng ký cây mới\r\n     * Emit 2 events: TreeRegistered (on-chain) + TreeDetailsStored (off-chain)\r\n     */\r\n    function registerTree(\r\n        string memory _treeQRCode,\r\n        uint256 _farmerId,\r\n        uint256 _regionId,\r\n        string memory _treeType,\r\n        string memory _variety,\r\n        string memory _coordinates\r\n    ) public returns (uint256) {\r\n        require(bytes(_treeQRCode).length > 0, \"QR code required\");\r\n        require(_treeQRCodeToId[_treeQRCode] == 0, \"QR code exists\");\r\n        require(_farmerId > 0, \"Invalid farmer\");\r\n        require(_regionId > 0, \"Invalid region\");\r\n\r\n        _treeIdCounter++;\r\n        uint256 newTreeId = _treeIdCounter;\r\n        uint256 plantedDate = block.timestamp;\r\n\r\n        // Lưu on-chain (minimal)\r\n        Tree memory newTree = Tree({\r\n            treeId: newTreeId,\r\n            treeQRCode: _treeQRCode,\r\n            farmerId: _farmerId,\r\n            regionId: _regionId,\r\n            treeType: _treeType,\r\n            plantedDate: plantedDate,\r\n            isActive: true\r\n        });\r\n\r\n        _trees[newTreeId] = newTree;\r\n        _treeQRCodeToId[_treeQRCode] = newTreeId;\r\n        _farmerTrees[_farmerId].push(newTreeId);\r\n        _regionTrees[_regionId].push(newTreeId);\r\n\r\n        // Emit events\r\n        emit TreeRegistered(newTreeId, _treeQRCode, _farmerId, _regionId, _treeType, plantedDate);\r\n        emit TreeDetailsStored(newTreeId, _variety, _coordinates);\r\n\r\n        // Tạo activity log tự động\r\n        _addTreeActivity(\r\n            newTreeId,\r\n            _farmerId,\r\n            ActivityCategory.TreeManagement,\r\n            \"Tree Planted\",\r\n            string(abi.encodePacked(\"Tree planted: \", _treeType)),\r\n            true\r\n        );\r\n\r\n        return newTreeId;\r\n    }\r\n\r\n    /**\r\n     * @dev Thêm hoạt động chăm sóc cây - Tách thành 2 functions\r\n     */\r\n    function addTreeCareActivity(\r\n        uint256 _treeId,\r\n        uint256 _farmerId,\r\n        ActivityCategory _category,\r\n        string memory _activityName,\r\n        string memory _description\r\n    ) public returns (uint256) {\r\n        require(_trees[_treeId].treeId != 0, \"Tree not exists\");\r\n        require(_trees[_treeId].isActive, \"Tree not active\");\r\n        require(_trees[_treeId].farmerId == _farmerId, \"Not tree owner\");\r\n\r\n        uint256 logId = _addTreeActivity(\r\n            _treeId,\r\n            _farmerId,\r\n            _category,\r\n            _activityName,\r\n            _description,\r\n            false\r\n        );\r\n\r\n        return logId;\r\n    }\r\n\r\n    /**\r\n     * @dev Thêm metadata cho tree activity\r\n     */\r\n    function addTreeActivityMetadata(\r\n        uint256 _logId,\r\n        string[] memory _imageUrls,\r\n        string memory _fertilizer,\r\n        string memory _pesticide,\r\n        uint256 _quantity,\r\n        string memory _unit,\r\n        int8 _temperature,\r\n        uint8 _humidity,\r\n        string memory _weather,\r\n        string memory _healthStatus,\r\n        string memory _notes\r\n    ) public {\r\n        // Emit metadata events\r\n        if (_imageUrls.length > 0) {\r\n            emit ActivityImagesStored(_logId, _imageUrls);\r\n        }\r\n\r\n        emit ActivityMetadataStored(\r\n            _logId,\r\n            _fertilizer,\r\n            _pesticide,\r\n            _quantity,\r\n            _unit,\r\n            _temperature,\r\n            _humidity,\r\n            _weather,\r\n            _healthStatus,\r\n            _notes\r\n        );\r\n    }\r\n\r\n    /**\r\n     * @dev Internal: Thêm tree activity\r\n     */\r\n    function _addTreeActivity(\r\n        uint256 _treeId,\r\n        uint256 _participantId,\r\n        ActivityCategory _category,\r\n        string memory _activityName,\r\n        string memory _description,\r\n        bool _isSystemActivity\r\n    ) internal returns (uint256) {\r\n        _logIdCounter++;\r\n        uint256 newLogId = _logIdCounter;\r\n        uint256 timestamp = block.timestamp;\r\n\r\n        // Hash description\r\n        bytes32 dataHash = keccak256(abi.encodePacked(_activityName, _description));\r\n\r\n        // Lưu on-chain (minimal)\r\n        ActivityLogEntry memory newLog = ActivityLogEntry({\r\n            logId: newLogId,\r\n            batchId: 0,\r\n            treeId: _treeId,\r\n            participantId: _participantId,\r\n            timestamp: timestamp,\r\n            category: _category,\r\n            isSystemActivity: _isSystemActivity,\r\n            dataHash: dataHash\r\n        });\r\n\r\n        _treeActivityLogs[_treeId].push(newLog);\r\n\r\n        // Emit events\r\n        emit TreeActivityRecorded(_treeId, newLogId, _category, timestamp);\r\n        emit TreeActivityDetailsStored(newLogId, _activityName, _description);\r\n\r\n        return newLogId;\r\n    }\r\n\r\n    /**\r\n     * @dev Link cây với lô hàng khi thu hoạch\r\n     */\r\n    function linkTreeToBatch(\r\n        uint256 _treeId,\r\n        uint256 _batchId,\r\n        uint256 _farmerId,\r\n        string memory _harvestNotes\r\n    ) public {\r\n        require(_trees[_treeId].treeId != 0, \"Tree not exists\");\r\n        require(_trees[_treeId].farmerId == _farmerId, \"Not tree owner\");\r\n\r\n        // Tạo activity log\r\n        _addTreeActivity(\r\n            _treeId,\r\n            _farmerId,\r\n            ActivityCategory.Harvesting,\r\n            \"Harvested to Batch\",\r\n            string(abi.encodePacked(\"Harvested to batch #\", uint2str(_batchId))),\r\n            true\r\n        );\r\n\r\n        emit TreeLinkedToBatch(_treeId, _batchId, block.timestamp, _harvestNotes);\r\n    }\r\n\r\n    /**\r\n     * @dev Vô hiệu hóa cây\r\n     */\r\n    function deactivateTree(\r\n        uint256 _treeId,\r\n        uint256 _farmerId,\r\n        string memory _reason\r\n    ) public {\r\n        require(_trees[_treeId].treeId != 0, \"Tree not exists\");\r\n        require(_trees[_treeId].farmerId == _farmerId, \"Not tree owner\");\r\n        require(_trees[_treeId].isActive, \"Already inactive\");\r\n\r\n        _trees[_treeId].isActive = false;\r\n\r\n        _addTreeActivity(\r\n            _treeId,\r\n            _farmerId,\r\n            ActivityCategory.TreeManagement,\r\n            \"Tree Deactivated\",\r\n            _reason,\r\n            false\r\n        );\r\n\r\n        emit TreeDeactivated(_treeId, _farmerId, _reason);\r\n    }\r\n\r\n    // ===================================\r\n    // BATCH ACTIVITY LOG - OPTIMIZED\r\n    // ===================================\r\n\r\n    /**\r\n     * @dev Thêm activity log đơn giản\r\n     */\r\n    function addActivityLog(\r\n        uint256 _batchId,\r\n        uint256 _participantId,\r\n        string memory _activityName,\r\n        string memory _description,\r\n        bool _isSystemActivity\r\n    ) public onlyAuthorized returns (uint256) {\r\n        _logIdCounter++;\r\n        uint256 newLogId = _logIdCounter;\r\n        uint256 timestamp = block.timestamp;\r\n\r\n        // Hash description\r\n        bytes32 dataHash = keccak256(abi.encodePacked(_activityName, _description));\r\n\r\n        // Lưu on-chain (minimal)\r\n        ActivityLogEntry memory newLog = ActivityLogEntry({\r\n            logId: newLogId,\r\n            batchId: _batchId,\r\n            treeId: 0,\r\n            participantId: _participantId,\r\n            timestamp: timestamp,\r\n            category: ActivityCategory.Farming,\r\n            isSystemActivity: _isSystemActivity,\r\n            dataHash: dataHash\r\n        });\r\n\r\n        _batchActivityLogs[_batchId].push(newLog);\r\n\r\n        // Emit events\r\n        emit ActivityLogAdded(_batchId, _participantId, newLogId, ActivityCategory.Farming, timestamp, _isSystemActivity);\r\n        emit ActivityLogDetailsStored(newLogId, _activityName, _description);\r\n\r\n        return newLogId;\r\n    }\r\n\r\n    /**\r\n     * @dev Thêm activity log với metadata đầy đủ - Tách thành 2 functions\r\n     */\r\n    function addDetailedActivityLog(\r\n        uint256 _batchId,\r\n        uint256 _participantId,\r\n        ActivityCategory _category,\r\n        string memory _activityName,\r\n        string memory _description,\r\n        bool _isSystemActivity\r\n    ) public onlyAuthorized returns (uint256) {\r\n        _logIdCounter++;\r\n        uint256 newLogId = _logIdCounter;\r\n        uint256 timestamp = block.timestamp;\r\n\r\n        bytes32 dataHash = keccak256(abi.encodePacked(_activityName, _description));\r\n\r\n        ActivityLogEntry memory newLog = ActivityLogEntry({\r\n            logId: newLogId,\r\n            batchId: _batchId,\r\n            treeId: 0,\r\n            participantId: _participantId,\r\n            timestamp: timestamp,\r\n            category: _category,\r\n            isSystemActivity: _isSystemActivity,\r\n            dataHash: dataHash\r\n        });\r\n\r\n        _batchActivityLogs[_batchId].push(newLog);\r\n\r\n        emit ActivityLogAdded(_batchId, _participantId, newLogId, _category, timestamp, _isSystemActivity);\r\n        emit ActivityLogDetailsStored(newLogId, _activityName, _description);\r\n\r\n        return newLogId;\r\n    }\r\n\r\n    /**\r\n     * @dev Thêm metadata cho activity log\r\n     */\r\n    function addActivityLogMetadata(\r\n        uint256 _logId,\r\n        string[] memory _imageUrls,\r\n        uint256[] memory _relatedProductIds,\r\n        string memory _fertilizer,\r\n        string memory _pesticide,\r\n        uint256 _quantity,\r\n        string memory _unit,\r\n        int8 _temperature,\r\n        uint8 _humidity,\r\n        string memory _weather,\r\n        string memory _healthStatus,\r\n        string memory _notes\r\n    ) public {\r\n        if (_imageUrls.length > 0) {\r\n            emit ActivityImagesStored(_logId, _imageUrls);\r\n        }\r\n\r\n        if (_relatedProductIds.length > 0) {\r\n            emit ActivityProductsLinked(_logId, _relatedProductIds);\r\n        }\r\n\r\n        emit ActivityMetadataStored(\r\n            _logId,\r\n            _fertilizer,\r\n            _pesticide,\r\n            _quantity,\r\n            _unit,\r\n            _temperature,\r\n            _humidity,\r\n            _weather,\r\n            _healthStatus,\r\n            _notes\r\n        );\r\n    }\r\n\r\n    // ===================================\r\n    // GETTERS - TREE\r\n    // ===================================\r\n\r\n    function getTreeByQRCode(string memory _qrCode) public view returns (Tree memory) {\r\n        uint256 treeId = _treeQRCodeToId[_qrCode];\r\n        require(treeId != 0, \"Tree not found\");\r\n        return _trees[treeId];\r\n    }\r\n\r\n    function getTreeDetails(uint256 _treeId) public view returns (Tree memory) {\r\n        require(_trees[_treeId].treeId != 0, \"Tree not exists\");\r\n        return _trees[_treeId];\r\n    }\r\n\r\n    function getFarmerTrees(uint256 _farmerId) public view returns (uint256[] memory) {\r\n        return _farmerTrees[_farmerId];\r\n    }\r\n\r\n    function getRegionTrees(uint256 _regionId) public view returns (uint256[] memory) {\r\n        return _regionTrees[_regionId];\r\n    }\r\n\r\n    function getTreeActivityLogs(uint256 _treeId) public view returns (ActivityLogEntry[] memory) {\r\n        require(_trees[_treeId].treeId != 0, \"Tree not exists\");\r\n        return _treeActivityLogs[_treeId];\r\n    }\r\n\r\n    function getTotalTrees() public view returns (uint256) {\r\n        return _treeIdCounter;\r\n    }\r\n\r\n    function getActiveTrees(uint256 _farmerId) public view returns (uint256) {\r\n        uint256[] memory treeIds = _farmerTrees[_farmerId];\r\n        uint256 count = 0;\r\n        \r\n        for (uint256 i = 0; i < treeIds.length; i++) {\r\n            if (_trees[treeIds[i]].isActive) {\r\n                count++;\r\n            }\r\n        }\r\n        \r\n        return count;\r\n    }\r\n\r\n    // ===================================\r\n    // GETTERS - BATCH ACTIVITY\r\n    // ===================================\r\n\r\n    function getActivityLogs(uint256 _batchId) public view returns (ActivityLogEntry[] memory) {\r\n        return _batchActivityLogs[_batchId];\r\n    }\r\n\r\n    function getSystemActivityLogs(uint256 _batchId) public view returns (ActivityLogEntry[] memory) {\r\n        ActivityLogEntry[] memory allLogs = _batchActivityLogs[_batchId];\r\n        uint256 count = 0;\r\n        \r\n        for (uint256 i = 0; i < allLogs.length; i++) {\r\n            if (allLogs[i].isSystemActivity) {\r\n                count++;\r\n            }\r\n        }\r\n\r\n        ActivityLogEntry[] memory systemLogs = new ActivityLogEntry[](count);\r\n        uint256 index = 0;\r\n        for (uint256 i = 0; i < allLogs.length; i++) {\r\n            if (allLogs[i].isSystemActivity) {\r\n                systemLogs[index] = allLogs[i];\r\n                index++;\r\n            }\r\n        }\r\n\r\n        return systemLogs;\r\n    }\r\n\r\n    function getTotalActivityLogs() public view returns (uint256) {\r\n        return _logIdCounter;\r\n    }\r\n\r\n    // ===================================\r\n    // VERIFICATION\r\n    // ===================================\r\n\r\n    /**\r\n     * @dev Verify activity log data hash\r\n     */\r\n    function verifyActivityDataHash(\r\n        uint256 _logId,\r\n        uint256 _batchId,\r\n        string memory _activityName,\r\n        string memory _description\r\n    ) public view returns (bool) {\r\n        ActivityLogEntry[] memory logs = _batchActivityLogs[_batchId];\r\n        \r\n        for (uint256 i = 0; i < logs.length; i++) {\r\n            if (logs[i].logId == _logId) {\r\n                bytes32 calculatedHash = keccak256(abi.encodePacked(_activityName, _description));\r\n                return logs[i].dataHash == calculatedHash;\r\n            }\r\n        }\r\n        \r\n        return false;\r\n    }\r\n\r\n    // ===================================\r\n    // UTILITY FUNCTIONS\r\n    // ===================================\r\n\r\n    function uint2str(uint256 _i) internal pure returns (string memory) {\r\n        if (_i == 0) return \"0\";\r\n        uint256 j = _i;\r\n        uint256 length;\r\n        while (j != 0) {\r\n            length++;\r\n            j /= 10;\r\n        }\r\n        bytes memory bstr = new bytes(length);\r\n        uint256 k = length;\r\n        while (_i != 0) {\r\n            k = k - 1;\r\n            uint8 temp = 48 + uint8(_i - (_i / 10) * 10);\r\n            bstr[k] = bytes1(temp);\r\n            _i /= 10;\r\n        }\r\n        return string(bstr);\r\n    }\r\n}",
  "sourcePath": "D:\\LVTN\\nckh-be\\blockchain\\contracts\\ActivityLog.sol",
  "compiler": {
    "name": "solc",
    "version": "0.8.20+commit.a1b79de6.Emscripten.clang"
  },
  "schemaVersion": "3.4.16",
  "updatedAt": "2026-04-12T11:10:31.522Z",
  "networkType": "ethereum",
  "devdoc": {
    "details": "Contract tối ưu: Chỉ lưu dữ liệu cốt lõi Chi tiết mở rộng được emit qua events để backend sync vào MySQL Gas cost giảm 70-80%",
    "kind": "dev",
    "methods": {
      "addActivityLog(uint256,uint256,string,string,bool)": {
        "details": "Thêm activity log đơn giản"
      },
      "addActivityLogMetadata(uint256,string[],uint256[],string,string,uint256,string,int8,uint8,string,string,string)": {
        "details": "Thêm metadata cho activity log"
      },
      "addAuthorizedCaller(address)": {
        "details": "Cho phép TraceabilityContract (hoặc backend trusted) ghi log"
      },
      "addDetailedActivityLog(uint256,uint256,uint8,string,string,bool)": {
        "details": "Thêm activity log với metadata đầy đủ - Tách thành 2 functions"
      },
      "addTreeActivityMetadata(uint256,string[],string,string,uint256,string,int8,uint8,string,string,string)": {
        "details": "Thêm metadata cho tree activity"
      },
      "addTreeCareActivity(uint256,uint256,uint8,string,string)": {
        "details": "Thêm hoạt động chăm sóc cây - Tách thành 2 functions"
      },
      "deactivateTree(uint256,uint256,string)": {
        "details": "Vô hiệu hóa cây"
      },
      "linkTreeToBatch(uint256,uint256,uint256,string)": {
        "details": "Link cây với lô hàng khi thu hoạch"
      },
      "registerTree(string,uint256,uint256,string,string,string)": {
        "details": "Đăng ký cây mới Emit 2 events: TreeRegistered (on-chain) + TreeDetailsStored (off-chain)"
      },
      "verifyActivityDataHash(uint256,uint256,string,string)": {
        "details": "Verify activity log data hash"
      }
    },
    "title": "ActivityLog - OPTIMIZED VERSION",
    "version": 1
  },
  "userdoc": {
    "kind": "user",
    "methods": {},
    "version": 1
  }
}