{
  "contractName": "CorrectionRecord",
  "abi": [
    {
      "inputs": [],
      "stateMutability": "nonpayable",
      "type": "constructor"
    },
    {
      "anonymous": false,
      "inputs": [
        {
          "indexed": true,
          "internalType": "uint256",
          "name": "correctionId",
          "type": "uint256"
        },
        {
          "indexed": true,
          "internalType": "uint256",
          "name": "batchId",
          "type": "uint256"
        },
        {
          "indexed": true,
          "internalType": "uint256",
          "name": "requestId",
          "type": "uint256"
        },
        {
          "indexed": false,
          "internalType": "uint256",
          "name": "adminId",
          "type": "uint256"
        },
        {
          "indexed": false,
          "internalType": "uint256",
          "name": "farmerId",
          "type": "uint256"
        },
        {
          "indexed": false,
          "internalType": "uint256",
          "name": "timestamp",
          "type": "uint256"
        },
        {
          "indexed": false,
          "internalType": "bytes32",
          "name": "contentHash",
          "type": "bytes32"
        },
        {
          "indexed": false,
          "internalType": "uint8",
          "name": "changedFieldCount",
          "type": "uint8"
        }
      ],
      "name": "CorrectionLogged",
      "type": "event"
    },
    {
      "inputs": [],
      "name": "owner",
      "outputs": [
        {
          "internalType": "address",
          "name": "",
          "type": "address"
        }
      ],
      "stateMutability": "view",
      "type": "function",
      "constant": true
    },
    {
      "inputs": [],
      "name": "totalCorrections",
      "outputs": [
        {
          "internalType": "uint256",
          "name": "",
          "type": "uint256"
        }
      ],
      "stateMutability": "view",
      "type": "function",
      "constant": true
    },
    {
      "inputs": [
        {
          "internalType": "uint256",
          "name": "_batchId",
          "type": "uint256"
        },
        {
          "internalType": "uint256",
          "name": "_requestId",
          "type": "uint256"
        },
        {
          "internalType": "uint256",
          "name": "_adminId",
          "type": "uint256"
        },
        {
          "internalType": "uint256",
          "name": "_farmerId",
          "type": "uint256"
        },
        {
          "internalType": "bytes32",
          "name": "_contentHash",
          "type": "bytes32"
        },
        {
          "internalType": "uint8",
          "name": "_changedFieldCount",
          "type": "uint8"
        }
      ],
      "name": "logCorrection",
      "outputs": [
        {
          "internalType": "uint256",
          "name": "",
          "type": "uint256"
        }
      ],
      "stateMutability": "nonpayable",
      "type": "function"
    },
    {
      "inputs": [
        {
          "internalType": "uint256",
          "name": "_correctionId",
          "type": "uint256"
        }
      ],
      "name": "getCorrection",
      "outputs": [
        {
          "components": [
            {
              "internalType": "uint256",
              "name": "correctionId",
              "type": "uint256"
            },
            {
              "internalType": "uint256",
              "name": "batchId",
              "type": "uint256"
            },
            {
              "internalType": "uint256",
              "name": "requestId",
              "type": "uint256"
            },
            {
              "internalType": "uint256",
              "name": "adminId",
              "type": "uint256"
            },
            {
              "internalType": "uint256",
              "name": "farmerId",
              "type": "uint256"
            },
            {
              "internalType": "uint256",
              "name": "timestamp",
              "type": "uint256"
            },
            {
              "internalType": "bytes32",
              "name": "contentHash",
              "type": "bytes32"
            },
            {
              "internalType": "uint8",
              "name": "changedFieldCount",
              "type": "uint8"
            }
          ],
          "internalType": "struct CorrectionRecord.Correction",
          "name": "",
          "type": "tuple"
        }
      ],
      "stateMutability": "view",
      "type": "function",
      "constant": true
    },
    {
      "inputs": [
        {
          "internalType": "uint256",
          "name": "_batchId",
          "type": "uint256"
        }
      ],
      "name": "getBatchCorrectionIds",
      "outputs": [
        {
          "internalType": "uint256[]",
          "name": "",
          "type": "uint256[]"
        }
      ],
      "stateMutability": "view",
      "type": "function",
      "constant": true
    },
    {
      "inputs": [
        {
          "internalType": "uint256",
          "name": "_batchId",
          "type": "uint256"
        }
      ],
      "name": "getBatchCorrectionCount",
      "outputs": [
        {
          "internalType": "uint256",
          "name": "",
          "type": "uint256"
        }
      ],
      "stateMutability": "view",
      "type": "function",
      "constant": true
    },
    {
      "inputs": [
        {
          "internalType": "uint256",
          "name": "_requestId",
          "type": "uint256"
        }
      ],
      "name": "getCorrectionIdByRequest",
      "outputs": [
        {
          "internalType": "uint256",
          "name": "",
          "type": "uint256"
        }
      ],
      "stateMutability": "view",
      "type": "function",
      "constant": true
    },
    {
      "inputs": [
        {
          "internalType": "uint256",
          "name": "_correctionId",
          "type": "uint256"
        },
        {
          "internalType": "bytes32",
          "name": "_contentHash",
          "type": "bytes32"
        }
      ],
      "name": "verifyCorrection",
      "outputs": [
        {
          "internalType": "bool",
          "name": "",
          "type": "bool"
        }
      ],
      "stateMutability": "view",
      "type": "function",
      "constant": true
    },
    {
      "inputs": [],
      "name": "getTotalCorrections",
      "outputs": [
        {
          "internalType": "uint256",
          "name": "",
          "type": "uint256"
        }
      ],
      "stateMutability": "view",
      "type": "function",
      "constant": true
    }
  ],
  "bytecode": "0x608060405234801561000f575f80fd5b505f80546001600160a01b031916331790556108908061002e5f395ff3fe608060405234801561000f575f80fd5b5060043610610090575f3560e01c806344aa21c11161006357806344aa21c1146100ea5780638da5cb5b14610160578063ce878b351461018a578063dca07356146101aa578063e565aec5146101c9575f80fd5b806313d08ea4146100945780633caf07e7146100c65780633f90110d146100cf578063421eb65d146100e2575b5f80fd5b6100b36100a2366004610766565b5f9081526003602052604090205490565b6040519081526020015b60405180910390f35b6100b360055481565b6100b36100dd36600461077d565b6101ec565b6005546100b3565b6100fd6100f8366004610766565b610545565b6040516100bd91905f61010082019050825182526020830151602083015260408301516040830152606083015160608301526080830151608083015260a083015160a083015260c083015160c083015260ff60e08401511660e083015292915050565b5f54610172906001600160a01b031681565b6040516001600160a01b0390911681526020016100bd565b61019d610198366004610766565b61064b565b6040516100bd91906107d3565b6100b36101b8366004610766565b5f9081526004602052604090205490565b6101dc6101d7366004610816565b6106aa565b60405190151581526020016100bd565b5f80546001600160a01b031633146102385760405162461bcd60e51b815260206004820152600a60248201526927b7363c9037bbb732b960b11b60448201526064015b60405180910390fd5b5f87116102795760405162461bcd60e51b815260206004820152600f60248201526e125b9d985b1a590818985d18da1259608a1b604482015260640161022f565b5f86116102bc5760405162461bcd60e51b8152602060048201526011602482015270125b9d985b1a59081c995c5d595cdd1259607a1b604482015260640161022f565b5f85116102fd5760405162461bcd60e51b815260206004820152600f60248201526e125b9d985b1a590818591b5a5b9259608a1b604482015260640161022f565b5f841161033f5760405162461bcd60e51b815260206004820152601060248201526f125b9d985b1a590819985c9b595c925960821b604482015260640161022f565b826103825760405162461bcd60e51b8152602060048201526013602482015272092dcecc2d8d2c840c6dedce8cadce890c2e6d606b1b604482015260640161022f565b5f86815260046020526040902054156103f05760405162461bcd60e51b815260206004820152602a60248201527f436f7272656374696f6e20616c7265616479206c6f6767656420666f722074686044820152691a5cc81c995c5d595cdd60b21b606482015260840161022f565b60018054905f6103ff83610836565b909155505060018054604080516101008101825282815260208082018c81528284018c8152606084018c8152608085018c81524260a0870190815260c087018d815260ff8d811660e08a019081525f8c81526002808b528c82209b518c5598518b8f01559651978a019790975593516003808a019190915592516004808a019190915591516005808a01919091559051600689015594516007909701805460ff191697909316969096179091558e825283528481208054978801815581528281209096018590558b8652919052908320829055805491926104df83610836565b9091555050604080518781526020810187905242818301526060810186905260ff85166080820152905188918a9184917f5bbe6c46d7ea62bd19707f60978731ea0bc9f2098ca89c19ccd108028a9393cd919081900360a00190a4979650505050505050565b61058b6040518061010001604052805f81526020015f81526020015f81526020015f81526020015f81526020015f81526020015f80191681526020015f60ff1681525090565b5f8281526002602052604081205490036105de5760405162461bcd60e51b815260206004820152601460248201527310dbdc9c9958dd1a5bdb881b9bdd08199bdd5b9960621b604482015260640161022f565b505f908152600260208181526040928390208351610100810185528154815260018201549281019290925291820154928101929092526003810154606083015260048101546080830152600581015460a0830152600681015460c08301526007015460ff1660e082015290565b5f8181526003602090815260409182902080548351818402810184019094528084526060939283018282801561069e57602002820191905f5260205f20905b81548152602001906001019080831161068a575b50505050509050919050565b5f828152600260208181526040808420815161010081018352815480825260018301549482019490945293810154918401919091526003810154606084015260048101546080840152600581015460a0840152600681015460c08401526007015460ff1660e083015282036107585760405162461bcd60e51b815260206004820152601460248201527310dbdc9c9958dd1a5bdb881b9bdd08199bdd5b9960621b604482015260640161022f565b60c001518214905092915050565b5f60208284031215610776575f80fd5b5035919050565b5f805f805f8060c08789031215610792575f80fd5b863595506020870135945060408701359350606087013592506080870135915060a087013560ff811681146107c5575f80fd5b809150509295509295509295565b602080825282518282018190525f9190848201906040850190845b8181101561080a578351835292840192918401916001016107ee565b50909695505050505050565b5f8060408385031215610827575f80fd5b50508035926020909101359150565b5f6001820161085357634e487b7160e01b5f52601160045260245ffd5b506001019056fea2646970667358221220658793928b4b1c36b77a5661b24f895711644fac12bec246b53fa913eefe8c8f64736f6c63430008140033",
  "immutableReferences": {},
  "source": "// SPDX-License-Identifier: MIT\r\npragma solidity ^0.8.0;\r\n\r\n/**\r\n * @title CorrectionRecord\r\n * @dev Ghi nhận bất biến mọi lần đính chính dữ liệu lô hàng.\r\n *      Dữ liệu chi tiết (giá trị cũ/mới) lưu MySQL.\r\n *      Blockchain chỉ lưu: batchId, adminId, timestamp, contentHash.\r\n *      → Không thể chối cãi: ai sửa gì, lúc nào.\r\n */\r\ncontract CorrectionRecord {\r\n\r\n    // ===================================\r\n    // OWNER\r\n    // ===================================\r\n    address public owner;\r\n\r\n    constructor() {\r\n        owner = msg.sender;\r\n    }\r\n\r\n    modifier onlyOwner() {\r\n        require(msg.sender == owner, \"Only owner\");\r\n        _;\r\n    }\r\n\r\n    // ===================================\r\n    // STRUCT\r\n    // ===================================\r\n\r\n    /**\r\n     * @dev Một bản ghi đính chính\r\n     * Không lưu giá trị cụ thể (tiết kiệm gas, tránh lưu PII)\r\n     * contentHash = keccak256(batchId + changedFields + oldValues + newValues + reason)\r\n     * → Dùng để verify dữ liệu MySQL không bị giả mạo\r\n     */\r\n    struct Correction {\r\n        uint256 correctionId;       // ID tự tăng\r\n        uint256 batchId;            // ID lô hàng (tham chiếu với MySQL)\r\n        uint256 requestId;          // ID yêu cầu đính chính (batch_correction_requests.id)\r\n        uint256 adminId;            // ID admin phê duyệt\r\n        uint256 farmerId;           // ID nông dân yêu cầu\r\n        uint256 timestamp;          // Unix timestamp lúc ghi\r\n        bytes32 contentHash;        // Hash nội dung để verify off-chain data\r\n        uint8   changedFieldCount;  // Số lượng field bị thay đổi\r\n    }\r\n\r\n    // ===================================\r\n    // STORAGE\r\n    // ===================================\r\n\r\n    uint256 private _correctionIdCounter;\r\n\r\n    // correctionId → Correction\r\n    mapping(uint256 => Correction) private _corrections;\r\n\r\n    // batchId → danh sách correctionId\r\n    mapping(uint256 => uint256[]) private _batchCorrections;\r\n\r\n    // requestId → correctionId (1-1, để tránh ghi 2 lần)\r\n    mapping(uint256 => uint256) private _requestToCorrectionId;\r\n\r\n    // Tổng số lần đính chính\r\n    uint256 public totalCorrections;\r\n\r\n    // ===================================\r\n    // EVENTS\r\n    // ===================================\r\n\r\n    /**\r\n     * @dev Emit khi một lần đính chính được ghi lên chain\r\n     * Backend lắng nghe event này để cập nhật blockchain_tx_hash vào MySQL\r\n     */\r\n    event CorrectionLogged(\r\n        uint256 indexed correctionId,\r\n        uint256 indexed batchId,\r\n        uint256 indexed requestId,\r\n        uint256 adminId,\r\n        uint256 farmerId,\r\n        uint256 timestamp,\r\n        bytes32 contentHash,\r\n        uint8   changedFieldCount\r\n    );\r\n\r\n    // ===================================\r\n    // WRITE FUNCTIONS\r\n    // ===================================\r\n\r\n    /**\r\n     * @dev Ghi một bản ghi đính chính lên blockchain\r\n     * Chỉ owner (backend server) mới được gọi\r\n     *\r\n     * @param _batchId          ID lô hàng\r\n     * @param _requestId        ID yêu cầu đính chính (MySQL PK)\r\n     * @param _adminId          ID admin phê duyệt\r\n     * @param _farmerId         ID nông dân\r\n     * @param _contentHash      keccak256 của nội dung thay đổi\r\n     * @param _changedFieldCount Số field bị thay đổi\r\n     */\r\n    function logCorrection(\r\n        uint256 _batchId,\r\n        uint256 _requestId,\r\n        uint256 _adminId,\r\n        uint256 _farmerId,\r\n        bytes32 _contentHash,\r\n        uint8   _changedFieldCount\r\n    ) external onlyOwner returns (uint256) {\r\n        require(_batchId > 0,            \"Invalid batchId\");\r\n        require(_requestId > 0,          \"Invalid requestId\");\r\n        require(_adminId > 0,            \"Invalid adminId\");\r\n        require(_farmerId > 0,           \"Invalid farmerId\");\r\n        require(_contentHash != bytes32(0), \"Invalid contentHash\");\r\n\r\n        // Tránh ghi 2 lần cho cùng 1 requestId\r\n        require(\r\n            _requestToCorrectionId[_requestId] == 0,\r\n            \"Correction already logged for this request\"\r\n        );\r\n\r\n        _correctionIdCounter++;\r\n        uint256 newId = _correctionIdCounter;\r\n\r\n        _corrections[newId] = Correction({\r\n            correctionId:      newId,\r\n            batchId:           _batchId,\r\n            requestId:         _requestId,\r\n            adminId:           _adminId,\r\n            farmerId:          _farmerId,\r\n            timestamp:         block.timestamp,\r\n            contentHash:       _contentHash,\r\n            changedFieldCount: _changedFieldCount\r\n        });\r\n\r\n        _batchCorrections[_batchId].push(newId);\r\n        _requestToCorrectionId[_requestId] = newId;\r\n        totalCorrections++;\r\n\r\n        emit CorrectionLogged(\r\n            newId,\r\n            _batchId,\r\n            _requestId,\r\n            _adminId,\r\n            _farmerId,\r\n            block.timestamp,\r\n            _contentHash,\r\n            _changedFieldCount\r\n        );\r\n\r\n        return newId;\r\n    }\r\n\r\n    // ===================================\r\n    // READ FUNCTIONS\r\n    // ===================================\r\n\r\n    /**\r\n     * @dev Lấy thông tin một bản ghi đính chính theo correctionId\r\n     */\r\n    function getCorrection(uint256 _correctionId)\r\n        external\r\n        view\r\n        returns (Correction memory)\r\n    {\r\n        require(\r\n            _corrections[_correctionId].correctionId != 0,\r\n            \"Correction not found\"\r\n        );\r\n        return _corrections[_correctionId];\r\n    }\r\n\r\n    /**\r\n     * @dev Lấy danh sách correctionId của một lô hàng\r\n     */\r\n    function getBatchCorrectionIds(uint256 _batchId)\r\n        external\r\n        view\r\n        returns (uint256[] memory)\r\n    {\r\n        return _batchCorrections[_batchId];\r\n    }\r\n\r\n    /**\r\n     * @dev Lấy số lần đính chính của một lô hàng\r\n     */\r\n    function getBatchCorrectionCount(uint256 _batchId)\r\n        external\r\n        view\r\n        returns (uint256)\r\n    {\r\n        return _batchCorrections[_batchId].length;\r\n    }\r\n\r\n    /**\r\n     * @dev Lấy correctionId từ requestId (MySQL PK)\r\n     * Trả về 0 nếu chưa được ghi lên chain\r\n     */\r\n    function getCorrectionIdByRequest(uint256 _requestId)\r\n        external\r\n        view\r\n        returns (uint256)\r\n    {\r\n        return _requestToCorrectionId[_requestId];\r\n    }\r\n\r\n    /**\r\n     * @dev Verify nội dung đính chính có khớp với hash trên chain không\r\n     * Dùng để kiểm tra tính toàn vẹn của dữ liệu MySQL\r\n     *\r\n     * @param _correctionId  ID bản ghi cần verify\r\n     * @param _contentHash   Hash tính lại từ dữ liệu MySQL\r\n     * @return true nếu khớp\r\n     */\r\n    function verifyCorrection(uint256 _correctionId, bytes32 _contentHash)\r\n        external\r\n        view\r\n        returns (bool)\r\n    {\r\n        Correction memory c = _corrections[_correctionId];\r\n        require(c.correctionId != 0, \"Correction not found\");\r\n        return c.contentHash == _contentHash;\r\n    }\r\n\r\n    /**\r\n     * @dev Tổng số bản ghi đính chính đã lưu\r\n     */\r\n    function getTotalCorrections() external view returns (uint256) {\r\n        return totalCorrections;\r\n    }\r\n}\r\n",
  "sourcePath": "D:\\LVTN\\nckh-be\\blockchain\\contracts\\CorrectionRecord.sol",
  "compiler": {
    "name": "solc",
    "version": "0.8.20+commit.a1b79de6.Emscripten.clang"
  },
  "schemaVersion": "3.4.16",
  "updatedAt": "2026-04-17T15:27:22.251Z",
  "networkType": "ethereum",
  "devdoc": {
    "details": "Ghi nhận bất biến mọi lần đính chính dữ liệu lô hàng.      Dữ liệu chi tiết (giá trị cũ/mới) lưu MySQL.      Blockchain chỉ lưu: batchId, adminId, timestamp, contentHash.      → Không thể chối cãi: ai sửa gì, lúc nào.",
    "events": {
      "CorrectionLogged(uint256,uint256,uint256,uint256,uint256,uint256,bytes32,uint8)": {
        "details": "Emit khi một lần đính chính được ghi lên chain Backend lắng nghe event này để cập nhật blockchain_tx_hash vào MySQL"
      }
    },
    "kind": "dev",
    "methods": {
      "getBatchCorrectionCount(uint256)": {
        "details": "Lấy số lần đính chính của một lô hàng"
      },
      "getBatchCorrectionIds(uint256)": {
        "details": "Lấy danh sách correctionId của một lô hàng"
      },
      "getCorrection(uint256)": {
        "details": "Lấy thông tin một bản ghi đính chính theo correctionId"
      },
      "getCorrectionIdByRequest(uint256)": {
        "details": "Lấy correctionId từ requestId (MySQL PK) Trả về 0 nếu chưa được ghi lên chain"
      },
      "getTotalCorrections()": {
        "details": "Tổng số bản ghi đính chính đã lưu"
      },
      "logCorrection(uint256,uint256,uint256,uint256,bytes32,uint8)": {
        "details": "Ghi một bản ghi đính chính lên blockchain Chỉ owner (backend server) mới được gọi",
        "params": {
          "_adminId": "ID admin phê duyệt",
          "_batchId": "ID lô hàng",
          "_changedFieldCount": "Số field bị thay đổi",
          "_contentHash": "keccak256 của nội dung thay đổi",
          "_farmerId": "ID nông dân",
          "_requestId": "ID yêu cầu đính chính (MySQL PK)"
        }
      },
      "verifyCorrection(uint256,bytes32)": {
        "details": "Verify nội dung đính chính có khớp với hash trên chain không Dùng để kiểm tra tính toàn vẹn của dữ liệu MySQL",
        "params": {
          "_contentHash": "Hash tính lại từ dữ liệu MySQL",
          "_correctionId": "ID bản ghi cần verify"
        },
        "returns": {
          "_0": "true nếu khớp"
        }
      }
    },
    "title": "CorrectionRecord",
    "version": 1
  },
  "userdoc": {
    "kind": "user",
    "methods": {},
    "version": 1
  }
}