{
  "contractName": "TraceabilityContract",
  "abi": [
    {
      "inputs": [
        {
          "internalType": "address",
          "name": "_activityLogAddress",
          "type": "address"
        }
      ],
      "stateMutability": "nonpayable",
      "type": "constructor"
    },
    {
      "anonymous": false,
      "inputs": [
        {
          "indexed": true,
          "internalType": "uint256",
          "name": "batchId",
          "type": "uint256"
        },
        {
          "indexed": true,
          "internalType": "uint256",
          "name": "producerId",
          "type": "uint256"
        },
        {
          "indexed": false,
          "internalType": "string",
          "name": "sscc",
          "type": "string"
        }
      ],
      "name": "BatchApproved",
      "type": "event"
    },
    {
      "anonymous": false,
      "inputs": [
        {
          "indexed": true,
          "internalType": "uint256",
          "name": "batchId",
          "type": "uint256"
        },
        {
          "indexed": false,
          "internalType": "string",
          "name": "sscc",
          "type": "string"
        },
        {
          "indexed": true,
          "internalType": "uint256",
          "name": "producerId",
          "type": "uint256"
        },
        {
          "indexed": false,
          "internalType": "uint256",
          "name": "productTypeId",
          "type": "uint256"
        },
        {
          "indexed": false,
          "internalType": "uint256",
          "name": "productionDate",
          "type": "uint256"
        },
        {
          "indexed": false,
          "internalType": "bytes32",
          "name": "dataHash",
          "type": "bytes32"
        }
      ],
      "name": "BatchCreated",
      "type": "event"
    },
    {
      "anonymous": false,
      "inputs": [
        {
          "indexed": true,
          "internalType": "uint256",
          "name": "batchId",
          "type": "uint256"
        },
        {
          "indexed": false,
          "internalType": "string",
          "name": "name",
          "type": "string"
        },
        {
          "indexed": false,
          "internalType": "string",
          "name": "quantity",
          "type": "string"
        },
        {
          "indexed": false,
          "internalType": "uint256",
          "name": "startDate",
          "type": "uint256"
        },
        {
          "indexed": false,
          "internalType": "uint256",
          "name": "endDate",
          "type": "uint256"
        },
        {
          "indexed": false,
          "internalType": "string",
          "name": "farmPlotNumber",
          "type": "string"
        }
      ],
      "name": "BatchDetailsStored",
      "type": "event"
    },
    {
      "anonymous": false,
      "inputs": [
        {
          "indexed": true,
          "internalType": "uint256",
          "name": "batchId",
          "type": "uint256"
        },
        {
          "indexed": true,
          "internalType": "uint256",
          "name": "producerId",
          "type": "uint256"
        },
        {
          "indexed": false,
          "internalType": "string",
          "name": "sscc",
          "type": "string"
        },
        {
          "indexed": false,
          "internalType": "string",
          "name": "reason",
          "type": "string"
        }
      ],
      "name": "BatchRejected",
      "type": "event"
    },
    {
      "anonymous": false,
      "inputs": [
        {
          "indexed": true,
          "internalType": "uint256",
          "name": "processingId",
          "type": "uint256"
        },
        {
          "indexed": false,
          "internalType": "string",
          "name": "methodDescription",
          "type": "string"
        },
        {
          "indexed": false,
          "internalType": "string",
          "name": "notes",
          "type": "string"
        }
      ],
      "name": "ProcessingDetailsStored",
      "type": "event"
    },
    {
      "anonymous": false,
      "inputs": [
        {
          "indexed": true,
          "internalType": "uint256",
          "name": "processingId",
          "type": "uint256"
        },
        {
          "indexed": true,
          "internalType": "uint256",
          "name": "batchId",
          "type": "uint256"
        },
        {
          "indexed": false,
          "internalType": "uint256",
          "name": "processorId",
          "type": "uint256"
        },
        {
          "indexed": false,
          "internalType": "enum TraceabilityContract.ProcessingMethod",
          "name": "method",
          "type": "uint8"
        }
      ],
      "name": "ProcessingRecorded",
      "type": "event"
    },
    {
      "anonymous": false,
      "inputs": [
        {
          "indexed": true,
          "internalType": "uint256",
          "name": "productId",
          "type": "uint256"
        },
        {
          "indexed": false,
          "internalType": "string",
          "name": "governmentQRCode",
          "type": "string"
        },
        {
          "indexed": true,
          "internalType": "uint256",
          "name": "batchId",
          "type": "uint256"
        },
        {
          "indexed": false,
          "internalType": "uint256",
          "name": "weight",
          "type": "uint256"
        },
        {
          "indexed": false,
          "internalType": "string",
          "name": "packageType",
          "type": "string"
        }
      ],
      "name": "ProductCreated",
      "type": "event"
    },
    {
      "anonymous": false,
      "inputs": [
        {
          "indexed": true,
          "internalType": "uint256",
          "name": "productId",
          "type": "uint256"
        },
        {
          "indexed": true,
          "internalType": "uint256",
          "name": "treeId",
          "type": "uint256"
        }
      ],
      "name": "ProductTreeLinked",
      "type": "event"
    },
    {
      "anonymous": false,
      "inputs": [
        {
          "indexed": true,
          "internalType": "uint256",
          "name": "purchaseId",
          "type": "uint256"
        },
        {
          "indexed": false,
          "internalType": "string",
          "name": "qualityGrade",
          "type": "string"
        },
        {
          "indexed": false,
          "internalType": "string",
          "name": "notes",
          "type": "string"
        }
      ],
      "name": "PurchaseDetailsStored",
      "type": "event"
    },
    {
      "anonymous": false,
      "inputs": [
        {
          "indexed": true,
          "internalType": "uint256",
          "name": "purchaseId",
          "type": "uint256"
        },
        {
          "indexed": true,
          "internalType": "uint256",
          "name": "batchId",
          "type": "uint256"
        },
        {
          "indexed": false,
          "internalType": "uint256",
          "name": "purchaserId",
          "type": "uint256"
        },
        {
          "indexed": false,
          "internalType": "uint256",
          "name": "totalQuantity",
          "type": "uint256"
        },
        {
          "indexed": false,
          "internalType": "uint256",
          "name": "totalPrice",
          "type": "uint256"
        }
      ],
      "name": "PurchaseRecorded",
      "type": "event"
    },
    {
      "anonymous": false,
      "inputs": [
        {
          "indexed": true,
          "internalType": "uint256",
          "name": "testId",
          "type": "uint256"
        },
        {
          "indexed": false,
          "internalType": "string",
          "name": "testType",
          "type": "string"
        },
        {
          "indexed": false,
          "internalType": "string",
          "name": "testMethod",
          "type": "string"
        },
        {
          "indexed": false,
          "internalType": "string",
          "name": "result",
          "type": "string"
        },
        {
          "indexed": false,
          "internalType": "string",
          "name": "standard",
          "type": "string"
        }
      ],
      "name": "QualityTestDetailsStored",
      "type": "event"
    },
    {
      "anonymous": false,
      "inputs": [
        {
          "indexed": true,
          "internalType": "uint256",
          "name": "testId",
          "type": "uint256"
        },
        {
          "indexed": true,
          "internalType": "uint256",
          "name": "batchId",
          "type": "uint256"
        },
        {
          "indexed": false,
          "internalType": "uint256",
          "name": "inspectorId",
          "type": "uint256"
        },
        {
          "indexed": false,
          "internalType": "bool",
          "name": "passed",
          "type": "bool"
        },
        {
          "indexed": false,
          "internalType": "bytes32",
          "name": "resultHash",
          "type": "bytes32"
        }
      ],
      "name": "QualityTestRecorded",
      "type": "event"
    },
    {
      "anonymous": false,
      "inputs": [
        {
          "indexed": true,
          "internalType": "uint256",
          "name": "batchId",
          "type": "uint256"
        },
        {
          "indexed": false,
          "internalType": "enum TraceabilityContract.SupplyChainStage",
          "name": "newStage",
          "type": "uint8"
        },
        {
          "indexed": false,
          "internalType": "uint256",
          "name": "participantId",
          "type": "uint256"
        }
      ],
      "name": "StageUpdated",
      "type": "event"
    },
    {
      "anonymous": false,
      "inputs": [
        {
          "indexed": true,
          "internalType": "uint256",
          "name": "batchId",
          "type": "uint256"
        },
        {
          "indexed": false,
          "internalType": "uint256",
          "name": "participantId",
          "type": "uint256"
        },
        {
          "indexed": false,
          "internalType": "string",
          "name": "action",
          "type": "string"
        },
        {
          "indexed": false,
          "internalType": "string",
          "name": "location",
          "type": "string"
        },
        {
          "indexed": false,
          "internalType": "string",
          "name": "participantType",
          "type": "string"
        }
      ],
      "name": "TransportDetailsStored",
      "type": "event"
    },
    {
      "anonymous": false,
      "inputs": [
        {
          "indexed": true,
          "internalType": "uint256",
          "name": "batchId",
          "type": "uint256"
        },
        {
          "indexed": false,
          "internalType": "enum TraceabilityContract.DetailedTransportStatus",
          "name": "newStatus",
          "type": "uint8"
        },
        {
          "indexed": false,
          "internalType": "uint256",
          "name": "participantId",
          "type": "uint256"
        },
        {
          "indexed": false,
          "internalType": "uint8",
          "name": "actionCode",
          "type": "uint8"
        }
      ],
      "name": "TransportStatusUpdated",
      "type": "event"
    },
    {
      "anonymous": false,
      "inputs": [
        {
          "indexed": true,
          "internalType": "uint256",
          "name": "batchId",
          "type": "uint256"
        },
        {
          "indexed": true,
          "internalType": "uint256",
          "name": "warehouseId",
          "type": "uint256"
        }
      ],
      "name": "WarehouseConfirmed",
      "type": "event"
    },
    {
      "inputs": [
        {
          "internalType": "string",
          "name": "_name",
          "type": "string"
        },
        {
          "internalType": "uint256",
          "name": "_producerId",
          "type": "uint256"
        },
        {
          "internalType": "string",
          "name": "_quantity",
          "type": "string"
        },
        {
          "internalType": "uint256",
          "name": "_productTypeId",
          "type": "uint256"
        },
        {
          "internalType": "uint256",
          "name": "_startDate",
          "type": "uint256"
        },
        {
          "internalType": "uint256",
          "name": "_endDate",
          "type": "uint256"
        }
      ],
      "name": "createBatch",
      "outputs": [
        {
          "internalType": "uint256",
          "name": "",
          "type": "uint256"
        }
      ],
      "stateMutability": "nonpayable",
      "type": "function"
    },
    {
      "inputs": [
        {
          "internalType": "uint256",
          "name": "_batchId",
          "type": "uint256"
        },
        {
          "internalType": "string[]",
          "name": "_governmentQRCodes",
          "type": "string[]"
        },
        {
          "internalType": "uint256[]",
          "name": "_sourceTreeIds",
          "type": "uint256[]"
        },
        {
          "internalType": "uint256[]",
          "name": "_weights",
          "type": "uint256[]"
        },
        {
          "internalType": "string",
          "name": "_packageType",
          "type": "string"
        }
      ],
      "name": "createProductsInBatch",
      "outputs": [
        {
          "internalType": "uint256[]",
          "name": "",
          "type": "uint256[]"
        }
      ],
      "stateMutability": "nonpayable",
      "type": "function"
    },
    {
      "inputs": [
        {
          "internalType": "uint256",
          "name": "_batchId",
          "type": "uint256"
        },
        {
          "internalType": "uint256",
          "name": "_approverId",
          "type": "uint256"
        }
      ],
      "name": "approveBatch",
      "outputs": [],
      "stateMutability": "nonpayable",
      "type": "function"
    },
    {
      "inputs": [
        {
          "internalType": "uint256",
          "name": "_batchId",
          "type": "uint256"
        },
        {
          "internalType": "uint256",
          "name": "_approverId",
          "type": "uint256"
        },
        {
          "internalType": "string",
          "name": "_reason",
          "type": "string"
        }
      ],
      "name": "rejectBatch",
      "outputs": [],
      "stateMutability": "nonpayable",
      "type": "function"
    },
    {
      "inputs": [
        {
          "internalType": "uint256",
          "name": "_batchId",
          "type": "uint256"
        },
        {
          "internalType": "uint256",
          "name": "_purchaserId",
          "type": "uint256"
        },
        {
          "internalType": "uint256",
          "name": "_totalQuantity",
          "type": "uint256"
        },
        {
          "internalType": "uint256",
          "name": "_pricePerUnit",
          "type": "uint256"
        }
      ],
      "name": "recordPurchase",
      "outputs": [
        {
          "internalType": "uint256",
          "name": "",
          "type": "uint256"
        }
      ],
      "stateMutability": "nonpayable",
      "type": "function"
    },
    {
      "inputs": [
        {
          "internalType": "uint256",
          "name": "_purchaseId",
          "type": "uint256"
        },
        {
          "internalType": "string",
          "name": "_qualityGrade",
          "type": "string"
        },
        {
          "internalType": "string",
          "name": "_notes",
          "type": "string"
        }
      ],
      "name": "addPurchaseDetails",
      "outputs": [],
      "stateMutability": "nonpayable",
      "type": "function"
    },
    {
      "inputs": [
        {
          "internalType": "uint256",
          "name": "_batchId",
          "type": "uint256"
        },
        {
          "internalType": "uint256",
          "name": "_participantId",
          "type": "uint256"
        },
        {
          "internalType": "uint8",
          "name": "_actionCode",
          "type": "uint8"
        },
        {
          "internalType": "int8",
          "name": "_temperature",
          "type": "int8"
        },
        {
          "internalType": "uint8",
          "name": "_humidity",
          "type": "uint8"
        }
      ],
      "name": "updateTransportStatus",
      "outputs": [],
      "stateMutability": "nonpayable",
      "type": "function"
    },
    {
      "inputs": [
        {
          "internalType": "uint256",
          "name": "_batchId",
          "type": "uint256"
        },
        {
          "internalType": "uint256",
          "name": "_participantId",
          "type": "uint256"
        },
        {
          "internalType": "string",
          "name": "_action",
          "type": "string"
        },
        {
          "internalType": "string",
          "name": "_location",
          "type": "string"
        },
        {
          "internalType": "string",
          "name": "_participantType",
          "type": "string"
        }
      ],
      "name": "addTransportDetails",
      "outputs": [],
      "stateMutability": "nonpayable",
      "type": "function"
    },
    {
      "inputs": [
        {
          "internalType": "uint256",
          "name": "_batchId",
          "type": "uint256"
        },
        {
          "internalType": "uint256",
          "name": "_processorId",
          "type": "uint256"
        },
        {
          "internalType": "enum TraceabilityContract.ProcessingMethod",
          "name": "_method",
          "type": "uint8"
        },
        {
          "internalType": "uint256",
          "name": "_inputWeight",
          "type": "uint256"
        },
        {
          "internalType": "uint256",
          "name": "_outputWeight",
          "type": "uint256"
        }
      ],
      "name": "recordProcessing",
      "outputs": [
        {
          "internalType": "uint256",
          "name": "",
          "type": "uint256"
        }
      ],
      "stateMutability": "nonpayable",
      "type": "function"
    },
    {
      "inputs": [
        {
          "internalType": "uint256",
          "name": "_processingId",
          "type": "uint256"
        },
        {
          "internalType": "string",
          "name": "_methodDescription",
          "type": "string"
        },
        {
          "internalType": "string",
          "name": "_notes",
          "type": "string"
        }
      ],
      "name": "addProcessingDetails",
      "outputs": [],
      "stateMutability": "nonpayable",
      "type": "function"
    },
    {
      "inputs": [
        {
          "internalType": "uint256",
          "name": "_batchId",
          "type": "uint256"
        },
        {
          "internalType": "uint256",
          "name": "_inspectorId",
          "type": "uint256"
        },
        {
          "internalType": "bool",
          "name": "_passed",
          "type": "bool"
        }
      ],
      "name": "recordQualityTest",
      "outputs": [
        {
          "internalType": "uint256",
          "name": "",
          "type": "uint256"
        }
      ],
      "stateMutability": "nonpayable",
      "type": "function"
    },
    {
      "inputs": [
        {
          "internalType": "uint256",
          "name": "_testId",
          "type": "uint256"
        },
        {
          "internalType": "uint256",
          "name": "_batchId",
          "type": "uint256"
        },
        {
          "internalType": "string",
          "name": "_testType",
          "type": "string"
        },
        {
          "internalType": "string",
          "name": "_testMethod",
          "type": "string"
        },
        {
          "internalType": "string",
          "name": "_result",
          "type": "string"
        },
        {
          "internalType": "string",
          "name": "_standard",
          "type": "string"
        }
      ],
      "name": "addQualityTestDetails",
      "outputs": [],
      "stateMutability": "nonpayable",
      "type": "function"
    },
    {
      "inputs": [
        {
          "internalType": "uint256",
          "name": "_batchId",
          "type": "uint256"
        },
        {
          "internalType": "uint256",
          "name": "_warehouseId",
          "type": "uint256"
        }
      ],
      "name": "warehouseConfirmation",
      "outputs": [],
      "stateMutability": "nonpayable",
      "type": "function"
    },
    {
      "inputs": [
        {
          "internalType": "uint256",
          "name": "_batchId",
          "type": "uint256"
        }
      ],
      "name": "getBatchDetails",
      "outputs": [
        {
          "components": [
            {
              "internalType": "uint256",
              "name": "batchId",
              "type": "uint256"
            },
            {
              "internalType": "string",
              "name": "sscc",
              "type": "string"
            },
            {
              "internalType": "uint256",
              "name": "producerId",
              "type": "uint256"
            },
            {
              "internalType": "uint256",
              "name": "productionDate",
              "type": "uint256"
            },
            {
              "internalType": "uint256",
              "name": "startDate",
              "type": "uint256"
            },
            {
              "internalType": "uint256",
              "name": "endDate",
              "type": "uint256"
            },
            {
              "internalType": "enum TraceabilityContract.BatchStatus",
              "name": "status",
              "type": "uint8"
            },
            {
              "internalType": "bytes32",
              "name": "dataHash",
              "type": "bytes32"
            },
            {
              "internalType": "uint256",
              "name": "productTypeId",
              "type": "uint256"
            },
            {
              "internalType": "enum TraceabilityContract.SupplyChainStage",
              "name": "currentStage",
              "type": "uint8"
            },
            {
              "internalType": "enum TraceabilityContract.TransportStatus",
              "name": "transportStatus",
              "type": "uint8"
            },
            {
              "internalType": "enum TraceabilityContract.DetailedTransportStatus",
              "name": "detailedTransportStatus",
              "type": "uint8"
            },
            {
              "internalType": "uint256",
              "name": "purchaserId",
              "type": "uint256"
            },
            {
              "internalType": "uint256",
              "name": "processorId",
              "type": "uint256"
            },
            {
              "internalType": "uint256",
              "name": "qualityInspectorId",
              "type": "uint256"
            },
            {
              "internalType": "uint256",
              "name": "lastTransporterId",
              "type": "uint256"
            },
            {
              "internalType": "uint256",
              "name": "totalProducts",
              "type": "uint256"
            }
          ],
          "internalType": "struct TraceabilityContract.Batch",
          "name": "",
          "type": "tuple"
        }
      ],
      "stateMutability": "view",
      "type": "function",
      "constant": true
    },
    {
      "inputs": [
        {
          "internalType": "string",
          "name": "_sscc",
          "type": "string"
        }
      ],
      "name": "getBatchBySSCC",
      "outputs": [
        {
          "components": [
            {
              "internalType": "uint256",
              "name": "batchId",
              "type": "uint256"
            },
            {
              "internalType": "string",
              "name": "sscc",
              "type": "string"
            },
            {
              "internalType": "uint256",
              "name": "producerId",
              "type": "uint256"
            },
            {
              "internalType": "uint256",
              "name": "productionDate",
              "type": "uint256"
            },
            {
              "internalType": "uint256",
              "name": "startDate",
              "type": "uint256"
            },
            {
              "internalType": "uint256",
              "name": "endDate",
              "type": "uint256"
            },
            {
              "internalType": "enum TraceabilityContract.BatchStatus",
              "name": "status",
              "type": "uint8"
            },
            {
              "internalType": "bytes32",
              "name": "dataHash",
              "type": "bytes32"
            },
            {
              "internalType": "uint256",
              "name": "productTypeId",
              "type": "uint256"
            },
            {
              "internalType": "enum TraceabilityContract.SupplyChainStage",
              "name": "currentStage",
              "type": "uint8"
            },
            {
              "internalType": "enum TraceabilityContract.TransportStatus",
              "name": "transportStatus",
              "type": "uint8"
            },
            {
              "internalType": "enum TraceabilityContract.DetailedTransportStatus",
              "name": "detailedTransportStatus",
              "type": "uint8"
            },
            {
              "internalType": "uint256",
              "name": "purchaserId",
              "type": "uint256"
            },
            {
              "internalType": "uint256",
              "name": "processorId",
              "type": "uint256"
            },
            {
              "internalType": "uint256",
              "name": "qualityInspectorId",
              "type": "uint256"
            },
            {
              "internalType": "uint256",
              "name": "lastTransporterId",
              "type": "uint256"
            },
            {
              "internalType": "uint256",
              "name": "totalProducts",
              "type": "uint256"
            }
          ],
          "internalType": "struct TraceabilityContract.Batch",
          "name": "",
          "type": "tuple"
        }
      ],
      "stateMutability": "view",
      "type": "function",
      "constant": true
    },
    {
      "inputs": [
        {
          "internalType": "string",
          "name": "_sscc",
          "type": "string"
        }
      ],
      "name": "getBatchIdBySSCC",
      "outputs": [
        {
          "internalType": "uint256",
          "name": "",
          "type": "uint256"
        }
      ],
      "stateMutability": "view",
      "type": "function",
      "constant": true
    },
    {
      "inputs": [
        {
          "internalType": "uint256",
          "name": "_batchId",
          "type": "uint256"
        }
      ],
      "name": "isBatchApproved",
      "outputs": [
        {
          "internalType": "bool",
          "name": "",
          "type": "bool"
        }
      ],
      "stateMutability": "view",
      "type": "function",
      "constant": true
    },
    {
      "inputs": [
        {
          "internalType": "uint256",
          "name": "_batchId",
          "type": "uint256"
        }
      ],
      "name": "getCurrentStage",
      "outputs": [
        {
          "internalType": "enum TraceabilityContract.SupplyChainStage",
          "name": "",
          "type": "uint8"
        }
      ],
      "stateMutability": "view",
      "type": "function",
      "constant": true
    },
    {
      "inputs": [
        {
          "internalType": "uint256",
          "name": "_batchId",
          "type": "uint256"
        }
      ],
      "name": "getBatchTransportStatus",
      "outputs": [
        {
          "internalType": "enum TraceabilityContract.TransportStatus",
          "name": "",
          "type": "uint8"
        }
      ],
      "stateMutability": "view",
      "type": "function",
      "constant": true
    },
    {
      "inputs": [
        {
          "internalType": "uint256",
          "name": "_batchId",
          "type": "uint256"
        }
      ],
      "name": "getDetailedTransportStatus",
      "outputs": [
        {
          "internalType": "enum TraceabilityContract.DetailedTransportStatus",
          "name": "",
          "type": "uint8"
        }
      ],
      "stateMutability": "view",
      "type": "function",
      "constant": true
    },
    {
      "inputs": [],
      "name": "getTotalBatches",
      "outputs": [
        {
          "internalType": "uint256",
          "name": "",
          "type": "uint256"
        }
      ],
      "stateMutability": "view",
      "type": "function",
      "constant": true
    },
    {
      "inputs": [
        {
          "internalType": "string",
          "name": "_governmentQR",
          "type": "string"
        }
      ],
      "name": "getProductByGovernmentQR",
      "outputs": [
        {
          "components": [
            {
              "internalType": "uint256",
              "name": "productId",
              "type": "uint256"
            },
            {
              "internalType": "uint256",
              "name": "batchId",
              "type": "uint256"
            },
            {
              "internalType": "string",
              "name": "governmentQRCode",
              "type": "string"
            },
            {
              "internalType": "uint256",
              "name": "packagedDate",
              "type": "uint256"
            },
            {
              "internalType": "uint256",
              "name": "weight",
              "type": "uint256"
            },
            {
              "internalType": "bool",
              "name": "isActive",
              "type": "bool"
            }
          ],
          "internalType": "struct TraceabilityContract.Product",
          "name": "",
          "type": "tuple"
        }
      ],
      "stateMutability": "view",
      "type": "function",
      "constant": true
    },
    {
      "inputs": [
        {
          "internalType": "uint256",
          "name": "_productId",
          "type": "uint256"
        }
      ],
      "name": "getProductDetails",
      "outputs": [
        {
          "components": [
            {
              "internalType": "uint256",
              "name": "productId",
              "type": "uint256"
            },
            {
              "internalType": "uint256",
              "name": "batchId",
              "type": "uint256"
            },
            {
              "internalType": "string",
              "name": "governmentQRCode",
              "type": "string"
            },
            {
              "internalType": "uint256",
              "name": "packagedDate",
              "type": "uint256"
            },
            {
              "internalType": "uint256",
              "name": "weight",
              "type": "uint256"
            },
            {
              "internalType": "bool",
              "name": "isActive",
              "type": "bool"
            }
          ],
          "internalType": "struct TraceabilityContract.Product",
          "name": "",
          "type": "tuple"
        }
      ],
      "stateMutability": "view",
      "type": "function",
      "constant": true
    },
    {
      "inputs": [],
      "name": "getTotalProducts",
      "outputs": [
        {
          "internalType": "uint256",
          "name": "",
          "type": "uint256"
        }
      ],
      "stateMutability": "view",
      "type": "function",
      "constant": true
    },
    {
      "inputs": [
        {
          "internalType": "uint256",
          "name": "_batchId",
          "type": "uint256"
        }
      ],
      "name": "getBatchProductCount",
      "outputs": [
        {
          "internalType": "uint256",
          "name": "",
          "type": "uint256"
        }
      ],
      "stateMutability": "view",
      "type": "function",
      "constant": true
    },
    {
      "inputs": [
        {
          "internalType": "uint256",
          "name": "_batchId",
          "type": "uint256"
        }
      ],
      "name": "getPurchaseRecord",
      "outputs": [
        {
          "components": [
            {
              "internalType": "uint256",
              "name": "purchaseId",
              "type": "uint256"
            },
            {
              "internalType": "uint256",
              "name": "batchId",
              "type": "uint256"
            },
            {
              "internalType": "uint256",
              "name": "purchaserId",
              "type": "uint256"
            },
            {
              "internalType": "uint256",
              "name": "farmerId",
              "type": "uint256"
            },
            {
              "internalType": "uint256",
              "name": "purchaseDate",
              "type": "uint256"
            },
            {
              "internalType": "uint256",
              "name": "totalQuantity",
              "type": "uint256"
            },
            {
              "internalType": "uint256",
              "name": "pricePerUnit",
              "type": "uint256"
            },
            {
              "internalType": "uint256",
              "name": "totalPrice",
              "type": "uint256"
            },
            {
              "internalType": "bool",
              "name": "isConfirmed",
              "type": "bool"
            }
          ],
          "internalType": "struct TraceabilityContract.PurchaseRecord",
          "name": "",
          "type": "tuple"
        }
      ],
      "stateMutability": "view",
      "type": "function",
      "constant": true
    },
    {
      "inputs": [
        {
          "internalType": "uint256",
          "name": "_batchId",
          "type": "uint256"
        }
      ],
      "name": "getProcessingRecord",
      "outputs": [
        {
          "components": [
            {
              "internalType": "uint256",
              "name": "processingId",
              "type": "uint256"
            },
            {
              "internalType": "uint256",
              "name": "batchId",
              "type": "uint256"
            },
            {
              "internalType": "uint256",
              "name": "processorId",
              "type": "uint256"
            },
            {
              "internalType": "uint256",
              "name": "processingDate",
              "type": "uint256"
            },
            {
              "internalType": "enum TraceabilityContract.ProcessingMethod",
              "name": "method",
              "type": "uint8"
            },
            {
              "internalType": "uint256",
              "name": "inputWeight",
              "type": "uint256"
            },
            {
              "internalType": "uint256",
              "name": "outputWeight",
              "type": "uint256"
            }
          ],
          "internalType": "struct TraceabilityContract.ProcessingRecord",
          "name": "",
          "type": "tuple"
        }
      ],
      "stateMutability": "view",
      "type": "function",
      "constant": true
    },
    {
      "inputs": [
        {
          "internalType": "uint256",
          "name": "_batchId",
          "type": "uint256"
        }
      ],
      "name": "getBatchQualityTests",
      "outputs": [
        {
          "components": [
            {
              "internalType": "uint256",
              "name": "testId",
              "type": "uint256"
            },
            {
              "internalType": "uint256",
              "name": "batchId",
              "type": "uint256"
            },
            {
              "internalType": "uint256",
              "name": "inspectorId",
              "type": "uint256"
            },
            {
              "internalType": "uint256",
              "name": "testDate",
              "type": "uint256"
            },
            {
              "internalType": "bool",
              "name": "passed",
              "type": "bool"
            },
            {
              "internalType": "bytes32",
              "name": "resultHash",
              "type": "bytes32"
            }
          ],
          "internalType": "struct TraceabilityContract.QualityTest[]",
          "name": "",
          "type": "tuple[]"
        }
      ],
      "stateMutability": "view",
      "type": "function",
      "constant": true
    },
    {
      "inputs": [
        {
          "internalType": "uint256",
          "name": "_batchId",
          "type": "uint256"
        }
      ],
      "name": "getLatestQualityTest",
      "outputs": [
        {
          "components": [
            {
              "internalType": "uint256",
              "name": "testId",
              "type": "uint256"
            },
            {
              "internalType": "uint256",
              "name": "batchId",
              "type": "uint256"
            },
            {
              "internalType": "uint256",
              "name": "inspectorId",
              "type": "uint256"
            },
            {
              "internalType": "uint256",
              "name": "testDate",
              "type": "uint256"
            },
            {
              "internalType": "bool",
              "name": "passed",
              "type": "bool"
            },
            {
              "internalType": "bytes32",
              "name": "resultHash",
              "type": "bytes32"
            }
          ],
          "internalType": "struct TraceabilityContract.QualityTest",
          "name": "",
          "type": "tuple"
        }
      ],
      "stateMutability": "view",
      "type": "function",
      "constant": true
    },
    {
      "inputs": [
        {
          "internalType": "uint256",
          "name": "_batchId",
          "type": "uint256"
        }
      ],
      "name": "getTransportEvents",
      "outputs": [
        {
          "components": [
            {
              "internalType": "uint256",
              "name": "participantId",
              "type": "uint256"
            },
            {
              "internalType": "uint256",
              "name": "timestamp",
              "type": "uint256"
            },
            {
              "internalType": "uint8",
              "name": "actionCode",
              "type": "uint8"
            },
            {
              "internalType": "int8",
              "name": "temperature",
              "type": "int8"
            },
            {
              "internalType": "uint8",
              "name": "humidity",
              "type": "uint8"
            }
          ],
          "internalType": "struct TraceabilityContract.TransportEvent[]",
          "name": "",
          "type": "tuple[]"
        }
      ],
      "stateMutability": "view",
      "type": "function",
      "constant": true
    },
    {
      "inputs": [
        {
          "internalType": "string",
          "name": "_sscc",
          "type": "string"
        }
      ],
      "name": "getTransportHistoryBySSCC",
      "outputs": [
        {
          "components": [
            {
              "internalType": "uint256",
              "name": "participantId",
              "type": "uint256"
            },
            {
              "internalType": "uint256",
              "name": "timestamp",
              "type": "uint256"
            },
            {
              "internalType": "uint8",
              "name": "actionCode",
              "type": "uint8"
            },
            {
              "internalType": "int8",
              "name": "temperature",
              "type": "int8"
            },
            {
              "internalType": "uint8",
              "name": "humidity",
              "type": "uint8"
            }
          ],
          "internalType": "struct TraceabilityContract.TransportEvent[]",
          "name": "",
          "type": "tuple[]"
        }
      ],
      "stateMutability": "view",
      "type": "function",
      "constant": true
    },
    {
      "inputs": [
        {
          "internalType": "uint256",
          "name": "_batchId",
          "type": "uint256"
        },
        {
          "internalType": "uint256",
          "name": "_warehouseId",
          "type": "uint256"
        }
      ],
      "name": "isWarehouseConfirmed",
      "outputs": [
        {
          "internalType": "bool",
          "name": "",
          "type": "bool"
        }
      ],
      "stateMutability": "view",
      "type": "function",
      "constant": true
    },
    {
      "inputs": [
        {
          "internalType": "uint256",
          "name": "_batchId",
          "type": "uint256"
        }
      ],
      "name": "getActivityLogs",
      "outputs": [
        {
          "components": [
            {
              "internalType": "uint256",
              "name": "logId",
              "type": "uint256"
            },
            {
              "internalType": "uint256",
              "name": "batchId",
              "type": "uint256"
            },
            {
              "internalType": "uint256",
              "name": "treeId",
              "type": "uint256"
            },
            {
              "internalType": "uint256",
              "name": "participantId",
              "type": "uint256"
            },
            {
              "internalType": "uint256",
              "name": "timestamp",
              "type": "uint256"
            },
            {
              "internalType": "enum ActivityLog.ActivityCategory",
              "name": "category",
              "type": "uint8"
            },
            {
              "internalType": "bool",
              "name": "isSystemActivity",
              "type": "bool"
            },
            {
              "internalType": "bytes32",
              "name": "dataHash",
              "type": "bytes32"
            }
          ],
          "internalType": "struct ActivityLog.ActivityLogEntry[]",
          "name": "",
          "type": "tuple[]"
        }
      ],
      "stateMutability": "view",
      "type": "function",
      "constant": true
    },
    {
      "inputs": [
        {
          "internalType": "uint256",
          "name": "_batchId",
          "type": "uint256"
        }
      ],
      "name": "getSystemActivityLogs",
      "outputs": [
        {
          "components": [
            {
              "internalType": "uint256",
              "name": "logId",
              "type": "uint256"
            },
            {
              "internalType": "uint256",
              "name": "batchId",
              "type": "uint256"
            },
            {
              "internalType": "uint256",
              "name": "treeId",
              "type": "uint256"
            },
            {
              "internalType": "uint256",
              "name": "participantId",
              "type": "uint256"
            },
            {
              "internalType": "uint256",
              "name": "timestamp",
              "type": "uint256"
            },
            {
              "internalType": "enum ActivityLog.ActivityCategory",
              "name": "category",
              "type": "uint8"
            },
            {
              "internalType": "bool",
              "name": "isSystemActivity",
              "type": "bool"
            },
            {
              "internalType": "bytes32",
              "name": "dataHash",
              "type": "bytes32"
            }
          ],
          "internalType": "struct ActivityLog.ActivityLogEntry[]",
          "name": "",
          "type": "tuple[]"
        }
      ],
      "stateMutability": "view",
      "type": "function",
      "constant": true
    },
    {
      "inputs": [
        {
          "internalType": "uint256",
          "name": "_producerId",
          "type": "uint256"
        }
      ],
      "name": "getBatchesByProducer",
      "outputs": [
        {
          "components": [
            {
              "internalType": "uint256",
              "name": "batchId",
              "type": "uint256"
            },
            {
              "internalType": "string",
              "name": "sscc",
              "type": "string"
            },
            {
              "internalType": "uint256",
              "name": "producerId",
              "type": "uint256"
            },
            {
              "internalType": "uint256",
              "name": "productionDate",
              "type": "uint256"
            },
            {
              "internalType": "uint256",
              "name": "startDate",
              "type": "uint256"
            },
            {
              "internalType": "uint256",
              "name": "endDate",
              "type": "uint256"
            },
            {
              "internalType": "enum TraceabilityContract.BatchStatus",
              "name": "status",
              "type": "uint8"
            },
            {
              "internalType": "bytes32",
              "name": "dataHash",
              "type": "bytes32"
            },
            {
              "internalType": "uint256",
              "name": "productTypeId",
              "type": "uint256"
            },
            {
              "internalType": "enum TraceabilityContract.SupplyChainStage",
              "name": "currentStage",
              "type": "uint8"
            },
            {
              "internalType": "enum TraceabilityContract.TransportStatus",
              "name": "transportStatus",
              "type": "uint8"
            },
            {
              "internalType": "enum TraceabilityContract.DetailedTransportStatus",
              "name": "detailedTransportStatus",
              "type": "uint8"
            },
            {
              "internalType": "uint256",
              "name": "purchaserId",
              "type": "uint256"
            },
            {
              "internalType": "uint256",
              "name": "processorId",
              "type": "uint256"
            },
            {
              "internalType": "uint256",
              "name": "qualityInspectorId",
              "type": "uint256"
            },
            {
              "internalType": "uint256",
              "name": "lastTransporterId",
              "type": "uint256"
            },
            {
              "internalType": "uint256",
              "name": "totalProducts",
              "type": "uint256"
            }
          ],
          "internalType": "struct TraceabilityContract.Batch[]",
          "name": "",
          "type": "tuple[]"
        }
      ],
      "stateMutability": "view",
      "type": "function",
      "constant": true
    },
    {
      "inputs": [
        {
          "internalType": "enum TraceabilityContract.SupplyChainStage",
          "name": "_stage",
          "type": "uint8"
        }
      ],
      "name": "getBatchesByStage",
      "outputs": [
        {
          "components": [
            {
              "internalType": "uint256",
              "name": "batchId",
              "type": "uint256"
            },
            {
              "internalType": "string",
              "name": "sscc",
              "type": "string"
            },
            {
              "internalType": "uint256",
              "name": "producerId",
              "type": "uint256"
            },
            {
              "internalType": "uint256",
              "name": "productionDate",
              "type": "uint256"
            },
            {
              "internalType": "uint256",
              "name": "startDate",
              "type": "uint256"
            },
            {
              "internalType": "uint256",
              "name": "endDate",
              "type": "uint256"
            },
            {
              "internalType": "enum TraceabilityContract.BatchStatus",
              "name": "status",
              "type": "uint8"
            },
            {
              "internalType": "bytes32",
              "name": "dataHash",
              "type": "bytes32"
            },
            {
              "internalType": "uint256",
              "name": "productTypeId",
              "type": "uint256"
            },
            {
              "internalType": "enum TraceabilityContract.SupplyChainStage",
              "name": "currentStage",
              "type": "uint8"
            },
            {
              "internalType": "enum TraceabilityContract.TransportStatus",
              "name": "transportStatus",
              "type": "uint8"
            },
            {
              "internalType": "enum TraceabilityContract.DetailedTransportStatus",
              "name": "detailedTransportStatus",
              "type": "uint8"
            },
            {
              "internalType": "uint256",
              "name": "purchaserId",
              "type": "uint256"
            },
            {
              "internalType": "uint256",
              "name": "processorId",
              "type": "uint256"
            },
            {
              "internalType": "uint256",
              "name": "qualityInspectorId",
              "type": "uint256"
            },
            {
              "internalType": "uint256",
              "name": "lastTransporterId",
              "type": "uint256"
            },
            {
              "internalType": "uint256",
              "name": "totalProducts",
              "type": "uint256"
            }
          ],
          "internalType": "struct TraceabilityContract.Batch[]",
          "name": "",
          "type": "tuple[]"
        }
      ],
      "stateMutability": "view",
      "type": "function",
      "constant": true
    },
    {
      "inputs": [],
      "name": "getAllPendingBatches",
      "outputs": [
        {
          "components": [
            {
              "internalType": "uint256",
              "name": "batchId",
              "type": "uint256"
            },
            {
              "internalType": "string",
              "name": "sscc",
              "type": "string"
            },
            {
              "internalType": "uint256",
              "name": "producerId",
              "type": "uint256"
            },
            {
              "internalType": "uint256",
              "name": "productionDate",
              "type": "uint256"
            },
            {
              "internalType": "uint256",
              "name": "startDate",
              "type": "uint256"
            },
            {
              "internalType": "uint256",
              "name": "endDate",
              "type": "uint256"
            },
            {
              "internalType": "enum TraceabilityContract.BatchStatus",
              "name": "status",
              "type": "uint8"
            },
            {
              "internalType": "bytes32",
              "name": "dataHash",
              "type": "bytes32"
            },
            {
              "internalType": "uint256",
              "name": "productTypeId",
              "type": "uint256"
            },
            {
              "internalType": "enum TraceabilityContract.SupplyChainStage",
              "name": "currentStage",
              "type": "uint8"
            },
            {
              "internalType": "enum TraceabilityContract.TransportStatus",
              "name": "transportStatus",
              "type": "uint8"
            },
            {
              "internalType": "enum TraceabilityContract.DetailedTransportStatus",
              "name": "detailedTransportStatus",
              "type": "uint8"
            },
            {
              "internalType": "uint256",
              "name": "purchaserId",
              "type": "uint256"
            },
            {
              "internalType": "uint256",
              "name": "processorId",
              "type": "uint256"
            },
            {
              "internalType": "uint256",
              "name": "qualityInspectorId",
              "type": "uint256"
            },
            {
              "internalType": "uint256",
              "name": "lastTransporterId",
              "type": "uint256"
            },
            {
              "internalType": "uint256",
              "name": "totalProducts",
              "type": "uint256"
            }
          ],
          "internalType": "struct TraceabilityContract.Batch[]",
          "name": "",
          "type": "tuple[]"
        }
      ],
      "stateMutability": "view",
      "type": "function",
      "constant": true
    },
    {
      "inputs": [
        {
          "internalType": "uint256",
          "name": "_producerId",
          "type": "uint256"
        }
      ],
      "name": "getApprovedBatchesByProducer",
      "outputs": [
        {
          "components": [
            {
              "internalType": "uint256",
              "name": "batchId",
              "type": "uint256"
            },
            {
              "internalType": "string",
              "name": "sscc",
              "type": "string"
            },
            {
              "internalType": "uint256",
              "name": "producerId",
              "type": "uint256"
            },
            {
              "internalType": "uint256",
              "name": "productionDate",
              "type": "uint256"
            },
            {
              "internalType": "uint256",
              "name": "startDate",
              "type": "uint256"
            },
            {
              "internalType": "uint256",
              "name": "endDate",
              "type": "uint256"
            },
            {
              "internalType": "enum TraceabilityContract.BatchStatus",
              "name": "status",
              "type": "uint8"
            },
            {
              "internalType": "bytes32",
              "name": "dataHash",
              "type": "bytes32"
            },
            {
              "internalType": "uint256",
              "name": "productTypeId",
              "type": "uint256"
            },
            {
              "internalType": "enum TraceabilityContract.SupplyChainStage",
              "name": "currentStage",
              "type": "uint8"
            },
            {
              "internalType": "enum TraceabilityContract.TransportStatus",
              "name": "transportStatus",
              "type": "uint8"
            },
            {
              "internalType": "enum TraceabilityContract.DetailedTransportStatus",
              "name": "detailedTransportStatus",
              "type": "uint8"
            },
            {
              "internalType": "uint256",
              "name": "purchaserId",
              "type": "uint256"
            },
            {
              "internalType": "uint256",
              "name": "processorId",
              "type": "uint256"
            },
            {
              "internalType": "uint256",
              "name": "qualityInspectorId",
              "type": "uint256"
            },
            {
              "internalType": "uint256",
              "name": "lastTransporterId",
              "type": "uint256"
            },
            {
              "internalType": "uint256",
              "name": "totalProducts",
              "type": "uint256"
            }
          ],
          "internalType": "struct TraceabilityContract.Batch[]",
          "name": "",
          "type": "tuple[]"
        }
      ],
      "stateMutability": "view",
      "type": "function",
      "constant": true
    },
    {
      "inputs": [
        {
          "internalType": "string",
          "name": "_sscc",
          "type": "string"
        }
      ],
      "name": "ssccExists",
      "outputs": [
        {
          "internalType": "bool",
          "name": "",
          "type": "bool"
        }
      ],
      "stateMutability": "view",
      "type": "function",
      "constant": true
    },
    {
      "inputs": [
        {
          "internalType": "string",
          "name": "_governmentQR",
          "type": "string"
        }
      ],
      "name": "governmentQRExists",
      "outputs": [
        {
          "internalType": "bool",
          "name": "",
          "type": "bool"
        }
      ],
      "stateMutability": "view",
      "type": "function",
      "constant": true
    },
    {
      "inputs": [
        {
          "internalType": "uint256",
          "name": "_batchId",
          "type": "uint256"
        },
        {
          "internalType": "uint256",
          "name": "_producerId",
          "type": "uint256"
        }
      ],
      "name": "isProducerOfBatch",
      "outputs": [
        {
          "internalType": "bool",
          "name": "",
          "type": "bool"
        }
      ],
      "stateMutability": "view",
      "type": "function",
      "constant": true
    },
    {
      "inputs": [
        {
          "internalType": "uint256",
          "name": "_batchId",
          "type": "uint256"
        },
        {
          "internalType": "string",
          "name": "_sscc",
          "type": "string"
        },
        {
          "internalType": "uint256",
          "name": "_producerId",
          "type": "uint256"
        },
        {
          "internalType": "string",
          "name": "_quantity",
          "type": "string"
        },
        {
          "internalType": "uint256",
          "name": "_productionDate",
          "type": "uint256"
        },
        {
          "internalType": "string",
          "name": "_farmPlotNumber",
          "type": "string"
        },
        {
          "internalType": "uint256",
          "name": "_productTypeId",
          "type": "uint256"
        },
        {
          "internalType": "string",
          "name": "_name",
          "type": "string"
        }
      ],
      "name": "verifyBatchDataHash",
      "outputs": [
        {
          "internalType": "bool",
          "name": "",
          "type": "bool"
        }
      ],
      "stateMutability": "view",
      "type": "function",
      "constant": true
    }
  ],
  "bytecode": "0x608060405234801562000010575f80fd5b506040516200554c3803806200554c8339810160408190526200003391620000b3565b6001600160a01b0381166200008e5760405162461bcd60e51b815260206004820152601b60248201527f496e76616c69642041637469766974794c6f6720616464726573730000000000604482015260640160405180910390fd5b5f80546001600160a01b0319166001600160a01b0392909216919091179055620000e2565b5f60208284031215620000c4575f80fd5b81516001600160a01b0381168114620000db575f80fd5b9392505050565b61545c80620000f05f395ff3fe608060405234801561000f575f80fd5b5060043610610255575f3560e01c80637999095d11610140578063c1f05ee2116100bf578063d9860bfc11610084578063d9860bfc1461063a578063e019bcaf1461064d578063e114238e14610660578063e561dddc14610673578063f8988b3a1461067b578063f9b8da0e1461069b575f80fd5b8063c1f05ee2146105db578063c529b67e146105ee578063c84a9efb14610601578063c9cb423614610614578063d043b84314610627575f80fd5b80639d47dcc0116101055780639d47dcc014610555578063a312c9b514610575578063a7732c9614610588578063aea3c0cd146105a8578063afb080c2146105bb575f80fd5b80637999095d146104cf57806380e32d45146104e257806381f7d4e0146104f55780639491aba21461052257806397ae6a0e14610535575f80fd5b80633268e8e9116101d7578063570aea8a1161019c578063570aea8a146103f85780635aa825aa146104005780636813b53b146104085780636b0ba8da146104285780636ff8f2f71461043b578063770ef84b146104bc575f80fd5b80633268e8e91461038a5780633abb5afb1461039f5780633e239686146103b25780634e1abcd2146103c557806351293c85146103d8575f80fd5b8063147503c81161021d578063147503c81461030457806319d6ed3c146103175780631bb93d1e1461032a5780631cb8241d1461034a5780632458d4721461036a575f80fd5b806304008078146102595780630718fc15146102815780630772d2d7146102a15780630d82dcf4146102c25780630e6e369c146102e4575b5f80fd5b61026c610267366004614017565b6106bf565b60405190151581526020015b60405180910390f35b61029461028f366004614048565b6106e8565b604051610278919061405f565b6102b46102af366004614048565b610867565b604051908152602001610278565b61026c6102d0366004614048565b5f9081526008602052604090205460ff1690565b6102f76102f2366004614048565b6108ab565b60405161027891906140b8565b61026c610312366004614017565b61091f565b6102b4610325366004614017565b610930565b61033d610338366004614017565b610957565b6040516102789190614156565b61035d610358366004614048565b610a57565b60405161027891906141e1565b61037d610378366004614048565b610b75565b6040516102789190614247565b61039d610398366004614255565b610bbc565b005b6102f76103ad366004614048565b610bfb565b6102b46103c03660046142bc565b610c2c565b61039d6103d33660046142eb565b610e7d565b6103eb6103e63660046143a1565b610f74565b6040516102789190614530565b6002546102b4565b6103eb6112c1565b61041b610416366004614048565b6115e9565b6040516102789190614590565b61039d6104363660046145eb565b611759565b61044e610449366004614048565b61192a565b60405161027891905f61012082019050825182526020830151602083015260408301516040830152606083015160608301526080830151608083015260a083015160a083015260c083015160c083015260e083015160e0830152610100808401511515818401525092915050565b61039d6104ca366004614620565b611a6e565b61039d6104dd366004614255565b611d97565b6103eb6104f0366004614048565b611dc9565b61026c6105033660046145eb565b5f918252600f6020908152604080842092845291905290205460ff1690565b61026c610530366004614679565b6120c4565b610548610543366004614048565b61211a565b6040516102789190614743565b610568610563366004614048565b612167565b6040516102789190614751565b61039d610583366004614763565b61239e565b61059b610596366004614048565b6123e3565b60405161027891906147f7565b61039d6105b636600461480a565b61242f565b6105ce6105c9366004614048565b6125b9565b604051610278919061484b565b6102b46105e93660046148cf565b61267e565b61033d6105fc366004614048565b61294d565b6102b461060f36600461495e565b612a0a565b6102b4610622366004614994565b612c9f565b6103eb610635366004614048565b612ea4565b610568610648366004614017565b613201565b61041b61065b366004614017565b6132a2565b61039d61066e3660046145eb565b613427565b6001546102b4565b61068e610689366004614a66565b6135de565b6040516102789190614b76565b61026c6106a93660046145eb565b5f91825260066020526040909120600201541490565b5f6007826040516106d09190614bad565b90815260405190819003602001902054151592915050565b6107206040518060c001604052805f81526020015f81526020015f81526020015f81526020015f151581526020015f80191681525090565b5f828152600660205260408120548391036107565760405162461bcd60e51b815260040161074d90614bc8565b60405180910390fd5b5f838152600d6020908152604080832080548251818502810185019093528083529192909190849084015b828210156107ed575f8481526020908190206040805160c08101825260068602909201805483526001808201548486015260028201549284019290925260038101546060840152600481015460ff16151560808401526005015460a08301529083529092019101610781565b5050505090505f8151116108365760405162461bcd60e51b815260206004820152601060248201526f4e6f207175616c69747920746573747360801b604482015260640161074d565b80600182516108459190614c06565b8151811061085557610855614c19565b60200260200101519250505b50919050565b5f81815260066020526040812054829082036108955760405162461bcd60e51b815260040161074d90614bc8565b50505f908152600660205260409020600e015490565b5f5460405163039b8da760e21b8152600481018390526060916001600160a01b031690630e6e369c906024015b5f60405180830381865afa1580156108f2573d5f803e3d5ffd5b505050506040513d5f823e601f3d908101601f191682016040526109199190810190614c38565b92915050565b5f600a826040516106d09190614bad565b5f6007826040516109419190614bad565b9081526020016040518091039020549050919050565b60605f60078360405161096a9190614bad565b9081526020016040518091039020549050805f036109bc5760405162461bcd60e51b815260206004820152600f60248201526e10985d18da081b9bdd08199bdd5b99608a1b604482015260640161074d565b5f818152600e6020908152604080832080548251818502810185019093528083529193909284015b82821015610a4b575f84815260208082206040805160a08101825260038702909201805483526001808201548486015260029091015460ff80821693850193909352610100810490950b6060840152620100009094041660808201528352920191016109e4565b50505050915050919050565b610a5f613e6e565b5f82815260066020526040812054839103610a8c5760405162461bcd60e51b815260040161074d90614bc8565b5f838152600c60205260408120549003610adf5760405162461bcd60e51b8152602060048201526014602482015273139bc81c1c9bd8d95cdcda5b99c81c9958dbdc9960621b604482015260640161074d565b600c5f8481526020019081526020015f206040518060e00160405290815f8201548152602001600182015481526020016002820154815260200160038201548152602001600482015f9054906101000a900460ff166004811115610b4557610b456140a4565b6004811115610b5657610b566140a4565b8152600582015460208201526006909101546040909101529392505050565b5f8181526006602052604081205482908203610ba35760405162461bcd60e51b815260040161074d90614bc8565b50505f9081526006602052604090206009015460ff1690565b827f1e99aba022e8a4136ee1fbb71ed95995b5e69f71344ac29daac1773e1e9038588383604051610bee929190614d39565b60405180910390a2505050565b5f54604051633abb5afb60e01b8152600481018390526060916001600160a01b031690633abb5afb906024016108d8565b5f8481526006602052604081205485908203610c5a5760405162461bcd60e51b815260040161074d90614bc8565b8560015f828152600660208190526040909120015460ff166002811115610c8357610c836140a4565b14610cbf5760405162461bcd60e51b815260206004820152600c60248201526b139bdd08185c1c1c9bdd995960a21b604482015260640161074d565b865f805f8381526006602052604090206009015460ff166007811115610ce757610ce76140a4565b14610d045760405162461bcd60e51b815260040161074d90614d66565b60038054905f610d1383614d8d565b9091555050600380545f8b8152600b60209081526040808320848155600181018f905560028082018f905560069384905291909320015493820193909355426004820155600581018a905591820188905590610d6f888a614da5565b60078201908155600882018054600160ff1991821681179092555f8e815260066020908152604091829020600981018054909416909417909255600a9092018d9055915481518d81529283018c905282820152518c9184917f6de0d861557ed769526f727c48134bd9a111de9109a5d57d608fec1d1504fdc89181900360600190a3610e478b8b60405180604001604052806011815260200170141d5c98da185cd948149958dbdc991959607a1b81525060405180604001604052806009815260200168141d5c98da185cd95960ba1b8152506137e2565b8a5f8051602061540783398151915260018c604051610e67929190614dbc565b60405180910390a2509998505050505050505050565b5f84848484604051602001610e959493929190614dd7565b60408051601f1981840301815291815281516020928301205f898152600d909352908220909250905b8154811015610f2b5788828281548110610eda57610eda614c19565b905f5260205f2090600602015f015403610f195782828281548110610f0157610f01614c19565b905f5260205f20906006020160050181905550610f2b565b80610f2381614d8d565b915050610ebe565b50877fbeb4b9f545c938bd8b89309b493865a5b3dfde68489962c736c417af894a75de87878787604051610f629493929190614e2d565b60405180910390a25050505050505050565b60605f60015b6001548111610fdf57836007811115610f9557610f956140a4565b5f8281526006602052604090206009015460ff166007811115610fba57610fba6140a4565b03610fcd5781610fc981614d8d565b9250505b80610fd781614d8d565b915050610f7a565b505f816001600160401b03811115610ff957610ff9613f3f565b60405190808252806020026020018201604052801561103257816020015b61101f613eb5565b8152602001906001900390816110175790505b5090505f60015b60015481116112b757856007811115611054576110546140a4565b5f8281526006602052604090206009015460ff166007811115611079576110796140a4565b036112a55760065f8281526020019081526020015f20604051806102200160405290815f82015481526020016001820180546110b490614e79565b80601f01602080910402602001604051908101604052809291908181526020018280546110e090614e79565b801561112b5780601f106111025761010080835404028352916020019161112b565b820191905f5260205f20905b81548152906001019060200180831161110e57829003601f168201915b50505091835250506002828101546020830152600383015460408301526004830154606083015260058301546080830152600683015460a09092019160ff169081111561117a5761117a6140a4565b600281111561118b5761118b6140a4565b8152600782810154602083015260088301546040830152600983015460609092019160ff16908111156111c0576111c06140a4565b60078111156111d1576111d16140a4565b81526020016009820160019054906101000a900460ff1660028111156111f9576111f96140a4565b600281111561120a5761120a6140a4565b81526020016009820160029054906101000a900460ff166003811115611232576112326140a4565b6003811115611243576112436140a4565b8152602001600a8201548152602001600b8201548152602001600c8201548152602001600d8201548152602001600e8201548152505083838151811061128b5761128b614c19565b602002602001018190525081806112a190614d8d565b9250505b806112af81614d8d565b915050611039565b5090949350505050565b60605f60015b600154811161131a575f8181526006602081905260408220015460ff1660028111156112f5576112f56140a4565b03611308578161130481614d8d565b9250505b8061131281614d8d565b9150506112c7565b505f816001600160401b0381111561133457611334613f3f565b60405190808252806020026020018201604052801561136d57816020015b61135a613eb5565b8152602001906001900390816113525790505b5090505f60015b60015481116115e0575f8181526006602081905260408220015460ff1660028111156113a2576113a26140a4565b036115ce5760065f8281526020019081526020015f20604051806102200160405290815f82015481526020016001820180546113dd90614e79565b80601f016020809104026020016040519081016040528092919081815260200182805461140990614e79565b80156114545780601f1061142b57610100808354040283529160200191611454565b820191905f5260205f20905b81548152906001019060200180831161143757829003601f168201915b50505091835250506002828101546020830152600383015460408301526004830154606083015260058301546080830152600683015460a09092019160ff16908111156114a3576114a36140a4565b60028111156114b4576114b46140a4565b8152600782810154602083015260088301546040830152600983015460609092019160ff16908111156114e9576114e96140a4565b60078111156114fa576114fa6140a4565b81526020016009820160019054906101000a900460ff166002811115611522576115226140a4565b6002811115611533576115336140a4565b81526020016009820160029054906101000a900460ff16600381111561155b5761155b6140a4565b600381111561156c5761156c6140a4565b8152602001600a8201548152602001600b8201548152602001600c8201548152602001600d8201548152602001600e820154815250508383815181106115b4576115b4614c19565b602002602001018190525081806115ca90614d8d565b9250505b806115d881614d8d565b915050611374565b50909392505050565b61161f6040518060c001604052805f81526020015f8152602001606081526020015f81526020015f81526020015f151581525090565b5f8281526009602052604081205490036116705760405162461bcd60e51b815260206004820152601260248201527150726f64756374206e6f742065786973747360701b604482015260640161074d565b60095f8381526020019081526020015f206040518060c00160405290815f8201548152602001600182015481526020016002820180546116af90614e79565b80601f01602080910402602001604051908101604052809291908181526020018280546116db90614e79565b80156117265780601f106116fd57610100808354040283529160200191611726565b820191905f5260205f20905b81548152906001019060200180831161170957829003601f168201915b5050509183525050600382015460208201526004820154604082015260059091015460ff16151560609091015292915050565b5f828152600660205260408120548391036117865760405162461bcd60e51b815260040161074d90614bc8565b60025f84815260066020526040902060090154610100900460ff1660028111156117b2576117b26140a4565b146117ef5760405162461bcd60e51b815260206004820152600d60248201526c139bdd0819195b1a5d995c9959609a1b604482015260640161074d565b5f838152600f6020908152604080832085845290915290205460ff161561184c5760405162461bcd60e51b8152602060048201526011602482015270105b1c9958591e4818dbdb999a5c9b5959607a1b604482015260640161074d565b5f838152600f602090815260408083208584528252808320805460ff19908116600117909155868452600680845293829020600901805490911690931790925581518083018352601381527215d85c995a1bdd5cd94810dbdb999a5c9b5959606a1b8183015282518084019093526008835267149958d95a5d995960c21b918301919091526118de91859185916137e2565b604051829084907f5a0ca583abbe4762e00286f277fb259ed4a722726e02cd87aa38d3b2eeead4f5905f90a3825f80516020615407833981519152600684604051610bee929190614dbc565b6119726040518061012001604052805f81526020015f81526020015f81526020015f81526020015f81526020015f81526020015f81526020015f81526020015f151581525090565b5f8281526006602052604081205483910361199f5760405162461bcd60e51b815260040161074d90614bc8565b5f838152600b602052604081205490036119f05760405162461bcd60e51b8152602060048201526012602482015271139bc81c1d5c98da185cd9481c9958dbdc9960721b604482015260640161074d565b50505f908152600b6020908152604091829020825161012081018452815481526001820154928101929092526002810154928201929092526003820154606082015260048201546080820152600582015460a0820152600682015460c0820152600782015460e082015260089091015460ff16151561010082015290565b5f85815260066020526040812054869103611a9b5760405162461bcd60e51b815260040161074d90614bc8565b8560015f828152600660208190526040909120015460ff166002811115611ac457611ac46140a4565b14611b005760405162461bcd60e51b815260206004820152600c60248201526b139bdd08185c1c1c9bdd995960a21b604482015260640161074d565b5f878152600660209081526040808320600e8352818420825160a0810184528b81524281860190815260ff808d169583018681528c890b606085019081528c831660808601908152865460018181018955978c52998b2095516003909a02909501988955925194880194909455925160029096018054915192518416620100000262ff0000199385166101000261ffff199093169790941696909617171617909255909103611bc85760098101805462ffff00191662010100179055600d8101879055611cee565b8560ff16600103611bf3576009810180546002919062ff0000191662010000835b0217905550611cee565b8560ff16600203611c18576009810180546001919062ff000019166201000083611be9565b8560ff16600303611cee576009810180546203020062ffff001982161790915560019060ff166007811115611c4f57611c4f6140a4565b03611c935760098101805460ff1916600290811790915560405189915f8051602061540783398151915291611c8691908b90614dbc565b60405180910390a2611cee565b6004600982015460ff166007811115611cae57611cae6140a4565b03611cee5760098101805460ff1916600590811790915560405189915f8051602061540783398151915291611ce591908b90614dbc565b60405180910390a25b600981015460405189917f7cff043db92d1d906bb34b67928b2d52ba4e3ea94529b02769711bd119cc430491611d319162010000900460ff16908b908b90614eab565b60405180910390a2611d8d888860405180604001604052806011815260200170151c985b9cdc1bdc9d08155c19185d1959607a1b81525060405180604001604052806007815260200166155c19185d195960ca1b8152506137e2565b5050505050505050565b827f29c31eb0255ff677c9bd5abdd2afaba652066c80da184701f767ebe4705225878383604051610bee929190614d39565b60605f60015b6001548111611e10575f81815260066020526040902060020154849003611dfe5781611dfa81614d8d565b9250505b80611e0881614d8d565b915050611dcf565b505f816001600160401b03811115611e2a57611e2a613f3f565b604051908082528060200260200182016040528015611e6357816020015b611e50613eb5565b815260200190600190039081611e485790505b5090505f60015b60015481116112b7575f818152600660205260409020600201548690036120b25760065f8281526020019081526020015f20604051806102200160405290815f8201548152602001600182018054611ec190614e79565b80601f0160208091040260200160405190810160405280929190818152602001828054611eed90614e79565b8015611f385780601f10611f0f57610100808354040283529160200191611f38565b820191905f5260205f20905b815481529060010190602001808311611f1b57829003601f168201915b50505091835250506002828101546020830152600383015460408301526004830154606083015260058301546080830152600683015460a09092019160ff1690811115611f8757611f876140a4565b6002811115611f9857611f986140a4565b8152600782810154602083015260088301546040830152600983015460609092019160ff1690811115611fcd57611fcd6140a4565b6007811115611fde57611fde6140a4565b81526020016009820160019054906101000a900460ff166002811115612006576120066140a4565b6002811115612017576120176140a4565b81526020016009820160029054906101000a900460ff16600381111561203f5761203f6140a4565b6003811115612050576120506140a4565b8152602001600a8201548152602001600b8201548152602001600c8201548152602001600d8201548152602001600e8201548152505083838151811061209857612098614c19565b602002602001018190525081806120ae90614d8d565b9250505b806120bc81614d8d565b915050611e6a565b5f80888888888888886040516020016120e39796959493929190614ed0565b60408051601f1981840301815291815281516020928301205f8d815260069093529120600701541491505098975050505050505050565b5f81815260066020526040812054829082036121485760405162461bcd60e51b815260040161074d90614bc8565b50505f9081526006602052604090206009015462010000900460ff1690565b61216f613eb5565b5f8281526006602052604081205483910361219c5760405162461bcd60e51b815260040161074d90614bc8565b60065f8481526020019081526020015f20604051806102200160405290815f82015481526020016001820180546121d290614e79565b80601f01602080910402602001604051908101604052809291908181526020018280546121fe90614e79565b80156122495780601f1061222057610100808354040283529160200191612249565b820191905f5260205f20905b81548152906001019060200180831161222c57829003601f168201915b50505091835250506002828101546020830152600383015460408301526004830154606083015260058301546080830152600683015460a09092019160ff1690811115612298576122986140a4565b60028111156122a9576122a96140a4565b8152600782810154602083015260088301546040830152600983015460609092019160ff16908111156122de576122de6140a4565b60078111156122ef576122ef6140a4565b81526020016009820160019054906101000a900460ff166002811115612317576123176140a4565b6002811115612328576123286140a4565b81526020016009820160029054906101000a900460ff166003811115612350576123506140a4565b6003811115612361576123616140a4565b8152600a8201546020820152600b8201546040820152600c8201546060820152600d8201546080820152600e9091015460a0909101529392505050565b847f6234755fcf3d5ddcd4f195147098d52dc091278c148152bf5dcbff45ce11492b858585856040516123d49493929190614f49565b60405180910390a25050505050565b5f81815260066020526040812054829082036124115760405162461bcd60e51b815260040161074d90614bc8565b50505f90815260066020526040902060090154610100900460ff1690565b5f8381526006602052604081205484910361245c5760405162461bcd60e51b815260040161074d90614bc8565b5f8481526006602081905260408220015460ff166002811115612481576124816140a4565b146124bc5760405162461bcd60e51b815260206004820152600b60248201526a4e6f742070656e64696e6760a81b604482015260640161074d565b5f8481526006602052604090206002015483146125135760405162461bcd60e51b815260206004820152601560248201527409cdee840e0e4dec8eac6cae440decc40c4c2e8c6d605b1b604482015260640161074d565b5f84815260066020818152604092839020909101805460ff191660021790558151808301909252600e82526d10985d18da0814995a9958dd195960921b908201526125629085908590856137e2565b5f84815260066020526040908190206002810154915186917fa0da9c7499f803fc3a58e98e892bc48d417d18f94643a01f620e7813bc0af221916125ab91600101908790614fec565b60405180910390a350505050565b5f81815260066020526040812054606091839190036125ea5760405162461bcd60e51b815260040161074d90614bc8565b5f838152600d6020908152604080832080548251818502810185019093528083529193909284015b82821015610a4b575f8481526020908190206040805160c08101825260068602909201805483526001808201548486015260028201549284019290925260038101546060840152600481015460ff16151560808401526005015460a08301529083529092019101612612565b5f808751116126bf5760405162461bcd60e51b815260206004820152600d60248201526c13985b59481c995c5d5a5c9959609a1b604482015260640161074d565b5f86116127015760405162461bcd60e51b815260206004820152601060248201526f24b73b30b634b210383937b23ab1b2b960811b604482015260640161074d565b5f8311801561270f57505f82115b801561271a57508183105b6127565760405162461bcd60e51b815260206004820152600d60248201526c496e76616c696420646174657360981b604482015260640161074d565b60018054905f61276583614d8d565b90915550506001545f61277788613861565b90505f4290505f828a8a848b8f60405160200161279996959493929190614ffe565b60408051601f1981840301815291815281516020928301205f87815260069093529120858155909150600181016127d085826150aa565b50600281018b905560038101839055600481018890556005810187905560068101805460ff191690556007808201839055600882018a905560098201805462ffffff191690555f600e83015560405186919061282d908790614bad565b9081526020016040518091039020819055508a857f04435331372657a61a5c714bf668c5d0ab5e5670bdaf5c1e71f8189ba62c553c868c87876040516128769493929190615165565b60405180910390a3847fd7228ee337f6e74afa5175012591a5a5e50d6f51efe6aacc4e52ecfa3c6231808d8c8b8b6040516128b49493929190615193565b60405180910390a2612916858c6040518060400160405280600d81526020016c10985d18da0810dc99585d1959609a1b8152506040518060400160405280601181526020017013995dc818985d18da0818dc99585d1959607a1b8152506137e2565b845f805160206154078339815191525f8d604051612935929190614dbc565b60405180910390a250929a9950505050505050505050565b5f818152600660205260408120546060918391900361297e5760405162461bcd60e51b815260040161074d90614bc8565b5f838152600e6020908152604080832080548251818502810185019093528083529193909284018215610a4b575f84815260208082206040805160a08101825260038702909201805483526001808201548486015260029091015460ff80821693850193909352610100810490950b6060840152620100009094041660808201528352920191016109e4565b5f8381526006602052604081205484908203612a385760405162461bcd60e51b815260040161074d90614bc8565b846003805f8381526006602052604090206009015460ff166007811115612a6157612a616140a4565b14612a7e5760405162461bcd60e51b815260040161074d90614d66565b60058054905f612a8d83614d8d565b91905055505f60055490505f6040518060c001604052808381526020018a815260200189815260200142815260200188151581526020015f801b8152509050600d5f8a81526020019081526020015f2081908060018154018082558091505060019003905f5260205f2090600602015f909190919091505f820151815f01556020820151816001015560408201518160020155606082015181600301556080820151816004015f6101000a81548160ff02191690831515021790555060a0820151816005015550508615612bfa575f8981526006602081815260409283902060098101805460ff19166004179055600c018b9055825180840184526013815272145d585b1a5d1e4815195cdd0814185cdcd959606a1b8183015283518085019094529183526514185cdcd95960d21b90830152612bcd918b918b916137e2565b885f8051602061540783398151915260048a604051612bed929190614dbc565b60405180910390a2612c4f565b612c4f898960405180604001604052806013815260200172145d585b1a5d1e4815195cdd0811985a5b1959606a1b8152506040518060400160405280600681526020016511985a5b195960d21b8152506137e2565b6040805189815288151560208201525f8183015290518a9184917f31fb1b84e0770b3e473f2a6ba3dc50fc286fa443e29bd09964d881daee5f1fb89181900360600190a350979650505050505050565b5f8581526006602052604081205486908203612ccd5760405162461bcd60e51b815260040161074d90614bc8565b60015f8881526006602052604090206009015460ff166007811115612cf457612cf46140a4565b1480612d24575060025f8881526006602052604090206009015460ff166007811115612d2257612d226140a4565b145b612d405760405162461bcd60e51b815260040161074d90614d66565b60048054905f612d4f83614d8d565b9091555050600480545f898152600c6020526040902081815560018082018b9055600282018a90554260038301558184018054939492938a93919260ff19909116918490811115612da257612da26140a4565b02179055506005810186905560068082018690555f8a815260209190915260409081902060098101805460ff19166003179055600b0189905551899083907f6bc992360159cffa224e4c69d434311dffadbe9f9d9a664b9e1ee6e8a40032b790612e0f908c908c906151de565b60405180910390a3612e70898960405180604001604052806014815260200173141c9bd8d95cdcda5b99c810dbdb5c1b195d195960621b8152506040518060400160405280600981526020016810dbdb5c1b195d195960ba1b8152506137e2565b885f8051602061540783398151915260038a604051612e90929190614dbc565b60405180910390a250979650505050505050565b60605f60015b6001548111612f1c575f8181526006602052604090206002015484148015612ef7575060015f828152600660208190526040909120015460ff166002811115612ef557612ef56140a4565b145b15612f0a5781612f0681614d8d565b9250505b80612f1481614d8d565b915050612eaa565b505f816001600160401b03811115612f3657612f36613f3f565b604051908082528060200260200182016040528015612f6f57816020015b612f5c613eb5565b815260200190600190039081612f545790505b5090505f60015b60015481116112b7575f8181526006602052604090206002015486148015612fc3575060015f828152600660208190526040909120015460ff166002811115612fc157612fc16140a4565b145b156131ef5760065f8281526020019081526020015f20604051806102200160405290815f8201548152602001600182018054612ffe90614e79565b80601f016020809104026020016040519081016040528092919081815260200182805461302a90614e79565b80156130755780601f1061304c57610100808354040283529160200191613075565b820191905f5260205f20905b81548152906001019060200180831161305857829003601f168201915b50505091835250506002828101546020830152600383015460408301526004830154606083015260058301546080830152600683015460a09092019160ff16908111156130c4576130c46140a4565b60028111156130d5576130d56140a4565b8152600782810154602083015260088301546040830152600983015460609092019160ff169081111561310a5761310a6140a4565b600781111561311b5761311b6140a4565b81526020016009820160019054906101000a900460ff166002811115613143576131436140a4565b6002811115613154576131546140a4565b81526020016009820160029054906101000a900460ff16600381111561317c5761317c6140a4565b600381111561318d5761318d6140a4565b8152602001600a8201548152602001600b8201548152602001600c8201548152602001600d8201548152602001600e820154815250508383815181106131d5576131d5614c19565b602002602001018190525081806131eb90614d8d565b9250505b806131f981614d8d565b915050612f76565b613209613eb5565b5f60078360405161321a9190614bad565b9081526020016040518091039020549050805f0361326c5760405162461bcd60e51b815260206004820152600f60248201526e10985d18da081b9bdd08199bdd5b99608a1b604482015260640161074d565b60065f8281526020019081526020015f20604051806102200160405290815f82015481526020016001820180546121d290614e79565b6132d86040518060c001604052805f81526020015f8152602001606081526020015f81526020015f81526020015f151581525090565b5f600a836040516132e99190614bad565b9081526020016040518091039020549050805f0361333d5760405162461bcd60e51b8152602060048201526011602482015270141c9bd91d58dd081b9bdd08199bdd5b99607a1b604482015260640161074d565b60095f8281526020019081526020015f206040518060c00160405290815f82015481526020016001820154815260200160028201805461337c90614e79565b80601f01602080910402602001604051908101604052809291908181526020018280546133a890614e79565b80156133f35780601f106133ca576101008083540402835291602001916133f3565b820191905f5260205f20905b8154815290600101906020018083116133d657829003601f168201915b5050509183525050600382015460208201526004820154604082015260059091015460ff1615156060909101529392505050565b5f828152600660205260408120548391036134545760405162461bcd60e51b815260040161074d90614bc8565b5f8381526006602081905260408220015460ff166002811115613479576134796140a4565b146134b45760405162461bcd60e51b815260206004820152600b60248201526a4e6f742070656e64696e6760a81b604482015260640161074d565b5f83815260066020526040902060020154821461350b5760405162461bcd60e51b815260206004820152601560248201527409cdee840e0e4dec8eac6cae440decc40c4c2e8c6d605b1b604482015260640161074d565b5f8381526006602081815260408084209092018054600160ff1991821681179092556008808452948490208054909116909117905581518083018352600e81526d10985d18da08105c1c1c9bdd995960921b81830152825180840190935292825267105c1c1c9bdd995960c21b9082015261358a9185918591906137e2565b5f83815260066020526040908190206002810154915185917f1a621270a25ae67b5e557b98be27914cd1de793b7ca49110be85cb5aaa169c9b916135d191600101906151f2565b60405180910390a3505050565b5f858152600660205260408120546060918791900361360f5760405162461bcd60e51b815260040161074d90614bc8565b84518651146136525760405162461bcd60e51b815260206004820152600f60248201526e098cadccee8d040dad2e6dac2e8c6d608b1b604482015260640161074d565b83518551146136955760405162461bcd60e51b815260206004820152600f60248201526e098cadccee8d040dad2e6dac2e8c6d608b1b604482015260640161074d565b60035f8881526006602052604090206009015460ff1660078111156136bc576136bc6140a4565b10156136fe5760405162461bcd60e51b8152602060048201526011602482015270135d5cdd081899481c1c9bd8d95cdcd959607a1b604482015260640161074d565b5f84516001600160401b0381111561371857613718613f3f565b604051908082528060200260200182016040528015613741578160200160208202803683370190505b5090505f5b85518110156137d6576137a78989838151811061376557613765614c19565b602002602001015189848151811061377f5761377f614c19565b602002602001015189858151811061379957613799614c19565b60200260200101518961395c565b8282815181106137b9576137b9614c19565b6020908102919091010152806137ce81614d8d565b915050613746565b50979650505050505050565b5f5460405163521e6fa960e01b81526001600160a01b039091169063521e6fa99061381a908790879087908790600190600401615204565b6020604051808303815f875af1158015613836573d5f803e3d5ffd5b505050506040513d601f19601f8201168201806040525081019061385a9190615249565b5050505050565b604080518082019091526002815261030360f41b60208201526060905f61389161388a85613b78565b6006613c98565b90505f633b9aca0042866040516020016138b5929190918252602082015260400190565b604051602081830303815290604052805190602001205f1c6138d79190615274565b90505f6138ed6138e683613b78565b6009613c98565b90505f84848360405160200161390593929190615287565b60405160208183030381529060405290505f61392082613dc9565b90508161392f8260ff16613b78565b6040516020016139409291906152c9565b6040516020818303038152906040529650505050505050919050565b5f600a8560405161396d9190614bad565b9081526020016040518091039020545f146139ca5760405162461bcd60e51b815260206004820152601a60248201527f476f7665726e6d656e7420515220616c72656164792075736564000000000000604482015260640161074d565b60028054905f6139d983614d8d565b9091555050600280545f8181526009602052604090208181556001810189905590918101613a0788826150aa565b504260038201556004810185905560058101805460ff191660011790556040518290600a90613a37908a90614bad565b9081526040805160209281900383019020929092555f8a81526006909152908120600e01805491613a6783614d8d565b919050555087827fbdde62b0e96cbbc3cdced0a682146b34800ebd5da6bd791ea90185ea74f7ba5a898888604051613aa1939291906152f7565b60405180910390a3604051869083907f389ac40a531899b9da26a61764120c15779ba4b573fc14b347c8781f7b4763b8905f90a35f8054898252600660209081526040928390206002015492516001600160a01b0390921692633e69b27b928a928d9291613b11918e910161532b565b6040516020818303038152906040526040518563ffffffff1660e01b8152600401613b3f9493929190615367565b5f604051808303815f87803b158015613b56575f80fd5b505af1158015613b68573d5f803e3d5ffd5b50939a9950505050505050505050565b6060815f03613b9e5750506040805180820190915260018152600360fc1b602082015290565b815f5b8115613bc75780613bb181614d8d565b9150613bc09050600a8361538b565b9150613ba1565b5f816001600160401b03811115613be057613be0613f3f565b6040519080825280601f01601f191660200182016040528015613c0a576020820181803683370190505b509050815b8515613c8f57613c20600182614c06565b90505f613c2e600a8861538b565b613c3990600a614da5565b613c439088614c06565b613c4e90603061539e565b90508060f81b838381518110613c6657613c66614c19565b60200101906001600160f81b03191690815f1a905350613c87600a8861538b565b965050613c0f565b50949350505050565b60605f83905082815110613caf5783915050610919565b5f836001600160401b03811115613cc857613cc8613f3f565b6040519080825280601f01601f191660200182016040528015613cf2576020820181803683370190505b5090505f825185613d039190614c06565b90505f5b81811015613d4e57600360fc1b838281518110613d2657613d26614c19565b60200101906001600160f81b03191690815f1a90535080613d4681614d8d565b915050613d07565b505f5b8351811015613dbe57838181518110613d6c57613d6c614c19565b01602001516001600160f81b03191683613d8684846153b7565b81518110613d9657613d96614c19565b60200101906001600160f81b03191690815f1a90535080613db681614d8d565b915050613d51565b509095945050505050565b5f8181805b8251811015613e44575f6030848381518110613dec57613dec614c19565b0160200151613dfe919060f81c6153ca565b9050613e0b600283615274565b15613e165780613e21565b613e218160036153e3565b613e2e9060ff16846153b7565b9250508080613e3c90614d8d565b915050613dce565b50600a613e518183615274565b613e5c90600a614c06565b613e669190615274565b949350505050565b6040518060e001604052805f81526020015f81526020015f81526020015f81526020015f6004811115613ea357613ea36140a4565b81526020015f81526020015f81525090565b6040518061022001604052805f8152602001606081526020015f81526020015f81526020015f81526020015f81526020015f6002811115613ef857613ef86140a4565b81525f602082018190526040820181905260609091019081526020015f81526020015f81526020015f81526020015f81526020015f81526020015f81526020015f81525090565b634e487b7160e01b5f52604160045260245ffd5b60405161010081016001600160401b0381118282101715613f7657613f76613f3f565b60405290565b604051601f8201601f191681016001600160401b0381118282101715613fa457613fa4613f3f565b604052919050565b5f82601f830112613fbb575f80fd5b81356001600160401b03811115613fd457613fd4613f3f565b613fe7601f8201601f1916602001613f7c565b818152846020838601011115613ffb575f80fd5b816020850160208301375f918101602001919091529392505050565b5f60208284031215614027575f80fd5b81356001600160401b0381111561403c575f80fd5b613e6684828501613fac565b5f60208284031215614058575f80fd5b5035919050565b60c0810161091982848051825260208101516020830152604081015160408301526060810151606083015260808101511515608083015260a081015160a08301525050565b634e487b7160e01b5f52602160045260245ffd5b602080825282518282018190525f919060409081850190868401855b828110156141495781518051855286810151878601528581015186860152606080820151908601526080808201519086015260a080820151600a811061411c5761411c6140a4565b9086015260c08181015115159086015260e0908101519085015261010090930192908501906001016140d4565b5091979650505050505050565b602080825282518282018190525f91906040908185019086840185805b838110156141bf5782518051865287810151888701528681015160ff90811688880152606080830151850b90880152608091820151169086015260a09094019391860191600101614173565b509298975050505050505050565b600581106141dd576141dd6140a4565b9052565b5f60e08201905082518252602083015160208301526040830151604083015260608301516060830152608083015161421c60808401826141cd565b5060a083015160a083015260c083015160c083015292915050565b600881106141dd576141dd6140a4565b602081016109198284614237565b5f805f60608486031215614267575f80fd5b8335925060208401356001600160401b0380821115614284575f80fd5b61429087838801613fac565b935060408601359150808211156142a5575f80fd5b506142b286828701613fac565b9150509250925092565b5f805f80608085870312156142cf575f80fd5b5050823594602084013594506040840135936060013592509050565b5f805f805f8060c08789031215614300575f80fd5b863595506020870135945060408701356001600160401b0380821115614324575f80fd5b6143308a838b01613fac565b95506060890135915080821115614345575f80fd5b6143518a838b01613fac565b94506080890135915080821115614366575f80fd5b6143728a838b01613fac565b935060a0890135915080821115614387575f80fd5b5061439489828a01613fac565b9150509295509295509295565b5f602082840312156143b1575f80fd5b8135600881106143bf575f80fd5b9392505050565b5f5b838110156143e05781810151838201526020016143c8565b50505f910152565b5f81518084526143ff8160208601602086016143c6565b601f01601f19169290920160200192915050565b60038110614423576144236140a4565b50565b6141dd81614413565b600481106141dd576141dd6140a4565b5f61022082518452602083015181602086015261445e828601826143e8565b91505060408301516040850152606083015160608501526080830151608085015260a083015160a085015260c083015161449b60c0860182614426565b5060e083015160e0850152610100808401518186015250610120808401516144c582870182614237565b5050610140808401516144da82870182614426565b5050610160808401516144ef8287018261442f565b505061018083810151908501526101a080840151908501526101c080840151908501526101e080840151908501526102009283015192909301919091525090565b5f602080830181845280855180835260408601915060408160051b87010192508387015f5b8281101561458357603f1988860301845261457185835161443f565b94509285019290850190600101614555565b5092979650505050505050565b6020815281516020820152602082015160408201525f604083015160c060608401526145bf60e08401826143e8565b905060608401516080840152608084015160a084015260a0840151151560c08401528091505092915050565b5f80604083850312156145fc575f80fd5b50508035926020909101359150565b803560ff8116811461461b575f80fd5b919050565b5f805f805f60a08688031215614634575f80fd5b853594506020860135935061464b6040870161460b565b92506060860135805f0b811461465f575f80fd5b915061466d6080870161460b565b90509295509295909350565b5f805f805f805f80610100898b031215614691575f80fd5b8835975060208901356001600160401b03808211156146ae575f80fd5b6146ba8c838d01613fac565b985060408b0135975060608b01359150808211156146d6575f80fd5b6146e28c838d01613fac565b965060808b0135955060a08b01359150808211156146fe575f80fd5b61470a8c838d01613fac565b945060c08b0135935060e08b0135915080821115614726575f80fd5b506147338b828c01613fac565b9150509295985092959890939650565b60208101610919828461442f565b602081525f6143bf602083018461443f565b5f805f805f60a08688031215614777575f80fd5b853594506020860135935060408601356001600160401b038082111561479b575f80fd5b6147a789838a01613fac565b945060608801359150808211156147bc575f80fd5b6147c889838a01613fac565b935060808801359150808211156147dd575f80fd5b506147ea88828901613fac565b9150509295509295909350565b6020810161480483614413565b91905290565b5f805f6060848603121561481c575f80fd5b833592506020840135915060408401356001600160401b0381111561483f575f80fd5b6142b286828701613fac565b602080825282518282018190525f9190848201906040850190845b818110156148c3576148b08385518051825260208101516020830152604081015160408301526060810151606083015260808101511515608083015260a081015160a08301525050565b9284019260c09290920191600101614866565b50909695505050505050565b5f805f805f8060c087890312156148e4575f80fd5b86356001600160401b03808211156148fa575f80fd5b6149068a838b01613fac565b9750602089013596506040890135915080821115614922575f80fd5b5061492f89828a01613fac565b945050606087013592506080870135915060a087013590509295509295509295565b8015158114614423575f80fd5b5f805f60608486031215614970575f80fd5b8335925060208401359150604084013561498981614951565b809150509250925092565b5f805f805f60a086880312156149a8575f80fd5b85359450602086013593506040860135600581106149c4575f80fd5b94979396509394606081013594506080013592915050565b5f6001600160401b038211156149f4576149f4613f3f565b5060051b60200190565b5f82601f830112614a0d575f80fd5b81356020614a22614a1d836149dc565b613f7c565b82815260059290921b84018101918181019086841115614a40575f80fd5b8286015b84811015614a5b5780358352918301918301614a44565b509695505050505050565b5f805f805f60a08688031215614a7a575f80fd5b853594506020808701356001600160401b0380821115614a98575f80fd5b818901915089601f830112614aab575f80fd5b8135614ab9614a1d826149dc565b81815260059190911b8301840190848101908c831115614ad7575f80fd5b8585015b83811015614b0e57803585811115614af2575f8081fd5b614b008f89838a0101613fac565b845250918601918601614adb565b50985050506040890135925080831115614b26575f80fd5b614b328a848b016149fe565b95506060890135925080831115614b47575f80fd5b614b538a848b016149fe565b94506080890135925080831115614b68575f80fd5b50506147ea88828901613fac565b602080825282518282018190525f9190848201906040850190845b818110156148c357835183529284019291840191600101614b91565b5f8251614bbe8184602087016143c6565b9190910192915050565b60208082526010908201526f4261746368206e6f742065786973747360801b604082015260600190565b634e487b7160e01b5f52601160045260245ffd5b8181038181111561091957610919614bf2565b634e487b7160e01b5f52603260045260245ffd5b805161461b81614951565b5f6020808385031215614c49575f80fd5b82516001600160401b03811115614c5e575f80fd5b8301601f81018513614c6e575f80fd5b8051614c7c614a1d826149dc565b81815260089190911b82018301908381019087831115614c9a575f80fd5b928401925b82841015614d2e576101008489031215614cb8575f8081fd5b614cc0613f53565b84518152858501518682015260408086015190820152606080860151908201526080808601519082015260a080860151600a8110614cfd575f8081fd5b9082015260c0614d0e868201614c2d565b9082015260e0858101519082015282526101009093019290840190614c9f565b979650505050505050565b604081525f614d4b60408301856143e8565b8281036020840152614d5d81856143e8565b95945050505050565b6020808252600d908201526c496e76616c696420737461676560981b604082015260600190565b5f60018201614d9e57614d9e614bf2565b5060010190565b808202811582820484141761091957610919614bf2565b60408101614dca8285614237565b8260208301529392505050565b5f8551614de8818460208a016143c6565b855190830190614dfc818360208a016143c6565b8551910190614e0f8183602089016143c6565b8451910190614e228183602088016143c6565b019695505050505050565b608081525f614e3f60808301876143e8565b8281036020840152614e5181876143e8565b90508281036040840152614e6581866143e8565b90508281036060840152614d2e81856143e8565b600181811c90821680614e8d57607f821691505b60208210810361086157634e487b7160e01b5f52602260045260245ffd5b60608101614eb9828661442f565b83602083015260ff83166040830152949350505050565b5f88516020614ee28285838e016143c6565b81840191508982528851614efb81838501848d016143c6565b80830192505087818301528651614f188160408501848b016143c6565b604092019182018690528451614f3481606085018489016143c6565b919091016060019a9950505050505050505050565b848152608060208201525f614f6160808301866143e8565b8281036040840152614e6581866143e8565b5f8154614f7f81614e79565b808552602060018381168015614f9c5760018114614fb657614fe1565b60ff1985168884015283151560051b880183019550614fe1565b865f52825f205f5b85811015614fd95781548a8201860152908301908401614fbe565b890184019650505b505050505092915050565b604081525f614d4b6040830185614f73565b5f875161500f818460208c016143c6565b82018781528651615027816020808501908b016143c6565b808201915050856020820152846040820152835161504c8160608401602088016143c6565b0160600198975050505050505050565b601f8211156150a5575f81815260208120601f850160051c810160208610156150825750805b601f850160051c820191505b818110156150a15782815560010161508e565b5050505b505050565b81516001600160401b038111156150c3576150c3613f3f565b6150d7816150d18454614e79565b8461505c565b602080601f83116001811461510a575f84156150f35750858301515b5f19600386901b1c1916600185901b1785556150a1565b5f85815260208120601f198616915b8281101561513857888601518255948401946001909101908401615119565b508582101561515557878501515f19600388901b60f8161c191681555b5050505050600190811b01905550565b608081525f61517760808301876143e8565b6020830195909552506040810192909252606090910152919050565b60a081525f6151a560a08301876143e8565b82810360208401526151b781876143e8565b6040840195909552505060608101919091528082036080909101525f815260200192915050565b828152604081016143bf60208301846141cd565b602081525f6143bf6020830184614f73565b85815284602082015260a060408201525f61522260a08301866143e8565b828103606084015261523481866143e8565b91505082151560808301529695505050505050565b5f60208284031215615259575f80fd5b5051919050565b634e487b7160e01b5f52601260045260245ffd5b5f8261528257615282615260565b500690565b5f84516152988184602089016143c6565b8451908301906152ac8183602089016143c6565b84519101906152bf8183602088016143c6565b0195945050505050565b5f83516152da8184602088016143c6565b8351908301906152ee8183602088016143c6565b01949350505050565b606081525f61530960608301866143e8565b846020840152828103604084015261532181856143e8565b9695505050505050565b7402430b93b32b9ba32b2103a3790383937b23ab1ba1605d1b81525f825161535a8160158501602087016143c6565b9190910160150192915050565b848152836020820152826040820152608060608201525f61532160808301846143e8565b5f8261539957615399615260565b500490565b60ff818116838216019081111561091957610919614bf2565b8082018082111561091957610919614bf2565b60ff828116828216039081111561091957610919614bf2565b60ff81811683821602908116908181146153ff576153ff614bf2565b509291505056fe1c9f99abdc4ff0dc1efc16917683317ce1f3ae802fd4c0a9f03c475b778e3890a264697066735822122018c3f4cd19342a57bfda23f68caeabc4fd0da9328e9ba88f89f5d6127e685baf64736f6c63430008140033",
  "immutableReferences": {},
  "source": "// SPDX-License-Identifier: MIT\r\npragma solidity ^0.8.0;\r\n\r\nimport \"./ActivityLog.sol\";\r\n\r\n/**\r\n * Hợp đồng tối ưu: Chỉ lưu dữ liệu quan trọng trên blockchain\r\n * Chi tiết mở rộng (ảnh, mô tả dài) được lưu off-chain (MySQL)\r\n */\r\ncontract TraceabilityContract {\r\n    ActivityLog private activityLogContract;\r\n\r\n    constructor(address _activityLogAddress) {\r\n        require(_activityLogAddress != address(0), \"Invalid ActivityLog address\");\r\n        activityLogContract = ActivityLog(_activityLogAddress);\r\n    }\r\n\r\n    // ===================================\r\n    // COUNTERS\r\n    // ===================================\r\n    uint256 private _batchIdCounter;\r\n    uint256 private _productIdCounter;\r\n    uint256 private _purchaseIdCounter;\r\n    uint256 private _processingIdCounter;\r\n    uint256 private _qualityTestIdCounter;\r\n\r\n    // ===================================\r\n    // ENUMS\r\n    // ===================================\r\n    enum SupplyChainStage {\r\n        Created,\r\n        Purchased,\r\n        Transported1,\r\n        Processed,\r\n        QualityInspected,\r\n        Transported2,\r\n        Warehoused,\r\n        DeliveredToConsumer\r\n    }\r\n\r\n    enum BatchStatus {\r\n        PendingApproval,\r\n        Approved,\r\n        Rejected\r\n    }\r\n\r\n    enum TransportStatus {\r\n        NotTransported,\r\n        InTransit,\r\n        Delivered\r\n    }\r\n\r\n    enum DetailedTransportStatus {\r\n        NotStarted,\r\n        InTransit,\r\n        Paused,\r\n        Delivered\r\n    }\r\n\r\n    enum ProcessingMethod {\r\n        Washing,\r\n        Cutting,\r\n        Drying,\r\n        Freezing,\r\n        Packaging\r\n    }\r\n\r\n    // ===================================\r\n    // OPTIMIZED STRUCTS - Chỉ dữ liệu quan trọng\r\n    // ===================================\r\n\r\n    /**\r\n     * @dev Batch - CHỈ lưu thông tin cốt lõi\r\n     * Các trường đã loại bỏ để tiết kiệm gas:\r\n     * - productImageUrls[] -> Lưu MySQL\r\n     * - certificateImageUrl -> Lưu MySQL  \r\n     * - farmPlotNumber -> Lưu MySQL\r\n     * - productIds[] -> Tính toán từ events\r\n     * - warehouseIds[] -> Tính toán từ events\r\n     */\r\n    struct Batch {\r\n        uint256 batchId;\r\n        string sscc;                 // Mã lô (20 chars)\r\n        uint256 producerId;\r\n        uint256 productionDate;\r\n        uint256 startDate;\r\n        uint256 endDate;\r\n        BatchStatus status;\r\n        bytes32 dataHash;            // Hash để verify off-chain data\r\n        uint256 productTypeId;\r\n        \r\n        // Stage tracking\r\n        SupplyChainStage currentStage;\r\n        TransportStatus transportStatus;\r\n        DetailedTransportStatus detailedTransportStatus;\r\n        \r\n        // Participant IDs\r\n        uint256 purchaserId;\r\n        uint256 processorId;\r\n        uint256 qualityInspectorId;\r\n        uint256 lastTransporterId;\r\n        \r\n        // Product count only (không lưu array)\r\n        uint256 totalProducts;\r\n    }\r\n\r\n    /**\r\n     * @dev Product - Tối thiểu hóa\r\n     * Loại bỏ: sourceTreeIds[], packageType, soldDate\r\n     * -> Lưu off-chain, link qua events\r\n     */\r\n    struct Product {\r\n        uint256 productId;\r\n        uint256 batchId;\r\n        string governmentQRCode;\r\n        uint256 packagedDate;\r\n        uint256 weight;\r\n        bool isActive;\r\n    }\r\n\r\n    /**\r\n     * @dev Purchase - Chỉ số liệu quan trọng\r\n     * Loại bỏ: imageUrls[], notes, qualityGrade\r\n     */\r\n    struct PurchaseRecord {\r\n        uint256 purchaseId;\r\n        uint256 batchId;\r\n        uint256 purchaserId;\r\n        uint256 farmerId;\r\n        uint256 purchaseDate;\r\n        uint256 totalQuantity;       // kg\r\n        uint256 pricePerUnit;        // VND\r\n        uint256 totalPrice;          // VND\r\n        bool isConfirmed;\r\n    }\r\n\r\n    /**\r\n     * @dev Processing - Tối thiểu\r\n     * Loại bỏ: methodDescription, additives[], imageUrls[], notes\r\n     */\r\n    struct ProcessingRecord {\r\n        uint256 processingId;\r\n        uint256 batchId;\r\n        uint256 processorId;\r\n        uint256 processingDate;\r\n        ProcessingMethod method;\r\n        uint256 inputWeight;         // kg\r\n        uint256 outputWeight;        // kg\r\n    }\r\n\r\n    /**\r\n     * @dev Quality Test - Chỉ kết quả\r\n     */\r\n    struct QualityTest {\r\n        uint256 testId;\r\n        uint256 batchId;\r\n        uint256 inspectorId;\r\n        uint256 testDate;\r\n        bool passed;                 // CHỈ lưu đạt/không đạt\r\n        bytes32 resultHash;          // Hash chi tiết off-chain\r\n    }\r\n\r\n    /**\r\n     * @dev Transport Event\r\n     */\r\n    struct TransportEvent {\r\n        uint256 participantId;\r\n        uint256 timestamp;\r\n        uint8 actionCode;            // 0=Start, 1=Pause, 2=Resume, 3=Complete\r\n        int8 temperature;\r\n        uint8 humidity;\r\n    }\r\n\r\n    // ===================================\r\n    // MAPPINGS\r\n    // ===================================\r\n    \r\n    mapping(uint256 => Batch) private _batches;\r\n    mapping(string => uint256) private _ssccToBatchId;\r\n    mapping(uint256 => bool) private _approvedBatches;\r\n\r\n    mapping(uint256 => Product) private _products;\r\n    mapping(string => uint256) private _governmentQRToProductId;\r\n\r\n    mapping(uint256 => PurchaseRecord) private _purchaseRecords;\r\n    mapping(uint256 => ProcessingRecord) private _processingRecords;\r\n    mapping(uint256 => QualityTest[]) private _batchQualityTests;\r\n    mapping(uint256 => TransportEvent[]) private _batchTransportEvents;\r\n    mapping(uint256 => mapping(uint256 => bool)) private _warehouseConfirmations;\r\n\r\n    // ===================================\r\n    // EVENTS - Emit để backend sync vào MySQL\r\n    // ===================================\r\n    \r\n    event BatchCreated(\r\n        uint256 indexed batchId,\r\n        string sscc,\r\n        uint256 indexed producerId,\r\n        uint256 productTypeId,\r\n        uint256 productionDate,\r\n        bytes32 dataHash\r\n    );\r\n\r\n    event BatchDetailsStored(\r\n        uint256 indexed batchId,\r\n        string name,\r\n        string quantity,\r\n        uint256 startDate,\r\n        uint256 endDate,\r\n        string farmPlotNumber\r\n    );\r\n\r\n    event ProductCreated(\r\n        uint256 indexed productId,\r\n        string governmentQRCode,\r\n        uint256 indexed batchId,\r\n        uint256 weight,\r\n        string packageType\r\n    );\r\n\r\n    event ProductTreeLinked(\r\n        uint256 indexed productId,\r\n        uint256 indexed treeId\r\n    );\r\n\r\n    event BatchApproved(\r\n        uint256 indexed batchId,\r\n        uint256 indexed producerId,\r\n        string sscc\r\n    );\r\n\r\n    event BatchRejected(\r\n        uint256 indexed batchId,\r\n        uint256 indexed producerId,\r\n        string sscc,\r\n        string reason\r\n    );\r\n\r\n    event StageUpdated(\r\n        uint256 indexed batchId,\r\n        SupplyChainStage newStage,\r\n        uint256 participantId\r\n    );\r\n\r\n    event PurchaseRecorded(\r\n        uint256 indexed purchaseId,\r\n        uint256 indexed batchId,\r\n        uint256 purchaserId,\r\n        uint256 totalQuantity,\r\n        uint256 totalPrice\r\n    );\r\n\r\n    event PurchaseDetailsStored(\r\n        uint256 indexed purchaseId,\r\n        string qualityGrade,\r\n        string notes\r\n    );\r\n\r\n    event ProcessingRecorded(\r\n        uint256 indexed processingId,\r\n        uint256 indexed batchId,\r\n        uint256 processorId,\r\n        ProcessingMethod method\r\n    );\r\n\r\n    event ProcessingDetailsStored(\r\n        uint256 indexed processingId,\r\n        string methodDescription,\r\n        string notes\r\n    );\r\n\r\n    event QualityTestRecorded(\r\n        uint256 indexed testId,\r\n        uint256 indexed batchId,\r\n        uint256 inspectorId,\r\n        bool passed,\r\n        bytes32 resultHash\r\n    );\r\n\r\n    event QualityTestDetailsStored(\r\n        uint256 indexed testId,\r\n        string testType,\r\n        string testMethod,\r\n        string result,\r\n        string standard\r\n    );\r\n\r\n    event TransportStatusUpdated(\r\n        uint256 indexed batchId,\r\n        DetailedTransportStatus newStatus,\r\n        uint256 participantId,\r\n        uint8 actionCode\r\n    );\r\n\r\n    event TransportDetailsStored(\r\n        uint256 indexed batchId,\r\n        uint256 participantId,\r\n        string action,\r\n        string location,\r\n        string participantType\r\n    );\r\n\r\n    event WarehouseConfirmed(\r\n        uint256 indexed batchId,\r\n        uint256 indexed warehouseId\r\n    );\r\n\r\n    // ===================================\r\n    // MODIFIERS\r\n    // ===================================\r\n    modifier onlyInStage(uint256 _batchId, SupplyChainStage _requiredStage) {\r\n        require(\r\n            _batches[_batchId].currentStage == _requiredStage,\r\n            \"Invalid stage\"\r\n        );\r\n        _;\r\n    }\r\n\r\n    modifier batchExists(uint256 _batchId) {\r\n        require(_batches[_batchId].batchId != 0, \"Batch not exists\");\r\n        _;\r\n    }\r\n\r\n    modifier batchApproved(uint256 _batchId) {\r\n        require(_batches[_batchId].status == BatchStatus.Approved, \"Not approved\");\r\n        _;\r\n    }\r\n\r\n    // ===================================\r\n    // INTERNAL HELPERS\r\n    // ===================================\r\n    function addSystemActivityLog(\r\n        uint256 _batchId,\r\n        uint256 _participantId,\r\n        string memory _activityName,\r\n        string memory _description\r\n    ) internal {\r\n        activityLogContract.addActivityLog(\r\n            _batchId,\r\n            _participantId,\r\n            _activityName,\r\n            _description,\r\n            true\r\n        );\r\n    }\r\n\r\n    // ===================================\r\n    // SSCC GENERATION\r\n    // ===================================\r\n    function generateSSCC(uint256 _producerId) private view returns (string memory) {\r\n        string memory prefix = \"00\";\r\n        string memory companyPrefix = padLeft(uint2str(_producerId), 6);\r\n        uint256 serialNumber = uint256(keccak256(abi.encodePacked(block.timestamp, _producerId))) % 1000000000;\r\n        string memory serialReference = padLeft(uint2str(serialNumber), 9);\r\n        string memory ssccWithoutCheck = string(abi.encodePacked(prefix, companyPrefix, serialReference));\r\n        uint8 checkDigit = calculateCheckDigit(ssccWithoutCheck);\r\n        return string(abi.encodePacked(ssccWithoutCheck, uint2str(uint256(checkDigit))));\r\n    }\r\n\r\n    function padLeft(string memory str, uint256 length) private pure returns (string memory) {\r\n        bytes memory strBytes = bytes(str);\r\n        if (strBytes.length >= length) return str;\r\n        bytes memory result = new bytes(length);\r\n        uint256 paddingLength = length - strBytes.length;\r\n        for (uint256 i = 0; i < paddingLength; i++) {\r\n            result[i] = bytes1(\"0\");\r\n        }\r\n        for (uint256 i = 0; i < strBytes.length; i++) {\r\n            result[i + paddingLength] = strBytes[i];\r\n        }\r\n        return string(result);\r\n    }\r\n\r\n    function calculateCheckDigit(string memory _code) private pure returns (uint8) {\r\n        bytes memory codeBytes = bytes(_code);\r\n        uint256 sum = 0;\r\n        for (uint256 i = 0; i < codeBytes.length; i++) {\r\n            uint8 digit = uint8(codeBytes[i]) - 48;\r\n            sum += (i % 2 == 0) ? digit * 3 : digit;\r\n        }\r\n        return uint8((10 - (sum % 10)) % 10);\r\n    }\r\n\r\n    function uint2str(uint256 _i) internal pure returns (string memory) {\r\n        if (_i == 0) return \"0\";\r\n        uint256 j = _i;\r\n        uint256 length;\r\n        while (j != 0) {\r\n            length++;\r\n            j /= 10;\r\n        }\r\n        bytes memory bstr = new bytes(length);\r\n        uint256 k = length;\r\n        while (_i != 0) {\r\n            k = k - 1;\r\n            uint8 temp = 48 + uint8(_i - (_i / 10) * 10);\r\n            bstr[k] = bytes1(temp);\r\n            _i /= 10;\r\n        }\r\n        return string(bstr);\r\n    }\r\n\r\n    // ===================================\r\n    // BATCH CREATION - OPTIMIZED\r\n    // ===================================\r\n    \r\n    /**\r\n     * @dev Tạo batch - Tách thành 2 functions để tránh stack too deep\r\n     */\r\n    function createBatch(\r\n        string memory _name,\r\n        uint256 _producerId,\r\n        string memory _quantity,\r\n        uint256 _productTypeId,\r\n        uint256 _startDate,\r\n        uint256 _endDate\r\n    ) public returns (uint256) {\r\n        require(bytes(_name).length > 0, \"Name required\");\r\n        require(_producerId > 0, \"Invalid producer\");\r\n        require(_startDate > 0 && _endDate > 0 && _startDate < _endDate, \"Invalid dates\");\r\n\r\n        _batchIdCounter++;\r\n        uint256 newBatchId = _batchIdCounter;\r\n        string memory sscc = generateSSCC(_producerId);\r\n        uint256 productionDate = block.timestamp;\r\n        \r\n        // Calculate hash cho off-chain data\r\n        bytes32 dataHash = keccak256(abi.encodePacked(\r\n            sscc,\r\n            _producerId,\r\n            _quantity,\r\n            productionDate,\r\n            _productTypeId,\r\n            _name\r\n        ));\r\n\r\n        // Lưu on-chain (minimal)\r\n        Batch storage batch = _batches[newBatchId];\r\n        batch.batchId = newBatchId;\r\n        batch.sscc = sscc;\r\n        batch.producerId = _producerId;\r\n        batch.productionDate = productionDate;\r\n        batch.startDate = _startDate;\r\n        batch.endDate = _endDate;\r\n        batch.status = BatchStatus.PendingApproval;\r\n        batch.dataHash = dataHash;\r\n        batch.productTypeId = _productTypeId;\r\n        batch.transportStatus = TransportStatus.NotTransported;\r\n        batch.detailedTransportStatus = DetailedTransportStatus.NotStarted;\r\n        batch.currentStage = SupplyChainStage.Created;\r\n        batch.totalProducts = 0;\r\n\r\n        _ssccToBatchId[sscc] = newBatchId;\r\n\r\n        // Emit event on-chain\r\n        emit BatchCreated(newBatchId, sscc, _producerId, _productTypeId, productionDate, dataHash);\r\n        \r\n        // Emit event off-chain\r\n        emit BatchDetailsStored(newBatchId, _name, _quantity, _startDate, _endDate, \"\");\r\n\r\n        addSystemActivityLog(newBatchId, _producerId, \"Batch Created\", \"New batch created\");\r\n\r\n        emit StageUpdated(newBatchId, SupplyChainStage.Created, _producerId);\r\n\r\n        return newBatchId;\r\n    }\r\n\r\n    // ===================================\r\n    // PRODUCT CREATION - OPTIMIZED\r\n    // ===================================\r\n    \r\n    /**\r\n    * @dev Tạo sản phẩm đơn lẻ với Government QR Codes\r\n    * Thêm parameter governmentQRCodes\r\n    */\r\n    function createProductsInBatch(\r\n        uint256 _batchId,\r\n        string[] memory _governmentQRCodes,\r\n        uint256[] memory _sourceTreeIds,\r\n        uint256[] memory _weights,\r\n        string memory _packageType\r\n    ) public batchExists(_batchId) returns (uint256[] memory) {\r\n        require(_governmentQRCodes.length == _sourceTreeIds.length, \"Length mismatch\");\r\n        require(_sourceTreeIds.length == _weights.length, \"Length mismatch\");\r\n        require(_batches[_batchId].currentStage >= SupplyChainStage.Processed, \"Must be processed\");\r\n\r\n        uint256[] memory newProductIds = new uint256[](_weights.length);\r\n\r\n        for (uint256 i = 0; i < _weights.length; i++) {\r\n            newProductIds[i] = _createSingleProduct(\r\n                _batchId,\r\n                _governmentQRCodes[i],\r\n                _sourceTreeIds[i],\r\n                _weights[i],\r\n                _packageType\r\n            );\r\n        }\r\n\r\n        return newProductIds;\r\n    }\r\n\r\n    function _createSingleProduct(\r\n        uint256 _batchId,\r\n        string memory _governmentQRCode,\r\n        uint256 _sourceTreeId,\r\n        uint256 _weight,\r\n        string memory _packageType\r\n    ) private returns (uint256) {\r\n        // Kiểm tra government QR chưa được sử dụng\r\n        require(_governmentQRToProductId[_governmentQRCode] == 0, \"Government QR already used\");\r\n        \r\n        _productIdCounter++;\r\n        uint256 newProductId = _productIdCounter;\r\n\r\n        // Lưu on-chain (minimal)\r\n        Product storage newProduct = _products[newProductId];\r\n        newProduct.productId = newProductId;\r\n        newProduct.batchId = _batchId;\r\n        newProduct.governmentQRCode = _governmentQRCode;\r\n        newProduct.packagedDate = block.timestamp;\r\n        newProduct.weight = _weight;\r\n        newProduct.isActive = true;\r\n\r\n        _governmentQRToProductId[_governmentQRCode] = newProductId;\r\n        _batches[_batchId].totalProducts++;\r\n\r\n        // Emit events\r\n        emit ProductCreated(newProductId, _governmentQRCode, _batchId, _weight, _packageType);\r\n        emit ProductTreeLinked(newProductId, _sourceTreeId);\r\n\r\n        // Link tree to batch\r\n        activityLogContract.linkTreeToBatch(\r\n            _sourceTreeId,\r\n            _batchId,\r\n            _batches[_batchId].producerId,\r\n            string(abi.encodePacked(\"Harvested to product \", _governmentQRCode))\r\n        );\r\n\r\n        return newProductId;\r\n    }\r\n\r\n    // ===================================\r\n    // STAGE 1: APPROVE/REJECT\r\n    // ===================================\r\n    \r\n    function approveBatch(uint256 _batchId, uint256 _approverId) \r\n        public \r\n        batchExists(_batchId) \r\n    {\r\n        require(_batches[_batchId].status == BatchStatus.PendingApproval, \"Not pending\");\r\n        require(_batches[_batchId].producerId == _approverId, \"Not producer of batch\");\r\n\r\n        _batches[_batchId].status = BatchStatus.Approved;\r\n        _approvedBatches[_batchId] = true;\r\n\r\n        addSystemActivityLog(_batchId, _approverId, \"Batch Approved\", \"Approved\");\r\n\r\n        emit BatchApproved(_batchId, _batches[_batchId].producerId, _batches[_batchId].sscc);\r\n    }\r\n\r\n    function rejectBatch(uint256 _batchId, uint256 _approverId, string memory _reason) \r\n        public \r\n        batchExists(_batchId) \r\n    {\r\n        require(_batches[_batchId].status == BatchStatus.PendingApproval, \"Not pending\");\r\n        require(_batches[_batchId].producerId == _approverId, \"Not producer of batch\");\r\n\r\n        _batches[_batchId].status = BatchStatus.Rejected;\r\n\r\n        addSystemActivityLog(_batchId, _approverId, \"Batch Rejected\", _reason);\r\n\r\n        emit BatchRejected(_batchId, _batches[_batchId].producerId, _batches[_batchId].sscc, _reason);\r\n    }\r\n\r\n    // ===================================\r\n    // STAGE 2: PURCHASE - OPTIMIZED\r\n    // ===================================\r\n    \r\n    /**\r\n     * @dev Record purchase - Tách thành 2 functions\r\n     */\r\n    function recordPurchase(\r\n        uint256 _batchId,\r\n        uint256 _purchaserId,\r\n        uint256 _totalQuantity,\r\n        uint256 _pricePerUnit\r\n    ) public \r\n        batchExists(_batchId)\r\n        batchApproved(_batchId)\r\n        onlyInStage(_batchId, SupplyChainStage.Created)\r\n        returns (uint256) \r\n    {\r\n        _purchaseIdCounter++;\r\n        uint256 newPurchaseId = _purchaseIdCounter;\r\n\r\n        // Lưu on-chain (minimal)\r\n        PurchaseRecord storage purchase = _purchaseRecords[_batchId];\r\n        purchase.purchaseId = newPurchaseId;\r\n        purchase.batchId = _batchId;\r\n        purchase.purchaserId = _purchaserId;\r\n        purchase.farmerId = _batches[_batchId].producerId;\r\n        purchase.purchaseDate = block.timestamp;\r\n        purchase.totalQuantity = _totalQuantity;\r\n        purchase.pricePerUnit = _pricePerUnit;\r\n        purchase.totalPrice = _totalQuantity * _pricePerUnit;\r\n        purchase.isConfirmed = true;\r\n\r\n        _batches[_batchId].currentStage = SupplyChainStage.Purchased;\r\n        _batches[_batchId].purchaserId = _purchaserId;\r\n\r\n        // Emit events\r\n        emit PurchaseRecorded(newPurchaseId, _batchId, _purchaserId, _totalQuantity, purchase.totalPrice);\r\n\r\n        addSystemActivityLog(_batchId, _purchaserId, \"Purchase Recorded\", \"Purchased\");\r\n\r\n        emit StageUpdated(_batchId, SupplyChainStage.Purchased, _purchaserId);\r\n\r\n        return newPurchaseId;\r\n    }\r\n\r\n    /**\r\n     * @dev Add purchase details\r\n     */\r\n    function addPurchaseDetails(\r\n        uint256 _purchaseId,\r\n        string memory _qualityGrade,\r\n        string memory _notes\r\n    ) public {\r\n        emit PurchaseDetailsStored(_purchaseId, _qualityGrade, _notes);\r\n    }\r\n\r\n    // ===================================\r\n    // STAGE 3: TRANSPORT\r\n    // ===================================\r\n    \r\n    /**\r\n     * @dev Update transport status - Tách thành 2 functions\r\n     */\r\n    function updateTransportStatus(\r\n        uint256 _batchId,\r\n        uint256 _participantId,\r\n        uint8 _actionCode,\r\n        int8 _temperature,\r\n        uint8 _humidity\r\n    ) public batchExists(_batchId) batchApproved(_batchId) {\r\n        Batch storage batch = _batches[_batchId];\r\n\r\n        // Lưu on-chain (minimal)\r\n        _batchTransportEvents[_batchId].push(TransportEvent({\r\n            participantId: _participantId,\r\n            timestamp: block.timestamp,\r\n            actionCode: _actionCode,\r\n            temperature: _temperature,\r\n            humidity: _humidity\r\n        }));\r\n\r\n        // Action: 0=Start, 1=Pause, 2=Resume, 3=Complete\r\n        if (_actionCode == 0) {\r\n            batch.detailedTransportStatus = DetailedTransportStatus.InTransit;\r\n            batch.transportStatus = TransportStatus.InTransit;\r\n            batch.lastTransporterId = _participantId;\r\n        } else if (_actionCode == 1) {\r\n            batch.detailedTransportStatus = DetailedTransportStatus.Paused;\r\n        } else if (_actionCode == 2) {\r\n            batch.detailedTransportStatus = DetailedTransportStatus.InTransit;\r\n        } else if (_actionCode == 3) {\r\n            batch.detailedTransportStatus = DetailedTransportStatus.Delivered;\r\n            batch.transportStatus = TransportStatus.Delivered;\r\n\r\n            if (batch.currentStage == SupplyChainStage.Purchased) {\r\n                batch.currentStage = SupplyChainStage.Transported1;\r\n                emit StageUpdated(_batchId, SupplyChainStage.Transported1, _participantId);\r\n            } else if (batch.currentStage == SupplyChainStage.QualityInspected) {\r\n                batch.currentStage = SupplyChainStage.Transported2;\r\n                emit StageUpdated(_batchId, SupplyChainStage.Transported2, _participantId);\r\n            }\r\n        }\r\n\r\n        // Emit event\r\n        emit TransportStatusUpdated(_batchId, batch.detailedTransportStatus, _participantId, _actionCode);\r\n\r\n        addSystemActivityLog(_batchId, _participantId, \"Transport Updated\", \"Updated\");\r\n    }\r\n\r\n    /**\r\n     * @dev Add transport details\r\n     */\r\n    function addTransportDetails(\r\n        uint256 _batchId,\r\n        uint256 _participantId,\r\n        string memory _action,\r\n        string memory _location,\r\n        string memory _participantType\r\n    ) public {\r\n        emit TransportDetailsStored(_batchId, _participantId, _action, _location, _participantType);\r\n    }\r\n\r\n    // ===================================\r\n    // STAGE 4: PROCESSING\r\n    // ===================================\r\n    \r\n    /**\r\n     * @dev Record processing - Tách thành 2 functions\r\n     */\r\n    function recordProcessing(\r\n        uint256 _batchId,\r\n        uint256 _processorId,\r\n        ProcessingMethod _method,\r\n        uint256 _inputWeight,\r\n        uint256 _outputWeight\r\n    ) public \r\n        batchExists(_batchId)\r\n        returns (uint256) \r\n    {\r\n        require(\r\n            _batches[_batchId].currentStage == SupplyChainStage.Purchased || \r\n            _batches[_batchId].currentStage == SupplyChainStage.Transported1,\r\n            \"Invalid stage\"\r\n        );\r\n\r\n        _processingIdCounter++;\r\n        uint256 newProcessingId = _processingIdCounter;\r\n\r\n        // Lưu on-chain (minimal)\r\n        ProcessingRecord storage processing = _processingRecords[_batchId];\r\n        processing.processingId = newProcessingId;\r\n        processing.batchId = _batchId;\r\n        processing.processorId = _processorId;\r\n        processing.processingDate = block.timestamp;\r\n        processing.method = _method;\r\n        processing.inputWeight = _inputWeight;\r\n        processing.outputWeight = _outputWeight;\r\n\r\n        _batches[_batchId].currentStage = SupplyChainStage.Processed;\r\n        _batches[_batchId].processorId = _processorId;\r\n\r\n        // Emit events\r\n        emit ProcessingRecorded(newProcessingId, _batchId, _processorId, _method);\r\n\r\n        addSystemActivityLog(_batchId, _processorId, \"Processing Completed\", \"Completed\");\r\n\r\n        emit StageUpdated(_batchId, SupplyChainStage.Processed, _processorId);\r\n\r\n        return newProcessingId;\r\n    }\r\n\r\n    /**\r\n     * @dev Add processing details\r\n     */\r\n    function addProcessingDetails(\r\n        uint256 _processingId,\r\n        string memory _methodDescription,\r\n        string memory _notes\r\n    ) public {\r\n        emit ProcessingDetailsStored(_processingId, _methodDescription, _notes);\r\n    }\r\n\r\n    // ===================================\r\n    // STAGE 5: QUALITY INSPECTION - OPTIMIZED\r\n    // ===================================\r\n    \r\n    /**\r\n     * @dev Record quality test - Tách thành 2 functions\r\n     */\r\n    function recordQualityTest(\r\n        uint256 _batchId,\r\n        uint256 _inspectorId,\r\n        bool _passed\r\n    ) public \r\n        batchExists(_batchId)\r\n        onlyInStage(_batchId, SupplyChainStage.Processed)\r\n        returns (uint256) \r\n    {\r\n        _qualityTestIdCounter++;\r\n        uint256 newTestId = _qualityTestIdCounter;\r\n\r\n        // Lưu on-chain (minimal)\r\n        QualityTest memory test = QualityTest({\r\n            testId: newTestId,\r\n            batchId: _batchId,\r\n            inspectorId: _inspectorId,\r\n            testDate: block.timestamp,\r\n            passed: _passed,\r\n            resultHash: bytes32(0) // Sẽ update sau\r\n        });\r\n\r\n        _batchQualityTests[_batchId].push(test);\r\n\r\n        if (_passed) {\r\n            _batches[_batchId].currentStage = SupplyChainStage.QualityInspected;\r\n            _batches[_batchId].qualityInspectorId = _inspectorId;\r\n\r\n            addSystemActivityLog(_batchId, _inspectorId, \"Quality Test Passed\", \"Passed\");\r\n\r\n            emit StageUpdated(_batchId, SupplyChainStage.QualityInspected, _inspectorId);\r\n        } else {\r\n            addSystemActivityLog(_batchId, _inspectorId, \"Quality Test Failed\", \"Failed\");\r\n        }\r\n\r\n        emit QualityTestRecorded(newTestId, _batchId, _inspectorId, _passed, bytes32(0));\r\n\r\n        return newTestId;\r\n    }\r\n\r\n    /**\r\n     * @dev Add quality test details\r\n     */\r\n    function addQualityTestDetails(\r\n        uint256 _testId,\r\n        uint256 _batchId,\r\n        string memory _testType,\r\n        string memory _testMethod,\r\n        string memory _result,\r\n        string memory _standard\r\n    ) public {\r\n        // Hash chi tiết kết quả\r\n        bytes32 resultHash = keccak256(abi.encodePacked(\r\n            _testType,\r\n            _testMethod,\r\n            _result,\r\n            _standard\r\n        ));\r\n\r\n        // Update resultHash\r\n        QualityTest[] storage tests = _batchQualityTests[_batchId];\r\n        for (uint256 i = 0; i < tests.length; i++) {\r\n            if (tests[i].testId == _testId) {\r\n                tests[i].resultHash = resultHash;\r\n                break;\r\n            }\r\n        }\r\n\r\n        // Emit event\r\n        emit QualityTestDetailsStored(_testId, _testType, _testMethod, _result, _standard);\r\n    }\r\n\r\n    // ===================================\r\n    // STAGE 6: WAREHOUSE CONFIRMATION\r\n    // ===================================\r\n    \r\n    function warehouseConfirmation(uint256 _batchId, uint256 _warehouseId) \r\n        public \r\n        batchExists(_batchId) \r\n    {\r\n        require(_batches[_batchId].transportStatus == TransportStatus.Delivered, \"Not delivered\");\r\n        require(!_warehouseConfirmations[_batchId][_warehouseId], \"Already confirmed\");\r\n\r\n        _warehouseConfirmations[_batchId][_warehouseId] = true;\r\n        _batches[_batchId].currentStage = SupplyChainStage.Warehoused;\r\n\r\n        addSystemActivityLog(_batchId, _warehouseId, \"Warehouse Confirmed\", \"Received\");\r\n\r\n        emit WarehouseConfirmed(_batchId, _warehouseId);\r\n        emit StageUpdated(_batchId, SupplyChainStage.Warehoused, _warehouseId);\r\n    }\r\n\r\n    // ===================================\r\n    // GETTERS - BATCH\r\n    // ===================================\r\n    \r\n    function getBatchDetails(uint256 _batchId) public view batchExists(_batchId) returns (Batch memory) {\r\n        return _batches[_batchId];\r\n    }\r\n\r\n    function getBatchBySSCC(string memory _sscc) public view returns (Batch memory) {\r\n        uint256 batchId = _ssccToBatchId[_sscc];\r\n        require(batchId != 0, \"Batch not found\");\r\n        return _batches[batchId];\r\n    }\r\n\r\n    function getBatchIdBySSCC(string memory _sscc) public view returns (uint256) {\r\n        return _ssccToBatchId[_sscc];\r\n    }\r\n\r\n    function isBatchApproved(uint256 _batchId) public view returns (bool) {\r\n        return _approvedBatches[_batchId];\r\n    }\r\n\r\n    function getCurrentStage(uint256 _batchId) public view batchExists(_batchId) returns (SupplyChainStage) {\r\n        return _batches[_batchId].currentStage;\r\n    }\r\n\r\n    function getBatchTransportStatus(uint256 _batchId) public view batchExists(_batchId) returns (TransportStatus) {\r\n        return _batches[_batchId].transportStatus;\r\n    }\r\n\r\n    function getDetailedTransportStatus(uint256 _batchId) public view batchExists(_batchId) returns (DetailedTransportStatus) {\r\n        return _batches[_batchId].detailedTransportStatus;\r\n    }\r\n\r\n    function getTotalBatches() public view returns (uint256) {\r\n        return _batchIdCounter;\r\n    }\r\n\r\n    // ===================================\r\n    // GETTERS - PRODUCT\r\n    // ===================================\r\n    \r\n    function getProductByGovernmentQR(string memory _governmentQR) public view returns (Product memory) {\r\n        uint256 productId = _governmentQRToProductId[_governmentQR];\r\n        require(productId != 0, \"Product not found\");\r\n        return _products[productId];\r\n    }\r\n\r\n    function getProductDetails(uint256 _productId) public view returns (Product memory) {\r\n        require(_products[_productId].productId != 0, \"Product not exists\");\r\n        return _products[_productId];\r\n    }\r\n\r\n    function getTotalProducts() public view returns (uint256) {\r\n        return _productIdCounter;\r\n    }\r\n\r\n    function getBatchProductCount(uint256 _batchId) public view batchExists(_batchId) returns (uint256) {\r\n        return _batches[_batchId].totalProducts;\r\n    }\r\n\r\n    // ===================================\r\n    // GETTERS - PURCHASE\r\n    // ===================================\r\n    \r\n    function getPurchaseRecord(uint256 _batchId) public view batchExists(_batchId) returns (PurchaseRecord memory) {\r\n        require(_purchaseRecords[_batchId].purchaseId != 0, \"No purchase record\");\r\n        return _purchaseRecords[_batchId];\r\n    }\r\n\r\n    // ===================================\r\n    // GETTERS - PROCESSING\r\n    // ===================================\r\n    \r\n    function getProcessingRecord(uint256 _batchId) public view batchExists(_batchId) returns (ProcessingRecord memory) {\r\n        require(_processingRecords[_batchId].processingId != 0, \"No processing record\");\r\n        return _processingRecords[_batchId];\r\n    }\r\n\r\n    // ===================================\r\n    // GETTERS - QUALITY TEST\r\n    // ===================================\r\n    \r\n    function getBatchQualityTests(uint256 _batchId) public view batchExists(_batchId) returns (QualityTest[] memory) {\r\n        return _batchQualityTests[_batchId];\r\n    }\r\n\r\n    function getLatestQualityTest(uint256 _batchId) public view batchExists(_batchId) returns (QualityTest memory) {\r\n        QualityTest[] memory tests = _batchQualityTests[_batchId];\r\n        require(tests.length > 0, \"No quality tests\");\r\n        return tests[tests.length - 1];\r\n    }\r\n\r\n    // ===================================\r\n    // GETTERS - TRANSPORT\r\n    // ===================================\r\n    \r\n    function getTransportEvents(uint256 _batchId) public view batchExists(_batchId) returns (TransportEvent[] memory) {\r\n        return _batchTransportEvents[_batchId];\r\n    }\r\n\r\n    function getTransportHistoryBySSCC(string memory _sscc) public view returns (TransportEvent[] memory) {\r\n        uint256 batchId = _ssccToBatchId[_sscc];\r\n        require(batchId != 0, \"Batch not found\");\r\n        return _batchTransportEvents[batchId];\r\n    }\r\n\r\n    // ===================================\r\n    // GETTERS - WAREHOUSE\r\n    // ===================================\r\n    \r\n    function isWarehouseConfirmed(uint256 _batchId, uint256 _warehouseId) public view returns (bool) {\r\n        return _warehouseConfirmations[_batchId][_warehouseId];\r\n    }\r\n\r\n    // ===================================\r\n    // GETTERS - ACTIVITY LOGS\r\n    // ===================================\r\n    \r\n    function getActivityLogs(uint256 _batchId) public view returns (ActivityLog.ActivityLogEntry[] memory) {\r\n        return activityLogContract.getActivityLogs(_batchId);\r\n    }\r\n\r\n    function getSystemActivityLogs(uint256 _batchId) public view returns (ActivityLog.ActivityLogEntry[] memory) {\r\n        return activityLogContract.getSystemActivityLogs(_batchId);\r\n    }\r\n\r\n    // ===================================\r\n    // BATCH QUERIES\r\n    // ===================================\r\n    \r\n    function getBatchesByProducer(uint256 _producerId) public view returns (Batch[] memory) {\r\n        uint256 count = 0;\r\n        for (uint256 i = 1; i <= _batchIdCounter; i++) {\r\n            if (_batches[i].producerId == _producerId) {\r\n                count++;\r\n            }\r\n        }\r\n\r\n        Batch[] memory batches = new Batch[](count);\r\n        uint256 index = 0;\r\n        for (uint256 i = 1; i <= _batchIdCounter; i++) {\r\n            if (_batches[i].producerId == _producerId) {\r\n                batches[index] = _batches[i];\r\n                index++;\r\n            }\r\n        }\r\n        return batches;\r\n    }\r\n\r\n    function getBatchesByStage(SupplyChainStage _stage) public view returns (Batch[] memory) {\r\n        uint256 count = 0;\r\n        for (uint256 i = 1; i <= _batchIdCounter; i++) {\r\n            if (_batches[i].currentStage == _stage) {\r\n                count++;\r\n            }\r\n        }\r\n\r\n        Batch[] memory batches = new Batch[](count);\r\n        uint256 index = 0;\r\n        for (uint256 i = 1; i <= _batchIdCounter; i++) {\r\n            if (_batches[i].currentStage == _stage) {\r\n                batches[index] = _batches[i];\r\n                index++;\r\n            }\r\n        }\r\n        return batches;\r\n    }\r\n\r\n    function getAllPendingBatches() public view returns (Batch[] memory) {\r\n        uint256 count = 0;\r\n        for (uint256 i = 1; i <= _batchIdCounter; i++) {\r\n            if (_batches[i].status == BatchStatus.PendingApproval) {\r\n                count++;\r\n            }\r\n        }\r\n\r\n        Batch[] memory batches = new Batch[](count);\r\n        uint256 index = 0;\r\n        for (uint256 i = 1; i <= _batchIdCounter; i++) {\r\n            if (_batches[i].status == BatchStatus.PendingApproval) {\r\n                batches[index] = _batches[i];\r\n                index++;\r\n            }\r\n        }\r\n        return batches;\r\n    }\r\n\r\n    function getApprovedBatchesByProducer(uint256 _producerId) public view returns (Batch[] memory) {\r\n        uint256 count = 0;\r\n        for (uint256 i = 1; i <= _batchIdCounter; i++) {\r\n            if (_batches[i].producerId == _producerId && _batches[i].status == BatchStatus.Approved) {\r\n                count++;\r\n            }\r\n        }\r\n\r\n        Batch[] memory batches = new Batch[](count);\r\n        uint256 index = 0;\r\n        for (uint256 i = 1; i <= _batchIdCounter; i++) {\r\n            if (_batches[i].producerId == _producerId && _batches[i].status == BatchStatus.Approved) {\r\n                batches[index] = _batches[i];\r\n                index++;\r\n            }\r\n        }\r\n        return batches;\r\n    }\r\n\r\n    // ===================================\r\n    // UTILITY FUNCTIONS\r\n    // ===================================\r\n    \r\n    function ssccExists(string memory _sscc) public view returns (bool) {\r\n        return _ssccToBatchId[_sscc] != 0;\r\n    }\r\n\r\n    function governmentQRExists(string memory _governmentQR) public view returns (bool) {\r\n        return _governmentQRToProductId[_governmentQR] != 0;\r\n    }\r\n\r\n    function isProducerOfBatch(uint256 _batchId, uint256 _producerId) public view returns (bool) {\r\n        return _batches[_batchId].producerId == _producerId;\r\n    }\r\n\r\n    /**\r\n     * @dev Verify off-chain data hash\r\n     * Frontend/Backend có thể verify data integrity\r\n     */\r\n    function verifyBatchDataHash(\r\n        uint256 _batchId,\r\n        string memory _sscc,\r\n        uint256 _producerId,\r\n        string memory _quantity,\r\n        uint256 _productionDate,\r\n        string memory _farmPlotNumber,\r\n        uint256 _productTypeId,\r\n        string memory _name\r\n    ) public view returns (bool) {\r\n        bytes32 calculatedHash = keccak256(abi.encodePacked(\r\n            _sscc,\r\n            _producerId,\r\n            _quantity,\r\n            _productionDate,\r\n            _farmPlotNumber,\r\n            _productTypeId,\r\n            _name\r\n        ));\r\n        \r\n        return _batches[_batchId].dataHash == calculatedHash;\r\n    }\r\n}",
  "sourcePath": "D:\\LVTN\\nckh-be\\blockchain\\contracts\\supplychain.sol",
  "compiler": {
    "name": "solc",
    "version": "0.8.20+commit.a1b79de6.Emscripten.clang"
  },
  "schemaVersion": "3.4.16",
  "updatedAt": "2026-04-12T11:10:31.549Z",
  "networkType": "ethereum",
  "devdoc": {
    "kind": "dev",
    "methods": {
      "addProcessingDetails(uint256,string,string)": {
        "details": "Add processing details"
      },
      "addPurchaseDetails(uint256,string,string)": {
        "details": "Add purchase details"
      },
      "addQualityTestDetails(uint256,uint256,string,string,string,string)": {
        "details": "Add quality test details"
      },
      "addTransportDetails(uint256,uint256,string,string,string)": {
        "details": "Add transport details"
      },
      "createBatch(string,uint256,string,uint256,uint256,uint256)": {
        "details": "Tạo batch - Tách thành 2 functions để tránh stack too deep"
      },
      "createProductsInBatch(uint256,string[],uint256[],uint256[],string)": {
        "details": "Tạo sản phẩm đơn lẻ với Government QR Codes Thêm parameter governmentQRCodes"
      },
      "recordProcessing(uint256,uint256,uint8,uint256,uint256)": {
        "details": "Record processing - Tách thành 2 functions"
      },
      "recordPurchase(uint256,uint256,uint256,uint256)": {
        "details": "Record purchase - Tách thành 2 functions"
      },
      "recordQualityTest(uint256,uint256,bool)": {
        "details": "Record quality test - Tách thành 2 functions"
      },
      "updateTransportStatus(uint256,uint256,uint8,int8,uint8)": {
        "details": "Update transport status - Tách thành 2 functions"
      },
      "verifyBatchDataHash(uint256,string,uint256,string,uint256,string,uint256,string)": {
        "details": "Verify off-chain data hash Frontend/Backend có thể verify data integrity"
      }
    },
    "version": 1
  },
  "userdoc": {
    "kind": "user",
    "methods": {},
    "notice": "Hợp đồng tối ưu: Chỉ lưu dữ liệu quan trọng trên blockchain Chi tiết mở rộng (ảnh, mô tả dài) được lưu off-chain (MySQL)",
    "version": 1
  }
}