{
  "contractName": "TraceabilityContract",
  "abi": [
    {
      "inputs": [
        {
          "internalType": "address",
          "name": "_activityLogAddress",
          "type": "address"
        }
      ],
      "stateMutability": "nonpayable",
      "type": "constructor"
    },
    {
      "anonymous": false,
      "inputs": [
        {
          "indexed": true,
          "internalType": "uint256",
          "name": "uid",
          "type": "uint256"
        },
        {
          "indexed": false,
          "internalType": "string",
          "name": "activityName",
          "type": "string"
        },
        {
          "indexed": false,
          "internalType": "string",
          "name": "description",
          "type": "string"
        },
        {
          "indexed": false,
          "internalType": "bool",
          "name": "isSystemGenerated",
          "type": "bool"
        },
        {
          "indexed": false,
          "internalType": "string[]",
          "name": "imageUrls",
          "type": "string[]"
        },
        {
          "indexed": false,
          "internalType": "uint256[]",
          "name": "relatedProductIds",
          "type": "uint256[]"
        }
      ],
      "name": "ActivityLogAdded",
      "type": "event"
    },
    {
      "anonymous": false,
      "inputs": [
        {
          "indexed": true,
          "internalType": "uint256",
          "name": "batchId",
          "type": "uint256"
        },
        {
          "indexed": true,
          "internalType": "uint256",
          "name": "producerId",
          "type": "uint256"
        },
        {
          "indexed": false,
          "internalType": "string",
          "name": "sscc",
          "type": "string"
        }
      ],
      "name": "BatchApproved",
      "type": "event"
    },
    {
      "anonymous": false,
      "inputs": [
        {
          "indexed": true,
          "internalType": "uint256",
          "name": "batchId",
          "type": "uint256"
        },
        {
          "indexed": true,
          "internalType": "uint256",
          "name": "producerId",
          "type": "uint256"
        },
        {
          "indexed": false,
          "internalType": "string",
          "name": "sscc",
          "type": "string"
        }
      ],
      "name": "BatchApprovedForQR",
      "type": "event"
    },
    {
      "anonymous": false,
      "inputs": [
        {
          "indexed": true,
          "internalType": "uint256",
          "name": "batchId",
          "type": "uint256"
        },
        {
          "indexed": false,
          "internalType": "string",
          "name": "sscc",
          "type": "string"
        },
        {
          "indexed": false,
          "internalType": "uint256",
          "name": "producerId",
          "type": "uint256"
        }
      ],
      "name": "BatchCreated",
      "type": "event"
    },
    {
      "anonymous": false,
      "inputs": [
        {
          "indexed": true,
          "internalType": "uint256",
          "name": "batchId",
          "type": "uint256"
        },
        {
          "indexed": false,
          "internalType": "uint256",
          "name": "producerId",
          "type": "uint256"
        },
        {
          "indexed": false,
          "internalType": "string",
          "name": "sscc",
          "type": "string"
        }
      ],
      "name": "BatchRejected",
      "type": "event"
    },
    {
      "anonymous": false,
      "inputs": [
        {
          "indexed": true,
          "internalType": "uint256",
          "name": "batchId",
          "type": "uint256"
        },
        {
          "indexed": false,
          "internalType": "enum TraceabilityContract.BatchStatus",
          "name": "newStatus",
          "type": "uint8"
        }
      ],
      "name": "BatchStatusUpdated",
      "type": "event"
    },
    {
      "anonymous": false,
      "inputs": [
        {
          "indexed": true,
          "internalType": "uint256",
          "name": "batchId",
          "type": "uint256"
        },
        {
          "indexed": false,
          "internalType": "string",
          "name": "participantType",
          "type": "string"
        }
      ],
      "name": "LogParticipantType",
      "type": "event"
    },
    {
      "anonymous": false,
      "inputs": [
        {
          "indexed": true,
          "internalType": "uint256",
          "name": "batchId",
          "type": "uint256"
        },
        {
          "indexed": false,
          "internalType": "uint256",
          "name": "participantId",
          "type": "uint256"
        },
        {
          "indexed": false,
          "internalType": "string",
          "name": "participantType",
          "type": "string"
        },
        {
          "indexed": false,
          "internalType": "string",
          "name": "action",
          "type": "string"
        }
      ],
      "name": "ParticipationRecorded",
      "type": "event"
    },
    {
      "anonymous": false,
      "inputs": [
        {
          "indexed": true,
          "internalType": "uint256",
          "name": "batchId",
          "type": "uint256"
        },
        {
          "indexed": false,
          "internalType": "enum TraceabilityContract.DetailedTransportStatus",
          "name": "newStatus",
          "type": "uint8"
        },
        {
          "indexed": false,
          "internalType": "string",
          "name": "action",
          "type": "string"
        },
        {
          "indexed": false,
          "internalType": "uint256",
          "name": "participantId",
          "type": "uint256"
        },
        {
          "indexed": false,
          "internalType": "string",
          "name": "participantType",
          "type": "string"
        }
      ],
      "name": "TransportStatusUpdated",
      "type": "event"
    },
    {
      "anonymous": false,
      "inputs": [
        {
          "indexed": true,
          "internalType": "uint256",
          "name": "batchId",
          "type": "uint256"
        },
        {
          "indexed": true,
          "internalType": "uint256",
          "name": "warehouseId",
          "type": "uint256"
        }
      ],
      "name": "WarehouseConfirmed",
      "type": "event"
    },
    {
      "inputs": [
        {
          "internalType": "string",
          "name": "_name",
          "type": "string"
        },
        {
          "internalType": "uint256",
          "name": "_producerId",
          "type": "uint256"
        },
        {
          "internalType": "string",
          "name": "_quantity",
          "type": "string"
        },
        {
          "internalType": "string[]",
          "name": "_productImageUrls",
          "type": "string[]"
        },
        {
          "internalType": "string",
          "name": "_certificateImageUrl",
          "type": "string"
        },
        {
          "internalType": "string",
          "name": "_farmPlotNumber",
          "type": "string"
        },
        {
          "internalType": "uint256",
          "name": "_productId",
          "type": "uint256"
        },
        {
          "internalType": "uint256",
          "name": "_startDate",
          "type": "uint256"
        },
        {
          "internalType": "uint256",
          "name": "_endDate",
          "type": "uint256"
        }
      ],
      "name": "createBatch",
      "outputs": [
        {
          "internalType": "uint256",
          "name": "",
          "type": "uint256"
        }
      ],
      "stateMutability": "nonpayable",
      "type": "function"
    },
    {
      "inputs": [
        {
          "internalType": "string",
          "name": "sscc",
          "type": "string"
        }
      ],
      "name": "ssccExists",
      "outputs": [
        {
          "internalType": "bool",
          "name": "",
          "type": "bool"
        }
      ],
      "stateMutability": "view",
      "type": "function",
      "constant": true
    },
    {
      "inputs": [
        {
          "internalType": "uint256",
          "name": "producerId",
          "type": "uint256"
        }
      ],
      "name": "getBatchesByProducer",
      "outputs": [
        {
          "components": [
            {
              "internalType": "uint256",
              "name": "batchId",
              "type": "uint256"
            },
            {
              "internalType": "string",
              "name": "name",
              "type": "string"
            },
            {
              "internalType": "string",
              "name": "sscc",
              "type": "string"
            },
            {
              "internalType": "uint256",
              "name": "producerId",
              "type": "uint256"
            },
            {
              "internalType": "string",
              "name": "quantity",
              "type": "string"
            },
            {
              "internalType": "uint256",
              "name": "productionDate",
              "type": "uint256"
            },
            {
              "internalType": "uint256",
              "name": "startDate",
              "type": "uint256"
            },
            {
              "internalType": "uint256",
              "name": "endDate",
              "type": "uint256"
            },
            {
              "internalType": "enum TraceabilityContract.BatchStatus",
              "name": "status",
              "type": "uint8"
            },
            {
              "internalType": "string[]",
              "name": "productImageUrls",
              "type": "string[]"
            },
            {
              "internalType": "string",
              "name": "certificateImageUrl",
              "type": "string"
            },
            {
              "internalType": "string",
              "name": "farmPlotNumber",
              "type": "string"
            },
            {
              "internalType": "bytes32",
              "name": "dataHash",
              "type": "bytes32"
            },
            {
              "internalType": "uint256",
              "name": "productId",
              "type": "uint256"
            },
            {
              "internalType": "enum TraceabilityContract.TransportStatus",
              "name": "transportStatus",
              "type": "uint8"
            },
            {
              "internalType": "enum TraceabilityContract.DetailedTransportStatus",
              "name": "detailedTransportStatus",
              "type": "uint8"
            },
            {
              "internalType": "uint256",
              "name": "lastTransporterId",
              "type": "uint256"
            },
            {
              "internalType": "bool",
              "name": "warehouseConfirmed",
              "type": "bool"
            }
          ],
          "internalType": "struct TraceabilityContract.Batch[]",
          "name": "",
          "type": "tuple[]"
        }
      ],
      "stateMutability": "view",
      "type": "function",
      "constant": true
    },
    {
      "inputs": [
        {
          "internalType": "uint256",
          "name": "_producerId",
          "type": "uint256"
        }
      ],
      "name": "getPendingBatchesByProducer",
      "outputs": [
        {
          "components": [
            {
              "internalType": "uint256",
              "name": "batchId",
              "type": "uint256"
            },
            {
              "internalType": "string",
              "name": "name",
              "type": "string"
            },
            {
              "internalType": "string",
              "name": "sscc",
              "type": "string"
            },
            {
              "internalType": "uint256",
              "name": "producerId",
              "type": "uint256"
            },
            {
              "internalType": "string",
              "name": "quantity",
              "type": "string"
            },
            {
              "internalType": "uint256",
              "name": "productionDate",
              "type": "uint256"
            },
            {
              "internalType": "uint256",
              "name": "startDate",
              "type": "uint256"
            },
            {
              "internalType": "uint256",
              "name": "endDate",
              "type": "uint256"
            },
            {
              "internalType": "enum TraceabilityContract.BatchStatus",
              "name": "status",
              "type": "uint8"
            },
            {
              "internalType": "string[]",
              "name": "productImageUrls",
              "type": "string[]"
            },
            {
              "internalType": "string",
              "name": "certificateImageUrl",
              "type": "string"
            },
            {
              "internalType": "string",
              "name": "farmPlotNumber",
              "type": "string"
            },
            {
              "internalType": "bytes32",
              "name": "dataHash",
              "type": "bytes32"
            },
            {
              "internalType": "uint256",
              "name": "productId",
              "type": "uint256"
            },
            {
              "internalType": "enum TraceabilityContract.TransportStatus",
              "name": "transportStatus",
              "type": "uint8"
            },
            {
              "internalType": "enum TraceabilityContract.DetailedTransportStatus",
              "name": "detailedTransportStatus",
              "type": "uint8"
            },
            {
              "internalType": "uint256",
              "name": "lastTransporterId",
              "type": "uint256"
            },
            {
              "internalType": "bool",
              "name": "warehouseConfirmed",
              "type": "bool"
            }
          ],
          "internalType": "struct TraceabilityContract.Batch[]",
          "name": "",
          "type": "tuple[]"
        }
      ],
      "stateMutability": "view",
      "type": "function",
      "constant": true
    },
    {
      "inputs": [
        {
          "internalType": "uint256",
          "name": "_producerId",
          "type": "uint256"
        }
      ],
      "name": "getRejectedBatchesByProducer",
      "outputs": [
        {
          "components": [
            {
              "internalType": "uint256",
              "name": "batchId",
              "type": "uint256"
            },
            {
              "internalType": "string",
              "name": "name",
              "type": "string"
            },
            {
              "internalType": "string",
              "name": "sscc",
              "type": "string"
            },
            {
              "internalType": "uint256",
              "name": "producerId",
              "type": "uint256"
            },
            {
              "internalType": "string",
              "name": "quantity",
              "type": "string"
            },
            {
              "internalType": "uint256",
              "name": "productionDate",
              "type": "uint256"
            },
            {
              "internalType": "uint256",
              "name": "startDate",
              "type": "uint256"
            },
            {
              "internalType": "uint256",
              "name": "endDate",
              "type": "uint256"
            },
            {
              "internalType": "enum TraceabilityContract.BatchStatus",
              "name": "status",
              "type": "uint8"
            },
            {
              "internalType": "string[]",
              "name": "productImageUrls",
              "type": "string[]"
            },
            {
              "internalType": "string",
              "name": "certificateImageUrl",
              "type": "string"
            },
            {
              "internalType": "string",
              "name": "farmPlotNumber",
              "type": "string"
            },
            {
              "internalType": "bytes32",
              "name": "dataHash",
              "type": "bytes32"
            },
            {
              "internalType": "uint256",
              "name": "productId",
              "type": "uint256"
            },
            {
              "internalType": "enum TraceabilityContract.TransportStatus",
              "name": "transportStatus",
              "type": "uint8"
            },
            {
              "internalType": "enum TraceabilityContract.DetailedTransportStatus",
              "name": "detailedTransportStatus",
              "type": "uint8"
            },
            {
              "internalType": "uint256",
              "name": "lastTransporterId",
              "type": "uint256"
            },
            {
              "internalType": "bool",
              "name": "warehouseConfirmed",
              "type": "bool"
            }
          ],
          "internalType": "struct TraceabilityContract.Batch[]",
          "name": "",
          "type": "tuple[]"
        }
      ],
      "stateMutability": "view",
      "type": "function",
      "constant": true
    },
    {
      "inputs": [],
      "name": "getAllPendingBatches",
      "outputs": [
        {
          "components": [
            {
              "internalType": "uint256",
              "name": "batchId",
              "type": "uint256"
            },
            {
              "internalType": "string",
              "name": "name",
              "type": "string"
            },
            {
              "internalType": "string",
              "name": "sscc",
              "type": "string"
            },
            {
              "internalType": "uint256",
              "name": "producerId",
              "type": "uint256"
            },
            {
              "internalType": "string",
              "name": "quantity",
              "type": "string"
            },
            {
              "internalType": "uint256",
              "name": "productionDate",
              "type": "uint256"
            },
            {
              "internalType": "uint256",
              "name": "startDate",
              "type": "uint256"
            },
            {
              "internalType": "uint256",
              "name": "endDate",
              "type": "uint256"
            },
            {
              "internalType": "enum TraceabilityContract.BatchStatus",
              "name": "status",
              "type": "uint8"
            },
            {
              "internalType": "string[]",
              "name": "productImageUrls",
              "type": "string[]"
            },
            {
              "internalType": "string",
              "name": "certificateImageUrl",
              "type": "string"
            },
            {
              "internalType": "string",
              "name": "farmPlotNumber",
              "type": "string"
            },
            {
              "internalType": "bytes32",
              "name": "dataHash",
              "type": "bytes32"
            },
            {
              "internalType": "uint256",
              "name": "productId",
              "type": "uint256"
            },
            {
              "internalType": "enum TraceabilityContract.TransportStatus",
              "name": "transportStatus",
              "type": "uint8"
            },
            {
              "internalType": "enum TraceabilityContract.DetailedTransportStatus",
              "name": "detailedTransportStatus",
              "type": "uint8"
            },
            {
              "internalType": "uint256",
              "name": "lastTransporterId",
              "type": "uint256"
            },
            {
              "internalType": "bool",
              "name": "warehouseConfirmed",
              "type": "bool"
            }
          ],
          "internalType": "struct TraceabilityContract.Batch[]",
          "name": "",
          "type": "tuple[]"
        }
      ],
      "stateMutability": "view",
      "type": "function",
      "constant": true
    },
    {
      "inputs": [
        {
          "internalType": "uint256",
          "name": "_batchId",
          "type": "uint256"
        }
      ],
      "name": "getBatchDetails",
      "outputs": [
        {
          "components": [
            {
              "internalType": "uint256",
              "name": "batchId",
              "type": "uint256"
            },
            {
              "internalType": "string",
              "name": "name",
              "type": "string"
            },
            {
              "internalType": "string",
              "name": "sscc",
              "type": "string"
            },
            {
              "internalType": "uint256",
              "name": "producerId",
              "type": "uint256"
            },
            {
              "internalType": "string",
              "name": "quantity",
              "type": "string"
            },
            {
              "internalType": "uint256",
              "name": "productionDate",
              "type": "uint256"
            },
            {
              "internalType": "uint256",
              "name": "startDate",
              "type": "uint256"
            },
            {
              "internalType": "uint256",
              "name": "endDate",
              "type": "uint256"
            },
            {
              "internalType": "enum TraceabilityContract.BatchStatus",
              "name": "status",
              "type": "uint8"
            },
            {
              "internalType": "string[]",
              "name": "productImageUrls",
              "type": "string[]"
            },
            {
              "internalType": "string",
              "name": "certificateImageUrl",
              "type": "string"
            },
            {
              "internalType": "string",
              "name": "farmPlotNumber",
              "type": "string"
            },
            {
              "internalType": "bytes32",
              "name": "dataHash",
              "type": "bytes32"
            },
            {
              "internalType": "uint256",
              "name": "productId",
              "type": "uint256"
            },
            {
              "internalType": "enum TraceabilityContract.TransportStatus",
              "name": "transportStatus",
              "type": "uint8"
            },
            {
              "internalType": "enum TraceabilityContract.DetailedTransportStatus",
              "name": "detailedTransportStatus",
              "type": "uint8"
            },
            {
              "internalType": "uint256",
              "name": "lastTransporterId",
              "type": "uint256"
            },
            {
              "internalType": "bool",
              "name": "warehouseConfirmed",
              "type": "bool"
            }
          ],
          "internalType": "struct TraceabilityContract.Batch",
          "name": "",
          "type": "tuple"
        }
      ],
      "stateMutability": "view",
      "type": "function",
      "constant": true
    },
    {
      "inputs": [],
      "name": "getTotalBatches",
      "outputs": [
        {
          "internalType": "uint256",
          "name": "",
          "type": "uint256"
        }
      ],
      "stateMutability": "view",
      "type": "function",
      "constant": true
    },
    {
      "inputs": [
        {
          "internalType": "uint256",
          "name": "_batchId",
          "type": "uint256"
        },
        {
          "internalType": "uint256",
          "name": "_producerId",
          "type": "uint256"
        }
      ],
      "name": "isProducerOfBatch",
      "outputs": [
        {
          "internalType": "bool",
          "name": "",
          "type": "bool"
        }
      ],
      "stateMutability": "view",
      "type": "function",
      "constant": true
    },
    {
      "inputs": [
        {
          "internalType": "uint256",
          "name": "_batchId",
          "type": "uint256"
        },
        {
          "internalType": "uint256",
          "name": "_approverId",
          "type": "uint256"
        }
      ],
      "name": "approveBatch",
      "outputs": [],
      "stateMutability": "nonpayable",
      "type": "function"
    },
    {
      "inputs": [
        {
          "internalType": "uint256",
          "name": "_batchId",
          "type": "uint256"
        },
        {
          "internalType": "uint256",
          "name": "_approverId",
          "type": "uint256"
        }
      ],
      "name": "rejectBatch",
      "outputs": [],
      "stateMutability": "nonpayable",
      "type": "function"
    },
    {
      "inputs": [
        {
          "internalType": "uint256",
          "name": "_batchId",
          "type": "uint256"
        }
      ],
      "name": "getActivityLogs",
      "outputs": [
        {
          "components": [
            {
              "internalType": "uint256",
              "name": "batchId",
              "type": "uint256"
            },
            {
              "internalType": "uint256",
              "name": "participantId",
              "type": "uint256"
            },
            {
              "internalType": "uint256",
              "name": "timestamp",
              "type": "uint256"
            },
            {
              "internalType": "string",
              "name": "activityName",
              "type": "string"
            },
            {
              "internalType": "string",
              "name": "description",
              "type": "string"
            },
            {
              "internalType": "bool",
              "name": "isSystemActivity",
              "type": "bool"
            },
            {
              "internalType": "string[]",
              "name": "imageUrls",
              "type": "string[]"
            },
            {
              "internalType": "uint256[]",
              "name": "relatedProductIds",
              "type": "uint256[]"
            }
          ],
          "internalType": "struct ActivityLog.ActivityLogEntry[]",
          "name": "",
          "type": "tuple[]"
        }
      ],
      "stateMutability": "view",
      "type": "function",
      "constant": true
    },
    {
      "inputs": [
        {
          "internalType": "uint256",
          "name": "_producerId",
          "type": "uint256"
        }
      ],
      "name": "getApprovedBatchesByProducer",
      "outputs": [
        {
          "components": [
            {
              "internalType": "uint256",
              "name": "batchId",
              "type": "uint256"
            },
            {
              "internalType": "string",
              "name": "name",
              "type": "string"
            },
            {
              "internalType": "string",
              "name": "sscc",
              "type": "string"
            },
            {
              "internalType": "uint256",
              "name": "producerId",
              "type": "uint256"
            },
            {
              "internalType": "string",
              "name": "quantity",
              "type": "string"
            },
            {
              "internalType": "uint256",
              "name": "productionDate",
              "type": "uint256"
            },
            {
              "internalType": "uint256",
              "name": "startDate",
              "type": "uint256"
            },
            {
              "internalType": "uint256",
              "name": "endDate",
              "type": "uint256"
            },
            {
              "internalType": "enum TraceabilityContract.BatchStatus",
              "name": "status",
              "type": "uint8"
            },
            {
              "internalType": "string[]",
              "name": "productImageUrls",
              "type": "string[]"
            },
            {
              "internalType": "string",
              "name": "certificateImageUrl",
              "type": "string"
            },
            {
              "internalType": "string",
              "name": "farmPlotNumber",
              "type": "string"
            },
            {
              "internalType": "bytes32",
              "name": "dataHash",
              "type": "bytes32"
            },
            {
              "internalType": "uint256",
              "name": "productId",
              "type": "uint256"
            },
            {
              "internalType": "enum TraceabilityContract.TransportStatus",
              "name": "transportStatus",
              "type": "uint8"
            },
            {
              "internalType": "enum TraceabilityContract.DetailedTransportStatus",
              "name": "detailedTransportStatus",
              "type": "uint8"
            },
            {
              "internalType": "uint256",
              "name": "lastTransporterId",
              "type": "uint256"
            },
            {
              "internalType": "bool",
              "name": "warehouseConfirmed",
              "type": "bool"
            }
          ],
          "internalType": "struct TraceabilityContract.Batch[]",
          "name": "",
          "type": "tuple[]"
        }
      ],
      "stateMutability": "view",
      "type": "function",
      "constant": true
    },
    {
      "inputs": [
        {
          "internalType": "string",
          "name": "_sscc",
          "type": "string"
        }
      ],
      "name": "getBatchBySSCC",
      "outputs": [
        {
          "components": [
            {
              "internalType": "uint256",
              "name": "batchId",
              "type": "uint256"
            },
            {
              "internalType": "string",
              "name": "name",
              "type": "string"
            },
            {
              "internalType": "string",
              "name": "sscc",
              "type": "string"
            },
            {
              "internalType": "uint256",
              "name": "producerId",
              "type": "uint256"
            },
            {
              "internalType": "string",
              "name": "quantity",
              "type": "string"
            },
            {
              "internalType": "uint256",
              "name": "productionDate",
              "type": "uint256"
            },
            {
              "internalType": "uint256",
              "name": "startDate",
              "type": "uint256"
            },
            {
              "internalType": "uint256",
              "name": "endDate",
              "type": "uint256"
            },
            {
              "internalType": "enum TraceabilityContract.BatchStatus",
              "name": "status",
              "type": "uint8"
            },
            {
              "internalType": "string[]",
              "name": "productImageUrls",
              "type": "string[]"
            },
            {
              "internalType": "string",
              "name": "certificateImageUrl",
              "type": "string"
            },
            {
              "internalType": "string",
              "name": "farmPlotNumber",
              "type": "string"
            },
            {
              "internalType": "bytes32",
              "name": "dataHash",
              "type": "bytes32"
            },
            {
              "internalType": "uint256",
              "name": "productId",
              "type": "uint256"
            },
            {
              "internalType": "enum TraceabilityContract.TransportStatus",
              "name": "transportStatus",
              "type": "uint8"
            },
            {
              "internalType": "enum TraceabilityContract.DetailedTransportStatus",
              "name": "detailedTransportStatus",
              "type": "uint8"
            },
            {
              "internalType": "uint256",
              "name": "lastTransporterId",
              "type": "uint256"
            },
            {
              "internalType": "bool",
              "name": "warehouseConfirmed",
              "type": "bool"
            }
          ],
          "internalType": "struct TraceabilityContract.Batch",
          "name": "",
          "type": "tuple"
        }
      ],
      "stateMutability": "view",
      "type": "function",
      "constant": true
    },
    {
      "inputs": [
        {
          "internalType": "string",
          "name": "_sscc",
          "type": "string"
        }
      ],
      "name": "isValidSSCC",
      "outputs": [
        {
          "internalType": "bool",
          "name": "",
          "type": "bool"
        }
      ],
      "stateMutability": "view",
      "type": "function",
      "constant": true
    },
    {
      "inputs": [
        {
          "internalType": "uint256",
          "name": "_batchId",
          "type": "uint256"
        }
      ],
      "name": "isBatchApproved",
      "outputs": [
        {
          "internalType": "bool",
          "name": "",
          "type": "bool"
        }
      ],
      "stateMutability": "view",
      "type": "function",
      "constant": true
    },
    {
      "inputs": [
        {
          "internalType": "uint256",
          "name": "_batchId",
          "type": "uint256"
        },
        {
          "internalType": "uint256",
          "name": "_participantId",
          "type": "uint256"
        },
        {
          "internalType": "string",
          "name": "_participantType",
          "type": "string"
        },
        {
          "internalType": "string",
          "name": "_action",
          "type": "string"
        }
      ],
      "name": "recordParticipation",
      "outputs": [],
      "stateMutability": "nonpayable",
      "type": "function"
    },
    {
      "inputs": [
        {
          "internalType": "uint256",
          "name": "_batchId",
          "type": "uint256"
        },
        {
          "internalType": "uint256",
          "name": "_participantId",
          "type": "uint256"
        },
        {
          "internalType": "string",
          "name": "_action",
          "type": "string"
        },
        {
          "internalType": "string",
          "name": "_participantType",
          "type": "string"
        }
      ],
      "name": "updateTransportStatus",
      "outputs": [],
      "stateMutability": "nonpayable",
      "type": "function"
    },
    {
      "inputs": [
        {
          "internalType": "uint256",
          "name": "_batchId",
          "type": "uint256"
        },
        {
          "internalType": "uint256",
          "name": "_warehouseId",
          "type": "uint256"
        }
      ],
      "name": "warehouseConfirmation",
      "outputs": [],
      "stateMutability": "nonpayable",
      "type": "function"
    },
    {
      "inputs": [
        {
          "internalType": "uint256",
          "name": "_batchId",
          "type": "uint256"
        },
        {
          "internalType": "uint256",
          "name": "_warehouseId",
          "type": "uint256"
        }
      ],
      "name": "isWarehouseConfirmed",
      "outputs": [
        {
          "internalType": "bool",
          "name": "",
          "type": "bool"
        }
      ],
      "stateMutability": "view",
      "type": "function",
      "constant": true
    },
    {
      "inputs": [
        {
          "internalType": "uint256",
          "name": "_batchId",
          "type": "uint256"
        }
      ],
      "name": "getConfirmedWarehouses",
      "outputs": [
        {
          "internalType": "uint256[]",
          "name": "",
          "type": "uint256[]"
        }
      ],
      "stateMutability": "view",
      "type": "function",
      "constant": true
    },
    {
      "inputs": [
        {
          "internalType": "uint256",
          "name": "_batchId",
          "type": "uint256"
        }
      ],
      "name": "getDetailedTransportStatus",
      "outputs": [
        {
          "internalType": "enum TraceabilityContract.DetailedTransportStatus",
          "name": "",
          "type": "uint8"
        }
      ],
      "stateMutability": "view",
      "type": "function",
      "constant": true
    },
    {
      "inputs": [
        {
          "internalType": "uint256",
          "name": "_batchId",
          "type": "uint256"
        },
        {
          "internalType": "uint256",
          "name": "_transporterId",
          "type": "uint256"
        }
      ],
      "name": "canStartTransport",
      "outputs": [
        {
          "internalType": "bool",
          "name": "",
          "type": "bool"
        }
      ],
      "stateMutability": "view",
      "type": "function",
      "constant": true
    },
    {
      "inputs": [
        {
          "internalType": "string",
          "name": "_sscc",
          "type": "string"
        }
      ],
      "name": "getTransportHistoryBySSCC",
      "outputs": [
        {
          "components": [
            {
              "internalType": "uint256",
              "name": "participantId",
              "type": "uint256"
            },
            {
              "internalType": "uint256",
              "name": "timestamp",
              "type": "uint256"
            },
            {
              "internalType": "string",
              "name": "action",
              "type": "string"
            },
            {
              "internalType": "string",
              "name": "participantType",
              "type": "string"
            }
          ],
          "internalType": "struct TraceabilityContract.TransportEvent[]",
          "name": "",
          "type": "tuple[]"
        }
      ],
      "stateMutability": "view",
      "type": "function",
      "constant": true
    },
    {
      "inputs": [
        {
          "internalType": "uint256",
          "name": "_batchId",
          "type": "uint256"
        }
      ],
      "name": "getBatchTransportStatus",
      "outputs": [
        {
          "internalType": "enum TraceabilityContract.TransportStatus",
          "name": "",
          "type": "uint8"
        }
      ],
      "stateMutability": "view",
      "type": "function",
      "constant": true
    },
    {
      "inputs": [
        {
          "internalType": "string",
          "name": "_sscc",
          "type": "string"
        }
      ],
      "name": "getSystemActivityLogsBySSCC",
      "outputs": [
        {
          "components": [
            {
              "internalType": "uint256",
              "name": "batchId",
              "type": "uint256"
            },
            {
              "internalType": "uint256",
              "name": "participantId",
              "type": "uint256"
            },
            {
              "internalType": "uint256",
              "name": "timestamp",
              "type": "uint256"
            },
            {
              "internalType": "string",
              "name": "activityName",
              "type": "string"
            },
            {
              "internalType": "string",
              "name": "description",
              "type": "string"
            },
            {
              "internalType": "bool",
              "name": "isSystemActivity",
              "type": "bool"
            },
            {
              "internalType": "string[]",
              "name": "imageUrls",
              "type": "string[]"
            },
            {
              "internalType": "uint256[]",
              "name": "relatedProductIds",
              "type": "uint256[]"
            }
          ],
          "internalType": "struct ActivityLog.ActivityLogEntry[]",
          "name": "",
          "type": "tuple[]"
        }
      ],
      "stateMutability": "view",
      "type": "function",
      "constant": true
    },
    {
      "inputs": [
        {
          "internalType": "string",
          "name": "_sscc",
          "type": "string"
        }
      ],
      "name": "getBatchIdBySSCC",
      "outputs": [
        {
          "internalType": "uint256",
          "name": "",
          "type": "uint256"
        }
      ],
      "stateMutability": "view",
      "type": "function",
      "constant": true
    },
    {
      "inputs": [
        {
          "internalType": "uint256",
          "name": "_producerId",
          "type": "uint256"
        }
      ],
      "name": "getProducerActivityLogsByProducerId",
      "outputs": [
        {
          "components": [
            {
              "internalType": "uint256",
              "name": "batchId",
              "type": "uint256"
            },
            {
              "internalType": "uint256",
              "name": "participantId",
              "type": "uint256"
            },
            {
              "internalType": "uint256",
              "name": "timestamp",
              "type": "uint256"
            },
            {
              "internalType": "string",
              "name": "activityName",
              "type": "string"
            },
            {
              "internalType": "string",
              "name": "description",
              "type": "string"
            },
            {
              "internalType": "bool",
              "name": "isSystemActivity",
              "type": "bool"
            },
            {
              "internalType": "string[]",
              "name": "imageUrls",
              "type": "string[]"
            },
            {
              "internalType": "uint256[]",
              "name": "relatedProductIds",
              "type": "uint256[]"
            }
          ],
          "internalType": "struct ActivityLog.ActivityLogEntry[]",
          "name": "",
          "type": "tuple[]"
        }
      ],
      "stateMutability": "view",
      "type": "function",
      "constant": true
    }
  ],
  "bytecode": "0x608060405234801562000010575f80fd5b5060405162005f2d38038062005f2d8339810160408190526200003391620000b3565b6001600160a01b0381166200008e5760405162461bcd60e51b815260206004820152601b60248201527f496e76616c69642041637469766974794c6f6720616464726573730000000000604482015260640160405180910390fd5b5f80546001600160a01b0319166001600160a01b0392909216919091179055620000e2565b5f60208284031215620000c4575f80fd5b81516001600160a01b0381168114620000db575f80fd5b9392505050565b615e3d80620000f05f395ff3fe608060405234801561000f575f80fd5b50600436106101bb575f3560e01c806380e32d45116100f3578063b82adf3b11610093578063d9860bfc1161006e578063d9860bfc14610412578063e114238e14610425578063e561dddc14610438578063f9b8da0e14610440575f80fd5b8063b82adf3b146103ec578063d040e18c146101bf578063d043b843146103ff575f80fd5b80639d47dcc0116100ce5780639d47dcc014610386578063a7732c96146103a6578063a7934786146103c6578063b50f8762146103d9575f80fd5b806380e32d451461032657806381f7d4e01461033957806397ae6a0e14610366575f80fd5b806336c701e11161015e57806347e2f8631161013957806347e2f863146102e5578063510664ed146102f85780635aa825aa1461030b5780636b0ba8da14610313575f80fd5b806336c701e11461029f5780633904c26c146102b25780633a3889f5146102d2575f80fd5b806319d6ed3c1161019957806319d6ed3c146102295780631bb93d1e1461024a57806327e4477f1461026a5780632db53c9d1461027f575f80fd5b806304008078146101bf5780630d82dcf4146101e75780630e6e369c14610209575b5f80fd5b6101d26101cd366004614e82565b610464565b60405190151581526020015b60405180910390f35b6101d26101f5366004614ebb565b5f9081526006602052604090205460ff1690565b61021c610217366004614ebb565b61048d565b6040516101de9190614fae565b61023c610237366004614e82565b610501565b6040519081526020016101de565b61025d610258366004614e82565b610528565b6040516101de919061509f565b61027d61027836600461512b565b61070b565b005b61029261028d366004614ebb565b6108e1565b6040516101de91906152d3565b61023c6102ad3660046153db565b610f0b565b6102c56102c0366004614ebb565b610f83565b6040516101de91906154c8565b61021c6102e0366004614ebb565b611085565b6102926102f3366004614ebb565b6110b6565b61027d6103063660046154da565b6116d2565b610292611c0e565b61027d61032136600461512b565b6121fb565b610292610334366004614ebb565b61259b565b6101d261034736600461512b565b5f91825260086020908152604080842092845291905290205460ff1690565b610379610374366004614ebb565b612b5b565b6040516101de919061554b565b610399610394366004614ebb565b612ba4565b6040516101de9190615559565b6103b96103b4366004614ebb565b61309c565b6040516101de919061556b565b6101d26103d436600461512b565b6130e0565b61021c6103e7366004614e82565b613163565b61027d6103fa3660046154da565b6131fa565b61029261040d366004614ebb565b6132e5565b610399610420366004614e82565b613905565b61027d61043336600461512b565b613e13565b60015461023c565b6101d261044e36600461512b565b5f91825260046020526040909120600301541490565b5f600582604051610475919061557e565b90815260405190819003602001902054151592915050565b5f5460405163039b8da760e21b8152600481018390526060916001600160a01b031690630e6e369c906024015b5f60405180830381865afa1580156104d4573d5f803e3d5ffd5b505050506040513d5f823e601f3d908101601f191682016040526104fb91908101906156c2565b92915050565b5f600582604051610512919061557e565b9081526020016040518091039020549050919050565b60605f60058360405161053b919061557e565b9081526020016040518091039020549050805f036105745760405162461bcd60e51b815260040161056b9061583c565b60405180910390fd5b5f81815260036020908152604080832080548251818502810185019093528083529193909284015b828210156106ff578382905f5260205f2090600402016040518060800160405290815f8201548152602001600182015481526020016002820180546105e09061587f565b80601f016020809104026020016040519081016040528092919081815260200182805461060c9061587f565b80156106575780601f1061062e57610100808354040283529160200191610657565b820191905f5260205f20905b81548152906001019060200180831161063a57829003601f168201915b505050505081526020016003820180546106709061587f565b80601f016020809104026020016040519081016040528092919081815260200182805461069c9061587f565b80156106e75780601f106106be576101008083540402835291602001916106e7565b820191905f5260205f20905b8154815290600101906020018083116106ca57829003601f168201915b5050505050815250508152602001906001019061059c565b50505050915050919050565b5f8281526004602052604081205490036107375760405162461bcd60e51b815260040161056b906158b7565b5f8281526004602052604081206008015460ff16600281111561075c5761075c61514b565b146107a95760405162461bcd60e51b815260206004820152601d60248201527f4261746368206973206e6f742070656e64696e6720617070726f76616c000000604482015260640161056b565b5f828152600460205260409081902060088101805460ff191660029081179091556003820154925185937ffd30c1d70626cdbca41a738198079b1d57c2a7d36d52b79ae4b4bcc980506f769361080393919291019061595e565b60405180910390a26040805160018082528183019092525f91602080830190803683375050505f848152600460205260408120600d015482519293509183919061084f5761084f615976565b6020026020010181815250506108dc83836040518060400160405280600e81526020016d10985d18da0814995a9958dd195960921b8152506040516020016108c7907f426174636820686173206265656e2072656a656374656420627920617070726f81526303b32b9160e51b602082015260240190565b60405160208183030381529060405285614037565b505050565b60605f60015b6001548111610958575f8181526004602052604090206003015484148015610933575060025f8281526004602052604090206008015460ff1660028111156109315761093161514b565b145b1561094657816109428161599e565b9250505b806109508161599e565b9150506108e7565b505f816001600160401b0381111561097257610972614d9d565b6040519080825280602002602001820160405280156109ab57816020015b610998614c3a565b8152602001906001900390816109905790505b5090505f60015b6001548111610f01575f81815260046020526040902060030154861480156109fe575060025f8281526004602052604090206008015460ff1660028111156109fc576109fc61514b565b145b15610eef5760045f8281526020019081526020015f20604051806102400160405290815f8201548152602001600182018054610a399061587f565b80601f0160208091040260200160405190810160405280929190818152602001828054610a659061587f565b8015610ab05780601f10610a8757610100808354040283529160200191610ab0565b820191905f5260205f20905b815481529060010190602001808311610a9357829003601f168201915b50505050508152602001600282018054610ac99061587f565b80601f0160208091040260200160405190810160405280929190818152602001828054610af59061587f565b8015610b405780601f10610b1757610100808354040283529160200191610b40565b820191905f5260205f20905b815481529060010190602001808311610b2357829003601f168201915b5050505050815260200160038201548152602001600482018054610b639061587f565b80601f0160208091040260200160405190810160405280929190818152602001828054610b8f9061587f565b8015610bda5780601f10610bb157610100808354040283529160200191610bda565b820191905f5260205f20905b815481529060010190602001808311610bbd57829003601f168201915b5050509183525050600582015460208201526006820154604082015260078201546060820152600882015460809091019060ff166002811115610c1f57610c1f61514b565b6002811115610c3057610c3061514b565b815260200160098201805480602002602001604051908101604052809291908181526020015f905b82821015610d00578382905f5260205f20018054610c759061587f565b80601f0160208091040260200160405190810160405280929190818152602001828054610ca19061587f565b8015610cec5780601f10610cc357610100808354040283529160200191610cec565b820191905f5260205f20905b815481529060010190602001808311610ccf57829003601f168201915b505050505081526020019060010190610c58565b505050508152602001600a82018054610d189061587f565b80601f0160208091040260200160405190810160405280929190818152602001828054610d449061587f565b8015610d8f5780601f10610d6657610100808354040283529160200191610d8f565b820191905f5260205f20905b815481529060010190602001808311610d7257829003601f168201915b50505050508152602001600b82018054610da89061587f565b80601f0160208091040260200160405190810160405280929190818152602001828054610dd49061587f565b8015610e1f5780601f10610df657610100808354040283529160200191610e1f565b820191905f5260205f20905b815481529060010190602001808311610e0257829003601f168201915b5050509183525050600c8201546020820152600d8201546040820152600e82015460609091019060ff166002811115610e5a57610e5a61514b565b6002811115610e6b57610e6b61514b565b8152602001600e820160019054906101000a900460ff166003811115610e9357610e9361514b565b6003811115610ea457610ea461514b565b8152600f820154602082015260109091015460ff1615156040909101528351849084908110610ed557610ed5615976565b60200260200101819052508180610eeb9061599e565b9250505b80610ef98161599e565b9150506109b2565b5090949350505050565b5f80610f168a6140d7565b90505f610f676040518061014001604052808e81526020018481526020018d81526020018c81526020018b81526020018a8152602001898152602001888152602001878152602001868152506141d2565b9050610f74818c88614831565b9b9a5050505050505050505050565b60605f60015b6002548111610fd3575f84815260086020908152604080832084845290915290205460ff1615610fc15781610fbd8161599e565b9250505b80610fcb8161599e565b915050610f89565b505f816001600160401b03811115610fed57610fed614d9d565b604051908082528060200260200182016040528015611016578160200160208202803683370190505b5090505f60015b6002548111610f01575f86815260086020908152604080832084845290915290205460ff1615611073578083838151811061105a5761105a615976565b60209081029190910101528161106f8161599e565b9250505b8061107d8161599e565b91505061101d565b5f54604051633dfc25fd60e21b8152600481018390526060916001600160a01b03169063f7f097f4906024016104ba565b60605f60015b600154811161112b575f818152600460205260409020600301548414801561110657505f8181526004602052604081206008015460ff1660028111156111045761110461514b565b145b1561111957816111158161599e565b9250505b806111238161599e565b9150506110bc565b505f816001600160401b0381111561114557611145614d9d565b60405190808252806020026020018201604052801561117e57816020015b61116b614c3a565b8152602001906001900390816111635790505b5090505f60015b6001548111610f01575f81815260046020526040902060030154861480156111cf57505f8181526004602052604081206008015460ff1660028111156111cd576111cd61514b565b145b156116c05760045f8281526020019081526020015f20604051806102400160405290815f820154815260200160018201805461120a9061587f565b80601f01602080910402602001604051908101604052809291908181526020018280546112369061587f565b80156112815780601f1061125857610100808354040283529160200191611281565b820191905f5260205f20905b81548152906001019060200180831161126457829003601f168201915b5050505050815260200160028201805461129a9061587f565b80601f01602080910402602001604051908101604052809291908181526020018280546112c69061587f565b80156113115780601f106112e857610100808354040283529160200191611311565b820191905f5260205f20905b8154815290600101906020018083116112f457829003601f168201915b50505050508152602001600382015481526020016004820180546113349061587f565b80601f01602080910402602001604051908101604052809291908181526020018280546113609061587f565b80156113ab5780601f10611382576101008083540402835291602001916113ab565b820191905f5260205f20905b81548152906001019060200180831161138e57829003601f168201915b5050509183525050600582015460208201526006820154604082015260078201546060820152600882015460809091019060ff1660028111156113f0576113f061514b565b60028111156114015761140161514b565b815260200160098201805480602002602001604051908101604052809291908181526020015f905b828210156114d1578382905f5260205f200180546114469061587f565b80601f01602080910402602001604051908101604052809291908181526020018280546114729061587f565b80156114bd5780601f10611494576101008083540402835291602001916114bd565b820191905f5260205f20905b8154815290600101906020018083116114a057829003601f168201915b505050505081526020019060010190611429565b505050508152602001600a820180546114e99061587f565b80601f01602080910402602001604051908101604052809291908181526020018280546115159061587f565b80156115605780601f1061153757610100808354040283529160200191611560565b820191905f5260205f20905b81548152906001019060200180831161154357829003601f168201915b50505050508152602001600b820180546115799061587f565b80601f01602080910402602001604051908101604052809291908181526020018280546115a59061587f565b80156115f05780601f106115c7576101008083540402835291602001916115f0565b820191905f5260205f20905b8154815290600101906020018083116115d357829003601f168201915b5050509183525050600c8201546020820152600d8201546040820152600e82015460609091019060ff16600281111561162b5761162b61514b565b600281111561163c5761163c61514b565b8152602001600e820160019054906101000a900460ff1660038111156116645761166461514b565b60038111156116755761167561514b565b8152600f820154602082015260109091015460ff16151560409091015283518490849081106116a6576116a6615976565b602002602001018190525081806116bc9061599e565b9250505b806116ca8161599e565b915050611185565b6040516a2a3930b739b837b93a32b960a91b6020820152602b016040516020818303038152906040528051906020012081604051602001611713919061557e565b60405160208183030381529060405280519060200120148061178757506040516857617265686f75736560b81b6020820152602901604051602081830303815290604052805190602001208160405160200161176f919061557e565b60405160208183030381529060405280519060200120145b6117d35760405162461bcd60e51b815260206004820152601860248201527f496e76616c6964207061727469636970616e7420747970650000000000000000604482015260640161056b565b5f8481526004602052604081205490036117ff5760405162461bcd60e51b815260040161056b906158b7565b60015f8581526004602052604090206008015460ff1660028111156118265761182661514b565b1461186c5760405162461bcd60e51b815260206004820152601660248201527510985d18da081b5d5cdd08189948185c1c1c9bdd995960521b604482015260640161056b565b60408051608081018252848152426020808301918252828401868152606084018690525f89815260038352948520805460018181018355918752929095208451600490930201918255915193810193909355519091829160028201906118d290826159fb565b50606082015160038201906118e790826159fb565b5050604051712130ba103230ba903b30b71031b43abcb2b760711b602082015260320190506040516020818303038152906040528051906020012083604051602001611933919061557e565b6040516020818303038152906040528051906020012003611977575f858152600460205260409020600e8101805461ffff1916610101179055600f01849055611b11565b604051722a30b690323ab733903b30b71031b43abcb2b760691b602082015260330160405160208183030381529060405280519060200120836040516020016119c0919061557e565b6040516020818303038152906040528051906020012003611a05575f858152600460205260409020600e0180546002919061ff001916610100835b0217905550611b11565b604051722a34b2b8103a3ab1903b30b71031b43abcb2b760691b60208201526033016040516020818303038152906040528051906020012083604051602001611a4e919061557e565b6040516020818303038152906040528051906020012003611a8d575f858152600460205260409020600e0180546001919061ff001916610100836119fb565b604051742437b0b7103a3430b734103b30b71031b43abcb2b760591b60208201526035016040516020818303038152906040528051906020012083604051602001611ad8919061557e565b6040516020818303038152906040528051906020012003611b11575f858152600460205260409020600e01805461ffff19166103021790555b5f8581526004602052604090819020600e0154905186917f946c8fa0a82d640c200413cf1c62f9401d34b0f1435a263a281ff0fd09030ae891611b6291610100900460ff1690879089908890615ab6565b60405180910390a26040805160018082528183019092525f91602080830190803683375050505f878152600460205260408120600d0154825192935091839190611bae57611bae615976565b602002602001018181525050611c0686866040518060400160405280601881526020017f5472616e73706f72742053746174757320557064617465640000000000000000815250876040516020016108c79190615af8565b505050505050565b60605f60015b6001548111611c67575f8181526004602052604081206008015460ff166002811115611c4257611c4261514b565b03611c555781611c518161599e565b9250505b80611c5f8161599e565b915050611c14565b505f816001600160401b03811115611c8157611c81614d9d565b604051908082528060200260200182016040528015611cba57816020015b611ca7614c3a565b815260200190600190039081611c9f5790505b5090505f60015b60015481116121f2575f8181526004602052604081206008015460ff166002811115611cef57611cef61514b565b036121e05760045f8281526020019081526020015f20604051806102400160405290815f8201548152602001600182018054611d2a9061587f565b80601f0160208091040260200160405190810160405280929190818152602001828054611d569061587f565b8015611da15780601f10611d7857610100808354040283529160200191611da1565b820191905f5260205f20905b815481529060010190602001808311611d8457829003601f168201915b50505050508152602001600282018054611dba9061587f565b80601f0160208091040260200160405190810160405280929190818152602001828054611de69061587f565b8015611e315780601f10611e0857610100808354040283529160200191611e31565b820191905f5260205f20905b815481529060010190602001808311611e1457829003601f168201915b5050505050815260200160038201548152602001600482018054611e549061587f565b80601f0160208091040260200160405190810160405280929190818152602001828054611e809061587f565b8015611ecb5780601f10611ea257610100808354040283529160200191611ecb565b820191905f5260205f20905b815481529060010190602001808311611eae57829003601f168201915b5050509183525050600582015460208201526006820154604082015260078201546060820152600882015460809091019060ff166002811115611f1057611f1061514b565b6002811115611f2157611f2161514b565b815260200160098201805480602002602001604051908101604052809291908181526020015f905b82821015611ff1578382905f5260205f20018054611f669061587f565b80601f0160208091040260200160405190810160405280929190818152602001828054611f929061587f565b8015611fdd5780601f10611fb457610100808354040283529160200191611fdd565b820191905f5260205f20905b815481529060010190602001808311611fc057829003601f168201915b505050505081526020019060010190611f49565b505050508152602001600a820180546120099061587f565b80601f01602080910402602001604051908101604052809291908181526020018280546120359061587f565b80156120805780601f1061205757610100808354040283529160200191612080565b820191905f5260205f20905b81548152906001019060200180831161206357829003601f168201915b50505050508152602001600b820180546120999061587f565b80601f01602080910402602001604051908101604052809291908181526020018280546120c59061587f565b80156121105780601f106120e757610100808354040283529160200191612110565b820191905f5260205f20905b8154815290600101906020018083116120f357829003601f168201915b5050509183525050600c8201546020820152600d8201546040820152600e82015460609091019060ff16600281111561214b5761214b61514b565b600281111561215c5761215c61514b565b8152602001600e820160019054906101000a900460ff1660038111156121845761218461514b565b60038111156121955761219561514b565b8152600f820154602082015260109091015460ff16151560409091015283518490849081106121c6576121c6615976565b602002602001018190525081806121dc9061599e565b9250505b806121ea8161599e565b915050611cc1565b50909392505050565b5f8281526004602052604081205490036122275760405162461bcd60e51b815260040161056b906158b7565b60025f838152600460205260409020600e015460ff16600281111561224e5761224e61514b565b146122b95760405162461bcd60e51b815260206004820152603560248201527f4261746368206d7573742062652064656c697665726564206265666f7265207760448201527430b932b437bab9b29031b7b73334b936b0ba34b7b760591b606482015260840161056b565b60035f838152600460205260409020600e0154610100900460ff1660038111156122e5576122e561514b565b1461233c5760405162461bcd60e51b815260206004820152602160248201527f4261746368206d75737420626520696e2044656c6976657265642073746174756044820152607360f81b606482015260840161056b565b5f82815260086020908152604080832084845290915290205460ff16156123bd5760405162461bcd60e51b815260206004820152602f60248201527f546869732077617265686f7573652068617320616c726561647920636f6e666960448201526e0e4dacac840e8d0d2e640c4c2e8c6d608b1b606482015260840161056b565b5f8281526008602090815260408083208484528252808320805460ff19166001908117909155815160808101835285815282518084018452600981526857617265686f75736560b81b81860152818501908152428285015283518085018552601e81527f436f6e6669726d656420726563656970742061742077617265686f75736500008187015260608301528786526007855292852080548084018255908652939094208451600490940201928355905183929182019061247f90826159fb565b50604082015160028201556060820151600382019061249e90826159fb565b505060405183915084907f5a0ca583abbe4762e00286f277fb259ed4a722726e02cd87aa38d3b2eeead4f5905f90a36040805160018082528183019092525f91602080830190803683375050505f858152600460205260408120600d015482519293509183919061251157612511615976565b6020026020010181815250506125958484604051806040016040528060168152602001752bb0b932b437bab9b29021b7b73334b936b0ba34b7b760511b8152506040516020016108c7907f57617265686f7573652068617320636f6e6669726d65642072656365697074208152670decc40c4c2e8c6d60c31b602082015260280190565b50505050565b60605f60015b60015481116125e2575f818152600460205260409020600301548490036125d057816125cc8161599e565b9250505b806125da8161599e565b9150506125a1565b505f816001600160401b038111156125fc576125fc614d9d565b60405190808252806020026020018201604052801561263557816020015b612622614c3a565b81526020019060019003908161261a5790505b5090505f60015b6001548111610f01575f81815260046020526040902060030154869003612b495760045f8281526020019081526020015f20604051806102400160405290815f82015481526020016001820180546126939061587f565b80601f01602080910402602001604051908101604052809291908181526020018280546126bf9061587f565b801561270a5780601f106126e15761010080835404028352916020019161270a565b820191905f5260205f20905b8154815290600101906020018083116126ed57829003601f168201915b505050505081526020016002820180546127239061587f565b80601f016020809104026020016040519081016040528092919081815260200182805461274f9061587f565b801561279a5780601f106127715761010080835404028352916020019161279a565b820191905f5260205f20905b81548152906001019060200180831161277d57829003601f168201915b50505050508152602001600382015481526020016004820180546127bd9061587f565b80601f01602080910402602001604051908101604052809291908181526020018280546127e99061587f565b80156128345780601f1061280b57610100808354040283529160200191612834565b820191905f5260205f20905b81548152906001019060200180831161281757829003601f168201915b5050509183525050600582015460208201526006820154604082015260078201546060820152600882015460809091019060ff1660028111156128795761287961514b565b600281111561288a5761288a61514b565b815260200160098201805480602002602001604051908101604052809291908181526020015f905b8282101561295a578382905f5260205f200180546128cf9061587f565b80601f01602080910402602001604051908101604052809291908181526020018280546128fb9061587f565b80156129465780601f1061291d57610100808354040283529160200191612946565b820191905f5260205f20905b81548152906001019060200180831161292957829003601f168201915b5050505050815260200190600101906128b2565b505050508152602001600a820180546129729061587f565b80601f016020809104026020016040519081016040528092919081815260200182805461299e9061587f565b80156129e95780601f106129c0576101008083540402835291602001916129e9565b820191905f5260205f20905b8154815290600101906020018083116129cc57829003601f168201915b50505050508152602001600b82018054612a029061587f565b80601f0160208091040260200160405190810160405280929190818152602001828054612a2e9061587f565b8015612a795780601f10612a5057610100808354040283529160200191612a79565b820191905f5260205f20905b815481529060010190602001808311612a5c57829003601f168201915b5050509183525050600c8201546020820152600d8201546040820152600e82015460609091019060ff166002811115612ab457612ab461514b565b6002811115612ac557612ac561514b565b8152602001600e820160019054906101000a900460ff166003811115612aed57612aed61514b565b6003811115612afe57612afe61514b565b8152600f820154602082015260109091015460ff1615156040909101528351849084908110612b2f57612b2f615976565b60200260200101819052508180612b459061599e565b9250505b80612b538161599e565b91505061263c565b5f818152600460205260408120548103612b875760405162461bcd60e51b815260040161056b906158b7565b505f908152600460205260409020600e0154610100900460ff1690565b612bac614c3a565b5f828152600460205260408120549003612bd85760405162461bcd60e51b815260040161056b906158b7565b60045f8381526020019081526020015f20604051806102400160405290815f8201548152602001600182018054612c0e9061587f565b80601f0160208091040260200160405190810160405280929190818152602001828054612c3a9061587f565b8015612c855780601f10612c5c57610100808354040283529160200191612c85565b820191905f5260205f20905b815481529060010190602001808311612c6857829003601f168201915b50505050508152602001600282018054612c9e9061587f565b80601f0160208091040260200160405190810160405280929190818152602001828054612cca9061587f565b8015612d155780601f10612cec57610100808354040283529160200191612d15565b820191905f5260205f20905b815481529060010190602001808311612cf857829003601f168201915b5050505050815260200160038201548152602001600482018054612d389061587f565b80601f0160208091040260200160405190810160405280929190818152602001828054612d649061587f565b8015612daf5780601f10612d8657610100808354040283529160200191612daf565b820191905f5260205f20905b815481529060010190602001808311612d9257829003601f168201915b5050509183525050600582015460208201526006820154604082015260078201546060820152600882015460809091019060ff166002811115612df457612df461514b565b6002811115612e0557612e0561514b565b815260200160098201805480602002602001604051908101604052809291908181526020015f905b82821015612ed5578382905f5260205f20018054612e4a9061587f565b80601f0160208091040260200160405190810160405280929190818152602001828054612e769061587f565b8015612ec15780601f10612e9857610100808354040283529160200191612ec1565b820191905f5260205f20905b815481529060010190602001808311612ea457829003601f168201915b505050505081526020019060010190612e2d565b505050508152602001600a82018054612eed9061587f565b80601f0160208091040260200160405190810160405280929190818152602001828054612f199061587f565b8015612f645780601f10612f3b57610100808354040283529160200191612f64565b820191905f5260205f20905b815481529060010190602001808311612f4757829003601f168201915b50505050508152602001600b82018054612f7d9061587f565b80601f0160208091040260200160405190810160405280929190818152602001828054612fa99061587f565b8015612ff45780601f10612fcb57610100808354040283529160200191612ff4565b820191905f5260205f20905b815481529060010190602001808311612fd757829003601f168201915b5050509183525050600c8201546020820152600d8201546040820152600e82015460609091019060ff16600281111561302f5761302f61514b565b60028111156130405761304061514b565b8152602001600e820160019054906101000a900460ff1660038111156130685761306861514b565b60038111156130795761307961514b565b8152600f820154602082015260109091015460ff16151560409091015292915050565b5f8181526004602052604081205481036130c85760405162461bcd60e51b815260040161056b906158b7565b505f908152600460205260409020600e015460ff1690565b5f805f848152600460205260409020600e0154610100900460ff16600381111561310c5761310c61514b565b148061315c575060035f848152600460205260409020600e0154610100900460ff16600381111561313f5761313f61514b565b14801561315c57505f838152600460205260409020600f01548214155b9392505050565b60605f82604051602001613177919061557e565b60408051808303601f190181529082905280516020909101205f54633abb5afb60e01b8352600483018290529092506001600160a01b031690633abb5afb906024015f60405180830381865afa1580156131d3573d5f803e3d5ffd5b505050506040513d5f823e601f3d908101601f1916820160405261315c91908101906156c2565b5f8481526004602052604081205490036132265760405162461bcd60e51b815260040161056b906158b7565b5f848152600760209081526040808320815160808101835287815280840187815242938201939093526060810186905281546001818101845592865293909420845160049094020192835590519082019061328190826159fb565b5060408201516002820155606082015160038201906132a090826159fb565b505050837fe5fd3732b00b2878e55e64cdde6c59b6566f044952fe6b2f36658364da9b561c8484846040516132d793929190615b3c565b60405180910390a250505050565b60605f60015b600154811161335c575f8181526004602052604090206003015484148015613337575060015f8281526004602052604090206008015460ff1660028111156133355761333561514b565b145b1561334a57816133468161599e565b9250505b806133548161599e565b9150506132eb565b505f816001600160401b0381111561337657613376614d9d565b6040519080825280602002602001820160405280156133af57816020015b61339c614c3a565b8152602001906001900390816133945790505b5090505f60015b6001548111610f01575f8181526004602052604090206003015486148015613402575060015f8281526004602052604090206008015460ff1660028111156134005761340061514b565b145b156138f35760045f8281526020019081526020015f20604051806102400160405290815f820154815260200160018201805461343d9061587f565b80601f01602080910402602001604051908101604052809291908181526020018280546134699061587f565b80156134b45780601f1061348b576101008083540402835291602001916134b4565b820191905f5260205f20905b81548152906001019060200180831161349757829003601f168201915b505050505081526020016002820180546134cd9061587f565b80601f01602080910402602001604051908101604052809291908181526020018280546134f99061587f565b80156135445780601f1061351b57610100808354040283529160200191613544565b820191905f5260205f20905b81548152906001019060200180831161352757829003601f168201915b50505050508152602001600382015481526020016004820180546135679061587f565b80601f01602080910402602001604051908101604052809291908181526020018280546135939061587f565b80156135de5780601f106135b5576101008083540402835291602001916135de565b820191905f5260205f20905b8154815290600101906020018083116135c157829003601f168201915b5050509183525050600582015460208201526006820154604082015260078201546060820152600882015460809091019060ff1660028111156136235761362361514b565b60028111156136345761363461514b565b815260200160098201805480602002602001604051908101604052809291908181526020015f905b82821015613704578382905f5260205f200180546136799061587f565b80601f01602080910402602001604051908101604052809291908181526020018280546136a59061587f565b80156136f05780601f106136c7576101008083540402835291602001916136f0565b820191905f5260205f20905b8154815290600101906020018083116136d357829003601f168201915b50505050508152602001906001019061365c565b505050508152602001600a8201805461371c9061587f565b80601f01602080910402602001604051908101604052809291908181526020018280546137489061587f565b80156137935780601f1061376a57610100808354040283529160200191613793565b820191905f5260205f20905b81548152906001019060200180831161377657829003601f168201915b50505050508152602001600b820180546137ac9061587f565b80601f01602080910402602001604051908101604052809291908181526020018280546137d89061587f565b80156138235780601f106137fa57610100808354040283529160200191613823565b820191905f5260205f20905b81548152906001019060200180831161380657829003601f168201915b5050509183525050600c8201546020820152600d8201546040820152600e82015460609091019060ff16600281111561385e5761385e61514b565b600281111561386f5761386f61514b565b8152602001600e820160019054906101000a900460ff1660038111156138975761389761514b565b60038111156138a8576138a861514b565b8152600f820154602082015260109091015460ff16151560409091015283518490849081106138d9576138d9615976565b602002602001018190525081806138ef9061599e565b9250505b806138fd8161599e565b9150506133b6565b61390d614c3a565b5f60058360405161391e919061557e565b9081526020016040518091039020549050805f0361394e5760405162461bcd60e51b815260040161056b9061583c565b60045f8281526020019081526020015f20604051806102400160405290815f82015481526020016001820180546139849061587f565b80601f01602080910402602001604051908101604052809291908181526020018280546139b09061587f565b80156139fb5780601f106139d2576101008083540402835291602001916139fb565b820191905f5260205f20905b8154815290600101906020018083116139de57829003601f168201915b50505050508152602001600282018054613a149061587f565b80601f0160208091040260200160405190810160405280929190818152602001828054613a409061587f565b8015613a8b5780601f10613a6257610100808354040283529160200191613a8b565b820191905f5260205f20905b815481529060010190602001808311613a6e57829003601f168201915b5050505050815260200160038201548152602001600482018054613aae9061587f565b80601f0160208091040260200160405190810160405280929190818152602001828054613ada9061587f565b8015613b255780601f10613afc57610100808354040283529160200191613b25565b820191905f5260205f20905b815481529060010190602001808311613b0857829003601f168201915b5050509183525050600582015460208201526006820154604082015260078201546060820152600882015460809091019060ff166002811115613b6a57613b6a61514b565b6002811115613b7b57613b7b61514b565b815260200160098201805480602002602001604051908101604052809291908181526020015f905b82821015613c4b578382905f5260205f20018054613bc09061587f565b80601f0160208091040260200160405190810160405280929190818152602001828054613bec9061587f565b8015613c375780601f10613c0e57610100808354040283529160200191613c37565b820191905f5260205f20905b815481529060010190602001808311613c1a57829003601f168201915b505050505081526020019060010190613ba3565b505050508152602001600a82018054613c639061587f565b80601f0160208091040260200160405190810160405280929190818152602001828054613c8f9061587f565b8015613cda5780601f10613cb157610100808354040283529160200191613cda565b820191905f5260205f20905b815481529060010190602001808311613cbd57829003601f168201915b50505050508152602001600b82018054613cf39061587f565b80601f0160208091040260200160405190810160405280929190818152602001828054613d1f9061587f565b8015613d6a5780601f10613d4157610100808354040283529160200191613d6a565b820191905f5260205f20905b815481529060010190602001808311613d4d57829003601f168201915b5050509183525050600c8201546020820152600d8201546040820152600e82015460609091019060ff166002811115613da557613da561514b565b6002811115613db657613db661514b565b8152602001600e820160019054906101000a900460ff166003811115613dde57613dde61514b565b6003811115613def57613def61514b565b8152600f820154602082015260109091015460ff1615156040909101529392505050565b5f828152600460205260408120549003613e3f5760405162461bcd60e51b815260040161056b906158b7565b5f8281526004602052604081206008015460ff166002811115613e6457613e6461514b565b14613eb15760405162461bcd60e51b815260206004820152601d60248201527f4261746368206973206e6f742070656e64696e6720617070726f76616c000000604482015260640161056b565b5f828152600460208181526040808420600881018054600160ff199182168117909255600685529583902080549096161790945591905260038201549051909184917f1a621270a25ae67b5e557b98be27914cd1de793b7ca49110be85cb5aaa169c9b91613f2491600290910190615b70565b60405180910390a35f82815260046020526040908190206003810154915184917f309958f3629dbb8b1c3fb39cc2ffd4759c619a8c6c7927159d9e608c99ae463291613f739160020190615b70565b60405180910390a36040805160018082528183019092525f91602080830190803683375050505f848152600460205260408120600d0154825192935091839190613fbf57613fbf615976565b6020026020010181815250506108dc83836040518060400160405280600e81526020016d10985d18da08105c1c1c9bdd995960921b8152506040516020016108c7907f426174636820686173206265656e20617070726f76656420627920617070726f81526303b32b9160e51b602082015260240190565b5f805460408051838152602081019091526001600160a01b0390911691638f9eb92e91889188918891889160019161407f565b606081526020019060019003908161406a5790505b50886040518863ffffffff1660e01b81526004016140a39796959493929190615b82565b5f604051808303815f87803b1580156140ba575f80fd5b505af11580156140cc573d5f803e3d5ffd5b505050505050505050565b604080518082019091526002815261030360f41b60208201526060905f614107614100856148fc565b6006614a21565b90505f633b9aca00428660405160200161412b929190918252602082015260400190565b604051602081830303815290604052805190602001205f1c61414d9190615c45565b90505f61416361415c836148fc565b6009614a21565b90505f84848360405160200161417b93929190615c58565b60405160208183030381529060405290505f61419682614b52565b9050816141a58260ff166148fc565b6040516020016141b6929190615c9a565b6040516020818303038152906040529650505050505050919050565b5f600582602001516040516141e7919061557e565b9081526020016040518091039020545f1461423a5760405162461bcd60e51b81526020600482015260136024820152725353434320616c72656164792065786973747360681b604482015260640161056b565b5f8260600151511161428e5760405162461bcd60e51b815260206004820152601a60248201527f5175616e74697479206d757374206e6f7420626520656d707479000000000000604482015260640161056b565b5f826080015151116142f55760405162461bcd60e51b815260206004820152602a60248201527f4174206c65617374206f6e652070726f6475637420696d6167652055524c20696044820152691cc81c995c5d5a5c995960b21b606482015260840161056b565b5f8260a0015151116143535760405162461bcd60e51b815260206004820152602160248201527f436572746966696361746520696d6167652055524c20697320726571756972656044820152601960fa1b606482015260840161056b565b5f8260c0015151116143a75760405162461bcd60e51b815260206004820152601c60248201527f4661726d20706c6f74206e756d62657220697320726571756972656400000000604482015260640161056b565b5f8260e00151116143fa5760405162461bcd60e51b815260206004820152601860248201527f50726f64756374204944206d7573742062652076616c69640000000000000000604482015260640161056b565b5f826101000151116144475760405162461bcd60e51b815260206004820152601660248201527514dd185c9d0819185d19481a5cc81c995c5d5a5c995960521b604482015260640161056b565b5f826101200151116144925760405162461bcd60e51b8152602060048201526014602482015273115b990819185d19481a5cc81c995c5d5a5c995960621b604482015260640161056b565b816101200151826101000151106144f65760405162461bcd60e51b815260206004820152602260248201527f53746172742064617465206d757374206265206265666f726520656e64206461604482015261746560f01b606482015260840161056b565b8151516145455760405162461bcd60e51b815260206004820152601c60248201527f4261746368206e616d65206d757374206e6f7420626520656d70747900000000604482015260640161056b565b60018054905f6145548361599e565b91905055505f60015490505f4290505f61458a856020015186604001518760600151858960c001518a60e001518b5f0151614bf9565b90505f604051806102400160405280858152602001875f01518152602001876020015181526020018760400151815260200187606001518152602001848152602001876101000151815260200187610120015181526020015f60028111156145f4576145f461514b565b8152608080890151602083015260a0808a0151604084015260c0808b0151606085015291830186905260e08a015190830152015f81526020015f81525f602080830182905260409283018290528782526004815291902082518155908201519192508291600182019061466790826159fb565b506040820151600282019061467c90826159fb565b50606082015160038201556080820151600482019061469b90826159fb565b5060a0820151600582015560c0820151600682015560e0820151600782015561010082015160088201805460ff191660018360028111156146de576146de61514b565b021790555061012082015180516146ff916009840191602090910190614cdf565b50610140820151600a82019061471590826159fb565b50610160820151600b82019061472b90826159fb565b50610180820151600c8201556101a0820151600d8201556101c0820151600e8201805460ff191660018360028111156147665761476661514b565b02179055506101e0820151600e8201805461ff0019166101008360038111156147915761479161514b565b0217905550610200820151600f820155610220909101516010909101805460ff1916911515919091179055602086015160405185916005916147d3919061557e565b908152602001604051809103902081905550837f58c168780de5fc719a1e7a85c7eca394e664c0e74b7c9ebc621f0b093112d04b8760200151886040015160405161481f929190615cc8565b60405180910390a25091949350505050565b6040805160018082528183019092525f916020808301908036833701905050905081815f8151811061486557614865615976565b6020026020010181815250505f6040516020016148b7907f41206e657720626174636820686173206265656e2063726561746564206279208152680383937b23ab1b2b9160bd1b602082015260290190565b60408051601f19818403018152828201909152600d82526c10985d18da0810dc99585d1959609a1b602083015291506148f590869086908486614037565b5050505050565b6060815f036149225750506040805180820190915260018152600360fc1b602082015290565b815f5b811561494b57806149358161599e565b91506149449050600a83615ce9565b9150614925565b5f816001600160401b0381111561496457614964614d9d565b6040519080825280601f01601f19166020018201604052801561498e576020820181803683370190505b509050815b8515614a18576149a4600182615cfc565b90505f6149b2600a88615ce9565b6149bd90600a615d0f565b6149c79088615cfc565b6149d2906030615d26565b90505f8160f81b9050808484815181106149ee576149ee615976565b60200101906001600160f81b03191690815f1a905350614a0f600a89615ce9565b97505050614993565b50949350505050565b60605f83905082815110614a3857839150506104fb565b5f836001600160401b03811115614a5157614a51614d9d565b6040519080825280601f01601f191660200182016040528015614a7b576020820181803683370190505b5090505f825185614a8c9190615cfc565b90505f5b81811015614ad757600360fc1b838281518110614aaf57614aaf615976565b60200101906001600160f81b03191690815f1a90535080614acf8161599e565b915050614a90565b505f5b8351811015614b4757838181518110614af557614af5615976565b01602001516001600160f81b03191683614b0f8484615d3f565b81518110614b1f57614b1f615976565b60200101906001600160f81b03191690815f1a90535080614b3f8161599e565b915050614ada565b509095945050505050565b5f8181805b8251811015614bcd575f6030848381518110614b7557614b75615976565b0160200151614b87919060f81c615d52565b9050614b94600283615c45565b15614b9f5780614baa565b614baa816003615d6b565b614bb79060ff1684615d3f565b9250508080614bc59061599e565b915050614b57565b505f600a614bdb8184615c45565b614be690600a615cfc565b614bf09190615c45565b95945050505050565b5f87878787878787604051602001614c179796959493929190615d8e565b604051602081830303815290604052805190602001209050979650505050505050565b6040518061024001604052805f815260200160608152602001606081526020015f8152602001606081526020015f81526020015f81526020015f81526020015f6002811115614c8b57614c8b61514b565b81526020016060815260200160608152602001606081526020015f80191681526020015f81526020015f6002811115614cc657614cc661514b565b81526020015f81525f6020820181905260409091015290565b828054828255905f5260205f20908101928215614d23579160200282015b82811115614d235782518290614d1390826159fb565b5091602001919060010190614cfd565b50614d2f929150614d33565b5090565b80821115614d2f575f614d468282614d4f565b50600101614d33565b508054614d5b9061587f565b5f825580601f10614d6a575050565b601f0160209004905f5260205f2090810190614d869190614d89565b50565b5b80821115614d2f575f8155600101614d8a565b634e487b7160e01b5f52604160045260245ffd5b60405161010081016001600160401b0381118282101715614dd457614dd4614d9d565b60405290565b604051601f8201601f191681016001600160401b0381118282101715614e0257614e02614d9d565b604052919050565b5f6001600160401b03821115614e2257614e22614d9d565b50601f01601f191660200190565b5f82601f830112614e3f575f80fd5b8135614e52614e4d82614e0a565b614dda565b818152846020838601011115614e66575f80fd5b816020850160208301375f918101602001919091529392505050565b5f60208284031215614e92575f80fd5b81356001600160401b03811115614ea7575f80fd5b614eb384828501614e30565b949350505050565b5f60208284031215614ecb575f80fd5b5035919050565b5f5b83811015614eec578181015183820152602001614ed4565b50505f910152565b5f8151808452614f0b816020860160208601614ed2565b601f01601f19169290920160200192915050565b5f82825180855260208086019550808260051b8401018186015f5b84811015614f6857601f19868403018952614f56838351614ef4565b98840198925090830190600101614f3a565b5090979650505050505050565b5f8151808452602080850194508084015f5b83811015614fa357815187529582019590820190600101614f87565b509495945050505050565b5f6020808301818452808551808352604092508286019150828160051b8701018488015f5b8381101561509157603f1989840301855281516101008151855288820151898601528782015188860152606080830151828288015261501483880182614ef4565b925050506080808301518683038288015261502f8382614ef4565b9250505060a0808301516150468288018215159052565b505060c0808301518683038288015261505f8382614f1f565b9250505060e0808301519250858203818701525061507d8183614f75565b968901969450505090860190600101614fd3565b509098975050505050505050565b5f6020808301818452808551808352604092508286019150828160051b8701018488015f5b8381101561509157603f19898403018552815160808151855288820151898601528782015181898701526150fa82870182614ef4565b915050606080830151925085820381870152506151178183614ef4565b9689019694505050908601906001016150c4565b5f806040838503121561513c575f80fd5b50508035926020909101359150565b634e487b7160e01b5f52602160045260245ffd5b60038110614d8657614d8661514b565b6151788161515f565b9052565b600481106151785761517861514b565b5f6102408251845260208301518160208601526151ab82860182614ef4565b915050604083015184820360408601526151c58282614ef4565b91505060608301516060850152608083015184820360808601526151e98282614ef4565b91505060a083015160a085015260c083015160c085015260e083015160e08501526101008084015161521d8287018261516f565b505061012080840151858303828701526152378382614f1f565b9250505061014080840151858303828701526152538382614ef4565b92505050610160808401518583038287015261526f8382614ef4565b925050506101808084015181860152506101a08084015181860152506101c08084015161529e8287018261516f565b50506101e0808401516152b38287018261517c565b505061020083810151908501526102208084015180151582870152610f01565b5f602080830181845280855180835260408601915060408160051b87010192508387015f5b8281101561532657603f1988860301845261531485835161518c565b945092850192908501906001016152f8565b5092979650505050505050565b5f6001600160401b0382111561534b5761534b614d9d565b5060051b60200190565b5f82601f830112615364575f80fd5b81356020615374614e4d83615333565b82815260059290921b84018101918181019086841115615392575f80fd5b8286015b848110156153d05780356001600160401b038111156153b4575f8081fd5b6153c28986838b0101614e30565b845250918301918301615396565b509695505050505050565b5f805f805f805f805f6101208a8c0312156153f4575f80fd5b89356001600160401b038082111561540a575f80fd5b6154168d838e01614e30565b9a5060208c0135995060408c0135915080821115615432575f80fd5b61543e8d838e01614e30565b985060608c0135915080821115615453575f80fd5b61545f8d838e01615355565b975060808c0135915080821115615474575f80fd5b6154808d838e01614e30565b965060a08c0135915080821115615495575f80fd5b506154a28c828d01614e30565b94505060c08a0135925060e08a013591506101008a013590509295985092959850929598565b602081525f61315c6020830184614f75565b5f805f80608085870312156154ed575f80fd5b843593506020850135925060408501356001600160401b0380821115615511575f80fd5b61551d88838901614e30565b93506060870135915080821115615532575f80fd5b5061553f87828801614e30565b91505092959194509250565b602081016104fb828461517c565b602081525f61315c602083018461518c565b602081016155788361515f565b91905290565b5f825161558f818460208701614ed2565b9190910192915050565b5f82601f8301126155a8575f80fd5b81516155b6614e4d82614e0a565b8181528460208386010111156155ca575f80fd5b614eb3826020830160208701614ed2565b805180151581146155ea575f80fd5b919050565b5f82601f8301126155fe575f80fd5b8151602061560e614e4d83615333565b82815260059290921b8401810191818101908684111561562c575f80fd5b8286015b848110156153d05780516001600160401b0381111561564e575f8081fd5b61565c8986838b0101615599565b845250918301918301615630565b5f82601f830112615679575f80fd5b81516020615689614e4d83615333565b82815260059290921b840181019181810190868411156156a7575f80fd5b8286015b848110156153d057805183529183019183016156ab565b5f60208083850312156156d3575f80fd5b82516001600160401b03808211156156e9575f80fd5b818501915085601f8301126156fc575f80fd5b815161570a614e4d82615333565b81815260059190911b83018401908481019088831115615728575f80fd5b8585015b8381101561582f57805185811115615742575f80fd5b8601610100818c03601f1901811315615759575f80fd5b615761614db1565b89830151815260408301518a8201526060830151604082015260808301518881111561578b575f80fd5b6157998e8c83870101615599565b60608301525060a0830151888111156157b0575f80fd5b6157be8e8c83870101615599565b6080830152506157d060c084016155db565b60a082015260e080840151898111156157e8575f8081fd5b6157f68f8d838801016155ef565b60c08401525091830151918883111561580e575f8081fd5b61581c8e8c8587010161566a565b908201528552505091860191860161572c565b5098975050505050505050565b60208082526023908201527f426174636820646f6573206e6f7420657869737420776974682074686973205360408201526253434360e81b606082015260800190565b600181811c9082168061589357607f821691505b6020821081036158b157634e487b7160e01b5f52602260045260245ffd5b50919050565b60208082526014908201527310985d18da08191bd95cc81b9bdd08195e1a5cdd60621b604082015260600190565b5f81546158f18161587f565b80855260206001838116801561590e576001811461592857615953565b60ff1985168884015283151560051b880183019550615953565b865f52825f205f5b8581101561594b5781548a8201860152908301908401615930565b890184019650505b505050505092915050565b828152604060208201525f614eb360408301846158e5565b634e487b7160e01b5f52603260045260245ffd5b634e487b7160e01b5f52601160045260245ffd5b5f600182016159af576159af61598a565b5060010190565b601f8211156108dc575f81815260208120601f850160051c810160208610156159dc5750805b601f850160051c820191505b81811015611c06578281556001016159e8565b81516001600160401b03811115615a1457615a14614d9d565b615a2881615a22845461587f565b846159b6565b602080601f831160018114615a5b575f8415615a445750858301515b5f19600386901b1c1916600185901b178555611c06565b5f85815260208120601f198616915b82811015615a8957888601518255948401946001909101908401615a6a565b5085821015615aa657878501515f19600388901b60f8161c191681555b5050505050600190811b01905550565b615ac0818661517c565b608060208201525f615ad56080830186614ef4565b8460408401528281036060840152615aed8185614ef4565b979650505050505050565b7f5472616e73706f727420737461747573207570646174656420746f202700000081525f8251615b2f81601d850160208701614ed2565b91909101601d0192915050565b838152606060208201525f615b546060830185614ef4565b8281036040840152615b668185614ef4565b9695505050505050565b602081525f61315c60208301846158e5565b8781525f6020888184015260e06040840152615ba160e0840189614ef4565b8381036060850152615bb38189614ef4565b9050861515608085015283810360a08501528086518083528383019150838160051b8401018489015f5b83811015615c0b57601f19868403018552615bf9838351614ef4565b94870194925090860190600101615bdd565b505086810360c0880152615c1f8189614f75565b9e9d5050505050505050505050505050565b634e487b7160e01b5f52601260045260245ffd5b5f82615c5357615c53615c31565b500690565b5f8451615c69818460208901614ed2565b845190830190615c7d818360208901614ed2565b8451910190615c90818360208801614ed2565b0195945050505050565b5f8351615cab818460208801614ed2565b835190830190615cbf818360208801614ed2565b01949350505050565b604081525f615cda6040830185614ef4565b90508260208301529392505050565b5f82615cf757615cf7615c31565b500490565b818103818111156104fb576104fb61598a565b80820281158282048414176104fb576104fb61598a565b60ff81811683821601908111156104fb576104fb61598a565b808201808211156104fb576104fb61598a565b60ff82811682821603908111156104fb576104fb61598a565b60ff8181168382160290811690818114615d8757615d8761598a565b5092915050565b5f88516020615da08285838e01614ed2565b81840191508982528851615db981838501848d01614ed2565b80830192505087818301528651615dd68160408501848b01614ed2565b604092019182018690528451615df28160608501848901614ed2565b919091016060019a995050505050505050505056fea26469706673582212203796ccf2ceff26e162035748b56a802282144a42839b5bc4a88b083b7d6c16b264736f6c63430008140033",
  "immutableReferences": {},
  "source": "// SPDX-License-Identifier: MIT\npragma solidity ^0.8.0;\nimport \"./ActivityLog.sol\";\ncontract TraceabilityContract {\n    ActivityLog private activityLogContract;\n\n    constructor(address _activityLogAddress) {\n        require(\n            _activityLogAddress != address(0),\n            \"Invalid ActivityLog address\"\n        );\n        activityLogContract = ActivityLog(_activityLogAddress);\n    }\n\n    uint256 private _batchIdCounter;\n    uint256 private _warehouseIdCounter;\n\n    enum BatchStatus {\n        PendingApproval,\n        Approved,\n        Rejected\n    }\n    enum TransportStatus {\n        NotTransported,\n        InTransit,\n        Delivered\n    }\n    enum ParticipantType {\n        Transporter,\n        Warehouse\n    }\n    enum DetailedTransportStatus {\n        NotStarted,\n        InTransit,\n        Paused,\n        Delivered\n    }\n\n    struct Batch {\n        uint256 batchId;\n        string name; // Thêm trường tên lô hàng\n        string sscc;\n        uint256 producerId;\n        string quantity;\n        uint256 productionDate;\n        uint256 startDate;\n        uint256 endDate;\n        BatchStatus status;\n        string[] productImageUrls;\n        string certificateImageUrl;\n        string farmPlotNumber;\n        bytes32 dataHash;\n        uint256 productId;\n        TransportStatus transportStatus;\n        DetailedTransportStatus detailedTransportStatus;\n        uint256 lastTransporterId;\n        bool warehouseConfirmed; // Thêm trường này\n    }\n\n    struct BatchParams {\n        string name;\n        string sscc;\n        uint256 producerId;\n        string quantity;\n        string[] productImageUrls;\n        string certificateImageUrl;\n        string farmPlotNumber;\n        uint256 productId;\n        uint256 startDate;\n        uint256 endDate;\n    }\n\n    struct Participation {\n        uint256 participantId;\n        string participantType;\n        uint256 timestamp;\n        string action;\n    }\n\n    struct TransportEvent {\n        uint256 participantId;\n        uint256 timestamp;\n        string action;\n        string participantType;\n    }\n\n    mapping(uint256 => TransportEvent[]) private _batchTransportEvents;\n\n    mapping(uint256 => Batch) private _batches;\n    mapping(string => uint256) private _ssccToBatchId;\n\n    mapping(uint256 => bool) private _approvedBatches;\n    mapping(uint256 => Participation[]) private _batchParticipations;\n\n    event BatchApproved(\n        uint256 indexed batchId,\n        uint256 indexed producerId,\n        string sscc\n    );\n    event BatchApprovedForQR(\n        uint256 indexed batchId,\n        uint256 indexed producerId,\n        string sscc\n    );\n    event ParticipationRecorded(\n        uint256 indexed batchId,\n        uint256 participantId,\n        string participantType,\n        string action\n    );\n    event BatchCreated(\n        uint256 indexed batchId,\n        string sscc,\n        uint256 producerId\n    );\n    event ActivityLogAdded(\n        uint256 indexed uid,\n        string activityName,\n        string description,\n        bool isSystemGenerated,\n        string[] imageUrls,\n        uint256[] relatedProductIds\n    );\n    event TransportStatusUpdated(\n        uint256 indexed batchId,\n        DetailedTransportStatus newStatus,\n        string action,\n        uint256 participantId,\n        string participantType\n    );\n\n    function addSystemActivityLog(\n        uint256 _batchId,\n        uint256 _participantId,\n        string memory _activityName,\n        string memory _description,\n        uint256[] memory _relatedProductIds\n    ) internal {\n        activityLogContract.addActivityLog(\n            _batchId,\n            _participantId,\n            _activityName,\n            _description,\n            true,\n            new string[](0),\n            _relatedProductIds\n        );\n    }\n    function createBatch(\n        string memory _name,\n        uint256 _producerId,\n        string memory _quantity,\n        string[] memory _productImageUrls,\n        string memory _certificateImageUrl,\n        string memory _farmPlotNumber,\n        uint256 _productId,\n        uint256 _startDate,\n        uint256 _endDate\n    ) public returns (uint256) {\n        string memory sscc = generateSSCC(_producerId);\n        uint256 newBatchId = _createBatch(\n            BatchParams({\n                name: _name,\n                sscc: sscc,\n                producerId: _producerId,\n                quantity: _quantity,\n                productImageUrls: _productImageUrls,\n                certificateImageUrl: _certificateImageUrl,\n                farmPlotNumber: _farmPlotNumber,\n                productId: _productId,\n                startDate: _startDate,\n                endDate: _endDate\n            })\n        );\n\n        // Ghi lại thông tin lô hàng vào nhật ký hoạt động\n        _addBatchCreationLog(newBatchId, _producerId, _productId);\n\n        return newBatchId;\n    }\n\n    function _addBatchCreationLog(\n        uint256 _batchId,\n        uint256 _producerId,\n        uint256 _productId\n    ) private {\n        uint256[] memory relatedProductIds = new uint256[](1);\n        relatedProductIds[0] = _productId;\n        string memory description = string(\n            abi.encodePacked(\"A new batch has been created by producer \")\n        );\n        addSystemActivityLog(\n            _batchId,\n            _producerId,\n            \"Batch Created\",\n            description,\n            relatedProductIds\n        );\n    }\n    function generateSSCC(\n        uint256 _producerId\n    ) private view returns (string memory) {\n        string memory prefix = \"00\";\n        string memory companyPrefix = padLeft(uint2str(_producerId), 6); // Giảm xuống 6 chữ số\n        uint256 serialNumber = uint256(\n            keccak256(abi.encodePacked(block.timestamp, _producerId))\n        ) % 1000000000; // Giữ nguyên 9 chữ số\n        string memory serialReference = padLeft(uint2str(serialNumber), 9); // Giữ nguyên 9 chữ số\n\n        string memory ssccWithoutCheck = string(\n            abi.encodePacked(prefix, companyPrefix, serialReference)\n        );\n        uint8 checkDigit = calculateCheckDigit(ssccWithoutCheck);\n\n        return\n            string(\n                abi.encodePacked(\n                    ssccWithoutCheck,\n                    uint2str(uint256(checkDigit))\n                )\n            );\n    }\n\n    function padLeft(\n        string memory str,\n        uint256 length\n    ) private pure returns (string memory) {\n        bytes memory strBytes = bytes(str);\n        if (strBytes.length >= length) return str;\n\n        bytes memory result = new bytes(length);\n        uint256 paddingLength = length - strBytes.length;\n        for (uint256 i = 0; i < paddingLength; i++) {\n            result[i] = \"0\";\n        }\n        for (uint256 i = 0; i < strBytes.length; i++) {\n            result[i + paddingLength] = strBytes[i];\n        }\n        return string(result);\n    }\n    function calculateCheckDigit(\n        string memory _code\n    ) private pure returns (uint8) {\n        bytes memory codeBytes = bytes(_code);\n        uint256 sum = 0;\n        for (uint256 i = 0; i < codeBytes.length; i++) {\n            uint8 digit = uint8(codeBytes[i]) - 48;\n            sum += (i % 2 == 0) ? digit * 3 : digit;\n        }\n        uint8 checkDigit = uint8((10 - (sum % 10)) % 10);\n        return checkDigit;\n    }\n\n    function uint2str(uint256 _i) private pure returns (string memory) {\n        if (_i == 0) {\n            return \"0\";\n        }\n        uint256 j = _i;\n        uint256 length;\n        while (j != 0) {\n            length++;\n            j /= 10;\n        }\n        bytes memory bstr = new bytes(length);\n        uint256 k = length;\n        while (_i != 0) {\n            k = k - 1;\n            uint8 temp = (48 + uint8(_i - (_i / 10) * 10));\n            bytes1 b1 = bytes1(temp);\n            bstr[k] = b1;\n            _i /= 10;\n        }\n        return string(bstr);\n    }\n\n    function _createBatch(BatchParams memory params) private returns (uint256) {\n        require(_ssccToBatchId[params.sscc] == 0, \"SSCC already exists\");\n        require(\n            bytes(params.quantity).length > 0,\n            \"Quantity must not be empty\"\n        );\n        require(\n            params.productImageUrls.length > 0,\n            \"At least one product image URL is required\"\n        );\n        require(\n            bytes(params.certificateImageUrl).length > 0,\n            \"Certificate image URL is required\"\n        );\n        require(\n            bytes(params.farmPlotNumber).length > 0,\n            \"Farm plot number is required\"\n        );\n        require(params.productId > 0, \"Product ID must be valid\");\n        require(params.startDate > 0, \"Start date is required\");\n        require(params.endDate > 0, \"End date is required\");\n        require(\n            params.startDate < params.endDate,\n            \"Start date must be before end date\"\n        );\n        require(bytes(params.name).length > 0, \"Batch name must not be empty\");\n\n        _batchIdCounter++;\n        uint256 newBatchId = _batchIdCounter;\n\n        uint256 productionDate = block.timestamp;\n\n        bytes32 dataHash = _calculateDataHash(\n            params.sscc,\n            params.producerId,\n            params.quantity,\n            productionDate,\n            params.farmPlotNumber,\n            params.productId,\n            params.name // Thêm tên lô hàng vào hàm băm\n        );\n\n        Batch memory newBatch = Batch({\n            batchId: newBatchId,\n            name: params.name, // Thêm tên lô hàng\n            sscc: params.sscc,\n            producerId: params.producerId,\n            quantity: params.quantity,\n            productionDate: productionDate,\n            startDate: params.startDate,\n            endDate: params.endDate,\n            status: BatchStatus.PendingApproval,\n            productImageUrls: params.productImageUrls,\n            certificateImageUrl: params.certificateImageUrl,\n            farmPlotNumber: params.farmPlotNumber,\n            dataHash: dataHash,\n            productId: params.productId,\n            transportStatus: TransportStatus.NotTransported,\n            detailedTransportStatus: DetailedTransportStatus.NotStarted,\n            lastTransporterId: 0,\n            warehouseConfirmed: false // Thêm trường mới này\n        });\n\n        _batches[newBatchId] = newBatch;\n        _ssccToBatchId[params.sscc] = newBatchId;\n\n        emit BatchCreated(newBatchId, params.sscc, params.producerId);\n        return newBatchId;\n    }\n\n    // Hàm để lấy nhật ký hoạt động của một nhà sản xuất\n\n    function _calculateDataHash(\n        string memory _sscc,\n        uint256 _producerId,\n        string memory _quantity,\n        uint256 _productionDate,\n        string memory _farmPlotNumber,\n        uint256 _productId,\n        string memory _name // Thêm tên lô hàng\n    ) private pure returns (bytes32) {\n        return\n            keccak256(\n                abi.encodePacked(\n                    _sscc,\n                    _producerId,\n                    _quantity,\n                    _productionDate,\n                    _farmPlotNumber,\n                    _productId,\n                    _name\n                )\n            );\n    }\n    // hàm kiểm tra sscc đã tồn tại hay chưa\n    function ssccExists(string memory sscc) public view returns (bool) {\n        return _ssccToBatchId[sscc] != 0;\n    }\n\n    // Hàm mới để lấy danh sách các lô hàng dựa trên producerId\n    function getBatchesByProducer(\n        uint256 producerId\n    ) public view returns (Batch[] memory) {\n        uint256 count = 0;\n        for (uint256 i = 1; i <= _batchIdCounter; i++) {\n            if (_batches[i].producerId == producerId) {\n                count++;\n            }\n        }\n\n        Batch[] memory batches = new Batch[](count);\n        uint256 index = 0;\n        for (uint256 i = 1; i <= _batchIdCounter; i++) {\n            if (_batches[i].producerId == producerId) {\n                batches[index] = _batches[i];\n                index++;\n            }\n        }\n\n        return batches;\n    }\n\n    // hàm cập nhật trạng thái lô hàng\n\n    function getPendingBatchesByProducer(\n        uint256 _producerId\n    ) public view returns (Batch[] memory) {\n        uint256 pendingCount = 0;\n        for (uint256 i = 1; i <= _batchIdCounter; i++) {\n            if (\n                _batches[i].producerId == _producerId &&\n                _batches[i].status == BatchStatus.PendingApproval\n            ) {\n                pendingCount++;\n            }\n        }\n        Batch[] memory pendingBatches = new Batch[](pendingCount);\n        uint256 index = 0;\n        for (uint256 i = 1; i <= _batchIdCounter; i++) {\n            if (\n                _batches[i].producerId == _producerId &&\n                _batches[i].status == BatchStatus.PendingApproval\n            ) {\n                pendingBatches[index] = _batches[i];\n                index++;\n            }\n        }\n\n        return pendingBatches;\n    }\n\n    function getRejectedBatchesByProducer(\n        uint256 _producerId\n    ) public view returns (Batch[] memory) {\n        uint256 rejectedCount = 0;\n        for (uint256 i = 1; i <= _batchIdCounter; i++) {\n            if (\n                _batches[i].producerId == _producerId &&\n                _batches[i].status == BatchStatus.Rejected\n            ) {\n                rejectedCount++;\n            }\n        }\n\n        Batch[] memory rejectedBatches = new Batch[](rejectedCount);\n        uint256 index = 0;\n        for (uint256 i = 1; i <= _batchIdCounter; i++) {\n            if (\n                _batches[i].producerId == _producerId &&\n                _batches[i].status == BatchStatus.Rejected\n            ) {\n                rejectedBatches[index] = _batches[i];\n                index++;\n            }\n        }\n\n        return rejectedBatches;\n    }\n    function getAllPendingBatches() public view returns (Batch[] memory) {\n        uint256 pendingCount = 0;\n        for (uint256 i = 1; i <= _batchIdCounter; i++) {\n            if (_batches[i].status == BatchStatus.PendingApproval) {\n                pendingCount++;\n            }\n        }\n\n        Batch[] memory pendingBatches = new Batch[](pendingCount);\n        uint256 index = 0;\n        for (uint256 i = 1; i <= _batchIdCounter; i++) {\n            if (_batches[i].status == BatchStatus.PendingApproval) {\n                pendingBatches[index] = _batches[i];\n                index++;\n            }\n        }\n\n        return pendingBatches;\n    }\n\n    event BatchStatusUpdated(uint256 indexed batchId, BatchStatus newStatus);\n\n    // hàm lấy thông tin lô hàng\n    function getBatchDetails(\n        uint256 _batchId\n    ) public view returns (Batch memory) {\n        require(_batches[_batchId].batchId != 0, \"Batch does not exist\");\n        return _batches[_batchId];\n    }\n\n    function getTotalBatches() public view returns (uint256) {\n        return _batchIdCounter;\n    }\n\n    function isProducerOfBatch(\n        uint256 _batchId,\n        uint256 _producerId\n    ) public view returns (bool) {\n        return _batches[_batchId].producerId == _producerId;\n    }\n\n    // Thêm hàm này vào smart contract\n\n    function approveBatch(uint256 _batchId, uint256 _approverId) public {\n        require(_batches[_batchId].batchId != 0, \"Batch does not exist\");\n        require(\n            _batches[_batchId].status == BatchStatus.PendingApproval,\n            \"Batch is not pending approval\"\n        );\n\n        _batches[_batchId].status = BatchStatus.Approved;\n        _approvedBatches[_batchId] = true;\n\n        emit BatchApproved(\n            _batchId,\n            _batches[_batchId].producerId,\n            _batches[_batchId].sscc\n        );\n        emit BatchApprovedForQR(\n            _batchId,\n            _batches[_batchId].producerId,\n            _batches[_batchId].sscc\n        );\n\n        // Add system activity log\n        uint256[] memory relatedProductIds = new uint256[](1);\n        relatedProductIds[0] = _batches[_batchId].productId;\n        addSystemActivityLog(\n            _batchId,\n            _approverId,\n            \"Batch Approved\",\n            string(abi.encodePacked(\"Batch has been approved by approver \")),\n            relatedProductIds\n        );\n    }\n    function rejectBatch(uint256 _batchId, uint256 _approverId) public {\n        require(_batches[_batchId].batchId != 0, \"Batch does not exist\");\n        require(\n            _batches[_batchId].status == BatchStatus.PendingApproval,\n            \"Batch is not pending approval\"\n        );\n\n        _batches[_batchId].status = BatchStatus.Rejected;\n\n        emit BatchRejected(\n            _batchId,\n            _batches[_batchId].producerId,\n            _batches[_batchId].sscc\n        );\n\n        // Add system activity log\n        uint256[] memory relatedProductIds = new uint256[](1);\n        relatedProductIds[0] = _batches[_batchId].productId;\n        addSystemActivityLog(\n            _batchId,\n            _approverId,\n            \"Batch Rejected\",\n            string(abi.encodePacked(\"Batch has been rejected by approver \")),\n            relatedProductIds\n        );\n    }\n\n    function getActivityLogs(\n        uint256 _batchId\n    ) public view returns (ActivityLog.ActivityLogEntry[] memory) {\n        return activityLogContract.getActivityLogs(_batchId);\n    }\n\n    event BatchRejected(\n        uint256 indexed batchId,\n        uint256 producerId,\n        string sscc\n    );\n\n    function getApprovedBatchesByProducer(\n        uint256 _producerId\n    ) public view returns (Batch[] memory) {\n        uint256 approvedCount = 0;\n        for (uint256 i = 1; i <= _batchIdCounter; i++) {\n            if (\n                _batches[i].producerId == _producerId &&\n                _batches[i].status == BatchStatus.Approved\n            ) {\n                approvedCount++;\n            }\n        }\n\n        Batch[] memory approvedBatches = new Batch[](approvedCount);\n        uint256 index = 0;\n        for (uint256 i = 1; i <= _batchIdCounter; i++) {\n            if (\n                _batches[i].producerId == _producerId &&\n                _batches[i].status == BatchStatus.Approved\n            ) {\n                approvedBatches[index] = _batches[i];\n                index++;\n            }\n        }\n\n        return approvedBatches;\n    }\n\n    function getBatchBySSCC(\n        string memory _sscc\n    ) public view returns (Batch memory) {\n        uint256 batchId = _ssccToBatchId[_sscc];\n        require(batchId != 0, \"Batch does not exist with this SSCC\");\n        return _batches[batchId];\n    }\n\n    function isValidSSCC(string memory _sscc) public view returns (bool) {\n        return _ssccToBatchId[_sscc] != 0;\n    }\n\n    function isBatchApproved(uint256 _batchId) public view returns (bool) {\n        return _approvedBatches[_batchId];\n    }\n\n    function recordParticipation(\n        uint256 _batchId,\n        uint256 _participantId,\n        string memory _participantType,\n        string memory _action\n    ) public {\n        require(_batches[_batchId].batchId != 0, \"Batch does not exist\");\n        _batchParticipations[_batchId].push(\n            Participation(\n                _participantId,\n                _participantType,\n                block.timestamp,\n                _action\n            )\n        );\n\n        emit ParticipationRecorded(\n            _batchId,\n            _participantId,\n            _participantType,\n            _action\n        );\n    }\n    event LogParticipantType(uint256 indexed batchId, string participantType);\n    function updateTransportStatus(\n        uint256 _batchId,\n        uint256 _participantId,\n        string memory _action,\n        string memory _participantType\n    ) public {\n        require(\n            keccak256(abi.encodePacked(_participantType)) ==\n                keccak256(abi.encodePacked(\"Transporter\")) ||\n                keccak256(abi.encodePacked(_participantType)) ==\n                keccak256(abi.encodePacked(\"Warehouse\")),\n            \"Invalid participant type\"\n        );\n\n        require(_batches[_batchId].batchId != 0, \"Batch does not exist\");\n        require(\n            _batches[_batchId].status == BatchStatus.Approved,\n            \"Batch must be approved\"\n        );\n\n        TransportEvent memory newEvent = TransportEvent({\n            participantId: _participantId,\n            timestamp: block.timestamp,\n            action: _action,\n            participantType: _participantType\n        });\n\n        _batchTransportEvents[_batchId].push(newEvent);\n\n        if (\n            keccak256(abi.encodePacked(_action)) ==\n            keccak256(abi.encodePacked(\"Bat dau van chuyen\"))\n        ) {\n            _batches[_batchId].detailedTransportStatus = DetailedTransportStatus\n                .InTransit;\n            _batches[_batchId].transportStatus = TransportStatus.InTransit;\n            _batches[_batchId].lastTransporterId = _participantId;\n        } else if (\n            keccak256(abi.encodePacked(_action)) ==\n            keccak256(abi.encodePacked(\"Tam dung van chuyen\"))\n        ) {\n            _batches[_batchId].detailedTransportStatus = DetailedTransportStatus\n                .Paused;\n        } else if (\n            keccak256(abi.encodePacked(_action)) ==\n            keccak256(abi.encodePacked(\"Tiep tuc van chuyen\"))\n        ) {\n            _batches[_batchId].detailedTransportStatus = DetailedTransportStatus\n                .InTransit;\n        } else if (\n            keccak256(abi.encodePacked(_action)) ==\n            keccak256(abi.encodePacked(\"Hoan thanh van chuyen\"))\n        ) {\n            _batches[_batchId].detailedTransportStatus = DetailedTransportStatus\n                .Delivered;\n            _batches[_batchId].transportStatus = TransportStatus.Delivered;\n        }\n\n        emit TransportStatusUpdated(\n            _batchId,\n            _batches[_batchId].detailedTransportStatus,\n            _action,\n            _participantId,\n            _participantType\n        );\n\n        uint256[] memory relatedProductIds = new uint256[](1);\n        relatedProductIds[0] = _batches[_batchId].productId;\n        addSystemActivityLog(\n            _batchId,\n            _participantId,\n            \"Transport Status Updated\",\n            string(abi.encodePacked(\"Transport status updated to '\", _action)),\n            relatedProductIds\n        );\n    }\n\n    // Đổi tên sự kiện\n    // Thêm mapping để theo dõi xác nhận của các nhà kho\n\n    mapping(uint256 => mapping(uint256 => bool))\n        private _warehouseConfirmations;\n\n    // Thêm sự kiện để theo dõi xác nhận của các nhà kho\n    event WarehouseConfirmed(\n        uint256 indexed batchId,\n        uint256 indexed warehouseId\n    );\n    function warehouseConfirmation(\n        uint256 _batchId,\n        uint256 _warehouseId\n    ) public {\n        require(_batches[_batchId].batchId != 0, \"Batch does not exist\");\n        require(\n            _batches[_batchId].transportStatus == TransportStatus.Delivered,\n            \"Batch must be delivered before warehouse confirmation\"\n        );\n        require(\n            _batches[_batchId].detailedTransportStatus ==\n                DetailedTransportStatus.Delivered,\n            \"Batch must be in Delivered status\"\n        );\n        require(\n            !_warehouseConfirmations[_batchId][_warehouseId],\n            \"This warehouse has already confirmed this batch\"\n        );\n\n        // Đánh dấu nhà kho này đã xác nhận\n        _warehouseConfirmations[_batchId][_warehouseId] = true;\n\n        // Ghi nhận sự tham gia của nhà kho\n        Participation memory newParticipation = Participation({\n            participantId: _warehouseId,\n            participantType: \"Warehouse\",\n            timestamp: block.timestamp,\n            action: \"Confirmed receipt at warehouse\"\n        });\n        _batchParticipations[_batchId].push(newParticipation);\n\n        // Phát ra sự kiện\n        emit WarehouseConfirmed(_batchId, _warehouseId);\n\n        // Thêm log hoạt động\n        uint256[] memory relatedProductIds = new uint256[](1);\n        relatedProductIds[0] = _batches[_batchId].productId;\n        addSystemActivityLog(\n            _batchId,\n            _warehouseId,\n            \"Warehouse Confirmation\",\n            string(\n                abi.encodePacked(\"Warehouse has confirmed receipt of batch\")\n            ),\n            relatedProductIds\n        );\n    }\n\n    // Hàm để kiểm tra xem một nhà kho cụ thể đã xác nhận lô hàng chưa\n    function isWarehouseConfirmed(\n        uint256 _batchId,\n        uint256 _warehouseId\n    ) public view returns (bool) {\n        return _warehouseConfirmations[_batchId][_warehouseId];\n    }\n\n    // Hàm để lấy danh sách các nhà kho đã xác nhận một lô hàng\n    function getConfirmedWarehouses(\n        uint256 _batchId\n    ) public view returns (uint256[] memory) {\n        uint256 confirmedCount = 0;\n        for (uint256 i = 1; i <= _warehouseIdCounter; i++) {\n            if (_warehouseConfirmations[_batchId][i]) {\n                confirmedCount++;\n            }\n        }\n\n        uint256[] memory confirmedWarehouses = new uint256[](confirmedCount);\n        uint256 index = 0;\n        for (uint256 i = 1; i <= _warehouseIdCounter; i++) {\n            if (_warehouseConfirmations[_batchId][i]) {\n                confirmedWarehouses[index] = i;\n                index++;\n            }\n        }\n\n        return confirmedWarehouses;\n    }\n\n    function getDetailedTransportStatus(\n        uint256 _batchId\n    ) public view returns (DetailedTransportStatus) {\n        require(_batches[_batchId].batchId != 0, \"Batch does not exist\");\n        return _batches[_batchId].detailedTransportStatus;\n    }\n    // hàm kiểm tra trạng thái vận chuyển\n    function canStartTransport(\n        uint256 _batchId,\n        uint256 _transporterId\n    ) public view returns (bool) {\n        return\n            _batches[_batchId].detailedTransportStatus ==\n            DetailedTransportStatus.NotStarted ||\n            (_batches[_batchId].detailedTransportStatus ==\n                DetailedTransportStatus.Delivered &&\n                _batches[_batchId].lastTransporterId != _transporterId);\n    }\n    function getTransportHistoryBySSCC(\n        string memory _sscc\n    ) public view returns (TransportEvent[] memory) {\n        uint256 batchId = _ssccToBatchId[_sscc];\n        require(batchId != 0, \"Batch does not exist with this SSCC\");\n        return _batchTransportEvents[batchId];\n    }\n    // Thêm hàm để kiểm tra trạng thái vận chuyển\n    function getBatchTransportStatus(\n        uint256 _batchId\n    ) public view returns (TransportStatus) {\n        require(_batches[_batchId].batchId != 0, \"Batch does not exist\");\n        return _batches[_batchId].transportStatus;\n    }\n\n    // function getBatchActivityLogs(uint256 _batchId) public view returns (ActivityLog.ActivityLogEntry[] memory) {\n    //     return activityLogContract.getActivityLogs(_batchId);\n    // }\n\n    function getSystemActivityLogsBySSCC(\n        string memory _sscc\n    ) public view returns (ActivityLog.ActivityLogEntry[] memory) {\n        uint256 batchId = uint256(keccak256(abi.encodePacked(_sscc)));\n        return activityLogContract.getSystemActivityLogs(batchId);\n    }\n    function getBatchIdBySSCC(\n        string memory _sscc\n    ) public view returns (uint256) {\n        return _ssccToBatchId[_sscc];\n    }\n    function getProducerActivityLogsByProducerId(\n        uint256 _producerId\n    ) public view returns (ActivityLog.ActivityLogEntry[] memory) {\n        return activityLogContract.getProducerActivityLogs(_producerId);\n    }\n}\n",
  "sourcePath": "E:\\LAPTRINH\\nckh-be\\blockchain\\contracts\\supplychain.sol",
  "compiler": {
    "name": "solc",
    "version": "0.8.20+commit.a1b79de6.Emscripten.clang"
  },
  "schemaVersion": "3.4.16",
  "updatedAt": "2025-11-29T03:05:38.626Z",
  "networkType": "ethereum",
  "devdoc": {
    "kind": "dev",
    "methods": {},
    "version": 1
  },
  "userdoc": {
    "kind": "user",
    "methods": {},
    "version": 1
  }
}