{
  "contractName": "TraceabilityContract",
  "abi": [
    {
      "inputs": [
        {
          "internalType": "address",
          "name": "_activityLogAddress",
          "type": "address"
        }
      ],
      "stateMutability": "nonpayable",
      "type": "constructor"
    },
    {
      "anonymous": false,
      "inputs": [
        {
          "indexed": true,
          "internalType": "uint256",
          "name": "batchId",
          "type": "uint256"
        },
        {
          "indexed": true,
          "internalType": "uint256",
          "name": "producerId",
          "type": "uint256"
        },
        {
          "indexed": false,
          "internalType": "string",
          "name": "sscc",
          "type": "string"
        }
      ],
      "name": "BatchApproved",
      "type": "event"
    },
    {
      "anonymous": false,
      "inputs": [
        {
          "indexed": true,
          "internalType": "uint256",
          "name": "batchId",
          "type": "uint256"
        },
        {
          "indexed": false,
          "internalType": "string",
          "name": "sscc",
          "type": "string"
        },
        {
          "indexed": true,
          "internalType": "uint256",
          "name": "producerId",
          "type": "uint256"
        },
        {
          "indexed": false,
          "internalType": "uint256",
          "name": "productTypeId",
          "type": "uint256"
        },
        {
          "indexed": false,
          "internalType": "uint256",
          "name": "productionDate",
          "type": "uint256"
        },
        {
          "indexed": false,
          "internalType": "bytes32",
          "name": "dataHash",
          "type": "bytes32"
        }
      ],
      "name": "BatchCreated",
      "type": "event"
    },
    {
      "anonymous": false,
      "inputs": [
        {
          "indexed": true,
          "internalType": "uint256",
          "name": "batchId",
          "type": "uint256"
        },
        {
          "indexed": false,
          "internalType": "string",
          "name": "name",
          "type": "string"
        },
        {
          "indexed": false,
          "internalType": "string",
          "name": "quantity",
          "type": "string"
        },
        {
          "indexed": false,
          "internalType": "uint256",
          "name": "startDate",
          "type": "uint256"
        },
        {
          "indexed": false,
          "internalType": "uint256",
          "name": "endDate",
          "type": "uint256"
        },
        {
          "indexed": false,
          "internalType": "string",
          "name": "farmPlotNumber",
          "type": "string"
        }
      ],
      "name": "BatchDetailsStored",
      "type": "event"
    },
    {
      "anonymous": false,
      "inputs": [
        {
          "indexed": true,
          "internalType": "uint256",
          "name": "batchId",
          "type": "uint256"
        },
        {
          "indexed": true,
          "internalType": "uint256",
          "name": "producerId",
          "type": "uint256"
        },
        {
          "indexed": false,
          "internalType": "string",
          "name": "sscc",
          "type": "string"
        },
        {
          "indexed": false,
          "internalType": "string",
          "name": "reason",
          "type": "string"
        }
      ],
      "name": "BatchRejected",
      "type": "event"
    },
    {
      "anonymous": false,
      "inputs": [
        {
          "indexed": true,
          "internalType": "uint256",
          "name": "processingId",
          "type": "uint256"
        },
        {
          "indexed": false,
          "internalType": "string",
          "name": "methodDescription",
          "type": "string"
        },
        {
          "indexed": false,
          "internalType": "string",
          "name": "notes",
          "type": "string"
        }
      ],
      "name": "ProcessingDetailsStored",
      "type": "event"
    },
    {
      "anonymous": false,
      "inputs": [
        {
          "indexed": true,
          "internalType": "uint256",
          "name": "processingId",
          "type": "uint256"
        },
        {
          "indexed": true,
          "internalType": "uint256",
          "name": "batchId",
          "type": "uint256"
        },
        {
          "indexed": false,
          "internalType": "uint256",
          "name": "processorId",
          "type": "uint256"
        },
        {
          "indexed": false,
          "internalType": "enum TraceabilityContract.ProcessingMethod",
          "name": "method",
          "type": "uint8"
        }
      ],
      "name": "ProcessingRecorded",
      "type": "event"
    },
    {
      "anonymous": false,
      "inputs": [
        {
          "indexed": true,
          "internalType": "uint256",
          "name": "productId",
          "type": "uint256"
        },
        {
          "indexed": false,
          "internalType": "string",
          "name": "productQRCode",
          "type": "string"
        },
        {
          "indexed": true,
          "internalType": "uint256",
          "name": "batchId",
          "type": "uint256"
        },
        {
          "indexed": false,
          "internalType": "uint256",
          "name": "weight",
          "type": "uint256"
        },
        {
          "indexed": false,
          "internalType": "string",
          "name": "packageType",
          "type": "string"
        }
      ],
      "name": "ProductCreated",
      "type": "event"
    },
    {
      "anonymous": false,
      "inputs": [
        {
          "indexed": true,
          "internalType": "uint256",
          "name": "productId",
          "type": "uint256"
        },
        {
          "indexed": true,
          "internalType": "uint256",
          "name": "treeId",
          "type": "uint256"
        }
      ],
      "name": "ProductTreeLinked",
      "type": "event"
    },
    {
      "anonymous": false,
      "inputs": [
        {
          "indexed": true,
          "internalType": "uint256",
          "name": "purchaseId",
          "type": "uint256"
        },
        {
          "indexed": false,
          "internalType": "string",
          "name": "qualityGrade",
          "type": "string"
        },
        {
          "indexed": false,
          "internalType": "string",
          "name": "notes",
          "type": "string"
        }
      ],
      "name": "PurchaseDetailsStored",
      "type": "event"
    },
    {
      "anonymous": false,
      "inputs": [
        {
          "indexed": true,
          "internalType": "uint256",
          "name": "purchaseId",
          "type": "uint256"
        },
        {
          "indexed": true,
          "internalType": "uint256",
          "name": "batchId",
          "type": "uint256"
        },
        {
          "indexed": false,
          "internalType": "uint256",
          "name": "purchaserId",
          "type": "uint256"
        },
        {
          "indexed": false,
          "internalType": "uint256",
          "name": "totalQuantity",
          "type": "uint256"
        },
        {
          "indexed": false,
          "internalType": "uint256",
          "name": "totalPrice",
          "type": "uint256"
        }
      ],
      "name": "PurchaseRecorded",
      "type": "event"
    },
    {
      "anonymous": false,
      "inputs": [
        {
          "indexed": true,
          "internalType": "uint256",
          "name": "testId",
          "type": "uint256"
        },
        {
          "indexed": false,
          "internalType": "string",
          "name": "testType",
          "type": "string"
        },
        {
          "indexed": false,
          "internalType": "string",
          "name": "testMethod",
          "type": "string"
        },
        {
          "indexed": false,
          "internalType": "string",
          "name": "result",
          "type": "string"
        },
        {
          "indexed": false,
          "internalType": "string",
          "name": "standard",
          "type": "string"
        }
      ],
      "name": "QualityTestDetailsStored",
      "type": "event"
    },
    {
      "anonymous": false,
      "inputs": [
        {
          "indexed": true,
          "internalType": "uint256",
          "name": "testId",
          "type": "uint256"
        },
        {
          "indexed": true,
          "internalType": "uint256",
          "name": "batchId",
          "type": "uint256"
        },
        {
          "indexed": false,
          "internalType": "uint256",
          "name": "inspectorId",
          "type": "uint256"
        },
        {
          "indexed": false,
          "internalType": "bool",
          "name": "passed",
          "type": "bool"
        },
        {
          "indexed": false,
          "internalType": "bytes32",
          "name": "resultHash",
          "type": "bytes32"
        }
      ],
      "name": "QualityTestRecorded",
      "type": "event"
    },
    {
      "anonymous": false,
      "inputs": [
        {
          "indexed": true,
          "internalType": "uint256",
          "name": "batchId",
          "type": "uint256"
        },
        {
          "indexed": false,
          "internalType": "enum TraceabilityContract.SupplyChainStage",
          "name": "newStage",
          "type": "uint8"
        },
        {
          "indexed": false,
          "internalType": "uint256",
          "name": "participantId",
          "type": "uint256"
        }
      ],
      "name": "StageUpdated",
      "type": "event"
    },
    {
      "anonymous": false,
      "inputs": [
        {
          "indexed": true,
          "internalType": "uint256",
          "name": "batchId",
          "type": "uint256"
        },
        {
          "indexed": false,
          "internalType": "uint256",
          "name": "participantId",
          "type": "uint256"
        },
        {
          "indexed": false,
          "internalType": "string",
          "name": "action",
          "type": "string"
        },
        {
          "indexed": false,
          "internalType": "string",
          "name": "location",
          "type": "string"
        },
        {
          "indexed": false,
          "internalType": "string",
          "name": "participantType",
          "type": "string"
        }
      ],
      "name": "TransportDetailsStored",
      "type": "event"
    },
    {
      "anonymous": false,
      "inputs": [
        {
          "indexed": true,
          "internalType": "uint256",
          "name": "batchId",
          "type": "uint256"
        },
        {
          "indexed": false,
          "internalType": "enum TraceabilityContract.DetailedTransportStatus",
          "name": "newStatus",
          "type": "uint8"
        },
        {
          "indexed": false,
          "internalType": "uint256",
          "name": "participantId",
          "type": "uint256"
        },
        {
          "indexed": false,
          "internalType": "uint8",
          "name": "actionCode",
          "type": "uint8"
        }
      ],
      "name": "TransportStatusUpdated",
      "type": "event"
    },
    {
      "anonymous": false,
      "inputs": [
        {
          "indexed": true,
          "internalType": "uint256",
          "name": "batchId",
          "type": "uint256"
        },
        {
          "indexed": true,
          "internalType": "uint256",
          "name": "warehouseId",
          "type": "uint256"
        }
      ],
      "name": "WarehouseConfirmed",
      "type": "event"
    },
    {
      "inputs": [
        {
          "internalType": "string",
          "name": "_name",
          "type": "string"
        },
        {
          "internalType": "uint256",
          "name": "_producerId",
          "type": "uint256"
        },
        {
          "internalType": "string",
          "name": "_quantity",
          "type": "string"
        },
        {
          "internalType": "uint256",
          "name": "_productTypeId",
          "type": "uint256"
        },
        {
          "internalType": "uint256",
          "name": "_startDate",
          "type": "uint256"
        },
        {
          "internalType": "uint256",
          "name": "_endDate",
          "type": "uint256"
        }
      ],
      "name": "createBatch",
      "outputs": [
        {
          "internalType": "uint256",
          "name": "",
          "type": "uint256"
        }
      ],
      "stateMutability": "nonpayable",
      "type": "function"
    },
    {
      "inputs": [
        {
          "internalType": "uint256",
          "name": "_batchId",
          "type": "uint256"
        },
        {
          "internalType": "uint256[]",
          "name": "_sourceTreeIds",
          "type": "uint256[]"
        },
        {
          "internalType": "uint256[]",
          "name": "_weights",
          "type": "uint256[]"
        },
        {
          "internalType": "string",
          "name": "_packageType",
          "type": "string"
        }
      ],
      "name": "createProductsInBatch",
      "outputs": [
        {
          "internalType": "uint256[]",
          "name": "",
          "type": "uint256[]"
        }
      ],
      "stateMutability": "nonpayable",
      "type": "function"
    },
    {
      "inputs": [
        {
          "internalType": "uint256",
          "name": "_batchId",
          "type": "uint256"
        },
        {
          "internalType": "uint256",
          "name": "_approverId",
          "type": "uint256"
        }
      ],
      "name": "approveBatch",
      "outputs": [],
      "stateMutability": "nonpayable",
      "type": "function"
    },
    {
      "inputs": [
        {
          "internalType": "uint256",
          "name": "_batchId",
          "type": "uint256"
        },
        {
          "internalType": "uint256",
          "name": "_approverId",
          "type": "uint256"
        },
        {
          "internalType": "string",
          "name": "_reason",
          "type": "string"
        }
      ],
      "name": "rejectBatch",
      "outputs": [],
      "stateMutability": "nonpayable",
      "type": "function"
    },
    {
      "inputs": [
        {
          "internalType": "uint256",
          "name": "_batchId",
          "type": "uint256"
        },
        {
          "internalType": "uint256",
          "name": "_purchaserId",
          "type": "uint256"
        },
        {
          "internalType": "uint256",
          "name": "_totalQuantity",
          "type": "uint256"
        },
        {
          "internalType": "uint256",
          "name": "_pricePerUnit",
          "type": "uint256"
        }
      ],
      "name": "recordPurchase",
      "outputs": [
        {
          "internalType": "uint256",
          "name": "",
          "type": "uint256"
        }
      ],
      "stateMutability": "nonpayable",
      "type": "function"
    },
    {
      "inputs": [
        {
          "internalType": "uint256",
          "name": "_purchaseId",
          "type": "uint256"
        },
        {
          "internalType": "string",
          "name": "_qualityGrade",
          "type": "string"
        },
        {
          "internalType": "string",
          "name": "_notes",
          "type": "string"
        }
      ],
      "name": "addPurchaseDetails",
      "outputs": [],
      "stateMutability": "nonpayable",
      "type": "function"
    },
    {
      "inputs": [
        {
          "internalType": "uint256",
          "name": "_batchId",
          "type": "uint256"
        },
        {
          "internalType": "uint256",
          "name": "_participantId",
          "type": "uint256"
        },
        {
          "internalType": "uint8",
          "name": "_actionCode",
          "type": "uint8"
        },
        {
          "internalType": "int8",
          "name": "_temperature",
          "type": "int8"
        },
        {
          "internalType": "uint8",
          "name": "_humidity",
          "type": "uint8"
        }
      ],
      "name": "updateTransportStatus",
      "outputs": [],
      "stateMutability": "nonpayable",
      "type": "function"
    },
    {
      "inputs": [
        {
          "internalType": "uint256",
          "name": "_batchId",
          "type": "uint256"
        },
        {
          "internalType": "uint256",
          "name": "_participantId",
          "type": "uint256"
        },
        {
          "internalType": "string",
          "name": "_action",
          "type": "string"
        },
        {
          "internalType": "string",
          "name": "_location",
          "type": "string"
        },
        {
          "internalType": "string",
          "name": "_participantType",
          "type": "string"
        }
      ],
      "name": "addTransportDetails",
      "outputs": [],
      "stateMutability": "nonpayable",
      "type": "function"
    },
    {
      "inputs": [
        {
          "internalType": "uint256",
          "name": "_batchId",
          "type": "uint256"
        },
        {
          "internalType": "uint256",
          "name": "_processorId",
          "type": "uint256"
        },
        {
          "internalType": "enum TraceabilityContract.ProcessingMethod",
          "name": "_method",
          "type": "uint8"
        },
        {
          "internalType": "uint256",
          "name": "_inputWeight",
          "type": "uint256"
        },
        {
          "internalType": "uint256",
          "name": "_outputWeight",
          "type": "uint256"
        }
      ],
      "name": "recordProcessing",
      "outputs": [
        {
          "internalType": "uint256",
          "name": "",
          "type": "uint256"
        }
      ],
      "stateMutability": "nonpayable",
      "type": "function"
    },
    {
      "inputs": [
        {
          "internalType": "uint256",
          "name": "_processingId",
          "type": "uint256"
        },
        {
          "internalType": "string",
          "name": "_methodDescription",
          "type": "string"
        },
        {
          "internalType": "string",
          "name": "_notes",
          "type": "string"
        }
      ],
      "name": "addProcessingDetails",
      "outputs": [],
      "stateMutability": "nonpayable",
      "type": "function"
    },
    {
      "inputs": [
        {
          "internalType": "uint256",
          "name": "_batchId",
          "type": "uint256"
        },
        {
          "internalType": "uint256",
          "name": "_inspectorId",
          "type": "uint256"
        },
        {
          "internalType": "bool",
          "name": "_passed",
          "type": "bool"
        }
      ],
      "name": "recordQualityTest",
      "outputs": [
        {
          "internalType": "uint256",
          "name": "",
          "type": "uint256"
        }
      ],
      "stateMutability": "nonpayable",
      "type": "function"
    },
    {
      "inputs": [
        {
          "internalType": "uint256",
          "name": "_testId",
          "type": "uint256"
        },
        {
          "internalType": "uint256",
          "name": "_batchId",
          "type": "uint256"
        },
        {
          "internalType": "string",
          "name": "_testType",
          "type": "string"
        },
        {
          "internalType": "string",
          "name": "_testMethod",
          "type": "string"
        },
        {
          "internalType": "string",
          "name": "_result",
          "type": "string"
        },
        {
          "internalType": "string",
          "name": "_standard",
          "type": "string"
        }
      ],
      "name": "addQualityTestDetails",
      "outputs": [],
      "stateMutability": "nonpayable",
      "type": "function"
    },
    {
      "inputs": [
        {
          "internalType": "uint256",
          "name": "_batchId",
          "type": "uint256"
        },
        {
          "internalType": "uint256",
          "name": "_warehouseId",
          "type": "uint256"
        }
      ],
      "name": "warehouseConfirmation",
      "outputs": [],
      "stateMutability": "nonpayable",
      "type": "function"
    },
    {
      "inputs": [
        {
          "internalType": "uint256",
          "name": "_batchId",
          "type": "uint256"
        }
      ],
      "name": "getBatchDetails",
      "outputs": [
        {
          "components": [
            {
              "internalType": "uint256",
              "name": "batchId",
              "type": "uint256"
            },
            {
              "internalType": "string",
              "name": "sscc",
              "type": "string"
            },
            {
              "internalType": "uint256",
              "name": "producerId",
              "type": "uint256"
            },
            {
              "internalType": "uint256",
              "name": "productionDate",
              "type": "uint256"
            },
            {
              "internalType": "uint256",
              "name": "startDate",
              "type": "uint256"
            },
            {
              "internalType": "uint256",
              "name": "endDate",
              "type": "uint256"
            },
            {
              "internalType": "enum TraceabilityContract.BatchStatus",
              "name": "status",
              "type": "uint8"
            },
            {
              "internalType": "bytes32",
              "name": "dataHash",
              "type": "bytes32"
            },
            {
              "internalType": "uint256",
              "name": "productTypeId",
              "type": "uint256"
            },
            {
              "internalType": "enum TraceabilityContract.SupplyChainStage",
              "name": "currentStage",
              "type": "uint8"
            },
            {
              "internalType": "enum TraceabilityContract.TransportStatus",
              "name": "transportStatus",
              "type": "uint8"
            },
            {
              "internalType": "enum TraceabilityContract.DetailedTransportStatus",
              "name": "detailedTransportStatus",
              "type": "uint8"
            },
            {
              "internalType": "uint256",
              "name": "purchaserId",
              "type": "uint256"
            },
            {
              "internalType": "uint256",
              "name": "processorId",
              "type": "uint256"
            },
            {
              "internalType": "uint256",
              "name": "qualityInspectorId",
              "type": "uint256"
            },
            {
              "internalType": "uint256",
              "name": "lastTransporterId",
              "type": "uint256"
            },
            {
              "internalType": "uint256",
              "name": "totalProducts",
              "type": "uint256"
            }
          ],
          "internalType": "struct TraceabilityContract.Batch",
          "name": "",
          "type": "tuple"
        }
      ],
      "stateMutability": "view",
      "type": "function",
      "constant": true
    },
    {
      "inputs": [
        {
          "internalType": "string",
          "name": "_sscc",
          "type": "string"
        }
      ],
      "name": "getBatchBySSCC",
      "outputs": [
        {
          "components": [
            {
              "internalType": "uint256",
              "name": "batchId",
              "type": "uint256"
            },
            {
              "internalType": "string",
              "name": "sscc",
              "type": "string"
            },
            {
              "internalType": "uint256",
              "name": "producerId",
              "type": "uint256"
            },
            {
              "internalType": "uint256",
              "name": "productionDate",
              "type": "uint256"
            },
            {
              "internalType": "uint256",
              "name": "startDate",
              "type": "uint256"
            },
            {
              "internalType": "uint256",
              "name": "endDate",
              "type": "uint256"
            },
            {
              "internalType": "enum TraceabilityContract.BatchStatus",
              "name": "status",
              "type": "uint8"
            },
            {
              "internalType": "bytes32",
              "name": "dataHash",
              "type": "bytes32"
            },
            {
              "internalType": "uint256",
              "name": "productTypeId",
              "type": "uint256"
            },
            {
              "internalType": "enum TraceabilityContract.SupplyChainStage",
              "name": "currentStage",
              "type": "uint8"
            },
            {
              "internalType": "enum TraceabilityContract.TransportStatus",
              "name": "transportStatus",
              "type": "uint8"
            },
            {
              "internalType": "enum TraceabilityContract.DetailedTransportStatus",
              "name": "detailedTransportStatus",
              "type": "uint8"
            },
            {
              "internalType": "uint256",
              "name": "purchaserId",
              "type": "uint256"
            },
            {
              "internalType": "uint256",
              "name": "processorId",
              "type": "uint256"
            },
            {
              "internalType": "uint256",
              "name": "qualityInspectorId",
              "type": "uint256"
            },
            {
              "internalType": "uint256",
              "name": "lastTransporterId",
              "type": "uint256"
            },
            {
              "internalType": "uint256",
              "name": "totalProducts",
              "type": "uint256"
            }
          ],
          "internalType": "struct TraceabilityContract.Batch",
          "name": "",
          "type": "tuple"
        }
      ],
      "stateMutability": "view",
      "type": "function",
      "constant": true
    },
    {
      "inputs": [
        {
          "internalType": "string",
          "name": "_sscc",
          "type": "string"
        }
      ],
      "name": "getBatchIdBySSCC",
      "outputs": [
        {
          "internalType": "uint256",
          "name": "",
          "type": "uint256"
        }
      ],
      "stateMutability": "view",
      "type": "function",
      "constant": true
    },
    {
      "inputs": [
        {
          "internalType": "uint256",
          "name": "_batchId",
          "type": "uint256"
        }
      ],
      "name": "isBatchApproved",
      "outputs": [
        {
          "internalType": "bool",
          "name": "",
          "type": "bool"
        }
      ],
      "stateMutability": "view",
      "type": "function",
      "constant": true
    },
    {
      "inputs": [
        {
          "internalType": "uint256",
          "name": "_batchId",
          "type": "uint256"
        }
      ],
      "name": "getCurrentStage",
      "outputs": [
        {
          "internalType": "enum TraceabilityContract.SupplyChainStage",
          "name": "",
          "type": "uint8"
        }
      ],
      "stateMutability": "view",
      "type": "function",
      "constant": true
    },
    {
      "inputs": [
        {
          "internalType": "uint256",
          "name": "_batchId",
          "type": "uint256"
        }
      ],
      "name": "getBatchTransportStatus",
      "outputs": [
        {
          "internalType": "enum TraceabilityContract.TransportStatus",
          "name": "",
          "type": "uint8"
        }
      ],
      "stateMutability": "view",
      "type": "function",
      "constant": true
    },
    {
      "inputs": [
        {
          "internalType": "uint256",
          "name": "_batchId",
          "type": "uint256"
        }
      ],
      "name": "getDetailedTransportStatus",
      "outputs": [
        {
          "internalType": "enum TraceabilityContract.DetailedTransportStatus",
          "name": "",
          "type": "uint8"
        }
      ],
      "stateMutability": "view",
      "type": "function",
      "constant": true
    },
    {
      "inputs": [],
      "name": "getTotalBatches",
      "outputs": [
        {
          "internalType": "uint256",
          "name": "",
          "type": "uint256"
        }
      ],
      "stateMutability": "view",
      "type": "function",
      "constant": true
    },
    {
      "inputs": [
        {
          "internalType": "string",
          "name": "_productQR",
          "type": "string"
        }
      ],
      "name": "getProductByQR",
      "outputs": [
        {
          "components": [
            {
              "internalType": "uint256",
              "name": "productId",
              "type": "uint256"
            },
            {
              "internalType": "uint256",
              "name": "batchId",
              "type": "uint256"
            },
            {
              "internalType": "string",
              "name": "productQRCode",
              "type": "string"
            },
            {
              "internalType": "uint256",
              "name": "packagedDate",
              "type": "uint256"
            },
            {
              "internalType": "uint256",
              "name": "weight",
              "type": "uint256"
            },
            {
              "internalType": "bool",
              "name": "isActive",
              "type": "bool"
            }
          ],
          "internalType": "struct TraceabilityContract.Product",
          "name": "",
          "type": "tuple"
        }
      ],
      "stateMutability": "view",
      "type": "function",
      "constant": true
    },
    {
      "inputs": [
        {
          "internalType": "uint256",
          "name": "_productId",
          "type": "uint256"
        }
      ],
      "name": "getProductDetails",
      "outputs": [
        {
          "components": [
            {
              "internalType": "uint256",
              "name": "productId",
              "type": "uint256"
            },
            {
              "internalType": "uint256",
              "name": "batchId",
              "type": "uint256"
            },
            {
              "internalType": "string",
              "name": "productQRCode",
              "type": "string"
            },
            {
              "internalType": "uint256",
              "name": "packagedDate",
              "type": "uint256"
            },
            {
              "internalType": "uint256",
              "name": "weight",
              "type": "uint256"
            },
            {
              "internalType": "bool",
              "name": "isActive",
              "type": "bool"
            }
          ],
          "internalType": "struct TraceabilityContract.Product",
          "name": "",
          "type": "tuple"
        }
      ],
      "stateMutability": "view",
      "type": "function",
      "constant": true
    },
    {
      "inputs": [],
      "name": "getTotalProducts",
      "outputs": [
        {
          "internalType": "uint256",
          "name": "",
          "type": "uint256"
        }
      ],
      "stateMutability": "view",
      "type": "function",
      "constant": true
    },
    {
      "inputs": [
        {
          "internalType": "uint256",
          "name": "_batchId",
          "type": "uint256"
        }
      ],
      "name": "getBatchProductCount",
      "outputs": [
        {
          "internalType": "uint256",
          "name": "",
          "type": "uint256"
        }
      ],
      "stateMutability": "view",
      "type": "function",
      "constant": true
    },
    {
      "inputs": [
        {
          "internalType": "uint256",
          "name": "_batchId",
          "type": "uint256"
        }
      ],
      "name": "getPurchaseRecord",
      "outputs": [
        {
          "components": [
            {
              "internalType": "uint256",
              "name": "purchaseId",
              "type": "uint256"
            },
            {
              "internalType": "uint256",
              "name": "batchId",
              "type": "uint256"
            },
            {
              "internalType": "uint256",
              "name": "purchaserId",
              "type": "uint256"
            },
            {
              "internalType": "uint256",
              "name": "farmerId",
              "type": "uint256"
            },
            {
              "internalType": "uint256",
              "name": "purchaseDate",
              "type": "uint256"
            },
            {
              "internalType": "uint256",
              "name": "totalQuantity",
              "type": "uint256"
            },
            {
              "internalType": "uint256",
              "name": "pricePerUnit",
              "type": "uint256"
            },
            {
              "internalType": "uint256",
              "name": "totalPrice",
              "type": "uint256"
            },
            {
              "internalType": "bool",
              "name": "isConfirmed",
              "type": "bool"
            }
          ],
          "internalType": "struct TraceabilityContract.PurchaseRecord",
          "name": "",
          "type": "tuple"
        }
      ],
      "stateMutability": "view",
      "type": "function",
      "constant": true
    },
    {
      "inputs": [
        {
          "internalType": "uint256",
          "name": "_batchId",
          "type": "uint256"
        }
      ],
      "name": "getProcessingRecord",
      "outputs": [
        {
          "components": [
            {
              "internalType": "uint256",
              "name": "processingId",
              "type": "uint256"
            },
            {
              "internalType": "uint256",
              "name": "batchId",
              "type": "uint256"
            },
            {
              "internalType": "uint256",
              "name": "processorId",
              "type": "uint256"
            },
            {
              "internalType": "uint256",
              "name": "processingDate",
              "type": "uint256"
            },
            {
              "internalType": "enum TraceabilityContract.ProcessingMethod",
              "name": "method",
              "type": "uint8"
            },
            {
              "internalType": "uint256",
              "name": "inputWeight",
              "type": "uint256"
            },
            {
              "internalType": "uint256",
              "name": "outputWeight",
              "type": "uint256"
            }
          ],
          "internalType": "struct TraceabilityContract.ProcessingRecord",
          "name": "",
          "type": "tuple"
        }
      ],
      "stateMutability": "view",
      "type": "function",
      "constant": true
    },
    {
      "inputs": [
        {
          "internalType": "uint256",
          "name": "_batchId",
          "type": "uint256"
        }
      ],
      "name": "getBatchQualityTests",
      "outputs": [
        {
          "components": [
            {
              "internalType": "uint256",
              "name": "testId",
              "type": "uint256"
            },
            {
              "internalType": "uint256",
              "name": "batchId",
              "type": "uint256"
            },
            {
              "internalType": "uint256",
              "name": "inspectorId",
              "type": "uint256"
            },
            {
              "internalType": "uint256",
              "name": "testDate",
              "type": "uint256"
            },
            {
              "internalType": "bool",
              "name": "passed",
              "type": "bool"
            },
            {
              "internalType": "bytes32",
              "name": "resultHash",
              "type": "bytes32"
            }
          ],
          "internalType": "struct TraceabilityContract.QualityTest[]",
          "name": "",
          "type": "tuple[]"
        }
      ],
      "stateMutability": "view",
      "type": "function",
      "constant": true
    },
    {
      "inputs": [
        {
          "internalType": "uint256",
          "name": "_batchId",
          "type": "uint256"
        }
      ],
      "name": "getLatestQualityTest",
      "outputs": [
        {
          "components": [
            {
              "internalType": "uint256",
              "name": "testId",
              "type": "uint256"
            },
            {
              "internalType": "uint256",
              "name": "batchId",
              "type": "uint256"
            },
            {
              "internalType": "uint256",
              "name": "inspectorId",
              "type": "uint256"
            },
            {
              "internalType": "uint256",
              "name": "testDate",
              "type": "uint256"
            },
            {
              "internalType": "bool",
              "name": "passed",
              "type": "bool"
            },
            {
              "internalType": "bytes32",
              "name": "resultHash",
              "type": "bytes32"
            }
          ],
          "internalType": "struct TraceabilityContract.QualityTest",
          "name": "",
          "type": "tuple"
        }
      ],
      "stateMutability": "view",
      "type": "function",
      "constant": true
    },
    {
      "inputs": [
        {
          "internalType": "uint256",
          "name": "_batchId",
          "type": "uint256"
        }
      ],
      "name": "getTransportEvents",
      "outputs": [
        {
          "components": [
            {
              "internalType": "uint256",
              "name": "participantId",
              "type": "uint256"
            },
            {
              "internalType": "uint256",
              "name": "timestamp",
              "type": "uint256"
            },
            {
              "internalType": "uint8",
              "name": "actionCode",
              "type": "uint8"
            },
            {
              "internalType": "int8",
              "name": "temperature",
              "type": "int8"
            },
            {
              "internalType": "uint8",
              "name": "humidity",
              "type": "uint8"
            }
          ],
          "internalType": "struct TraceabilityContract.TransportEvent[]",
          "name": "",
          "type": "tuple[]"
        }
      ],
      "stateMutability": "view",
      "type": "function",
      "constant": true
    },
    {
      "inputs": [
        {
          "internalType": "string",
          "name": "_sscc",
          "type": "string"
        }
      ],
      "name": "getTransportHistoryBySSCC",
      "outputs": [
        {
          "components": [
            {
              "internalType": "uint256",
              "name": "participantId",
              "type": "uint256"
            },
            {
              "internalType": "uint256",
              "name": "timestamp",
              "type": "uint256"
            },
            {
              "internalType": "uint8",
              "name": "actionCode",
              "type": "uint8"
            },
            {
              "internalType": "int8",
              "name": "temperature",
              "type": "int8"
            },
            {
              "internalType": "uint8",
              "name": "humidity",
              "type": "uint8"
            }
          ],
          "internalType": "struct TraceabilityContract.TransportEvent[]",
          "name": "",
          "type": "tuple[]"
        }
      ],
      "stateMutability": "view",
      "type": "function",
      "constant": true
    },
    {
      "inputs": [
        {
          "internalType": "uint256",
          "name": "_batchId",
          "type": "uint256"
        },
        {
          "internalType": "uint256",
          "name": "_warehouseId",
          "type": "uint256"
        }
      ],
      "name": "isWarehouseConfirmed",
      "outputs": [
        {
          "internalType": "bool",
          "name": "",
          "type": "bool"
        }
      ],
      "stateMutability": "view",
      "type": "function",
      "constant": true
    },
    {
      "inputs": [
        {
          "internalType": "uint256",
          "name": "_batchId",
          "type": "uint256"
        }
      ],
      "name": "getActivityLogs",
      "outputs": [
        {
          "components": [
            {
              "internalType": "uint256",
              "name": "logId",
              "type": "uint256"
            },
            {
              "internalType": "uint256",
              "name": "batchId",
              "type": "uint256"
            },
            {
              "internalType": "uint256",
              "name": "treeId",
              "type": "uint256"
            },
            {
              "internalType": "uint256",
              "name": "participantId",
              "type": "uint256"
            },
            {
              "internalType": "uint256",
              "name": "timestamp",
              "type": "uint256"
            },
            {
              "internalType": "enum ActivityLog.ActivityCategory",
              "name": "category",
              "type": "uint8"
            },
            {
              "internalType": "bool",
              "name": "isSystemActivity",
              "type": "bool"
            },
            {
              "internalType": "bytes32",
              "name": "dataHash",
              "type": "bytes32"
            }
          ],
          "internalType": "struct ActivityLog.ActivityLogEntry[]",
          "name": "",
          "type": "tuple[]"
        }
      ],
      "stateMutability": "view",
      "type": "function",
      "constant": true
    },
    {
      "inputs": [
        {
          "internalType": "uint256",
          "name": "_batchId",
          "type": "uint256"
        }
      ],
      "name": "getSystemActivityLogs",
      "outputs": [
        {
          "components": [
            {
              "internalType": "uint256",
              "name": "logId",
              "type": "uint256"
            },
            {
              "internalType": "uint256",
              "name": "batchId",
              "type": "uint256"
            },
            {
              "internalType": "uint256",
              "name": "treeId",
              "type": "uint256"
            },
            {
              "internalType": "uint256",
              "name": "participantId",
              "type": "uint256"
            },
            {
              "internalType": "uint256",
              "name": "timestamp",
              "type": "uint256"
            },
            {
              "internalType": "enum ActivityLog.ActivityCategory",
              "name": "category",
              "type": "uint8"
            },
            {
              "internalType": "bool",
              "name": "isSystemActivity",
              "type": "bool"
            },
            {
              "internalType": "bytes32",
              "name": "dataHash",
              "type": "bytes32"
            }
          ],
          "internalType": "struct ActivityLog.ActivityLogEntry[]",
          "name": "",
          "type": "tuple[]"
        }
      ],
      "stateMutability": "view",
      "type": "function",
      "constant": true
    },
    {
      "inputs": [
        {
          "internalType": "uint256",
          "name": "_producerId",
          "type": "uint256"
        }
      ],
      "name": "getBatchesByProducer",
      "outputs": [
        {
          "components": [
            {
              "internalType": "uint256",
              "name": "batchId",
              "type": "uint256"
            },
            {
              "internalType": "string",
              "name": "sscc",
              "type": "string"
            },
            {
              "internalType": "uint256",
              "name": "producerId",
              "type": "uint256"
            },
            {
              "internalType": "uint256",
              "name": "productionDate",
              "type": "uint256"
            },
            {
              "internalType": "uint256",
              "name": "startDate",
              "type": "uint256"
            },
            {
              "internalType": "uint256",
              "name": "endDate",
              "type": "uint256"
            },
            {
              "internalType": "enum TraceabilityContract.BatchStatus",
              "name": "status",
              "type": "uint8"
            },
            {
              "internalType": "bytes32",
              "name": "dataHash",
              "type": "bytes32"
            },
            {
              "internalType": "uint256",
              "name": "productTypeId",
              "type": "uint256"
            },
            {
              "internalType": "enum TraceabilityContract.SupplyChainStage",
              "name": "currentStage",
              "type": "uint8"
            },
            {
              "internalType": "enum TraceabilityContract.TransportStatus",
              "name": "transportStatus",
              "type": "uint8"
            },
            {
              "internalType": "enum TraceabilityContract.DetailedTransportStatus",
              "name": "detailedTransportStatus",
              "type": "uint8"
            },
            {
              "internalType": "uint256",
              "name": "purchaserId",
              "type": "uint256"
            },
            {
              "internalType": "uint256",
              "name": "processorId",
              "type": "uint256"
            },
            {
              "internalType": "uint256",
              "name": "qualityInspectorId",
              "type": "uint256"
            },
            {
              "internalType": "uint256",
              "name": "lastTransporterId",
              "type": "uint256"
            },
            {
              "internalType": "uint256",
              "name": "totalProducts",
              "type": "uint256"
            }
          ],
          "internalType": "struct TraceabilityContract.Batch[]",
          "name": "",
          "type": "tuple[]"
        }
      ],
      "stateMutability": "view",
      "type": "function",
      "constant": true
    },
    {
      "inputs": [
        {
          "internalType": "enum TraceabilityContract.SupplyChainStage",
          "name": "_stage",
          "type": "uint8"
        }
      ],
      "name": "getBatchesByStage",
      "outputs": [
        {
          "components": [
            {
              "internalType": "uint256",
              "name": "batchId",
              "type": "uint256"
            },
            {
              "internalType": "string",
              "name": "sscc",
              "type": "string"
            },
            {
              "internalType": "uint256",
              "name": "producerId",
              "type": "uint256"
            },
            {
              "internalType": "uint256",
              "name": "productionDate",
              "type": "uint256"
            },
            {
              "internalType": "uint256",
              "name": "startDate",
              "type": "uint256"
            },
            {
              "internalType": "uint256",
              "name": "endDate",
              "type": "uint256"
            },
            {
              "internalType": "enum TraceabilityContract.BatchStatus",
              "name": "status",
              "type": "uint8"
            },
            {
              "internalType": "bytes32",
              "name": "dataHash",
              "type": "bytes32"
            },
            {
              "internalType": "uint256",
              "name": "productTypeId",
              "type": "uint256"
            },
            {
              "internalType": "enum TraceabilityContract.SupplyChainStage",
              "name": "currentStage",
              "type": "uint8"
            },
            {
              "internalType": "enum TraceabilityContract.TransportStatus",
              "name": "transportStatus",
              "type": "uint8"
            },
            {
              "internalType": "enum TraceabilityContract.DetailedTransportStatus",
              "name": "detailedTransportStatus",
              "type": "uint8"
            },
            {
              "internalType": "uint256",
              "name": "purchaserId",
              "type": "uint256"
            },
            {
              "internalType": "uint256",
              "name": "processorId",
              "type": "uint256"
            },
            {
              "internalType": "uint256",
              "name": "qualityInspectorId",
              "type": "uint256"
            },
            {
              "internalType": "uint256",
              "name": "lastTransporterId",
              "type": "uint256"
            },
            {
              "internalType": "uint256",
              "name": "totalProducts",
              "type": "uint256"
            }
          ],
          "internalType": "struct TraceabilityContract.Batch[]",
          "name": "",
          "type": "tuple[]"
        }
      ],
      "stateMutability": "view",
      "type": "function",
      "constant": true
    },
    {
      "inputs": [],
      "name": "getAllPendingBatches",
      "outputs": [
        {
          "components": [
            {
              "internalType": "uint256",
              "name": "batchId",
              "type": "uint256"
            },
            {
              "internalType": "string",
              "name": "sscc",
              "type": "string"
            },
            {
              "internalType": "uint256",
              "name": "producerId",
              "type": "uint256"
            },
            {
              "internalType": "uint256",
              "name": "productionDate",
              "type": "uint256"
            },
            {
              "internalType": "uint256",
              "name": "startDate",
              "type": "uint256"
            },
            {
              "internalType": "uint256",
              "name": "endDate",
              "type": "uint256"
            },
            {
              "internalType": "enum TraceabilityContract.BatchStatus",
              "name": "status",
              "type": "uint8"
            },
            {
              "internalType": "bytes32",
              "name": "dataHash",
              "type": "bytes32"
            },
            {
              "internalType": "uint256",
              "name": "productTypeId",
              "type": "uint256"
            },
            {
              "internalType": "enum TraceabilityContract.SupplyChainStage",
              "name": "currentStage",
              "type": "uint8"
            },
            {
              "internalType": "enum TraceabilityContract.TransportStatus",
              "name": "transportStatus",
              "type": "uint8"
            },
            {
              "internalType": "enum TraceabilityContract.DetailedTransportStatus",
              "name": "detailedTransportStatus",
              "type": "uint8"
            },
            {
              "internalType": "uint256",
              "name": "purchaserId",
              "type": "uint256"
            },
            {
              "internalType": "uint256",
              "name": "processorId",
              "type": "uint256"
            },
            {
              "internalType": "uint256",
              "name": "qualityInspectorId",
              "type": "uint256"
            },
            {
              "internalType": "uint256",
              "name": "lastTransporterId",
              "type": "uint256"
            },
            {
              "internalType": "uint256",
              "name": "totalProducts",
              "type": "uint256"
            }
          ],
          "internalType": "struct TraceabilityContract.Batch[]",
          "name": "",
          "type": "tuple[]"
        }
      ],
      "stateMutability": "view",
      "type": "function",
      "constant": true
    },
    {
      "inputs": [
        {
          "internalType": "uint256",
          "name": "_producerId",
          "type": "uint256"
        }
      ],
      "name": "getApprovedBatchesByProducer",
      "outputs": [
        {
          "components": [
            {
              "internalType": "uint256",
              "name": "batchId",
              "type": "uint256"
            },
            {
              "internalType": "string",
              "name": "sscc",
              "type": "string"
            },
            {
              "internalType": "uint256",
              "name": "producerId",
              "type": "uint256"
            },
            {
              "internalType": "uint256",
              "name": "productionDate",
              "type": "uint256"
            },
            {
              "internalType": "uint256",
              "name": "startDate",
              "type": "uint256"
            },
            {
              "internalType": "uint256",
              "name": "endDate",
              "type": "uint256"
            },
            {
              "internalType": "enum TraceabilityContract.BatchStatus",
              "name": "status",
              "type": "uint8"
            },
            {
              "internalType": "bytes32",
              "name": "dataHash",
              "type": "bytes32"
            },
            {
              "internalType": "uint256",
              "name": "productTypeId",
              "type": "uint256"
            },
            {
              "internalType": "enum TraceabilityContract.SupplyChainStage",
              "name": "currentStage",
              "type": "uint8"
            },
            {
              "internalType": "enum TraceabilityContract.TransportStatus",
              "name": "transportStatus",
              "type": "uint8"
            },
            {
              "internalType": "enum TraceabilityContract.DetailedTransportStatus",
              "name": "detailedTransportStatus",
              "type": "uint8"
            },
            {
              "internalType": "uint256",
              "name": "purchaserId",
              "type": "uint256"
            },
            {
              "internalType": "uint256",
              "name": "processorId",
              "type": "uint256"
            },
            {
              "internalType": "uint256",
              "name": "qualityInspectorId",
              "type": "uint256"
            },
            {
              "internalType": "uint256",
              "name": "lastTransporterId",
              "type": "uint256"
            },
            {
              "internalType": "uint256",
              "name": "totalProducts",
              "type": "uint256"
            }
          ],
          "internalType": "struct TraceabilityContract.Batch[]",
          "name": "",
          "type": "tuple[]"
        }
      ],
      "stateMutability": "view",
      "type": "function",
      "constant": true
    },
    {
      "inputs": [
        {
          "internalType": "string",
          "name": "_sscc",
          "type": "string"
        }
      ],
      "name": "ssccExists",
      "outputs": [
        {
          "internalType": "bool",
          "name": "",
          "type": "bool"
        }
      ],
      "stateMutability": "view",
      "type": "function",
      "constant": true
    },
    {
      "inputs": [
        {
          "internalType": "string",
          "name": "_productQR",
          "type": "string"
        }
      ],
      "name": "productQRExists",
      "outputs": [
        {
          "internalType": "bool",
          "name": "",
          "type": "bool"
        }
      ],
      "stateMutability": "view",
      "type": "function",
      "constant": true
    },
    {
      "inputs": [
        {
          "internalType": "uint256",
          "name": "_batchId",
          "type": "uint256"
        },
        {
          "internalType": "uint256",
          "name": "_producerId",
          "type": "uint256"
        }
      ],
      "name": "isProducerOfBatch",
      "outputs": [
        {
          "internalType": "bool",
          "name": "",
          "type": "bool"
        }
      ],
      "stateMutability": "view",
      "type": "function",
      "constant": true
    },
    {
      "inputs": [
        {
          "internalType": "uint256",
          "name": "_batchId",
          "type": "uint256"
        },
        {
          "internalType": "string",
          "name": "_sscc",
          "type": "string"
        },
        {
          "internalType": "uint256",
          "name": "_producerId",
          "type": "uint256"
        },
        {
          "internalType": "string",
          "name": "_quantity",
          "type": "string"
        },
        {
          "internalType": "uint256",
          "name": "_productionDate",
          "type": "uint256"
        },
        {
          "internalType": "string",
          "name": "_farmPlotNumber",
          "type": "string"
        },
        {
          "internalType": "uint256",
          "name": "_productTypeId",
          "type": "uint256"
        },
        {
          "internalType": "string",
          "name": "_name",
          "type": "string"
        }
      ],
      "name": "verifyBatchDataHash",
      "outputs": [
        {
          "internalType": "bool",
          "name": "",
          "type": "bool"
        }
      ],
      "stateMutability": "view",
      "type": "function",
      "constant": true
    }
  ],
  "bytecode": "0x608060405234801562000010575f80fd5b5060405162005460380380620054608339810160408190526200003391620000b3565b6001600160a01b0381166200008e5760405162461bcd60e51b815260206004820152601b60248201527f496e76616c69642041637469766974794c6f6720616464726573730000000000604482015260640160405180910390fd5b5f80546001600160a01b0319166001600160a01b0392909216919091179055620000e2565b5f60208284031215620000c4575f80fd5b81516001600160a01b0381168114620000db575f80fd5b9392505050565b61537080620000f05f395ff3fe608060405234801561000f575f80fd5b5060043610610255575f3560e01c80637999095d11610140578063afb080c2116100bf578063d043b84311610084578063d043b84314610647578063d9860bfc1461065a578063e114238e1461066d578063e561dddc14610680578063e80e59c814610688578063f9b8da0e1461069b575f80fd5b8063afb080c2146105db578063c1f05ee2146105fb578063c529b67e1461060e578063c84a9efb14610621578063c9cb423614610634575f80fd5b80639d47dcc0116101055780639d47dcc014610562578063a312c9b514610582578063a7732c9614610595578063ad2cb614146105b5578063aea3c0cd146105c8575f80fd5b80637999095d146104dc57806380e32d45146104ef57806381f7d4e0146105025780639491aba21461052f57806397ae6a0e14610542575f80fd5b80633abb5afb116101d7578063570aea8a1161019c578063570aea8a146104055780635aa825aa1461040d5780636813b53b146104155780636b0ba8da146104355780636ff8f2f714610448578063770ef84b146104c9575f80fd5b80633abb5afb1461038c5780633e2396861461039f5780633e4910f6146103b25780634e1abcd2146103d257806351293c85146103e5575f80fd5b806319d6ed3c1161021d57806319d6ed3c146103045780631bb93d1e146103175780631cb8241d146103375780632458d472146103575780633268e8e914610377575f80fd5b806304008078146102595780630718fc15146102815780630772d2d7146102a15780630d82dcf4146102c25780630e6e369c146102e4575b5f80fd5b61026c610267366004613f07565b6106bf565b60405190151581526020015b60405180910390f35b61029461028f366004613f38565b6106e8565b6040516102789190613f4f565b6102b46102af366004613f38565b610867565b604051908152602001610278565b61026c6102d0366004613f38565b5f9081526008602052604090205460ff1690565b6102f76102f2366004613f38565b6108ab565b6040516102789190613fa8565b6102b4610312366004613f07565b61091f565b61032a610325366004613f07565b610946565b6040516102789190614046565b61034a610345366004613f38565b610a46565b60405161027891906140d1565b61036a610365366004613f38565b610b64565b6040516102789190614137565b61038a610385366004614145565b610bab565b005b6102f761039a366004613f38565b610bea565b6102b46103ad3660046141ac565b610c1b565b6103c56103c036600461425a565b610e6c565b60405161027891906142e5565b61038a6103e0366004614328565b61101f565b6103f86103f33660046143de565b611116565b604051610278919061456d565b6002546102b4565b6103f8611463565b610428610423366004613f38565b61178b565b60405161027891906145cd565b61038a610443366004614628565b6118fb565b61045b610456366004613f38565b611acc565b60405161027891905f61012082019050825182526020830151602083015260408301516040830152606083015160608301526080830151608083015260a083015160a083015260c083015160c083015260e083015160e0830152610100808401511515818401525092915050565b61038a6104d736600461465d565b611c10565b61038a6104ea366004614145565b611f39565b6103f86104fd366004613f38565b611f6b565b61026c610510366004614628565b5f918252600f6020908152604080842092845291905290205460ff1690565b61026c61053d3660046146b6565b612266565b610555610550366004613f38565b6122bc565b6040516102789190614780565b610575610570366004613f38565b612309565b604051610278919061478e565b61038a6105903660046147a0565b612540565b6105a86105a3366004613f38565b612585565b6040516102789190614834565b61026c6105c3366004613f07565b6125d1565b61038a6105d6366004614847565b6125e2565b6105ee6105e9366004613f38565b612715565b6040516102789190614888565b6102b4610609366004614900565b6127da565b61032a61061c366004613f38565b612aa9565b6102b461062f36600461498f565b612b66565b6102b46106423660046149c5565b612dfb565b6103f8610655366004613f38565b613000565b610575610668366004613f07565b61335d565b61038a61067b366004614628565b6133fe565b6001546102b4565b610428610696366004613f07565b61355e565b61026c6106a9366004614628565b5f91825260066020526040909120600201541490565b5f6007826040516106d09190614a28565b90815260405190819003602001902054151592915050565b6107206040518060c001604052805f81526020015f81526020015f81526020015f81526020015f151581526020015f80191681525090565b5f828152600660205260408120548391036107565760405162461bcd60e51b815260040161074d90614a43565b60405180910390fd5b5f838152600d6020908152604080832080548251818502810185019093528083529192909190849084015b828210156107ed575f8481526020908190206040805160c08101825260068602909201805483526001808201548486015260028201549284019290925260038101546060840152600481015460ff16151560808401526005015460a08301529083529092019101610781565b5050505090505f8151116108365760405162461bcd60e51b815260206004820152601060248201526f4e6f207175616c69747920746573747360801b604482015260640161074d565b80600182516108459190614a81565b8151811061085557610855614a94565b60200260200101519250505b50919050565b5f81815260066020526040812054829082036108955760405162461bcd60e51b815260040161074d90614a43565b50505f908152600660205260409020600e015490565b5f5460405163039b8da760e21b8152600481018390526060916001600160a01b031690630e6e369c906024015b5f60405180830381865afa1580156108f2573d5f803e3d5ffd5b505050506040513d5f823e601f3d908101601f191682016040526109199190810190614ab3565b92915050565b5f6007826040516109309190614a28565b9081526020016040518091039020549050919050565b60605f6007836040516109599190614a28565b9081526020016040518091039020549050805f036109ab5760405162461bcd60e51b815260206004820152600f60248201526e10985d18da081b9bdd08199bdd5b99608a1b604482015260640161074d565b5f818152600e6020908152604080832080548251818502810185019093528083529193909284015b82821015610a3a575f84815260208082206040805160a08101825260038702909201805483526001808201548486015260029091015460ff80821693850193909352610100810490950b6060840152620100009094041660808201528352920191016109d3565b50505050915050919050565b610a4e613d5e565b5f82815260066020526040812054839103610a7b5760405162461bcd60e51b815260040161074d90614a43565b5f838152600c60205260408120549003610ace5760405162461bcd60e51b8152602060048201526014602482015273139bc81c1c9bd8d95cdcda5b99c81c9958dbdc9960621b604482015260640161074d565b600c5f8481526020019081526020015f206040518060e00160405290815f8201548152602001600182015481526020016002820154815260200160038201548152602001600482015f9054906101000a900460ff166004811115610b3457610b34613f94565b6004811115610b4557610b45613f94565b8152600582015460208201526006909101546040909101529392505050565b5f8181526006602052604081205482908203610b925760405162461bcd60e51b815260040161074d90614a43565b50505f9081526006602052604090206009015460ff1690565b827f1e99aba022e8a4136ee1fbb71ed95995b5e69f71344ac29daac1773e1e9038588383604051610bdd929190614bb4565b60405180910390a2505050565b5f54604051633abb5afb60e01b8152600481018390526060916001600160a01b031690633abb5afb906024016108d8565b5f8481526006602052604081205485908203610c495760405162461bcd60e51b815260040161074d90614a43565b8560015f828152600660208190526040909120015460ff166002811115610c7257610c72613f94565b14610cae5760405162461bcd60e51b815260206004820152600c60248201526b139bdd08185c1c1c9bdd995960a21b604482015260640161074d565b865f805f8381526006602052604090206009015460ff166007811115610cd657610cd6613f94565b14610cf35760405162461bcd60e51b815260040161074d90614be1565b60038054905f610d0283614c08565b9091555050600380545f8b8152600b60209081526040808320848155600181018f905560028082018f905560069384905291909320015493820193909355426004820155600581018a905591820188905590610d5e888a614c20565b60078201908155600882018054600160ff1991821681179092555f8e815260066020908152604091829020600981018054909416909417909255600a9092018d9055915481518d81529283018c905282820152518c9184917f6de0d861557ed769526f727c48134bd9a111de9109a5d57d608fec1d1504fdc89181900360600190a3610e368b8b60405180604001604052806011815260200170141d5c98da185cd948149958dbdc991959607a1b81525060405180604001604052806009815260200168141d5c98da185cd95960ba1b8152506136e3565b8a5f8051602061531b83398151915260018c604051610e56929190614c37565b60405180910390a2509998505050505050505050565b5f8481526006602052604081205460609186919003610e9d5760405162461bcd60e51b815260040161074d90614a43565b8351855114610ee05760405162461bcd60e51b815260206004820152600f60248201526e098cadccee8d040dad2e6dac2e8c6d608b1b604482015260640161074d565b60035f8781526006602052604090206009015460ff166007811115610f0757610f07613f94565b1015610f495760405162461bcd60e51b8152602060048201526011602482015270135d5cdd081899481c1c9bd8d95cdcd959607a1b604482015260640161074d565b5f84516001600160401b03811115610f6357610f63613e2f565b604051908082528060200260200182016040528015610f8c578160200160208202803683370190505b5090505f5b855181101561101457610fe588888381518110610fb057610fb0614a94565b6020026020010151888481518110610fca57610fca614a94565b602002602001015188856001610fe09190614c52565b613762565b828281518110610ff757610ff7614a94565b60209081029190910101528061100c81614c08565b915050610f91565b509695505050505050565b5f848484846040516020016110379493929190614c65565b60408051601f1981840301815291815281516020928301205f898152600d909352908220909250905b81548110156110cd578882828154811061107c5761107c614a94565b905f5260205f2090600602015f0154036110bb57828282815481106110a3576110a3614a94565b905f5260205f209060060201600501819055506110cd565b806110c581614c08565b915050611060565b50877fbeb4b9f545c938bd8b89309b493865a5b3dfde68489962c736c417af894a75de878787876040516111049493929190614cbb565b60405180910390a25050505050505050565b60605f60015b60015481116111815783600781111561113757611137613f94565b5f8281526006602052604090206009015460ff16600781111561115c5761115c613f94565b0361116f578161116b81614c08565b9250505b8061117981614c08565b91505061111c565b505f816001600160401b0381111561119b5761119b613e2f565b6040519080825280602002602001820160405280156111d457816020015b6111c1613da5565b8152602001906001900390816111b95790505b5090505f60015b6001548111611459578560078111156111f6576111f6613f94565b5f8281526006602052604090206009015460ff16600781111561121b5761121b613f94565b036114475760065f8281526020019081526020015f20604051806102200160405290815f820154815260200160018201805461125690614d07565b80601f016020809104026020016040519081016040528092919081815260200182805461128290614d07565b80156112cd5780601f106112a4576101008083540402835291602001916112cd565b820191905f5260205f20905b8154815290600101906020018083116112b057829003601f168201915b50505091835250506002828101546020830152600383015460408301526004830154606083015260058301546080830152600683015460a09092019160ff169081111561131c5761131c613f94565b600281111561132d5761132d613f94565b8152600782810154602083015260088301546040830152600983015460609092019160ff169081111561136257611362613f94565b600781111561137357611373613f94565b81526020016009820160019054906101000a900460ff16600281111561139b5761139b613f94565b60028111156113ac576113ac613f94565b81526020016009820160029054906101000a900460ff1660038111156113d4576113d4613f94565b60038111156113e5576113e5613f94565b8152602001600a8201548152602001600b8201548152602001600c8201548152602001600d8201548152602001600e8201548152505083838151811061142d5761142d614a94565b6020026020010181905250818061144390614c08565b9250505b8061145181614c08565b9150506111db565b5090949350505050565b60605f60015b60015481116114bc575f8181526006602081905260408220015460ff16600281111561149757611497613f94565b036114aa57816114a681614c08565b9250505b806114b481614c08565b915050611469565b505f816001600160401b038111156114d6576114d6613e2f565b60405190808252806020026020018201604052801561150f57816020015b6114fc613da5565b8152602001906001900390816114f45790505b5090505f60015b6001548111611782575f8181526006602081905260408220015460ff16600281111561154457611544613f94565b036117705760065f8281526020019081526020015f20604051806102200160405290815f820154815260200160018201805461157f90614d07565b80601f01602080910402602001604051908101604052809291908181526020018280546115ab90614d07565b80156115f65780601f106115cd576101008083540402835291602001916115f6565b820191905f5260205f20905b8154815290600101906020018083116115d957829003601f168201915b50505091835250506002828101546020830152600383015460408301526004830154606083015260058301546080830152600683015460a09092019160ff169081111561164557611645613f94565b600281111561165657611656613f94565b8152600782810154602083015260088301546040830152600983015460609092019160ff169081111561168b5761168b613f94565b600781111561169c5761169c613f94565b81526020016009820160019054906101000a900460ff1660028111156116c4576116c4613f94565b60028111156116d5576116d5613f94565b81526020016009820160029054906101000a900460ff1660038111156116fd576116fd613f94565b600381111561170e5761170e613f94565b8152602001600a8201548152602001600b8201548152602001600c8201548152602001600d8201548152602001600e8201548152505083838151811061175657611756614a94565b6020026020010181905250818061176c90614c08565b9250505b8061177a81614c08565b915050611516565b50909392505050565b6117c16040518060c001604052805f81526020015f8152602001606081526020015f81526020015f81526020015f151581525090565b5f8281526009602052604081205490036118125760405162461bcd60e51b815260206004820152601260248201527150726f64756374206e6f742065786973747360701b604482015260640161074d565b60095f8381526020019081526020015f206040518060c00160405290815f82015481526020016001820154815260200160028201805461185190614d07565b80601f016020809104026020016040519081016040528092919081815260200182805461187d90614d07565b80156118c85780601f1061189f576101008083540402835291602001916118c8565b820191905f5260205f20905b8154815290600101906020018083116118ab57829003601f168201915b5050509183525050600382015460208201526004820154604082015260059091015460ff16151560609091015292915050565b5f828152600660205260408120548391036119285760405162461bcd60e51b815260040161074d90614a43565b60025f84815260066020526040902060090154610100900460ff16600281111561195457611954613f94565b146119915760405162461bcd60e51b815260206004820152600d60248201526c139bdd0819195b1a5d995c9959609a1b604482015260640161074d565b5f838152600f6020908152604080832085845290915290205460ff16156119ee5760405162461bcd60e51b8152602060048201526011602482015270105b1c9958591e4818dbdb999a5c9b5959607a1b604482015260640161074d565b5f838152600f602090815260408083208584528252808320805460ff19908116600117909155868452600680845293829020600901805490911690931790925581518083018352601381527215d85c995a1bdd5cd94810dbdb999a5c9b5959606a1b8183015282518084019093526008835267149958d95a5d995960c21b91830191909152611a8091859185916136e3565b604051829084907f5a0ca583abbe4762e00286f277fb259ed4a722726e02cd87aa38d3b2eeead4f5905f90a3825f8051602061531b833981519152600684604051610bdd929190614c37565b611b146040518061012001604052805f81526020015f81526020015f81526020015f81526020015f81526020015f81526020015f81526020015f81526020015f151581525090565b5f82815260066020526040812054839103611b415760405162461bcd60e51b815260040161074d90614a43565b5f838152600b60205260408120549003611b925760405162461bcd60e51b8152602060048201526012602482015271139bc81c1d5c98da185cd9481c9958dbdc9960721b604482015260640161074d565b50505f908152600b6020908152604091829020825161012081018452815481526001820154928101929092526002810154928201929092526003820154606082015260048201546080820152600582015460a0820152600682015460c0820152600782015460e082015260089091015460ff16151561010082015290565b5f85815260066020526040812054869103611c3d5760405162461bcd60e51b815260040161074d90614a43565b8560015f828152600660208190526040909120015460ff166002811115611c6657611c66613f94565b14611ca25760405162461bcd60e51b815260206004820152600c60248201526b139bdd08185c1c1c9bdd995960a21b604482015260640161074d565b5f878152600660209081526040808320600e8352818420825160a0810184528b81524281860190815260ff808d169583018681528c890b606085019081528c831660808601908152865460018181018955978c52998b2095516003909a02909501988955925194880194909455925160029096018054915192518416620100000262ff0000199385166101000261ffff199093169790941696909617171617909255909103611d6a5760098101805462ffff00191662010100179055600d8101879055611e90565b8560ff16600103611d95576009810180546002919062ff0000191662010000835b0217905550611e90565b8560ff16600203611dba576009810180546001919062ff000019166201000083611d8b565b8560ff16600303611e90576009810180546203020062ffff001982161790915560019060ff166007811115611df157611df1613f94565b03611e355760098101805460ff1916600290811790915560405189915f8051602061531b83398151915291611e2891908b90614c37565b60405180910390a2611e90565b6004600982015460ff166007811115611e5057611e50613f94565b03611e905760098101805460ff1916600590811790915560405189915f8051602061531b83398151915291611e8791908b90614c37565b60405180910390a25b600981015460405189917f7cff043db92d1d906bb34b67928b2d52ba4e3ea94529b02769711bd119cc430491611ed39162010000900460ff16908b908b90614d39565b60405180910390a2611f2f888860405180604001604052806011815260200170151c985b9cdc1bdc9d08155c19185d1959607a1b81525060405180604001604052806007815260200166155c19185d195960ca1b8152506136e3565b5050505050505050565b827f29c31eb0255ff677c9bd5abdd2afaba652066c80da184701f767ebe4705225878383604051610bdd929190614bb4565b60605f60015b6001548111611fb2575f81815260066020526040902060020154849003611fa05781611f9c81614c08565b9250505b80611faa81614c08565b915050611f71565b505f816001600160401b03811115611fcc57611fcc613e2f565b60405190808252806020026020018201604052801561200557816020015b611ff2613da5565b815260200190600190039081611fea5790505b5090505f60015b6001548111611459575f818152600660205260409020600201548690036122545760065f8281526020019081526020015f20604051806102200160405290815f820154815260200160018201805461206390614d07565b80601f016020809104026020016040519081016040528092919081815260200182805461208f90614d07565b80156120da5780601f106120b1576101008083540402835291602001916120da565b820191905f5260205f20905b8154815290600101906020018083116120bd57829003601f168201915b50505091835250506002828101546020830152600383015460408301526004830154606083015260058301546080830152600683015460a09092019160ff169081111561212957612129613f94565b600281111561213a5761213a613f94565b8152600782810154602083015260088301546040830152600983015460609092019160ff169081111561216f5761216f613f94565b600781111561218057612180613f94565b81526020016009820160019054906101000a900460ff1660028111156121a8576121a8613f94565b60028111156121b9576121b9613f94565b81526020016009820160029054906101000a900460ff1660038111156121e1576121e1613f94565b60038111156121f2576121f2613f94565b8152602001600a8201548152602001600b8201548152602001600c8201548152602001600d8201548152602001600e8201548152505083838151811061223a5761223a614a94565b6020026020010181905250818061225090614c08565b9250505b8061225e81614c08565b91505061200c565b5f80888888888888886040516020016122859796959493929190614d5e565b60408051601f1981840301815291815281516020928301205f8d815260069093529120600701541491505098975050505050505050565b5f81815260066020526040812054829082036122ea5760405162461bcd60e51b815260040161074d90614a43565b50505f9081526006602052604090206009015462010000900460ff1690565b612311613da5565b5f8281526006602052604081205483910361233e5760405162461bcd60e51b815260040161074d90614a43565b60065f8481526020019081526020015f20604051806102200160405290815f820154815260200160018201805461237490614d07565b80601f01602080910402602001604051908101604052809291908181526020018280546123a090614d07565b80156123eb5780601f106123c2576101008083540402835291602001916123eb565b820191905f5260205f20905b8154815290600101906020018083116123ce57829003601f168201915b50505091835250506002828101546020830152600383015460408301526004830154606083015260058301546080830152600683015460a09092019160ff169081111561243a5761243a613f94565b600281111561244b5761244b613f94565b8152600782810154602083015260088301546040830152600983015460609092019160ff169081111561248057612480613f94565b600781111561249157612491613f94565b81526020016009820160019054906101000a900460ff1660028111156124b9576124b9613f94565b60028111156124ca576124ca613f94565b81526020016009820160029054906101000a900460ff1660038111156124f2576124f2613f94565b600381111561250357612503613f94565b8152600a8201546020820152600b8201546040820152600c8201546060820152600d8201546080820152600e9091015460a0909101529392505050565b847f6234755fcf3d5ddcd4f195147098d52dc091278c148152bf5dcbff45ce11492b858585856040516125769493929190614dd7565b60405180910390a25050505050565b5f81815260066020526040812054829082036125b35760405162461bcd60e51b815260040161074d90614a43565b50505f90815260066020526040902060090154610100900460ff1690565b5f600a826040516106d09190614a28565b5f8381526006602052604081205484910361260f5760405162461bcd60e51b815260040161074d90614a43565b5f8481526006602081905260408220015460ff16600281111561263457612634613f94565b1461266f5760405162461bcd60e51b815260206004820152600b60248201526a4e6f742070656e64696e6760a81b604482015260640161074d565b5f84815260066020818152604092839020909101805460ff191660021790558151808301909252600e82526d10985d18da0814995a9958dd195960921b908201526126be9085908590856136e3565b5f84815260066020526040908190206002810154915186917fa0da9c7499f803fc3a58e98e892bc48d417d18f94643a01f620e7813bc0af2219161270791600101908790614e7a565b60405180910390a350505050565b5f81815260066020526040812054606091839190036127465760405162461bcd60e51b815260040161074d90614a43565b5f838152600d6020908152604080832080548251818502810185019093528083529193909284015b82821015610a3a575f8481526020908190206040805160c08101825260068602909201805483526001808201548486015260028201549284019290925260038101546060840152600481015460ff16151560808401526005015460a0830152908352909201910161276e565b5f8087511161281b5760405162461bcd60e51b815260206004820152600d60248201526c13985b59481c995c5d5a5c9959609a1b604482015260640161074d565b5f861161285d5760405162461bcd60e51b815260206004820152601060248201526f24b73b30b634b210383937b23ab1b2b960811b604482015260640161074d565b5f8311801561286b57505f82115b801561287657508183105b6128b25760405162461bcd60e51b815260206004820152600d60248201526c496e76616c696420646174657360981b604482015260640161074d565b60018054905f6128c183614c08565b90915550506001545f6128d38861391f565b90505f4290505f828a8a848b8f6040516020016128f596959493929190614e8c565b60408051601f1981840301815291815281516020928301205f878152600690935291208581559091506001810161292c8582614f38565b50600281018b905560038101839055600481018890556005810187905560068101805460ff191690556007808201839055600882018a905560098201805462ffffff191690555f600e830155604051869190612989908790614a28565b9081526020016040518091039020819055508a857f04435331372657a61a5c714bf668c5d0ab5e5670bdaf5c1e71f8189ba62c553c868c87876040516129d29493929190614ff3565b60405180910390a3847fd7228ee337f6e74afa5175012591a5a5e50d6f51efe6aacc4e52ecfa3c6231808d8c8b8b604051612a109493929190615021565b60405180910390a2612a72858c6040518060400160405280600d81526020016c10985d18da0810dc99585d1959609a1b8152506040518060400160405280601181526020017013995dc818985d18da0818dc99585d1959607a1b8152506136e3565b845f8051602061531b8339815191525f8d604051612a91929190614c37565b60405180910390a250929a9950505050505050505050565b5f8181526006602052604081205460609183919003612ada5760405162461bcd60e51b815260040161074d90614a43565b5f838152600e6020908152604080832080548251818502810185019093528083529193909284018215610a3a575f84815260208082206040805160a08101825260038702909201805483526001808201548486015260029091015460ff80821693850193909352610100810490950b6060840152620100009094041660808201528352920191016109d3565b5f8381526006602052604081205484908203612b945760405162461bcd60e51b815260040161074d90614a43565b846003805f8381526006602052604090206009015460ff166007811115612bbd57612bbd613f94565b14612bda5760405162461bcd60e51b815260040161074d90614be1565b60058054905f612be983614c08565b91905055505f60055490505f6040518060c001604052808381526020018a815260200189815260200142815260200188151581526020015f801b8152509050600d5f8a81526020019081526020015f2081908060018154018082558091505060019003905f5260205f2090600602015f909190919091505f820151815f01556020820151816001015560408201518160020155606082015181600301556080820151816004015f6101000a81548160ff02191690831515021790555060a0820151816005015550508615612d56575f8981526006602081815260409283902060098101805460ff19166004179055600c018b9055825180840184526013815272145d585b1a5d1e4815195cdd0814185cdcd959606a1b8183015283518085019094529183526514185cdcd95960d21b90830152612d29918b918b916136e3565b885f8051602061531b83398151915260048a604051612d49929190614c37565b60405180910390a2612dab565b612dab898960405180604001604052806013815260200172145d585b1a5d1e4815195cdd0811985a5b1959606a1b8152506040518060400160405280600681526020016511985a5b195960d21b8152506136e3565b6040805189815288151560208201525f8183015290518a9184917f31fb1b84e0770b3e473f2a6ba3dc50fc286fa443e29bd09964d881daee5f1fb89181900360600190a350979650505050505050565b5f8581526006602052604081205486908203612e295760405162461bcd60e51b815260040161074d90614a43565b60015f8881526006602052604090206009015460ff166007811115612e5057612e50613f94565b1480612e80575060025f8881526006602052604090206009015460ff166007811115612e7e57612e7e613f94565b145b612e9c5760405162461bcd60e51b815260040161074d90614be1565b60048054905f612eab83614c08565b9091555050600480545f898152600c6020526040902081815560018082018b9055600282018a90554260038301558184018054939492938a93919260ff19909116918490811115612efe57612efe613f94565b02179055506005810186905560068082018690555f8a815260209190915260409081902060098101805460ff19166003179055600b0189905551899083907f6bc992360159cffa224e4c69d434311dffadbe9f9d9a664b9e1ee6e8a40032b790612f6b908c908c9061506c565b60405180910390a3612fcc898960405180604001604052806014815260200173141c9bd8d95cdcda5b99c810dbdb5c1b195d195960621b8152506040518060400160405280600981526020016810dbdb5c1b195d195960ba1b8152506136e3565b885f8051602061531b83398151915260038a604051612fec929190614c37565b60405180910390a250979650505050505050565b60605f60015b6001548111613078575f8181526006602052604090206002015484148015613053575060015f828152600660208190526040909120015460ff16600281111561305157613051613f94565b145b15613066578161306281614c08565b9250505b8061307081614c08565b915050613006565b505f816001600160401b0381111561309257613092613e2f565b6040519080825280602002602001820160405280156130cb57816020015b6130b8613da5565b8152602001906001900390816130b05790505b5090505f60015b6001548111611459575f818152600660205260409020600201548614801561311f575060015f828152600660208190526040909120015460ff16600281111561311d5761311d613f94565b145b1561334b5760065f8281526020019081526020015f20604051806102200160405290815f820154815260200160018201805461315a90614d07565b80601f016020809104026020016040519081016040528092919081815260200182805461318690614d07565b80156131d15780601f106131a8576101008083540402835291602001916131d1565b820191905f5260205f20905b8154815290600101906020018083116131b457829003601f168201915b50505091835250506002828101546020830152600383015460408301526004830154606083015260058301546080830152600683015460a09092019160ff169081111561322057613220613f94565b600281111561323157613231613f94565b8152600782810154602083015260088301546040830152600983015460609092019160ff169081111561326657613266613f94565b600781111561327757613277613f94565b81526020016009820160019054906101000a900460ff16600281111561329f5761329f613f94565b60028111156132b0576132b0613f94565b81526020016009820160029054906101000a900460ff1660038111156132d8576132d8613f94565b60038111156132e9576132e9613f94565b8152602001600a8201548152602001600b8201548152602001600c8201548152602001600d8201548152602001600e8201548152505083838151811061333157613331614a94565b6020026020010181905250818061334790614c08565b9250505b8061335581614c08565b9150506130d2565b613365613da5565b5f6007836040516133769190614a28565b9081526020016040518091039020549050805f036133c85760405162461bcd60e51b815260206004820152600f60248201526e10985d18da081b9bdd08199bdd5b99608a1b604482015260640161074d565b60065f8281526020019081526020015f20604051806102200160405290815f820154815260200160018201805461237490614d07565b5f8281526006602052604081205483910361342b5760405162461bcd60e51b815260040161074d90614a43565b5f8381526006602081905260408220015460ff16600281111561345057613450613f94565b1461348b5760405162461bcd60e51b815260206004820152600b60248201526a4e6f742070656e64696e6760a81b604482015260640161074d565b5f8381526006602081815260408084209092018054600160ff1991821681179092556008808452948490208054909116909117905581518083018352600e81526d10985d18da08105c1c1c9bdd995960921b81830152825180840190935292825267105c1c1c9bdd995960c21b9082015261350a9185918591906136e3565b5f83815260066020526040908190206002810154915185917f1a621270a25ae67b5e557b98be27914cd1de793b7ca49110be85cb5aaa169c9b916135519160010190615080565b60405180910390a3505050565b6135946040518060c001604052805f81526020015f8152602001606081526020015f81526020015f81526020015f151581525090565b5f600a836040516135a59190614a28565b9081526020016040518091039020549050805f036135f95760405162461bcd60e51b8152602060048201526011602482015270141c9bd91d58dd081b9bdd08199bdd5b99607a1b604482015260640161074d565b60095f8281526020019081526020015f206040518060c00160405290815f82015481526020016001820154815260200160028201805461363890614d07565b80601f016020809104026020016040519081016040528092919081815260200182805461366490614d07565b80156136af5780601f10613686576101008083540402835291602001916136af565b820191905f5260205f20905b81548152906001019060200180831161369257829003601f168201915b5050509183525050600382015460208201526004820154604082015260059091015460ff1615156060909101529392505050565b5f5460405163521e6fa960e01b81526001600160a01b039091169063521e6fa99061371b908790879087908790600190600401615092565b6020604051808303815f875af1158015613737573d5f803e3d5ffd5b505050506040513d601f19601f8201168201806040525081019061375b91906150d7565b5050505050565b600280545f918261377283614c08565b90915550506002545f6137858885613a1a565b5f838152600960205260409020838155600181018a9055909150600281016137ad8382614f38565b504260038201556004810187905560058101805460ff191660011790556040518390600a906137dd908590614a28565b9081526040805160209281900383019020929092555f8b81526006909152908120600e0180549161380d83614c08565b919050555088837fbdde62b0e96cbbc3cdced0a682146b34800ebd5da6bd791ea90185ea74f7ba5a848a8a604051613847939291906150ee565b60405180910390a3604051889084907f389ac40a531899b9da26a61764120c15779ba4b573fc14b347c8781f7b4763b8905f90a35f80548a8252600660209081526040928390206002015492516001600160a01b0390921692633e69b27b928c928e92916138b791899101615122565b6040516020818303038152906040526040518563ffffffff1660e01b81526004016138e5949392919061515e565b5f604051808303815f87803b1580156138fc575f80fd5b505af115801561390e573d5f803e3d5ffd5b50949b9a5050505050505050505050565b604080518082019091526002815261030360f41b60208201526060905f61394f61394885613a68565b6006613b88565b90505f633b9aca004286604051602001613973929190918252602082015260400190565b604051602081830303815290604052805190602001205f1c6139959190615196565b90505f6139ab6139a483613a68565b6009613b88565b90505f8484836040516020016139c3939291906151a9565b60405160208183030381529060405290505f6139de82613cb9565b9050816139ed8260ff16613a68565b6040516020016139fe9291906151eb565b6040516020818303038152906040529650505050505050919050565b5f828152600660205260409020606090600101613a40613a3984613a68565b6004613b88565b604051602001613a51929190615219565b604051602081830303815290604052905092915050565b6060815f03613a8e5750506040805180820190915260018152600360fc1b602082015290565b815f5b8115613ab75780613aa181614c08565b9150613ab09050600a836152b2565b9150613a91565b5f816001600160401b03811115613ad057613ad0613e2f565b6040519080825280601f01601f191660200182016040528015613afa576020820181803683370190505b509050815b8515613b7f57613b10600182614a81565b90505f613b1e600a886152b2565b613b2990600a614c20565b613b339088614a81565b613b3e9060306152c5565b90508060f81b838381518110613b5657613b56614a94565b60200101906001600160f81b03191690815f1a905350613b77600a886152b2565b965050613aff565b50949350505050565b60605f83905082815110613b9f5783915050610919565b5f836001600160401b03811115613bb857613bb8613e2f565b6040519080825280601f01601f191660200182016040528015613be2576020820181803683370190505b5090505f825185613bf39190614a81565b90505f5b81811015613c3e57600360fc1b838281518110613c1657613c16614a94565b60200101906001600160f81b03191690815f1a90535080613c3681614c08565b915050613bf7565b505f5b8351811015613cae57838181518110613c5c57613c5c614a94565b01602001516001600160f81b03191683613c768484614c52565b81518110613c8657613c86614a94565b60200101906001600160f81b03191690815f1a90535080613ca681614c08565b915050613c41565b509095945050505050565b5f8181805b8251811015613d34575f6030848381518110613cdc57613cdc614a94565b0160200151613cee919060f81c6152de565b9050613cfb600283615196565b15613d065780613d11565b613d118160036152f7565b613d1e9060ff1684614c52565b9250508080613d2c90614c08565b915050613cbe565b50600a613d418183615196565b613d4c90600a614a81565b613d569190615196565b949350505050565b6040518060e001604052805f81526020015f81526020015f81526020015f81526020015f6004811115613d9357613d93613f94565b81526020015f81526020015f81525090565b6040518061022001604052805f8152602001606081526020015f81526020015f81526020015f81526020015f81526020015f6002811115613de857613de8613f94565b81525f602082018190526040820181905260609091019081526020015f81526020015f81526020015f81526020015f81526020015f81526020015f81526020015f81525090565b634e487b7160e01b5f52604160045260245ffd5b60405161010081016001600160401b0381118282101715613e6657613e66613e2f565b60405290565b604051601f8201601f191681016001600160401b0381118282101715613e9457613e94613e2f565b604052919050565b5f82601f830112613eab575f80fd5b81356001600160401b03811115613ec457613ec4613e2f565b613ed7601f8201601f1916602001613e6c565b818152846020838601011115613eeb575f80fd5b816020850160208301375f918101602001919091529392505050565b5f60208284031215613f17575f80fd5b81356001600160401b03811115613f2c575f80fd5b613d5684828501613e9c565b5f60208284031215613f48575f80fd5b5035919050565b60c0810161091982848051825260208101516020830152604081015160408301526060810151606083015260808101511515608083015260a081015160a08301525050565b634e487b7160e01b5f52602160045260245ffd5b602080825282518282018190525f919060409081850190868401855b828110156140395781518051855286810151878601528581015186860152606080820151908601526080808201519086015260a080820151600a811061400c5761400c613f94565b9086015260c08181015115159086015260e090810151908501526101009093019290850190600101613fc4565b5091979650505050505050565b602080825282518282018190525f91906040908185019086840185805b838110156140af5782518051865287810151888701528681015160ff90811688880152606080830151850b90880152608091820151169086015260a09094019391860191600101614063565b509298975050505050505050565b600581106140cd576140cd613f94565b9052565b5f60e08201905082518252602083015160208301526040830151604083015260608301516060830152608083015161410c60808401826140bd565b5060a083015160a083015260c083015160c083015292915050565b600881106140cd576140cd613f94565b602081016109198284614127565b5f805f60608486031215614157575f80fd5b8335925060208401356001600160401b0380821115614174575f80fd5b61418087838801613e9c565b93506040860135915080821115614195575f80fd5b506141a286828701613e9c565b9150509250925092565b5f805f80608085870312156141bf575f80fd5b5050823594602084013594506040840135936060013592509050565b5f6001600160401b038211156141f3576141f3613e2f565b5060051b60200190565b5f82601f83011261420c575f80fd5b8135602061422161421c836141db565b613e6c565b82815260059290921b8401810191818101908684111561423f575f80fd5b8286015b848110156110145780358352918301918301614243565b5f805f806080858703121561426d575f80fd5b8435935060208501356001600160401b038082111561428a575f80fd5b614296888389016141fd565b945060408701359150808211156142ab575f80fd5b6142b7888389016141fd565b935060608701359150808211156142cc575f80fd5b506142d987828801613e9c565b91505092959194509250565b602080825282518282018190525f9190848201906040850190845b8181101561431c57835183529284019291840191600101614300565b50909695505050505050565b5f805f805f8060c0878903121561433d575f80fd5b863595506020870135945060408701356001600160401b0380821115614361575f80fd5b61436d8a838b01613e9c565b95506060890135915080821115614382575f80fd5b61438e8a838b01613e9c565b945060808901359150808211156143a3575f80fd5b6143af8a838b01613e9c565b935060a08901359150808211156143c4575f80fd5b506143d189828a01613e9c565b9150509295509295509295565b5f602082840312156143ee575f80fd5b8135600881106143fc575f80fd5b9392505050565b5f5b8381101561441d578181015183820152602001614405565b50505f910152565b5f815180845261443c816020860160208601614403565b601f01601f19169290920160200192915050565b6003811061446057614460613f94565b50565b6140cd81614450565b600481106140cd576140cd613f94565b5f61022082518452602083015181602086015261449b82860182614425565b91505060408301516040850152606083015160608501526080830151608085015260a083015160a085015260c08301516144d860c0860182614463565b5060e083015160e08501526101008084015181860152506101208084015161450282870182614127565b50506101408084015161451782870182614463565b50506101608084015161452c8287018261446c565b505061018083810151908501526101a080840151908501526101c080840151908501526101e080840151908501526102009283015192909301919091525090565b5f602080830181845280855180835260408601915060408160051b87010192508387015f5b828110156145c057603f198886030184526145ae85835161447c565b94509285019290850190600101614592565b5092979650505050505050565b6020815281516020820152602082015160408201525f604083015160c060608401526145fc60e0840182614425565b905060608401516080840152608084015160a084015260a0840151151560c08401528091505092915050565b5f8060408385031215614639575f80fd5b50508035926020909101359150565b803560ff81168114614658575f80fd5b919050565b5f805f805f60a08688031215614671575f80fd5b853594506020860135935061468860408701614648565b92506060860135805f0b811461469c575f80fd5b91506146aa60808701614648565b90509295509295909350565b5f805f805f805f80610100898b0312156146ce575f80fd5b8835975060208901356001600160401b03808211156146eb575f80fd5b6146f78c838d01613e9c565b985060408b0135975060608b0135915080821115614713575f80fd5b61471f8c838d01613e9c565b965060808b0135955060a08b013591508082111561473b575f80fd5b6147478c838d01613e9c565b945060c08b0135935060e08b0135915080821115614763575f80fd5b506147708b828c01613e9c565b9150509295985092959890939650565b60208101610919828461446c565b602081525f6143fc602083018461447c565b5f805f805f60a086880312156147b4575f80fd5b853594506020860135935060408601356001600160401b03808211156147d8575f80fd5b6147e489838a01613e9c565b945060608801359150808211156147f9575f80fd5b61480589838a01613e9c565b9350608088013591508082111561481a575f80fd5b5061482788828901613e9c565b9150509295509295909350565b6020810161484183614450565b91905290565b5f805f60608486031215614859575f80fd5b833592506020840135915060408401356001600160401b0381111561487c575f80fd5b6141a286828701613e9c565b602080825282518282018190525f9190848201906040850190845b8181101561431c576148ed8385518051825260208101516020830152604081015160408301526060810151606083015260808101511515608083015260a081015160a08301525050565b9284019260c092909201916001016148a3565b5f805f805f8060c08789031215614915575f80fd5b86356001600160401b038082111561492b575f80fd5b6149378a838b01613e9c565b9750602089013596506040890135915080821115614953575f80fd5b5061496089828a01613e9c565b945050606087013592506080870135915060a087013590509295509295509295565b8015158114614460575f80fd5b5f805f606084860312156149a1575f80fd5b833592506020840135915060408401356149ba81614982565b809150509250925092565b5f805f805f60a086880312156149d9575f80fd5b85359450602086013593506040860135600581106149f5575f80fd5b94979396509394606081013594506080013592915050565b5f8151614a1e818560208601614403565b9290920192915050565b5f8251614a39818460208701614403565b9190910192915050565b60208082526010908201526f4261746368206e6f742065786973747360801b604082015260600190565b634e487b7160e01b5f52601160045260245ffd5b8181038181111561091957610919614a6d565b634e487b7160e01b5f52603260045260245ffd5b805161465881614982565b5f6020808385031215614ac4575f80fd5b82516001600160401b03811115614ad9575f80fd5b8301601f81018513614ae9575f80fd5b8051614af761421c826141db565b81815260089190911b82018301908381019087831115614b15575f80fd5b928401925b82841015614ba9576101008489031215614b33575f8081fd5b614b3b613e43565b84518152858501518682015260408086015190820152606080860151908201526080808601519082015260a080860151600a8110614b78575f8081fd5b9082015260c0614b89868201614aa8565b9082015260e0858101519082015282526101009093019290840190614b1a565b979650505050505050565b604081525f614bc66040830185614425565b8281036020840152614bd88185614425565b95945050505050565b6020808252600d908201526c496e76616c696420737461676560981b604082015260600190565b5f60018201614c1957614c19614a6d565b5060010190565b808202811582820484141761091957610919614a6d565b60408101614c458285614127565b8260208301529392505050565b8082018082111561091957610919614a6d565b5f8551614c76818460208a01614403565b855190830190614c8a818360208a01614403565b8551910190614c9d818360208901614403565b8451910190614cb0818360208801614403565b019695505050505050565b608081525f614ccd6080830187614425565b8281036020840152614cdf8187614425565b90508281036040840152614cf38186614425565b90508281036060840152614ba98185614425565b600181811c90821680614d1b57607f821691505b60208210810361086157634e487b7160e01b5f52602260045260245ffd5b60608101614d47828661446c565b83602083015260ff83166040830152949350505050565b5f88516020614d708285838e01614403565b81840191508982528851614d8981838501848d01614403565b80830192505087818301528651614da68160408501848b01614403565b604092019182018690528451614dc28160608501848901614403565b919091016060019a9950505050505050505050565b848152608060208201525f614def6080830186614425565b8281036040840152614cf38186614425565b5f8154614e0d81614d07565b808552602060018381168015614e2a5760018114614e4457614e6f565b60ff1985168884015283151560051b880183019550614e6f565b865f52825f205f5b85811015614e675781548a8201860152908301908401614e4c565b890184019650505b505050505092915050565b604081525f614bc66040830185614e01565b5f8751614e9d818460208c01614403565b82018781528651614eb5816020808501908b01614403565b8082019150508560208201528460408201528351614eda816060840160208801614403565b0160600198975050505050505050565b601f821115614f33575f81815260208120601f850160051c81016020861015614f105750805b601f850160051c820191505b81811015614f2f57828155600101614f1c565b5050505b505050565b81516001600160401b03811115614f5157614f51613e2f565b614f6581614f5f8454614d07565b84614eea565b602080601f831160018114614f98575f8415614f815750858301515b5f19600386901b1c1916600185901b178555614f2f565b5f85815260208120601f198616915b82811015614fc657888601518255948401946001909101908401614fa7565b5085821015614fe357878501515f19600388901b60f8161c191681555b5050505050600190811b01905550565b608081525f6150056080830187614425565b6020830195909552506040810192909252606090910152919050565b60a081525f61503360a0830187614425565b82810360208401526150458187614425565b6040840195909552505060608101919091528082036080909101525f815260200192915050565b828152604081016143fc60208301846140bd565b602081525f6143fc6020830184614e01565b85815284602082015260a060408201525f6150b060a0830186614425565b82810360608401526150c28186614425565b91505082151560808301529695505050505050565b5f602082840312156150e7575f80fd5b5051919050565b606081525f6151006060830186614425565b84602084015282810360408401526151188185614425565b9695505050505050565b7402430b93b32b9ba32b2103a3790383937b23ab1ba1605d1b81525f8251615151816015850160208701614403565b9190910160150192915050565b848152836020820152826040820152608060608201525f6151186080830184614425565b634e487b7160e01b5f52601260045260245ffd5b5f826151a4576151a4615182565b500690565b5f84516151ba818460208901614403565b8451908301906151ce818360208901614403565b84519101906151e1818360208801614403565b0195945050505050565b5f83516151fc818460208801614403565b835190830190615210818360208801614403565b01949350505050565b61502d60f01b81525f60025f855461523081614d07565b60018281168015615248576001811461526157615291565b60ff198416888701528215158302880186019450615291565b895f526020805f205f5b858110156152865781548b82018a015290840190820161526b565b505050858389010194505b50602d60f81b84526152a581850189614a0d565b9998505050505050505050565b5f826152c0576152c0615182565b500490565b60ff818116838216019081111561091957610919614a6d565b60ff828116828216039081111561091957610919614a6d565b60ff818116838216029081169081811461531357615313614a6d565b509291505056fe1c9f99abdc4ff0dc1efc16917683317ce1f3ae802fd4c0a9f03c475b778e3890a264697066735822122065b6f1fef4d50f7927ce153c7791cbe08416db12d4c37e2d5616b5671bc010b264736f6c63430008140033",
  "immutableReferences": {},
  "source": "// SPDX-License-Identifier: MIT\r\npragma solidity ^0.8.0;\r\n\r\nimport \"./ActivityLog.sol\";\r\n\r\n/**\r\n * Hợp đồng tối ưu: Chỉ lưu dữ liệu quan trọng trên blockchain\r\n * Chi tiết mở rộng (ảnh, mô tả dài) được lưu off-chain (MySQL)\r\n */\r\ncontract TraceabilityContract {\r\n    ActivityLog private activityLogContract;\r\n\r\n    constructor(address _activityLogAddress) {\r\n        require(_activityLogAddress != address(0), \"Invalid ActivityLog address\");\r\n        activityLogContract = ActivityLog(_activityLogAddress);\r\n    }\r\n\r\n    // ===================================\r\n    // COUNTERS\r\n    // ===================================\r\n    uint256 private _batchIdCounter;\r\n    uint256 private _productIdCounter;\r\n    uint256 private _purchaseIdCounter;\r\n    uint256 private _processingIdCounter;\r\n    uint256 private _qualityTestIdCounter;\r\n\r\n    // ===================================\r\n    // ENUMS\r\n    // ===================================\r\n    enum SupplyChainStage {\r\n        Created,\r\n        Purchased,\r\n        Transported1,\r\n        Processed,\r\n        QualityInspected,\r\n        Transported2,\r\n        Warehoused,\r\n        DeliveredToConsumer\r\n    }\r\n\r\n    enum BatchStatus {\r\n        PendingApproval,\r\n        Approved,\r\n        Rejected\r\n    }\r\n\r\n    enum TransportStatus {\r\n        NotTransported,\r\n        InTransit,\r\n        Delivered\r\n    }\r\n\r\n    enum DetailedTransportStatus {\r\n        NotStarted,\r\n        InTransit,\r\n        Paused,\r\n        Delivered\r\n    }\r\n\r\n    enum ProcessingMethod {\r\n        Washing,\r\n        Cutting,\r\n        Drying,\r\n        Freezing,\r\n        Packaging\r\n    }\r\n\r\n    // ===================================\r\n    // OPTIMIZED STRUCTS - Chỉ dữ liệu quan trọng\r\n    // ===================================\r\n\r\n    /**\r\n     * @dev Batch - CHỈ lưu thông tin cốt lõi\r\n     * Các trường đã loại bỏ để tiết kiệm gas:\r\n     * - productImageUrls[] -> Lưu MySQL\r\n     * - certificateImageUrl -> Lưu MySQL  \r\n     * - farmPlotNumber -> Lưu MySQL\r\n     * - productIds[] -> Tính toán từ events\r\n     * - warehouseIds[] -> Tính toán từ events\r\n     */\r\n    struct Batch {\r\n        uint256 batchId;\r\n        string sscc;                 // Mã lô (20 chars)\r\n        uint256 producerId;\r\n        uint256 productionDate;\r\n        uint256 startDate;\r\n        uint256 endDate;\r\n        BatchStatus status;\r\n        bytes32 dataHash;            // Hash để verify off-chain data\r\n        uint256 productTypeId;\r\n        \r\n        // Stage tracking\r\n        SupplyChainStage currentStage;\r\n        TransportStatus transportStatus;\r\n        DetailedTransportStatus detailedTransportStatus;\r\n        \r\n        // Participant IDs\r\n        uint256 purchaserId;\r\n        uint256 processorId;\r\n        uint256 qualityInspectorId;\r\n        uint256 lastTransporterId;\r\n        \r\n        // Product count only (không lưu array)\r\n        uint256 totalProducts;\r\n    }\r\n\r\n    /**\r\n     * @dev Product - Tối thiểu hóa\r\n     * Loại bỏ: sourceTreeIds[], packageType, soldDate\r\n     * -> Lưu off-chain, link qua events\r\n     */\r\n    struct Product {\r\n        uint256 productId;\r\n        uint256 batchId;\r\n        string productQRCode;        // ~30 chars\r\n        uint256 packagedDate;\r\n        uint256 weight;              // gram\r\n        bool isActive;\r\n    }\r\n\r\n    /**\r\n     * @dev Purchase - Chỉ số liệu quan trọng\r\n     * Loại bỏ: imageUrls[], notes, qualityGrade\r\n     */\r\n    struct PurchaseRecord {\r\n        uint256 purchaseId;\r\n        uint256 batchId;\r\n        uint256 purchaserId;\r\n        uint256 farmerId;\r\n        uint256 purchaseDate;\r\n        uint256 totalQuantity;       // kg\r\n        uint256 pricePerUnit;        // VND\r\n        uint256 totalPrice;          // VND\r\n        bool isConfirmed;\r\n    }\r\n\r\n    /**\r\n     * @dev Processing - Tối thiểu\r\n     * Loại bỏ: methodDescription, additives[], imageUrls[], notes\r\n     */\r\n    struct ProcessingRecord {\r\n        uint256 processingId;\r\n        uint256 batchId;\r\n        uint256 processorId;\r\n        uint256 processingDate;\r\n        ProcessingMethod method;\r\n        uint256 inputWeight;         // kg\r\n        uint256 outputWeight;        // kg\r\n    }\r\n\r\n    /**\r\n     * @dev Quality Test - Chỉ kết quả\r\n     */\r\n    struct QualityTest {\r\n        uint256 testId;\r\n        uint256 batchId;\r\n        uint256 inspectorId;\r\n        uint256 testDate;\r\n        bool passed;                 // CHỈ lưu đạt/không đạt\r\n        bytes32 resultHash;          // Hash chi tiết off-chain\r\n    }\r\n\r\n    /**\r\n     * @dev Transport Event\r\n     */\r\n    struct TransportEvent {\r\n        uint256 participantId;\r\n        uint256 timestamp;\r\n        uint8 actionCode;            // 0=Start, 1=Pause, 2=Resume, 3=Complete\r\n        int8 temperature;\r\n        uint8 humidity;\r\n    }\r\n\r\n    // ===================================\r\n    // MAPPINGS\r\n    // ===================================\r\n    \r\n    mapping(uint256 => Batch) private _batches;\r\n    mapping(string => uint256) private _ssccToBatchId;\r\n    mapping(uint256 => bool) private _approvedBatches;\r\n\r\n    mapping(uint256 => Product) private _products;\r\n    mapping(string => uint256) private _productQRCodeToId;\r\n\r\n    mapping(uint256 => PurchaseRecord) private _purchaseRecords;\r\n    mapping(uint256 => ProcessingRecord) private _processingRecords;\r\n    mapping(uint256 => QualityTest[]) private _batchQualityTests;\r\n    mapping(uint256 => TransportEvent[]) private _batchTransportEvents;\r\n    mapping(uint256 => mapping(uint256 => bool)) private _warehouseConfirmations;\r\n\r\n    // ===================================\r\n    // EVENTS - Emit để backend sync vào MySQL\r\n    // ===================================\r\n    \r\n    event BatchCreated(\r\n        uint256 indexed batchId,\r\n        string sscc,\r\n        uint256 indexed producerId,\r\n        uint256 productTypeId,\r\n        uint256 productionDate,\r\n        bytes32 dataHash\r\n    );\r\n\r\n    event BatchDetailsStored(\r\n        uint256 indexed batchId,\r\n        string name,\r\n        string quantity,\r\n        uint256 startDate,\r\n        uint256 endDate,\r\n        string farmPlotNumber\r\n    );\r\n\r\n    event ProductCreated(\r\n        uint256 indexed productId,\r\n        string productQRCode,\r\n        uint256 indexed batchId,\r\n        uint256 weight,\r\n        string packageType\r\n    );\r\n\r\n    event ProductTreeLinked(\r\n        uint256 indexed productId,\r\n        uint256 indexed treeId\r\n    );\r\n\r\n    event BatchApproved(\r\n        uint256 indexed batchId,\r\n        uint256 indexed producerId,\r\n        string sscc\r\n    );\r\n\r\n    event BatchRejected(\r\n        uint256 indexed batchId,\r\n        uint256 indexed producerId,\r\n        string sscc,\r\n        string reason\r\n    );\r\n\r\n    event StageUpdated(\r\n        uint256 indexed batchId,\r\n        SupplyChainStage newStage,\r\n        uint256 participantId\r\n    );\r\n\r\n    event PurchaseRecorded(\r\n        uint256 indexed purchaseId,\r\n        uint256 indexed batchId,\r\n        uint256 purchaserId,\r\n        uint256 totalQuantity,\r\n        uint256 totalPrice\r\n    );\r\n\r\n    event PurchaseDetailsStored(\r\n        uint256 indexed purchaseId,\r\n        string qualityGrade,\r\n        string notes\r\n    );\r\n\r\n    event ProcessingRecorded(\r\n        uint256 indexed processingId,\r\n        uint256 indexed batchId,\r\n        uint256 processorId,\r\n        ProcessingMethod method\r\n    );\r\n\r\n    event ProcessingDetailsStored(\r\n        uint256 indexed processingId,\r\n        string methodDescription,\r\n        string notes\r\n    );\r\n\r\n    event QualityTestRecorded(\r\n        uint256 indexed testId,\r\n        uint256 indexed batchId,\r\n        uint256 inspectorId,\r\n        bool passed,\r\n        bytes32 resultHash\r\n    );\r\n\r\n    event QualityTestDetailsStored(\r\n        uint256 indexed testId,\r\n        string testType,\r\n        string testMethod,\r\n        string result,\r\n        string standard\r\n    );\r\n\r\n    event TransportStatusUpdated(\r\n        uint256 indexed batchId,\r\n        DetailedTransportStatus newStatus,\r\n        uint256 participantId,\r\n        uint8 actionCode\r\n    );\r\n\r\n    event TransportDetailsStored(\r\n        uint256 indexed batchId,\r\n        uint256 participantId,\r\n        string action,\r\n        string location,\r\n        string participantType\r\n    );\r\n\r\n    event WarehouseConfirmed(\r\n        uint256 indexed batchId,\r\n        uint256 indexed warehouseId\r\n    );\r\n\r\n    // ===================================\r\n    // MODIFIERS\r\n    // ===================================\r\n    modifier onlyInStage(uint256 _batchId, SupplyChainStage _requiredStage) {\r\n        require(\r\n            _batches[_batchId].currentStage == _requiredStage,\r\n            \"Invalid stage\"\r\n        );\r\n        _;\r\n    }\r\n\r\n    modifier batchExists(uint256 _batchId) {\r\n        require(_batches[_batchId].batchId != 0, \"Batch not exists\");\r\n        _;\r\n    }\r\n\r\n    modifier batchApproved(uint256 _batchId) {\r\n        require(_batches[_batchId].status == BatchStatus.Approved, \"Not approved\");\r\n        _;\r\n    }\r\n\r\n    // ===================================\r\n    // INTERNAL HELPERS\r\n    // ===================================\r\n    function addSystemActivityLog(\r\n        uint256 _batchId,\r\n        uint256 _participantId,\r\n        string memory _activityName,\r\n        string memory _description\r\n    ) internal {\r\n        activityLogContract.addActivityLog(\r\n            _batchId,\r\n            _participantId,\r\n            _activityName,\r\n            _description,\r\n            true\r\n        );\r\n    }\r\n\r\n    // ===================================\r\n    // SSCC GENERATION\r\n    // ===================================\r\n    function generateSSCC(uint256 _producerId) private view returns (string memory) {\r\n        string memory prefix = \"00\";\r\n        string memory companyPrefix = padLeft(uint2str(_producerId), 6);\r\n        uint256 serialNumber = uint256(keccak256(abi.encodePacked(block.timestamp, _producerId))) % 1000000000;\r\n        string memory serialReference = padLeft(uint2str(serialNumber), 9);\r\n        string memory ssccWithoutCheck = string(abi.encodePacked(prefix, companyPrefix, serialReference));\r\n        uint8 checkDigit = calculateCheckDigit(ssccWithoutCheck);\r\n        return string(abi.encodePacked(ssccWithoutCheck, uint2str(uint256(checkDigit))));\r\n    }\r\n\r\n    function generateProductQR(uint256 _batchId, uint256 _productSequence) private view returns (string memory) {\r\n        return string(abi.encodePacked(\r\n            \"P-\",\r\n            _batches[_batchId].sscc,\r\n            \"-\",\r\n            padLeft(uint2str(_productSequence), 4)\r\n        ));\r\n    }\r\n\r\n    function padLeft(string memory str, uint256 length) private pure returns (string memory) {\r\n        bytes memory strBytes = bytes(str);\r\n        if (strBytes.length >= length) return str;\r\n        bytes memory result = new bytes(length);\r\n        uint256 paddingLength = length - strBytes.length;\r\n        for (uint256 i = 0; i < paddingLength; i++) {\r\n            result[i] = bytes1(\"0\");\r\n        }\r\n        for (uint256 i = 0; i < strBytes.length; i++) {\r\n            result[i + paddingLength] = strBytes[i];\r\n        }\r\n        return string(result);\r\n    }\r\n\r\n    function calculateCheckDigit(string memory _code) private pure returns (uint8) {\r\n        bytes memory codeBytes = bytes(_code);\r\n        uint256 sum = 0;\r\n        for (uint256 i = 0; i < codeBytes.length; i++) {\r\n            uint8 digit = uint8(codeBytes[i]) - 48;\r\n            sum += (i % 2 == 0) ? digit * 3 : digit;\r\n        }\r\n        return uint8((10 - (sum % 10)) % 10);\r\n    }\r\n\r\n    function uint2str(uint256 _i) internal pure returns (string memory) {\r\n        if (_i == 0) return \"0\";\r\n        uint256 j = _i;\r\n        uint256 length;\r\n        while (j != 0) {\r\n            length++;\r\n            j /= 10;\r\n        }\r\n        bytes memory bstr = new bytes(length);\r\n        uint256 k = length;\r\n        while (_i != 0) {\r\n            k = k - 1;\r\n            uint8 temp = 48 + uint8(_i - (_i / 10) * 10);\r\n            bstr[k] = bytes1(temp);\r\n            _i /= 10;\r\n        }\r\n        return string(bstr);\r\n    }\r\n\r\n    // ===================================\r\n    // BATCH CREATION - OPTIMIZED\r\n    // ===================================\r\n    \r\n    /**\r\n     * @dev Tạo batch - Tách thành 2 functions để tránh stack too deep\r\n     */\r\n    function createBatch(\r\n        string memory _name,\r\n        uint256 _producerId,\r\n        string memory _quantity,\r\n        uint256 _productTypeId,\r\n        uint256 _startDate,\r\n        uint256 _endDate\r\n    ) public returns (uint256) {\r\n        require(bytes(_name).length > 0, \"Name required\");\r\n        require(_producerId > 0, \"Invalid producer\");\r\n        require(_startDate > 0 && _endDate > 0 && _startDate < _endDate, \"Invalid dates\");\r\n\r\n        _batchIdCounter++;\r\n        uint256 newBatchId = _batchIdCounter;\r\n        string memory sscc = generateSSCC(_producerId);\r\n        uint256 productionDate = block.timestamp;\r\n        \r\n        // Calculate hash cho off-chain data\r\n        bytes32 dataHash = keccak256(abi.encodePacked(\r\n            sscc,\r\n            _producerId,\r\n            _quantity,\r\n            productionDate,\r\n            _productTypeId,\r\n            _name\r\n        ));\r\n\r\n        // Lưu on-chain (minimal)\r\n        Batch storage batch = _batches[newBatchId];\r\n        batch.batchId = newBatchId;\r\n        batch.sscc = sscc;\r\n        batch.producerId = _producerId;\r\n        batch.productionDate = productionDate;\r\n        batch.startDate = _startDate;\r\n        batch.endDate = _endDate;\r\n        batch.status = BatchStatus.PendingApproval;\r\n        batch.dataHash = dataHash;\r\n        batch.productTypeId = _productTypeId;\r\n        batch.transportStatus = TransportStatus.NotTransported;\r\n        batch.detailedTransportStatus = DetailedTransportStatus.NotStarted;\r\n        batch.currentStage = SupplyChainStage.Created;\r\n        batch.totalProducts = 0;\r\n\r\n        _ssccToBatchId[sscc] = newBatchId;\r\n\r\n        // Emit event on-chain\r\n        emit BatchCreated(newBatchId, sscc, _producerId, _productTypeId, productionDate, dataHash);\r\n        \r\n        // Emit event off-chain\r\n        emit BatchDetailsStored(newBatchId, _name, _quantity, _startDate, _endDate, \"\");\r\n\r\n        addSystemActivityLog(newBatchId, _producerId, \"Batch Created\", \"New batch created\");\r\n\r\n        emit StageUpdated(newBatchId, SupplyChainStage.Created, _producerId);\r\n\r\n        return newBatchId;\r\n    }\r\n\r\n    // ===================================\r\n    // PRODUCT CREATION - OPTIMIZED\r\n    // ===================================\r\n    \r\n    /**\r\n     * @dev Tạo sản phẩm đơn lẻ\r\n     * Emit events để backend lưu chi tiết vào MySQL\r\n     */\r\n    function createProductsInBatch(\r\n        uint256 _batchId,\r\n        uint256[] memory _sourceTreeIds,\r\n        uint256[] memory _weights,\r\n        string memory _packageType\r\n    ) public batchExists(_batchId) returns (uint256[] memory) {\r\n        require(_sourceTreeIds.length == _weights.length, \"Length mismatch\");\r\n        require(_batches[_batchId].currentStage >= SupplyChainStage.Processed, \"Must be processed\");\r\n\r\n        uint256[] memory newProductIds = new uint256[](_weights.length);\r\n\r\n        for (uint256 i = 0; i < _weights.length; i++) {\r\n            newProductIds[i] = _createSingleProduct(\r\n                _batchId,\r\n                _sourceTreeIds[i],\r\n                _weights[i],\r\n                _packageType,\r\n                i + 1\r\n            );\r\n        }\r\n\r\n        return newProductIds;\r\n    }\r\n\r\n    function _createSingleProduct(\r\n        uint256 _batchId,\r\n        uint256 _sourceTreeId,\r\n        uint256 _weight,\r\n        string memory _packageType,\r\n        uint256 _sequence\r\n    ) private returns (uint256) {\r\n        _productIdCounter++;\r\n        uint256 newProductId = _productIdCounter;\r\n        string memory productQR = generateProductQR(_batchId, _sequence);\r\n\r\n        // Lưu on-chain (minimal)\r\n        Product storage newProduct = _products[newProductId];\r\n        newProduct.productId = newProductId;\r\n        newProduct.batchId = _batchId;\r\n        newProduct.productQRCode = productQR;\r\n        newProduct.packagedDate = block.timestamp;\r\n        newProduct.weight = _weight;\r\n        newProduct.isActive = true;\r\n\r\n        _productQRCodeToId[productQR] = newProductId;\r\n        _batches[_batchId].totalProducts++;\r\n\r\n        // Emit events\r\n        emit ProductCreated(newProductId, productQR, _batchId, _weight, _packageType);\r\n        emit ProductTreeLinked(newProductId, _sourceTreeId);\r\n\r\n        // Link tree to batch\r\n        activityLogContract.linkTreeToBatch(\r\n            _sourceTreeId,\r\n            _batchId,\r\n            _batches[_batchId].producerId,\r\n            string(abi.encodePacked(\"Harvested to product \", productQR))\r\n        );\r\n\r\n        return newProductId;\r\n    }\r\n\r\n    // ===================================\r\n    // STAGE 1: APPROVE/REJECT\r\n    // ===================================\r\n    \r\n    function approveBatch(uint256 _batchId, uint256 _approverId) \r\n        public \r\n        batchExists(_batchId) \r\n    {\r\n        require(_batches[_batchId].status == BatchStatus.PendingApproval, \"Not pending\");\r\n\r\n        _batches[_batchId].status = BatchStatus.Approved;\r\n        _approvedBatches[_batchId] = true;\r\n\r\n        addSystemActivityLog(_batchId, _approverId, \"Batch Approved\", \"Approved\");\r\n\r\n        emit BatchApproved(_batchId, _batches[_batchId].producerId, _batches[_batchId].sscc);\r\n    }\r\n\r\n    function rejectBatch(uint256 _batchId, uint256 _approverId, string memory _reason) \r\n        public \r\n        batchExists(_batchId) \r\n    {\r\n        require(_batches[_batchId].status == BatchStatus.PendingApproval, \"Not pending\");\r\n\r\n        _batches[_batchId].status = BatchStatus.Rejected;\r\n\r\n        addSystemActivityLog(_batchId, _approverId, \"Batch Rejected\", _reason);\r\n\r\n        emit BatchRejected(_batchId, _batches[_batchId].producerId, _batches[_batchId].sscc, _reason);\r\n    }\r\n\r\n    // ===================================\r\n    // STAGE 2: PURCHASE - OPTIMIZED\r\n    // ===================================\r\n    \r\n    /**\r\n     * @dev Record purchase - Tách thành 2 functions\r\n     */\r\n    function recordPurchase(\r\n        uint256 _batchId,\r\n        uint256 _purchaserId,\r\n        uint256 _totalQuantity,\r\n        uint256 _pricePerUnit\r\n    ) public \r\n        batchExists(_batchId)\r\n        batchApproved(_batchId)\r\n        onlyInStage(_batchId, SupplyChainStage.Created)\r\n        returns (uint256) \r\n    {\r\n        _purchaseIdCounter++;\r\n        uint256 newPurchaseId = _purchaseIdCounter;\r\n\r\n        // Lưu on-chain (minimal)\r\n        PurchaseRecord storage purchase = _purchaseRecords[_batchId];\r\n        purchase.purchaseId = newPurchaseId;\r\n        purchase.batchId = _batchId;\r\n        purchase.purchaserId = _purchaserId;\r\n        purchase.farmerId = _batches[_batchId].producerId;\r\n        purchase.purchaseDate = block.timestamp;\r\n        purchase.totalQuantity = _totalQuantity;\r\n        purchase.pricePerUnit = _pricePerUnit;\r\n        purchase.totalPrice = _totalQuantity * _pricePerUnit;\r\n        purchase.isConfirmed = true;\r\n\r\n        _batches[_batchId].currentStage = SupplyChainStage.Purchased;\r\n        _batches[_batchId].purchaserId = _purchaserId;\r\n\r\n        // Emit events\r\n        emit PurchaseRecorded(newPurchaseId, _batchId, _purchaserId, _totalQuantity, purchase.totalPrice);\r\n\r\n        addSystemActivityLog(_batchId, _purchaserId, \"Purchase Recorded\", \"Purchased\");\r\n\r\n        emit StageUpdated(_batchId, SupplyChainStage.Purchased, _purchaserId);\r\n\r\n        return newPurchaseId;\r\n    }\r\n\r\n    /**\r\n     * @dev Add purchase details\r\n     */\r\n    function addPurchaseDetails(\r\n        uint256 _purchaseId,\r\n        string memory _qualityGrade,\r\n        string memory _notes\r\n    ) public {\r\n        emit PurchaseDetailsStored(_purchaseId, _qualityGrade, _notes);\r\n    }\r\n\r\n    // ===================================\r\n    // STAGE 3: TRANSPORT\r\n    // ===================================\r\n    \r\n    /**\r\n     * @dev Update transport status - Tách thành 2 functions\r\n     */\r\n    function updateTransportStatus(\r\n        uint256 _batchId,\r\n        uint256 _participantId,\r\n        uint8 _actionCode,\r\n        int8 _temperature,\r\n        uint8 _humidity\r\n    ) public batchExists(_batchId) batchApproved(_batchId) {\r\n        Batch storage batch = _batches[_batchId];\r\n\r\n        // Lưu on-chain (minimal)\r\n        _batchTransportEvents[_batchId].push(TransportEvent({\r\n            participantId: _participantId,\r\n            timestamp: block.timestamp,\r\n            actionCode: _actionCode,\r\n            temperature: _temperature,\r\n            humidity: _humidity\r\n        }));\r\n\r\n        // Action: 0=Start, 1=Pause, 2=Resume, 3=Complete\r\n        if (_actionCode == 0) {\r\n            batch.detailedTransportStatus = DetailedTransportStatus.InTransit;\r\n            batch.transportStatus = TransportStatus.InTransit;\r\n            batch.lastTransporterId = _participantId;\r\n        } else if (_actionCode == 1) {\r\n            batch.detailedTransportStatus = DetailedTransportStatus.Paused;\r\n        } else if (_actionCode == 2) {\r\n            batch.detailedTransportStatus = DetailedTransportStatus.InTransit;\r\n        } else if (_actionCode == 3) {\r\n            batch.detailedTransportStatus = DetailedTransportStatus.Delivered;\r\n            batch.transportStatus = TransportStatus.Delivered;\r\n\r\n            if (batch.currentStage == SupplyChainStage.Purchased) {\r\n                batch.currentStage = SupplyChainStage.Transported1;\r\n                emit StageUpdated(_batchId, SupplyChainStage.Transported1, _participantId);\r\n            } else if (batch.currentStage == SupplyChainStage.QualityInspected) {\r\n                batch.currentStage = SupplyChainStage.Transported2;\r\n                emit StageUpdated(_batchId, SupplyChainStage.Transported2, _participantId);\r\n            }\r\n        }\r\n\r\n        // Emit event\r\n        emit TransportStatusUpdated(_batchId, batch.detailedTransportStatus, _participantId, _actionCode);\r\n\r\n        addSystemActivityLog(_batchId, _participantId, \"Transport Updated\", \"Updated\");\r\n    }\r\n\r\n    /**\r\n     * @dev Add transport details\r\n     */\r\n    function addTransportDetails(\r\n        uint256 _batchId,\r\n        uint256 _participantId,\r\n        string memory _action,\r\n        string memory _location,\r\n        string memory _participantType\r\n    ) public {\r\n        emit TransportDetailsStored(_batchId, _participantId, _action, _location, _participantType);\r\n    }\r\n\r\n    // ===================================\r\n    // STAGE 4: PROCESSING\r\n    // ===================================\r\n    \r\n    /**\r\n     * @dev Record processing - Tách thành 2 functions\r\n     */\r\n    function recordProcessing(\r\n        uint256 _batchId,\r\n        uint256 _processorId,\r\n        ProcessingMethod _method,\r\n        uint256 _inputWeight,\r\n        uint256 _outputWeight\r\n    ) public \r\n        batchExists(_batchId)\r\n        returns (uint256) \r\n    {\r\n        require(\r\n            _batches[_batchId].currentStage == SupplyChainStage.Purchased || \r\n            _batches[_batchId].currentStage == SupplyChainStage.Transported1,\r\n            \"Invalid stage\"\r\n        );\r\n\r\n        _processingIdCounter++;\r\n        uint256 newProcessingId = _processingIdCounter;\r\n\r\n        // Lưu on-chain (minimal)\r\n        ProcessingRecord storage processing = _processingRecords[_batchId];\r\n        processing.processingId = newProcessingId;\r\n        processing.batchId = _batchId;\r\n        processing.processorId = _processorId;\r\n        processing.processingDate = block.timestamp;\r\n        processing.method = _method;\r\n        processing.inputWeight = _inputWeight;\r\n        processing.outputWeight = _outputWeight;\r\n\r\n        _batches[_batchId].currentStage = SupplyChainStage.Processed;\r\n        _batches[_batchId].processorId = _processorId;\r\n\r\n        // Emit events\r\n        emit ProcessingRecorded(newProcessingId, _batchId, _processorId, _method);\r\n\r\n        addSystemActivityLog(_batchId, _processorId, \"Processing Completed\", \"Completed\");\r\n\r\n        emit StageUpdated(_batchId, SupplyChainStage.Processed, _processorId);\r\n\r\n        return newProcessingId;\r\n    }\r\n\r\n    /**\r\n     * @dev Add processing details\r\n     */\r\n    function addProcessingDetails(\r\n        uint256 _processingId,\r\n        string memory _methodDescription,\r\n        string memory _notes\r\n    ) public {\r\n        emit ProcessingDetailsStored(_processingId, _methodDescription, _notes);\r\n    }\r\n\r\n    // ===================================\r\n    // STAGE 5: QUALITY INSPECTION - OPTIMIZED\r\n    // ===================================\r\n    \r\n    /**\r\n     * @dev Record quality test - Tách thành 2 functions\r\n     */\r\n    function recordQualityTest(\r\n        uint256 _batchId,\r\n        uint256 _inspectorId,\r\n        bool _passed\r\n    ) public \r\n        batchExists(_batchId)\r\n        onlyInStage(_batchId, SupplyChainStage.Processed)\r\n        returns (uint256) \r\n    {\r\n        _qualityTestIdCounter++;\r\n        uint256 newTestId = _qualityTestIdCounter;\r\n\r\n        // Lưu on-chain (minimal)\r\n        QualityTest memory test = QualityTest({\r\n            testId: newTestId,\r\n            batchId: _batchId,\r\n            inspectorId: _inspectorId,\r\n            testDate: block.timestamp,\r\n            passed: _passed,\r\n            resultHash: bytes32(0) // Sẽ update sau\r\n        });\r\n\r\n        _batchQualityTests[_batchId].push(test);\r\n\r\n        if (_passed) {\r\n            _batches[_batchId].currentStage = SupplyChainStage.QualityInspected;\r\n            _batches[_batchId].qualityInspectorId = _inspectorId;\r\n\r\n            addSystemActivityLog(_batchId, _inspectorId, \"Quality Test Passed\", \"Passed\");\r\n\r\n            emit StageUpdated(_batchId, SupplyChainStage.QualityInspected, _inspectorId);\r\n        } else {\r\n            addSystemActivityLog(_batchId, _inspectorId, \"Quality Test Failed\", \"Failed\");\r\n        }\r\n\r\n        emit QualityTestRecorded(newTestId, _batchId, _inspectorId, _passed, bytes32(0));\r\n\r\n        return newTestId;\r\n    }\r\n\r\n    /**\r\n     * @dev Add quality test details\r\n     */\r\n    function addQualityTestDetails(\r\n        uint256 _testId,\r\n        uint256 _batchId,\r\n        string memory _testType,\r\n        string memory _testMethod,\r\n        string memory _result,\r\n        string memory _standard\r\n    ) public {\r\n        // Hash chi tiết kết quả\r\n        bytes32 resultHash = keccak256(abi.encodePacked(\r\n            _testType,\r\n            _testMethod,\r\n            _result,\r\n            _standard\r\n        ));\r\n\r\n        // Update resultHash\r\n        QualityTest[] storage tests = _batchQualityTests[_batchId];\r\n        for (uint256 i = 0; i < tests.length; i++) {\r\n            if (tests[i].testId == _testId) {\r\n                tests[i].resultHash = resultHash;\r\n                break;\r\n            }\r\n        }\r\n\r\n        // Emit event\r\n        emit QualityTestDetailsStored(_testId, _testType, _testMethod, _result, _standard);\r\n    }\r\n\r\n    // ===================================\r\n    // STAGE 6: WAREHOUSE CONFIRMATION\r\n    // ===================================\r\n    \r\n    function warehouseConfirmation(uint256 _batchId, uint256 _warehouseId) \r\n        public \r\n        batchExists(_batchId) \r\n    {\r\n        require(_batches[_batchId].transportStatus == TransportStatus.Delivered, \"Not delivered\");\r\n        require(!_warehouseConfirmations[_batchId][_warehouseId], \"Already confirmed\");\r\n\r\n        _warehouseConfirmations[_batchId][_warehouseId] = true;\r\n        _batches[_batchId].currentStage = SupplyChainStage.Warehoused;\r\n\r\n        addSystemActivityLog(_batchId, _warehouseId, \"Warehouse Confirmed\", \"Received\");\r\n\r\n        emit WarehouseConfirmed(_batchId, _warehouseId);\r\n        emit StageUpdated(_batchId, SupplyChainStage.Warehoused, _warehouseId);\r\n    }\r\n\r\n    // ===================================\r\n    // GETTERS - BATCH\r\n    // ===================================\r\n    \r\n    function getBatchDetails(uint256 _batchId) public view batchExists(_batchId) returns (Batch memory) {\r\n        return _batches[_batchId];\r\n    }\r\n\r\n    function getBatchBySSCC(string memory _sscc) public view returns (Batch memory) {\r\n        uint256 batchId = _ssccToBatchId[_sscc];\r\n        require(batchId != 0, \"Batch not found\");\r\n        return _batches[batchId];\r\n    }\r\n\r\n    function getBatchIdBySSCC(string memory _sscc) public view returns (uint256) {\r\n        return _ssccToBatchId[_sscc];\r\n    }\r\n\r\n    function isBatchApproved(uint256 _batchId) public view returns (bool) {\r\n        return _approvedBatches[_batchId];\r\n    }\r\n\r\n    function getCurrentStage(uint256 _batchId) public view batchExists(_batchId) returns (SupplyChainStage) {\r\n        return _batches[_batchId].currentStage;\r\n    }\r\n\r\n    function getBatchTransportStatus(uint256 _batchId) public view batchExists(_batchId) returns (TransportStatus) {\r\n        return _batches[_batchId].transportStatus;\r\n    }\r\n\r\n    function getDetailedTransportStatus(uint256 _batchId) public view batchExists(_batchId) returns (DetailedTransportStatus) {\r\n        return _batches[_batchId].detailedTransportStatus;\r\n    }\r\n\r\n    function getTotalBatches() public view returns (uint256) {\r\n        return _batchIdCounter;\r\n    }\r\n\r\n    // ===================================\r\n    // GETTERS - PRODUCT\r\n    // ===================================\r\n    \r\n    function getProductByQR(string memory _productQR) public view returns (Product memory) {\r\n        uint256 productId = _productQRCodeToId[_productQR];\r\n        require(productId != 0, \"Product not found\");\r\n        return _products[productId];\r\n    }\r\n\r\n    function getProductDetails(uint256 _productId) public view returns (Product memory) {\r\n        require(_products[_productId].productId != 0, \"Product not exists\");\r\n        return _products[_productId];\r\n    }\r\n\r\n    function getTotalProducts() public view returns (uint256) {\r\n        return _productIdCounter;\r\n    }\r\n\r\n    function getBatchProductCount(uint256 _batchId) public view batchExists(_batchId) returns (uint256) {\r\n        return _batches[_batchId].totalProducts;\r\n    }\r\n\r\n    // ===================================\r\n    // GETTERS - PURCHASE\r\n    // ===================================\r\n    \r\n    function getPurchaseRecord(uint256 _batchId) public view batchExists(_batchId) returns (PurchaseRecord memory) {\r\n        require(_purchaseRecords[_batchId].purchaseId != 0, \"No purchase record\");\r\n        return _purchaseRecords[_batchId];\r\n    }\r\n\r\n    // ===================================\r\n    // GETTERS - PROCESSING\r\n    // ===================================\r\n    \r\n    function getProcessingRecord(uint256 _batchId) public view batchExists(_batchId) returns (ProcessingRecord memory) {\r\n        require(_processingRecords[_batchId].processingId != 0, \"No processing record\");\r\n        return _processingRecords[_batchId];\r\n    }\r\n\r\n    // ===================================\r\n    // GETTERS - QUALITY TEST\r\n    // ===================================\r\n    \r\n    function getBatchQualityTests(uint256 _batchId) public view batchExists(_batchId) returns (QualityTest[] memory) {\r\n        return _batchQualityTests[_batchId];\r\n    }\r\n\r\n    function getLatestQualityTest(uint256 _batchId) public view batchExists(_batchId) returns (QualityTest memory) {\r\n        QualityTest[] memory tests = _batchQualityTests[_batchId];\r\n        require(tests.length > 0, \"No quality tests\");\r\n        return tests[tests.length - 1];\r\n    }\r\n\r\n    // ===================================\r\n    // GETTERS - TRANSPORT\r\n    // ===================================\r\n    \r\n    function getTransportEvents(uint256 _batchId) public view batchExists(_batchId) returns (TransportEvent[] memory) {\r\n        return _batchTransportEvents[_batchId];\r\n    }\r\n\r\n    function getTransportHistoryBySSCC(string memory _sscc) public view returns (TransportEvent[] memory) {\r\n        uint256 batchId = _ssccToBatchId[_sscc];\r\n        require(batchId != 0, \"Batch not found\");\r\n        return _batchTransportEvents[batchId];\r\n    }\r\n\r\n    // ===================================\r\n    // GETTERS - WAREHOUSE\r\n    // ===================================\r\n    \r\n    function isWarehouseConfirmed(uint256 _batchId, uint256 _warehouseId) public view returns (bool) {\r\n        return _warehouseConfirmations[_batchId][_warehouseId];\r\n    }\r\n\r\n    // ===================================\r\n    // GETTERS - ACTIVITY LOGS\r\n    // ===================================\r\n    \r\n    function getActivityLogs(uint256 _batchId) public view returns (ActivityLog.ActivityLogEntry[] memory) {\r\n        return activityLogContract.getActivityLogs(_batchId);\r\n    }\r\n\r\n    function getSystemActivityLogs(uint256 _batchId) public view returns (ActivityLog.ActivityLogEntry[] memory) {\r\n        return activityLogContract.getSystemActivityLogs(_batchId);\r\n    }\r\n\r\n    // ===================================\r\n    // BATCH QUERIES\r\n    // ===================================\r\n    \r\n    function getBatchesByProducer(uint256 _producerId) public view returns (Batch[] memory) {\r\n        uint256 count = 0;\r\n        for (uint256 i = 1; i <= _batchIdCounter; i++) {\r\n            if (_batches[i].producerId == _producerId) {\r\n                count++;\r\n            }\r\n        }\r\n\r\n        Batch[] memory batches = new Batch[](count);\r\n        uint256 index = 0;\r\n        for (uint256 i = 1; i <= _batchIdCounter; i++) {\r\n            if (_batches[i].producerId == _producerId) {\r\n                batches[index] = _batches[i];\r\n                index++;\r\n            }\r\n        }\r\n        return batches;\r\n    }\r\n\r\n    function getBatchesByStage(SupplyChainStage _stage) public view returns (Batch[] memory) {\r\n        uint256 count = 0;\r\n        for (uint256 i = 1; i <= _batchIdCounter; i++) {\r\n            if (_batches[i].currentStage == _stage) {\r\n                count++;\r\n            }\r\n        }\r\n\r\n        Batch[] memory batches = new Batch[](count);\r\n        uint256 index = 0;\r\n        for (uint256 i = 1; i <= _batchIdCounter; i++) {\r\n            if (_batches[i].currentStage == _stage) {\r\n                batches[index] = _batches[i];\r\n                index++;\r\n            }\r\n        }\r\n        return batches;\r\n    }\r\n\r\n    function getAllPendingBatches() public view returns (Batch[] memory) {\r\n        uint256 count = 0;\r\n        for (uint256 i = 1; i <= _batchIdCounter; i++) {\r\n            if (_batches[i].status == BatchStatus.PendingApproval) {\r\n                count++;\r\n            }\r\n        }\r\n\r\n        Batch[] memory batches = new Batch[](count);\r\n        uint256 index = 0;\r\n        for (uint256 i = 1; i <= _batchIdCounter; i++) {\r\n            if (_batches[i].status == BatchStatus.PendingApproval) {\r\n                batches[index] = _batches[i];\r\n                index++;\r\n            }\r\n        }\r\n        return batches;\r\n    }\r\n\r\n    function getApprovedBatchesByProducer(uint256 _producerId) public view returns (Batch[] memory) {\r\n        uint256 count = 0;\r\n        for (uint256 i = 1; i <= _batchIdCounter; i++) {\r\n            if (_batches[i].producerId == _producerId && _batches[i].status == BatchStatus.Approved) {\r\n                count++;\r\n            }\r\n        }\r\n\r\n        Batch[] memory batches = new Batch[](count);\r\n        uint256 index = 0;\r\n        for (uint256 i = 1; i <= _batchIdCounter; i++) {\r\n            if (_batches[i].producerId == _producerId && _batches[i].status == BatchStatus.Approved) {\r\n                batches[index] = _batches[i];\r\n                index++;\r\n            }\r\n        }\r\n        return batches;\r\n    }\r\n\r\n    // ===================================\r\n    // UTILITY FUNCTIONS\r\n    // ===================================\r\n    \r\n    function ssccExists(string memory _sscc) public view returns (bool) {\r\n        return _ssccToBatchId[_sscc] != 0;\r\n    }\r\n\r\n    function productQRExists(string memory _productQR) public view returns (bool) {\r\n        return _productQRCodeToId[_productQR] != 0;\r\n    }\r\n\r\n    function isProducerOfBatch(uint256 _batchId, uint256 _producerId) public view returns (bool) {\r\n        return _batches[_batchId].producerId == _producerId;\r\n    }\r\n\r\n    /**\r\n     * @dev Verify off-chain data hash\r\n     * Frontend/Backend có thể verify data integrity\r\n     */\r\n    function verifyBatchDataHash(\r\n        uint256 _batchId,\r\n        string memory _sscc,\r\n        uint256 _producerId,\r\n        string memory _quantity,\r\n        uint256 _productionDate,\r\n        string memory _farmPlotNumber,\r\n        uint256 _productTypeId,\r\n        string memory _name\r\n    ) public view returns (bool) {\r\n        bytes32 calculatedHash = keccak256(abi.encodePacked(\r\n            _sscc,\r\n            _producerId,\r\n            _quantity,\r\n            _productionDate,\r\n            _farmPlotNumber,\r\n            _productTypeId,\r\n            _name\r\n        ));\r\n        \r\n        return _batches[_batchId].dataHash == calculatedHash;\r\n    }\r\n}",
  "sourcePath": "D:\\LVTN\\nckh-be\\blockchain\\contracts\\supplychain.sol",
  "compiler": {
    "name": "solc",
    "version": "0.8.20+commit.a1b79de6.Emscripten.clang"
  },
  "schemaVersion": "3.4.16",
  "updatedAt": "2025-12-24T04:52:20.228Z",
  "networkType": "ethereum",
  "devdoc": {
    "kind": "dev",
    "methods": {
      "addProcessingDetails(uint256,string,string)": {
        "details": "Add processing details"
      },
      "addPurchaseDetails(uint256,string,string)": {
        "details": "Add purchase details"
      },
      "addQualityTestDetails(uint256,uint256,string,string,string,string)": {
        "details": "Add quality test details"
      },
      "addTransportDetails(uint256,uint256,string,string,string)": {
        "details": "Add transport details"
      },
      "createBatch(string,uint256,string,uint256,uint256,uint256)": {
        "details": "Tạo batch - Tách thành 2 functions để tránh stack too deep"
      },
      "createProductsInBatch(uint256,uint256[],uint256[],string)": {
        "details": "Tạo sản phẩm đơn lẻ Emit events để backend lưu chi tiết vào MySQL"
      },
      "recordProcessing(uint256,uint256,uint8,uint256,uint256)": {
        "details": "Record processing - Tách thành 2 functions"
      },
      "recordPurchase(uint256,uint256,uint256,uint256)": {
        "details": "Record purchase - Tách thành 2 functions"
      },
      "recordQualityTest(uint256,uint256,bool)": {
        "details": "Record quality test - Tách thành 2 functions"
      },
      "updateTransportStatus(uint256,uint256,uint8,int8,uint8)": {
        "details": "Update transport status - Tách thành 2 functions"
      },
      "verifyBatchDataHash(uint256,string,uint256,string,uint256,string,uint256,string)": {
        "details": "Verify off-chain data hash Frontend/Backend có thể verify data integrity"
      }
    },
    "version": 1
  },
  "userdoc": {
    "kind": "user",
    "methods": {},
    "notice": "Hợp đồng tối ưu: Chỉ lưu dữ liệu quan trọng trên blockchain Chi tiết mở rộng (ảnh, mô tả dài) được lưu off-chain (MySQL)",
    "version": 1
  }
}